{
	"contracts/StudentRegistry.sol": {
		"StudentRegistry": {
			"abi": [
				{
					"inputs": [
						{
							"internalType": "address",
							"name": "user",
							"type": "address"
						}
					],
					"name": "getStudent",
					"outputs": [
						{
							"internalType": "string",
							"name": "",
							"type": "string"
						},
						{
							"internalType": "uint256",
							"name": "",
							"type": "uint256"
						},
						{
							"internalType": "bool",
							"name": "",
							"type": "bool"
						}
					],
					"stateMutability": "view",
					"type": "function"
				},
				{
					"inputs": [
						{
							"internalType": "address",
							"name": "user",
							"type": "address"
						}
					],
					"name": "isStudentRegistered",
					"outputs": [
						{
							"internalType": "bool",
							"name": "",
							"type": "bool"
						}
					],
					"stateMutability": "view",
					"type": "function"
				},
				{
					"inputs": [
						{
							"internalType": "string",
							"name": "name",
							"type": "string"
						},
						{
							"internalType": "uint256",
							"name": "age",
							"type": "uint256"
						}
					],
					"name": "register",
					"outputs": [],
					"stateMutability": "nonpayable",
					"type": "function"
				}
			],
			"devdoc": {
				"kind": "dev",
				"methods": {},
				"version": 1
			},
			"evm": {
				"assembly": "    /* \"contracts/StudentRegistry.sol\":74:742  contract StudentRegistry {... */\n  mstore(0x40, 0x80)\n  callvalue\n  dup1\n  iszero\n  tag_1\n  jumpi\n  revert(0x00, 0x00)\ntag_1:\n  pop\n  dataSize(sub_0)\n  dup1\n  dataOffset(sub_0)\n  0x00\n  codecopy\n  0x00\n  return\nstop\n\nsub_0: assembly {\n        /* \"contracts/StudentRegistry.sol\":74:742  contract StudentRegistry {... */\n      mstore(0x40, 0x80)\n      callvalue\n      dup1\n      iszero\n      tag_1\n      jumpi\n      revert(0x00, 0x00)\n    tag_1:\n      pop\n      jumpi(tag_2, lt(calldatasize, 0x04))\n      shr(0xe0, calldataload(0x00))\n      dup1\n      0x6b7b44d7\n      eq\n      tag_3\n      jumpi\n      dup1\n      0xb8b2e42c\n      eq\n      tag_4\n      jumpi\n      dup1\n      0xea87152b\n      eq\n      tag_5\n      jumpi\n    tag_2:\n      revert(0x00, 0x00)\n        /* \"contracts/StudentRegistry.sol\":263:473  function getStudent (address user) external view returns (string memory ,uint, bool) {... */\n    tag_3:\n      tag_6\n      0x04\n      dup1\n      calldatasize\n      sub\n      dup2\n      add\n      swap1\n      tag_7\n      swap2\n      swap1\n      tag_8\n      jump\t// in\n    tag_7:\n      tag_9\n      jump\t// in\n    tag_6:\n      mload(0x40)\n      tag_10\n      swap4\n      swap3\n      swap2\n      swap1\n      tag_11\n      jump\t// in\n    tag_10:\n      mload(0x40)\n      dup1\n      swap2\n      sub\n      swap1\n      return\n        /* \"contracts/StudentRegistry.sol\":614:739  function isStudentRegistered(address user) external view returns (bool) {... */\n    tag_4:\n      tag_12\n      0x04\n      dup1\n      calldatasize\n      sub\n      dup2\n      add\n      swap1\n      tag_13\n      swap2\n      swap1\n      tag_8\n      jump\t// in\n    tag_13:\n      tag_14\n      jump\t// in\n    tag_12:\n      mload(0x40)\n      tag_15\n      swap2\n      swap1\n      tag_16\n      jump\t// in\n    tag_15:\n      mload(0x40)\n      dup1\n      swap2\n      sub\n      swap1\n      return\n        /* \"contracts/StudentRegistry.sol\":481:606  function register(string calldata name, uint age) external {... */\n    tag_5:\n      tag_17\n      0x04\n      dup1\n      calldatasize\n      sub\n      dup2\n      add\n      swap1\n      tag_18\n      swap2\n      swap1\n      tag_19\n      jump\t// in\n    tag_18:\n      tag_20\n      jump\t// in\n    tag_17:\n      stop\n        /* \"contracts/StudentRegistry.sol\":263:473  function getStudent (address user) external view returns (string memory ,uint, bool) {... */\n    tag_9:\n        /* \"contracts/StudentRegistry.sol\":321:334  string memory */\n      0x60\n        /* \"contracts/StudentRegistry.sol\":336:340  uint */\n      0x00\n        /* \"contracts/StudentRegistry.sol\":342:346  bool */\n      0x00\n        /* \"contracts/StudentRegistry.sol\":359:381  Student memory student */\n      0x00\n        /* \"contracts/StudentRegistry.sol\":384:392  students */\n      0x00\n        /* \"contracts/StudentRegistry.sol\":384:398  students[user] */\n      0x00\n        /* \"contracts/StudentRegistry.sol\":393:397  user */\n      dup7\n        /* \"contracts/StudentRegistry.sol\":384:398  students[user] */\n      0xffffffffffffffffffffffffffffffffffffffff\n      and\n      0xffffffffffffffffffffffffffffffffffffffff\n      and\n      dup2\n      mstore\n      0x20\n      add\n      swap1\n      dup2\n      mstore\n      0x20\n      add\n      0x00\n      keccak256\n        /* \"contracts/StudentRegistry.sol\":359:398  Student memory student = students[user] */\n      mload(0x40)\n      dup1\n      0x60\n      add\n      0x40\n      mstore\n      swap1\n      dup2\n      0x00\n      dup3\n      add\n      dup1\n      sload\n      tag_22\n      swap1\n      tag_23\n      jump\t// in\n    tag_22:\n      dup1\n      0x1f\n      add\n      0x20\n      dup1\n      swap2\n      div\n      mul\n      0x20\n      add\n      mload(0x40)\n      swap1\n      dup2\n      add\n      0x40\n      mstore\n      dup1\n      swap3\n      swap2\n      swap1\n      dup2\n      dup2\n      mstore\n      0x20\n      add\n      dup3\n      dup1\n      sload\n      tag_24\n      swap1\n      tag_23\n      jump\t// in\n    tag_24:\n      dup1\n      iszero\n      tag_25\n      jumpi\n      dup1\n      0x1f\n      lt\n      tag_26\n      jumpi\n      0x0100\n      dup1\n      dup4\n      sload\n      div\n      mul\n      dup4\n      mstore\n      swap2\n      0x20\n      add\n      swap2\n      jump(tag_25)\n    tag_26:\n      dup3\n      add\n      swap2\n      swap1\n      0x00\n      mstore\n      keccak256(0x00, 0x20)\n      swap1\n    tag_27:\n      dup2\n      sload\n      dup2\n      mstore\n      swap1\n      0x01\n      add\n      swap1\n      0x20\n      add\n      dup1\n      dup4\n      gt\n      tag_27\n      jumpi\n      dup3\n      swap1\n      sub\n      0x1f\n      and\n      dup3\n      add\n      swap2\n    tag_25:\n      pop\n      pop\n      pop\n      pop\n      pop\n      dup2\n      mstore\n      0x20\n      add\n      0x01\n      dup3\n      add\n      sload\n      dup2\n      mstore\n      0x20\n      add\n      0x02\n      dup3\n      add\n      0x00\n      swap1\n      sload\n      swap1\n      0x0100\n      exp\n      swap1\n      div\n      0xff\n      and\n      iszero\n      iszero\n      iszero\n      iszero\n      dup2\n      mstore\n      pop\n      pop\n      swap1\n      pop\n        /* \"contracts/StudentRegistry.sol\":417:424  student */\n      dup1\n        /* \"contracts/StudentRegistry.sol\":417:429  student.name */\n      0x00\n      add\n      mload\n        /* \"contracts/StudentRegistry.sol\":431:438  student */\n      dup2\n        /* \"contracts/StudentRegistry.sol\":431:442  student.age */\n      0x20\n      add\n      mload\n        /* \"contracts/StudentRegistry.sol\":444:451  student */\n      dup3\n        /* \"contracts/StudentRegistry.sol\":444:464  student.isRegistered */\n      0x40\n      add\n      mload\n        /* \"contracts/StudentRegistry.sol\":409:465  return (student.name, student.age, student.isRegistered) */\n      swap4\n      pop\n      swap4\n      pop\n      swap4\n      pop\n      pop\n        /* \"contracts/StudentRegistry.sol\":263:473  function getStudent (address user) external view returns (string memory ,uint, bool) {... */\n      swap2\n      swap4\n      swap1\n      swap3\n      pop\n      jump\t// out\n        /* \"contracts/StudentRegistry.sol\":614:739  function isStudentRegistered(address user) external view returns (bool) {... */\n    tag_14:\n        /* \"contracts/StudentRegistry.sol\":680:684  bool */\n      0x00\n        /* \"contracts/StudentRegistry.sol\":704:712  students */\n      0x00\n        /* \"contracts/StudentRegistry.sol\":704:718  students[user] */\n      0x00\n        /* \"contracts/StudentRegistry.sol\":713:717  user */\n      dup4\n        /* \"contracts/StudentRegistry.sol\":704:718  students[user] */\n      0xffffffffffffffffffffffffffffffffffffffff\n      and\n      0xffffffffffffffffffffffffffffffffffffffff\n      and\n      dup2\n      mstore\n      0x20\n      add\n      swap1\n      dup2\n      mstore\n      0x20\n      add\n      0x00\n      keccak256\n        /* \"contracts/StudentRegistry.sol\":704:731  students[user].isRegistered */\n      0x02\n      add\n      0x00\n      swap1\n      sload\n      swap1\n      0x0100\n      exp\n      swap1\n      div\n      0xff\n      and\n        /* \"contracts/StudentRegistry.sol\":697:731  return students[user].isRegistered */\n      swap1\n      pop\n        /* \"contracts/StudentRegistry.sol\":614:739  function isStudentRegistered(address user) external view returns (bool) {... */\n      swap2\n      swap1\n      pop\n      jump\t// out\n        /* \"contracts/StudentRegistry.sol\":481:606  function register(string calldata name, uint age) external {... */\n    tag_20:\n        /* \"contracts/StudentRegistry.sol\":574:598  Student(name, age, true) */\n      mload(0x40)\n      dup1\n      0x60\n      add\n      0x40\n      mstore\n      dup1\n        /* \"contracts/StudentRegistry.sol\":582:586  name */\n      dup5\n      dup5\n        /* \"contracts/StudentRegistry.sol\":574:598  Student(name, age, true) */\n      dup1\n      dup1\n      0x1f\n      add\n      0x20\n      dup1\n      swap2\n      div\n      mul\n      0x20\n      add\n      mload(0x40)\n      swap1\n      dup2\n      add\n      0x40\n      mstore\n      dup1\n      swap4\n      swap3\n      swap2\n      swap1\n      dup2\n      dup2\n      mstore\n      0x20\n      add\n      dup4\n      dup4\n      dup1\n      dup3\n      dup5\n      calldatacopy\n      0x00\n      dup2\n      dup5\n      add\n      mstore\n      not(0x1f)\n      0x1f\n      dup3\n      add\n      and\n      swap1\n      pop\n      dup1\n      dup4\n      add\n      swap3\n      pop\n      pop\n      pop\n      pop\n      pop\n      pop\n      pop\n      dup2\n      mstore\n      0x20\n      add\n        /* \"contracts/StudentRegistry.sol\":588:591  age */\n      dup3\n        /* \"contracts/StudentRegistry.sol\":574:598  Student(name, age, true) */\n      dup2\n      mstore\n      0x20\n      add\n        /* \"contracts/StudentRegistry.sol\":593:597  true */\n      0x01\n        /* \"contracts/StudentRegistry.sol\":574:598  Student(name, age, true) */\n      iszero\n      iszero\n      dup2\n      mstore\n      pop\n        /* \"contracts/StudentRegistry.sol\":551:559  students */\n      0x00\n        /* \"contracts/StudentRegistry.sol\":551:571  students[msg.sender] */\n      0x00\n        /* \"contracts/StudentRegistry.sol\":560:570  msg.sender */\n      caller\n        /* \"contracts/StudentRegistry.sol\":551:571  students[msg.sender] */\n      0xffffffffffffffffffffffffffffffffffffffff\n      and\n      0xffffffffffffffffffffffffffffffffffffffff\n      and\n      dup2\n      mstore\n      0x20\n      add\n      swap1\n      dup2\n      mstore\n      0x20\n      add\n      0x00\n      keccak256\n        /* \"contracts/StudentRegistry.sol\":551:598  students[msg.sender] = Student(name, age, true) */\n      0x00\n      dup3\n      add\n      mload\n      dup2\n      0x00\n      add\n      swap1\n      dup2\n      tag_30\n      swap2\n      swap1\n      tag_31\n      jump\t// in\n    tag_30:\n      pop\n      0x20\n      dup3\n      add\n      mload\n      dup2\n      0x01\n      add\n      sstore\n      0x40\n      dup3\n      add\n      mload\n      dup2\n      0x02\n      add\n      exp(0x0100, 0x00)\n      dup2\n      sload\n      dup2\n      0xff\n      mul\n      not\n      and\n      swap1\n      dup4\n      iszero\n      iszero\n      mul\n      or\n      swap1\n      sstore\n      pop\n      swap1\n      pop\n      pop\n        /* \"contracts/StudentRegistry.sol\":481:606  function register(string calldata name, uint age) external {... */\n      pop\n      pop\n      pop\n      jump\t// out\n        /* \"#utility.yul\":88:205   */\n    tag_33:\n        /* \"#utility.yul\":197:198   */\n      0x00\n        /* \"#utility.yul\":194:195   */\n      0x00\n        /* \"#utility.yul\":187:199   */\n      revert\n        /* \"#utility.yul\":211:328   */\n    tag_34:\n        /* \"#utility.yul\":320:321   */\n      0x00\n        /* \"#utility.yul\":317:318   */\n      0x00\n        /* \"#utility.yul\":310:322   */\n      revert\n        /* \"#utility.yul\":334:460   */\n    tag_35:\n        /* \"#utility.yul\":371:378   */\n      0x00\n        /* \"#utility.yul\":411:453   */\n      0xffffffffffffffffffffffffffffffffffffffff\n        /* \"#utility.yul\":404:409   */\n      dup3\n        /* \"#utility.yul\":400:454   */\n      and\n        /* \"#utility.yul\":389:454   */\n      swap1\n      pop\n        /* \"#utility.yul\":334:460   */\n      swap2\n      swap1\n      pop\n      jump\t// out\n        /* \"#utility.yul\":466:562   */\n    tag_36:\n        /* \"#utility.yul\":503:510   */\n      0x00\n        /* \"#utility.yul\":532:556   */\n      tag_77\n        /* \"#utility.yul\":550:555   */\n      dup3\n        /* \"#utility.yul\":532:556   */\n      tag_35\n      jump\t// in\n    tag_77:\n        /* \"#utility.yul\":521:556   */\n      swap1\n      pop\n        /* \"#utility.yul\":466:562   */\n      swap2\n      swap1\n      pop\n      jump\t// out\n        /* \"#utility.yul\":568:690   */\n    tag_37:\n        /* \"#utility.yul\":641:665   */\n      tag_79\n        /* \"#utility.yul\":659:664   */\n      dup2\n        /* \"#utility.yul\":641:665   */\n      tag_36\n      jump\t// in\n    tag_79:\n        /* \"#utility.yul\":634:639   */\n      dup2\n        /* \"#utility.yul\":631:666   */\n      eq\n        /* \"#utility.yul\":621:684   */\n      tag_80\n      jumpi\n        /* \"#utility.yul\":680:681   */\n      0x00\n        /* \"#utility.yul\":677:678   */\n      0x00\n        /* \"#utility.yul\":670:682   */\n      revert\n        /* \"#utility.yul\":621:684   */\n    tag_80:\n        /* \"#utility.yul\":568:690   */\n      pop\n      jump\t// out\n        /* \"#utility.yul\":696:835   */\n    tag_38:\n        /* \"#utility.yul\":742:747   */\n      0x00\n        /* \"#utility.yul\":780:786   */\n      dup2\n        /* \"#utility.yul\":767:787   */\n      calldataload\n        /* \"#utility.yul\":758:787   */\n      swap1\n      pop\n        /* \"#utility.yul\":796:829   */\n      tag_82\n        /* \"#utility.yul\":823:828   */\n      dup2\n        /* \"#utility.yul\":796:829   */\n      tag_37\n      jump\t// in\n    tag_82:\n        /* \"#utility.yul\":696:835   */\n      swap3\n      swap2\n      pop\n      pop\n      jump\t// out\n        /* \"#utility.yul\":841:1170   */\n    tag_8:\n        /* \"#utility.yul\":900:906   */\n      0x00\n        /* \"#utility.yul\":949:951   */\n      0x20\n        /* \"#utility.yul\":937:946   */\n      dup3\n        /* \"#utility.yul\":928:935   */\n      dup5\n        /* \"#utility.yul\":924:947   */\n      sub\n        /* \"#utility.yul\":920:952   */\n      slt\n        /* \"#utility.yul\":917:1036   */\n      iszero\n      tag_84\n      jumpi\n        /* \"#utility.yul\":955:1034   */\n      tag_85\n      tag_33\n      jump\t// in\n    tag_85:\n        /* \"#utility.yul\":917:1036   */\n    tag_84:\n        /* \"#utility.yul\":1075:1076   */\n      0x00\n        /* \"#utility.yul\":1100:1153   */\n      tag_86\n        /* \"#utility.yul\":1145:1152   */\n      dup5\n        /* \"#utility.yul\":1136:1142   */\n      dup3\n        /* \"#utility.yul\":1125:1134   */\n      dup6\n        /* \"#utility.yul\":1121:1143   */\n      add\n        /* \"#utility.yul\":1100:1153   */\n      tag_38\n      jump\t// in\n    tag_86:\n        /* \"#utility.yul\":1090:1153   */\n      swap2\n      pop\n        /* \"#utility.yul\":1046:1163   */\n      pop\n        /* \"#utility.yul\":841:1170   */\n      swap3\n      swap2\n      pop\n      pop\n      jump\t// out\n        /* \"#utility.yul\":1176:1275   */\n    tag_39:\n        /* \"#utility.yul\":1228:1234   */\n      0x00\n        /* \"#utility.yul\":1262:1267   */\n      dup2\n        /* \"#utility.yul\":1256:1268   */\n      mload\n        /* \"#utility.yul\":1246:1268   */\n      swap1\n      pop\n        /* \"#utility.yul\":1176:1275   */\n      swap2\n      swap1\n      pop\n      jump\t// out\n        /* \"#utility.yul\":1281:1450   */\n    tag_40:\n        /* \"#utility.yul\":1365:1376   */\n      0x00\n        /* \"#utility.yul\":1399:1405   */\n      dup3\n        /* \"#utility.yul\":1394:1397   */\n      dup3\n        /* \"#utility.yul\":1387:1406   */\n      mstore\n        /* \"#utility.yul\":1439:1443   */\n      0x20\n        /* \"#utility.yul\":1434:1437   */\n      dup3\n        /* \"#utility.yul\":1430:1444   */\n      add\n        /* \"#utility.yul\":1415:1444   */\n      swap1\n      pop\n        /* \"#utility.yul\":1281:1450   */\n      swap3\n      swap2\n      pop\n      pop\n      jump\t// out\n        /* \"#utility.yul\":1456:1595   */\n    tag_41:\n        /* \"#utility.yul\":1545:1551   */\n      dup3\n        /* \"#utility.yul\":1540:1543   */\n      dup2\n        /* \"#utility.yul\":1535:1538   */\n      dup4\n        /* \"#utility.yul\":1529:1552   */\n      mcopy\n        /* \"#utility.yul\":1586:1587   */\n      0x00\n        /* \"#utility.yul\":1577:1583   */\n      dup4\n        /* \"#utility.yul\":1572:1575   */\n      dup4\n        /* \"#utility.yul\":1568:1584   */\n      add\n        /* \"#utility.yul\":1561:1588   */\n      mstore\n        /* \"#utility.yul\":1456:1595   */\n      pop\n      pop\n      pop\n      jump\t// out\n        /* \"#utility.yul\":1601:1703   */\n    tag_42:\n        /* \"#utility.yul\":1642:1648   */\n      0x00\n        /* \"#utility.yul\":1693:1695   */\n      0x1f\n        /* \"#utility.yul\":1689:1696   */\n      not\n        /* \"#utility.yul\":1684:1686   */\n      0x1f\n        /* \"#utility.yul\":1677:1682   */\n      dup4\n        /* \"#utility.yul\":1673:1687   */\n      add\n        /* \"#utility.yul\":1669:1697   */\n      and\n        /* \"#utility.yul\":1659:1697   */\n      swap1\n      pop\n        /* \"#utility.yul\":1601:1703   */\n      swap2\n      swap1\n      pop\n      jump\t// out\n        /* \"#utility.yul\":1709:2086   */\n    tag_43:\n        /* \"#utility.yul\":1797:1800   */\n      0x00\n        /* \"#utility.yul\":1825:1864   */\n      tag_92\n        /* \"#utility.yul\":1858:1863   */\n      dup3\n        /* \"#utility.yul\":1825:1864   */\n      tag_39\n      jump\t// in\n    tag_92:\n        /* \"#utility.yul\":1880:1951   */\n      tag_93\n        /* \"#utility.yul\":1944:1950   */\n      dup2\n        /* \"#utility.yul\":1939:1942   */\n      dup6\n        /* \"#utility.yul\":1880:1951   */\n      tag_40\n      jump\t// in\n    tag_93:\n        /* \"#utility.yul\":1873:1951   */\n      swap4\n      pop\n        /* \"#utility.yul\":1960:2025   */\n      tag_94\n        /* \"#utility.yul\":2018:2024   */\n      dup2\n        /* \"#utility.yul\":2013:2016   */\n      dup6\n        /* \"#utility.yul\":2006:2010   */\n      0x20\n        /* \"#utility.yul\":1999:2004   */\n      dup7\n        /* \"#utility.yul\":1995:2011   */\n      add\n        /* \"#utility.yul\":1960:2025   */\n      tag_41\n      jump\t// in\n    tag_94:\n        /* \"#utility.yul\":2050:2079   */\n      tag_95\n        /* \"#utility.yul\":2072:2078   */\n      dup2\n        /* \"#utility.yul\":2050:2079   */\n      tag_42\n      jump\t// in\n    tag_95:\n        /* \"#utility.yul\":2045:2048   */\n      dup5\n        /* \"#utility.yul\":2041:2080   */\n      add\n        /* \"#utility.yul\":2034:2080   */\n      swap2\n      pop\n        /* \"#utility.yul\":1801:2086   */\n      pop\n        /* \"#utility.yul\":1709:2086   */\n      swap3\n      swap2\n      pop\n      pop\n      jump\t// out\n        /* \"#utility.yul\":2092:2169   */\n    tag_44:\n        /* \"#utility.yul\":2129:2136   */\n      0x00\n        /* \"#utility.yul\":2158:2163   */\n      dup2\n        /* \"#utility.yul\":2147:2163   */\n      swap1\n      pop\n        /* \"#utility.yul\":2092:2169   */\n      swap2\n      swap1\n      pop\n      jump\t// out\n        /* \"#utility.yul\":2175:2293   */\n    tag_45:\n        /* \"#utility.yul\":2262:2286   */\n      tag_98\n        /* \"#utility.yul\":2280:2285   */\n      dup2\n        /* \"#utility.yul\":2262:2286   */\n      tag_44\n      jump\t// in\n    tag_98:\n        /* \"#utility.yul\":2257:2260   */\n      dup3\n        /* \"#utility.yul\":2250:2287   */\n      mstore\n        /* \"#utility.yul\":2175:2293   */\n      pop\n      pop\n      jump\t// out\n        /* \"#utility.yul\":2299:2389   */\n    tag_46:\n        /* \"#utility.yul\":2333:2340   */\n      0x00\n        /* \"#utility.yul\":2376:2381   */\n      dup2\n        /* \"#utility.yul\":2369:2382   */\n      iszero\n        /* \"#utility.yul\":2362:2383   */\n      iszero\n        /* \"#utility.yul\":2351:2383   */\n      swap1\n      pop\n        /* \"#utility.yul\":2299:2389   */\n      swap2\n      swap1\n      pop\n      jump\t// out\n        /* \"#utility.yul\":2395:2504   */\n    tag_47:\n        /* \"#utility.yul\":2476:2497   */\n      tag_101\n        /* \"#utility.yul\":2491:2496   */\n      dup2\n        /* \"#utility.yul\":2476:2497   */\n      tag_46\n      jump\t// in\n    tag_101:\n        /* \"#utility.yul\":2471:2474   */\n      dup3\n        /* \"#utility.yul\":2464:2498   */\n      mstore\n        /* \"#utility.yul\":2395:2504   */\n      pop\n      pop\n      jump\t// out\n        /* \"#utility.yul\":2510:3031   */\n    tag_11:\n        /* \"#utility.yul\":2673:2677   */\n      0x00\n        /* \"#utility.yul\":2711:2713   */\n      0x60\n        /* \"#utility.yul\":2700:2709   */\n      dup3\n        /* \"#utility.yul\":2696:2714   */\n      add\n        /* \"#utility.yul\":2688:2714   */\n      swap1\n      pop\n        /* \"#utility.yul\":2760:2769   */\n      dup2\n        /* \"#utility.yul\":2754:2758   */\n      dup2\n        /* \"#utility.yul\":2750:2770   */\n      sub\n        /* \"#utility.yul\":2746:2747   */\n      0x00\n        /* \"#utility.yul\":2735:2744   */\n      dup4\n        /* \"#utility.yul\":2731:2748   */\n      add\n        /* \"#utility.yul\":2724:2771   */\n      mstore\n        /* \"#utility.yul\":2788:2866   */\n      tag_103\n        /* \"#utility.yul\":2861:2865   */\n      dup2\n        /* \"#utility.yul\":2852:2858   */\n      dup7\n        /* \"#utility.yul\":2788:2866   */\n      tag_43\n      jump\t// in\n    tag_103:\n        /* \"#utility.yul\":2780:2866   */\n      swap1\n      pop\n        /* \"#utility.yul\":2876:2948   */\n      tag_104\n        /* \"#utility.yul\":2944:2946   */\n      0x20\n        /* \"#utility.yul\":2933:2942   */\n      dup4\n        /* \"#utility.yul\":2929:2947   */\n      add\n        /* \"#utility.yul\":2920:2926   */\n      dup6\n        /* \"#utility.yul\":2876:2948   */\n      tag_45\n      jump\t// in\n    tag_104:\n        /* \"#utility.yul\":2958:3024   */\n      tag_105\n        /* \"#utility.yul\":3020:3022   */\n      0x40\n        /* \"#utility.yul\":3009:3018   */\n      dup4\n        /* \"#utility.yul\":3005:3023   */\n      add\n        /* \"#utility.yul\":2996:3002   */\n      dup5\n        /* \"#utility.yul\":2958:3024   */\n      tag_47\n      jump\t// in\n    tag_105:\n        /* \"#utility.yul\":2510:3031   */\n      swap5\n      swap4\n      pop\n      pop\n      pop\n      pop\n      jump\t// out\n        /* \"#utility.yul\":3037:3247   */\n    tag_16:\n        /* \"#utility.yul\":3124:3128   */\n      0x00\n        /* \"#utility.yul\":3162:3164   */\n      0x20\n        /* \"#utility.yul\":3151:3160   */\n      dup3\n        /* \"#utility.yul\":3147:3165   */\n      add\n        /* \"#utility.yul\":3139:3165   */\n      swap1\n      pop\n        /* \"#utility.yul\":3175:3240   */\n      tag_107\n        /* \"#utility.yul\":3237:3238   */\n      0x00\n        /* \"#utility.yul\":3226:3235   */\n      dup4\n        /* \"#utility.yul\":3222:3239   */\n      add\n        /* \"#utility.yul\":3213:3219   */\n      dup5\n        /* \"#utility.yul\":3175:3240   */\n      tag_47\n      jump\t// in\n    tag_107:\n        /* \"#utility.yul\":3037:3247   */\n      swap3\n      swap2\n      pop\n      pop\n      jump\t// out\n        /* \"#utility.yul\":3253:3370   */\n    tag_48:\n        /* \"#utility.yul\":3362:3363   */\n      0x00\n        /* \"#utility.yul\":3359:3360   */\n      0x00\n        /* \"#utility.yul\":3352:3364   */\n      revert\n        /* \"#utility.yul\":3376:3493   */\n    tag_49:\n        /* \"#utility.yul\":3485:3486   */\n      0x00\n        /* \"#utility.yul\":3482:3483   */\n      0x00\n        /* \"#utility.yul\":3475:3487   */\n      revert\n        /* \"#utility.yul\":3499:3616   */\n    tag_50:\n        /* \"#utility.yul\":3608:3609   */\n      0x00\n        /* \"#utility.yul\":3605:3606   */\n      0x00\n        /* \"#utility.yul\":3598:3610   */\n      revert\n        /* \"#utility.yul\":3636:4189   */\n    tag_51:\n        /* \"#utility.yul\":3694:3702   */\n      0x00\n        /* \"#utility.yul\":3704:3710   */\n      0x00\n        /* \"#utility.yul\":3754:3757   */\n      dup4\n        /* \"#utility.yul\":3747:3751   */\n      0x1f\n        /* \"#utility.yul\":3739:3745   */\n      dup5\n        /* \"#utility.yul\":3735:3752   */\n      add\n        /* \"#utility.yul\":3731:3758   */\n      slt\n        /* \"#utility.yul\":3721:3843   */\n      tag_112\n      jumpi\n        /* \"#utility.yul\":3762:3841   */\n      tag_113\n      tag_48\n      jump\t// in\n    tag_113:\n        /* \"#utility.yul\":3721:3843   */\n    tag_112:\n        /* \"#utility.yul\":3875:3881   */\n      dup3\n        /* \"#utility.yul\":3862:3882   */\n      calldataload\n        /* \"#utility.yul\":3852:3882   */\n      swap1\n      pop\n        /* \"#utility.yul\":3905:3923   */\n      0xffffffffffffffff\n        /* \"#utility.yul\":3897:3903   */\n      dup2\n        /* \"#utility.yul\":3894:3924   */\n      gt\n        /* \"#utility.yul\":3891:4008   */\n      iszero\n      tag_114\n      jumpi\n        /* \"#utility.yul\":3927:4006   */\n      tag_115\n      tag_49\n      jump\t// in\n    tag_115:\n        /* \"#utility.yul\":3891:4008   */\n    tag_114:\n        /* \"#utility.yul\":4041:4045   */\n      0x20\n        /* \"#utility.yul\":4033:4039   */\n      dup4\n        /* \"#utility.yul\":4029:4046   */\n      add\n        /* \"#utility.yul\":4017:4046   */\n      swap2\n      pop\n        /* \"#utility.yul\":4095:4098   */\n      dup4\n        /* \"#utility.yul\":4087:4091   */\n      0x01\n        /* \"#utility.yul\":4079:4085   */\n      dup3\n        /* \"#utility.yul\":4075:4092   */\n      mul\n        /* \"#utility.yul\":4065:4073   */\n      dup4\n        /* \"#utility.yul\":4061:4093   */\n      add\n        /* \"#utility.yul\":4058:4099   */\n      gt\n        /* \"#utility.yul\":4055:4183   */\n      iszero\n      tag_116\n      jumpi\n        /* \"#utility.yul\":4102:4181   */\n      tag_117\n      tag_50\n      jump\t// in\n    tag_117:\n        /* \"#utility.yul\":4055:4183   */\n    tag_116:\n        /* \"#utility.yul\":3636:4189   */\n      swap3\n      pop\n      swap3\n      swap1\n      pop\n      jump\t// out\n        /* \"#utility.yul\":4195:4317   */\n    tag_52:\n        /* \"#utility.yul\":4268:4292   */\n      tag_119\n        /* \"#utility.yul\":4286:4291   */\n      dup2\n        /* \"#utility.yul\":4268:4292   */\n      tag_44\n      jump\t// in\n    tag_119:\n        /* \"#utility.yul\":4261:4266   */\n      dup2\n        /* \"#utility.yul\":4258:4293   */\n      eq\n        /* \"#utility.yul\":4248:4311   */\n      tag_120\n      jumpi\n        /* \"#utility.yul\":4307:4308   */\n      0x00\n        /* \"#utility.yul\":4304:4305   */\n      0x00\n        /* \"#utility.yul\":4297:4309   */\n      revert\n        /* \"#utility.yul\":4248:4311   */\n    tag_120:\n        /* \"#utility.yul\":4195:4317   */\n      pop\n      jump\t// out\n        /* \"#utility.yul\":4323:4462   */\n    tag_53:\n        /* \"#utility.yul\":4369:4374   */\n      0x00\n        /* \"#utility.yul\":4407:4413   */\n      dup2\n        /* \"#utility.yul\":4394:4414   */\n      calldataload\n        /* \"#utility.yul\":4385:4414   */\n      swap1\n      pop\n        /* \"#utility.yul\":4423:4456   */\n      tag_122\n        /* \"#utility.yul\":4450:4455   */\n      dup2\n        /* \"#utility.yul\":4423:4456   */\n      tag_52\n      jump\t// in\n    tag_122:\n        /* \"#utility.yul\":4323:4462   */\n      swap3\n      swap2\n      pop\n      pop\n      jump\t// out\n        /* \"#utility.yul\":4468:5142   */\n    tag_19:\n        /* \"#utility.yul\":4548:4554   */\n      0x00\n        /* \"#utility.yul\":4556:4562   */\n      0x00\n        /* \"#utility.yul\":4564:4570   */\n      0x00\n        /* \"#utility.yul\":4613:4615   */\n      0x40\n        /* \"#utility.yul\":4601:4610   */\n      dup5\n        /* \"#utility.yul\":4592:4599   */\n      dup7\n        /* \"#utility.yul\":4588:4611   */\n      sub\n        /* \"#utility.yul\":4584:4616   */\n      slt\n        /* \"#utility.yul\":4581:4700   */\n      iszero\n      tag_124\n      jumpi\n        /* \"#utility.yul\":4619:4698   */\n      tag_125\n      tag_33\n      jump\t// in\n    tag_125:\n        /* \"#utility.yul\":4581:4700   */\n    tag_124:\n        /* \"#utility.yul\":4767:4768   */\n      0x00\n        /* \"#utility.yul\":4756:4765   */\n      dup5\n        /* \"#utility.yul\":4752:4769   */\n      add\n        /* \"#utility.yul\":4739:4770   */\n      calldataload\n        /* \"#utility.yul\":4797:4815   */\n      0xffffffffffffffff\n        /* \"#utility.yul\":4789:4795   */\n      dup2\n        /* \"#utility.yul\":4786:4816   */\n      gt\n        /* \"#utility.yul\":4783:4900   */\n      iszero\n      tag_126\n      jumpi\n        /* \"#utility.yul\":4819:4898   */\n      tag_127\n      tag_34\n      jump\t// in\n    tag_127:\n        /* \"#utility.yul\":4783:4900   */\n    tag_126:\n        /* \"#utility.yul\":4932:4997   */\n      tag_128\n        /* \"#utility.yul\":4989:4996   */\n      dup7\n        /* \"#utility.yul\":4980:4986   */\n      dup3\n        /* \"#utility.yul\":4969:4978   */\n      dup8\n        /* \"#utility.yul\":4965:4987   */\n      add\n        /* \"#utility.yul\":4932:4997   */\n      tag_51\n      jump\t// in\n    tag_128:\n        /* \"#utility.yul\":4914:4997   */\n      swap4\n      pop\n      swap4\n      pop\n        /* \"#utility.yul\":4710:5007   */\n      pop\n        /* \"#utility.yul\":5046:5048   */\n      0x20\n        /* \"#utility.yul\":5072:5125   */\n      tag_129\n        /* \"#utility.yul\":5117:5124   */\n      dup7\n        /* \"#utility.yul\":5108:5114   */\n      dup3\n        /* \"#utility.yul\":5097:5106   */\n      dup8\n        /* \"#utility.yul\":5093:5115   */\n      add\n        /* \"#utility.yul\":5072:5125   */\n      tag_53\n      jump\t// in\n    tag_129:\n        /* \"#utility.yul\":5062:5125   */\n      swap2\n      pop\n        /* \"#utility.yul\":5017:5135   */\n      pop\n        /* \"#utility.yul\":4468:5142   */\n      swap3\n      pop\n      swap3\n      pop\n      swap3\n      jump\t// out\n        /* \"#utility.yul\":5148:5328   */\n    tag_54:\n        /* \"#utility.yul\":5196:5273   */\n      0x4e487b7100000000000000000000000000000000000000000000000000000000\n        /* \"#utility.yul\":5193:5194   */\n      0x00\n        /* \"#utility.yul\":5186:5274   */\n      mstore\n        /* \"#utility.yul\":5293:5297   */\n      0x22\n        /* \"#utility.yul\":5290:5291   */\n      0x04\n        /* \"#utility.yul\":5283:5298   */\n      mstore\n        /* \"#utility.yul\":5317:5321   */\n      0x24\n        /* \"#utility.yul\":5314:5315   */\n      0x00\n        /* \"#utility.yul\":5307:5322   */\n      revert\n        /* \"#utility.yul\":5334:5654   */\n    tag_23:\n        /* \"#utility.yul\":5378:5384   */\n      0x00\n        /* \"#utility.yul\":5415:5416   */\n      0x02\n        /* \"#utility.yul\":5409:5413   */\n      dup3\n        /* \"#utility.yul\":5405:5417   */\n      div\n        /* \"#utility.yul\":5395:5417   */\n      swap1\n      pop\n        /* \"#utility.yul\":5462:5463   */\n      0x01\n        /* \"#utility.yul\":5456:5460   */\n      dup3\n        /* \"#utility.yul\":5452:5464   */\n      and\n        /* \"#utility.yul\":5483:5501   */\n      dup1\n        /* \"#utility.yul\":5473:5554   */\n      tag_132\n      jumpi\n        /* \"#utility.yul\":5539:5543   */\n      0x7f\n        /* \"#utility.yul\":5531:5537   */\n      dup3\n        /* \"#utility.yul\":5527:5544   */\n      and\n        /* \"#utility.yul\":5517:5544   */\n      swap2\n      pop\n        /* \"#utility.yul\":5473:5554   */\n    tag_132:\n        /* \"#utility.yul\":5601:5603   */\n      0x20\n        /* \"#utility.yul\":5593:5599   */\n      dup3\n        /* \"#utility.yul\":5590:5604   */\n      lt\n        /* \"#utility.yul\":5570:5588   */\n      dup2\n        /* \"#utility.yul\":5567:5605   */\n      sub\n        /* \"#utility.yul\":5564:5648   */\n      tag_133\n      jumpi\n        /* \"#utility.yul\":5620:5638   */\n      tag_134\n      tag_54\n      jump\t// in\n    tag_134:\n        /* \"#utility.yul\":5564:5648   */\n    tag_133:\n        /* \"#utility.yul\":5385:5654   */\n      pop\n        /* \"#utility.yul\":5334:5654   */\n      swap2\n      swap1\n      pop\n      jump\t// out\n        /* \"#utility.yul\":5660:5840   */\n    tag_55:\n        /* \"#utility.yul\":5708:5785   */\n      0x4e487b7100000000000000000000000000000000000000000000000000000000\n        /* \"#utility.yul\":5705:5706   */\n      0x00\n        /* \"#utility.yul\":5698:5786   */\n      mstore\n        /* \"#utility.yul\":5805:5809   */\n      0x41\n        /* \"#utility.yul\":5802:5803   */\n      0x04\n        /* \"#utility.yul\":5795:5810   */\n      mstore\n        /* \"#utility.yul\":5829:5833   */\n      0x24\n        /* \"#utility.yul\":5826:5827   */\n      0x00\n        /* \"#utility.yul\":5819:5834   */\n      revert\n        /* \"#utility.yul\":5846:5987   */\n    tag_56:\n        /* \"#utility.yul\":5895:5899   */\n      0x00\n        /* \"#utility.yul\":5918:5921   */\n      dup2\n        /* \"#utility.yul\":5910:5921   */\n      swap1\n      pop\n        /* \"#utility.yul\":5941:5944   */\n      dup2\n        /* \"#utility.yul\":5938:5939   */\n      0x00\n        /* \"#utility.yul\":5931:5945   */\n      mstore\n        /* \"#utility.yul\":5975:5979   */\n      0x20\n        /* \"#utility.yul\":5972:5973   */\n      0x00\n        /* \"#utility.yul\":5962:5980   */\n      keccak256\n        /* \"#utility.yul\":5954:5980   */\n      swap1\n      pop\n        /* \"#utility.yul\":5846:5987   */\n      swap2\n      swap1\n      pop\n      jump\t// out\n        /* \"#utility.yul\":5993:6086   */\n    tag_57:\n        /* \"#utility.yul\":6030:6036   */\n      0x00\n        /* \"#utility.yul\":6077:6079   */\n      0x20\n        /* \"#utility.yul\":6072:6074   */\n      0x1f\n        /* \"#utility.yul\":6065:6070   */\n      dup4\n        /* \"#utility.yul\":6061:6075   */\n      add\n        /* \"#utility.yul\":6057:6080   */\n      div\n        /* \"#utility.yul\":6047:6080   */\n      swap1\n      pop\n        /* \"#utility.yul\":5993:6086   */\n      swap2\n      swap1\n      pop\n      jump\t// out\n        /* \"#utility.yul\":6092:6199   */\n    tag_58:\n        /* \"#utility.yul\":6136:6144   */\n      0x00\n        /* \"#utility.yul\":6186:6191   */\n      dup3\n        /* \"#utility.yul\":6180:6184   */\n      dup3\n        /* \"#utility.yul\":6176:6192   */\n      shl\n        /* \"#utility.yul\":6155:6192   */\n      swap1\n      pop\n        /* \"#utility.yul\":6092:6199   */\n      swap3\n      swap2\n      pop\n      pop\n      jump\t// out\n        /* \"#utility.yul\":6205:6598   */\n    tag_59:\n        /* \"#utility.yul\":6274:6280   */\n      0x00\n        /* \"#utility.yul\":6324:6325   */\n      0x08\n        /* \"#utility.yul\":6312:6322   */\n      dup4\n        /* \"#utility.yul\":6308:6326   */\n      mul\n        /* \"#utility.yul\":6347:6444   */\n      tag_140\n        /* \"#utility.yul\":6377:6443   */\n      0xffffffffffffffffffffffffffffffffffffffffffffffffffffffffffffffff\n        /* \"#utility.yul\":6366:6375   */\n      dup3\n        /* \"#utility.yul\":6347:6444   */\n      tag_58\n      jump\t// in\n    tag_140:\n        /* \"#utility.yul\":6465:6504   */\n      tag_141\n        /* \"#utility.yul\":6495:6503   */\n      dup7\n        /* \"#utility.yul\":6484:6493   */\n      dup4\n        /* \"#utility.yul\":6465:6504   */\n      tag_58\n      jump\t// in\n    tag_141:\n        /* \"#utility.yul\":6453:6504   */\n      swap6\n      pop\n        /* \"#utility.yul\":6537:6541   */\n      dup1\n        /* \"#utility.yul\":6533:6542   */\n      not\n        /* \"#utility.yul\":6526:6531   */\n      dup5\n        /* \"#utility.yul\":6522:6543   */\n      and\n        /* \"#utility.yul\":6513:6543   */\n      swap4\n      pop\n        /* \"#utility.yul\":6586:6590   */\n      dup1\n        /* \"#utility.yul\":6576:6584   */\n      dup7\n        /* \"#utility.yul\":6572:6591   */\n      and\n        /* \"#utility.yul\":6565:6570   */\n      dup5\n        /* \"#utility.yul\":6562:6592   */\n      or\n        /* \"#utility.yul\":6552:6592   */\n      swap3\n      pop\n        /* \"#utility.yul\":6281:6598   */\n      pop\n      pop\n        /* \"#utility.yul\":6205:6598   */\n      swap4\n      swap3\n      pop\n      pop\n      pop\n      jump\t// out\n        /* \"#utility.yul\":6604:6664   */\n    tag_60:\n        /* \"#utility.yul\":6632:6635   */\n      0x00\n        /* \"#utility.yul\":6653:6658   */\n      dup2\n        /* \"#utility.yul\":6646:6658   */\n      swap1\n      pop\n        /* \"#utility.yul\":6604:6664   */\n      swap2\n      swap1\n      pop\n      jump\t// out\n        /* \"#utility.yul\":6670:6812   */\n    tag_61:\n        /* \"#utility.yul\":6720:6729   */\n      0x00\n        /* \"#utility.yul\":6753:6806   */\n      tag_144\n        /* \"#utility.yul\":6771:6805   */\n      tag_145\n        /* \"#utility.yul\":6780:6804   */\n      tag_146\n        /* \"#utility.yul\":6798:6803   */\n      dup5\n        /* \"#utility.yul\":6780:6804   */\n      tag_44\n      jump\t// in\n    tag_146:\n        /* \"#utility.yul\":6771:6805   */\n      tag_60\n      jump\t// in\n    tag_145:\n        /* \"#utility.yul\":6753:6806   */\n      tag_44\n      jump\t// in\n    tag_144:\n        /* \"#utility.yul\":6740:6806   */\n      swap1\n      pop\n        /* \"#utility.yul\":6670:6812   */\n      swap2\n      swap1\n      pop\n      jump\t// out\n        /* \"#utility.yul\":6818:6893   */\n    tag_62:\n        /* \"#utility.yul\":6861:6864   */\n      0x00\n        /* \"#utility.yul\":6882:6887   */\n      dup2\n        /* \"#utility.yul\":6875:6887   */\n      swap1\n      pop\n        /* \"#utility.yul\":6818:6893   */\n      swap2\n      swap1\n      pop\n      jump\t// out\n        /* \"#utility.yul\":6899:7168   */\n    tag_63:\n        /* \"#utility.yul\":7009:7048   */\n      tag_149\n        /* \"#utility.yul\":7040:7047   */\n      dup4\n        /* \"#utility.yul\":7009:7048   */\n      tag_61\n      jump\t// in\n    tag_149:\n        /* \"#utility.yul\":7070:7161   */\n      tag_150\n        /* \"#utility.yul\":7119:7160   */\n      tag_151\n        /* \"#utility.yul\":7143:7159   */\n      dup3\n        /* \"#utility.yul\":7119:7160   */\n      tag_62\n      jump\t// in\n    tag_151:\n        /* \"#utility.yul\":7111:7117   */\n      dup5\n        /* \"#utility.yul\":7104:7108   */\n      dup5\n        /* \"#utility.yul\":7098:7109   */\n      sload\n        /* \"#utility.yul\":7070:7161   */\n      tag_59\n      jump\t// in\n    tag_150:\n        /* \"#utility.yul\":7064:7068   */\n      dup3\n        /* \"#utility.yul\":7057:7162   */\n      sstore\n        /* \"#utility.yul\":6975:7168   */\n      pop\n        /* \"#utility.yul\":6899:7168   */\n      pop\n      pop\n      pop\n      jump\t// out\n        /* \"#utility.yul\":7174:7247   */\n    tag_64:\n        /* \"#utility.yul\":7219:7222   */\n      0x00\n        /* \"#utility.yul\":7240:7241   */\n      0x00\n        /* \"#utility.yul\":7233:7241   */\n      swap1\n      pop\n        /* \"#utility.yul\":7174:7247   */\n      swap1\n      jump\t// out\n        /* \"#utility.yul\":7253:7442   */\n    tag_65:\n        /* \"#utility.yul\":7330:7362   */\n      tag_154\n      tag_64\n      jump\t// in\n    tag_154:\n        /* \"#utility.yul\":7371:7436   */\n      tag_155\n        /* \"#utility.yul\":7429:7435   */\n      dup2\n        /* \"#utility.yul\":7421:7427   */\n      dup5\n        /* \"#utility.yul\":7415:7419   */\n      dup5\n        /* \"#utility.yul\":7371:7436   */\n      tag_63\n      jump\t// in\n    tag_155:\n        /* \"#utility.yul\":7306:7442   */\n      pop\n        /* \"#utility.yul\":7253:7442   */\n      pop\n      pop\n      jump\t// out\n        /* \"#utility.yul\":7448:7634   */\n    tag_66:\n        /* \"#utility.yul\":7508:7628   */\n    tag_157:\n        /* \"#utility.yul\":7525:7528   */\n      dup2\n        /* \"#utility.yul\":7518:7523   */\n      dup2\n        /* \"#utility.yul\":7515:7529   */\n      lt\n        /* \"#utility.yul\":7508:7628   */\n      iszero\n      tag_159\n      jumpi\n        /* \"#utility.yul\":7579:7618   */\n      tag_160\n        /* \"#utility.yul\":7616:7617   */\n      0x00\n        /* \"#utility.yul\":7609:7614   */\n      dup3\n        /* \"#utility.yul\":7579:7618   */\n      tag_65\n      jump\t// in\n    tag_160:\n        /* \"#utility.yul\":7552:7553   */\n      0x01\n        /* \"#utility.yul\":7545:7550   */\n      dup2\n        /* \"#utility.yul\":7541:7554   */\n      add\n        /* \"#utility.yul\":7532:7554   */\n      swap1\n      pop\n        /* \"#utility.yul\":7508:7628   */\n      jump(tag_157)\n    tag_159:\n        /* \"#utility.yul\":7448:7634   */\n      pop\n      pop\n      jump\t// out\n        /* \"#utility.yul\":7640:8183   */\n    tag_67:\n        /* \"#utility.yul\":7741:7743   */\n      0x1f\n        /* \"#utility.yul\":7736:7739   */\n      dup3\n        /* \"#utility.yul\":7733:7744   */\n      gt\n        /* \"#utility.yul\":7730:8176   */\n      iszero\n      tag_162\n      jumpi\n        /* \"#utility.yul\":7775:7813   */\n      tag_163\n        /* \"#utility.yul\":7807:7812   */\n      dup2\n        /* \"#utility.yul\":7775:7813   */\n      tag_56\n      jump\t// in\n    tag_163:\n        /* \"#utility.yul\":7859:7888   */\n      tag_164\n        /* \"#utility.yul\":7877:7887   */\n      dup5\n        /* \"#utility.yul\":7859:7888   */\n      tag_57\n      jump\t// in\n    tag_164:\n        /* \"#utility.yul\":7849:7857   */\n      dup2\n        /* \"#utility.yul\":7845:7889   */\n      add\n        /* \"#utility.yul\":8042:8044   */\n      0x20\n        /* \"#utility.yul\":8030:8040   */\n      dup6\n        /* \"#utility.yul\":8027:8045   */\n      lt\n        /* \"#utility.yul\":8024:8073   */\n      iszero\n      tag_165\n      jumpi\n        /* \"#utility.yul\":8063:8071   */\n      dup2\n        /* \"#utility.yul\":8048:8071   */\n      swap1\n      pop\n        /* \"#utility.yul\":8024:8073   */\n    tag_165:\n        /* \"#utility.yul\":8086:8166   */\n      tag_166\n        /* \"#utility.yul\":8142:8164   */\n      tag_167\n        /* \"#utility.yul\":8160:8163   */\n      dup6\n        /* \"#utility.yul\":8142:8164   */\n      tag_57\n      jump\t// in\n    tag_167:\n        /* \"#utility.yul\":8132:8140   */\n      dup4\n        /* \"#utility.yul\":8128:8165   */\n      add\n        /* \"#utility.yul\":8115:8126   */\n      dup3\n        /* \"#utility.yul\":8086:8166   */\n      tag_66\n      jump\t// in\n    tag_166:\n        /* \"#utility.yul\":7745:8176   */\n      pop\n      pop\n        /* \"#utility.yul\":7730:8176   */\n    tag_162:\n        /* \"#utility.yul\":7640:8183   */\n      pop\n      pop\n      pop\n      jump\t// out\n        /* \"#utility.yul\":8189:8306   */\n    tag_68:\n        /* \"#utility.yul\":8243:8251   */\n      0x00\n        /* \"#utility.yul\":8293:8298   */\n      dup3\n        /* \"#utility.yul\":8287:8291   */\n      dup3\n        /* \"#utility.yul\":8283:8299   */\n      shr\n        /* \"#utility.yul\":8262:8299   */\n      swap1\n      pop\n        /* \"#utility.yul\":8189:8306   */\n      swap3\n      swap2\n      pop\n      pop\n      jump\t// out\n        /* \"#utility.yul\":8312:8481   */\n    tag_69:\n        /* \"#utility.yul\":8356:8362   */\n      0x00\n        /* \"#utility.yul\":8389:8440   */\n      tag_170\n        /* \"#utility.yul\":8437:8438   */\n      0x00\n        /* \"#utility.yul\":8433:8439   */\n      not\n        /* \"#utility.yul\":8425:8430   */\n      dup5\n        /* \"#utility.yul\":8422:8423   */\n      0x08\n        /* \"#utility.yul\":8418:8431   */\n      mul\n        /* \"#utility.yul\":8389:8440   */\n      tag_68\n      jump\t// in\n    tag_170:\n        /* \"#utility.yul\":8385:8441   */\n      not\n        /* \"#utility.yul\":8470:8474   */\n      dup1\n        /* \"#utility.yul\":8464:8468   */\n      dup4\n        /* \"#utility.yul\":8460:8475   */\n      and\n        /* \"#utility.yul\":8450:8475   */\n      swap2\n      pop\n        /* \"#utility.yul\":8363:8481   */\n      pop\n        /* \"#utility.yul\":8312:8481   */\n      swap3\n      swap2\n      pop\n      pop\n      jump\t// out\n        /* \"#utility.yul\":8486:8781   */\n    tag_70:\n        /* \"#utility.yul\":8562:8566   */\n      0x00\n        /* \"#utility.yul\":8708:8737   */\n      tag_172\n        /* \"#utility.yul\":8733:8736   */\n      dup4\n        /* \"#utility.yul\":8727:8731   */\n      dup4\n        /* \"#utility.yul\":8708:8737   */\n      tag_69\n      jump\t// in\n    tag_172:\n        /* \"#utility.yul\":8700:8737   */\n      swap2\n      pop\n        /* \"#utility.yul\":8770:8773   */\n      dup3\n        /* \"#utility.yul\":8767:8768   */\n      0x02\n        /* \"#utility.yul\":8763:8774   */\n      mul\n        /* \"#utility.yul\":8757:8761   */\n      dup3\n        /* \"#utility.yul\":8754:8775   */\n      or\n        /* \"#utility.yul\":8746:8775   */\n      swap1\n      pop\n        /* \"#utility.yul\":8486:8781   */\n      swap3\n      swap2\n      pop\n      pop\n      jump\t// out\n        /* \"#utility.yul\":8786:10181   */\n    tag_31:\n        /* \"#utility.yul\":8903:8940   */\n      tag_174\n        /* \"#utility.yul\":8936:8939   */\n      dup3\n        /* \"#utility.yul\":8903:8940   */\n      tag_39\n      jump\t// in\n    tag_174:\n        /* \"#utility.yul\":9005:9023   */\n      0xffffffffffffffff\n        /* \"#utility.yul\":8997:9003   */\n      dup2\n        /* \"#utility.yul\":8994:9024   */\n      gt\n        /* \"#utility.yul\":8991:9047   */\n      iszero\n      tag_175\n      jumpi\n        /* \"#utility.yul\":9027:9045   */\n      tag_176\n      tag_55\n      jump\t// in\n    tag_176:\n        /* \"#utility.yul\":8991:9047   */\n    tag_175:\n        /* \"#utility.yul\":9071:9109   */\n      tag_177\n        /* \"#utility.yul\":9103:9107   */\n      dup3\n        /* \"#utility.yul\":9097:9108   */\n      sload\n        /* \"#utility.yul\":9071:9109   */\n      tag_23\n      jump\t// in\n    tag_177:\n        /* \"#utility.yul\":9156:9223   */\n      tag_178\n        /* \"#utility.yul\":9216:9222   */\n      dup3\n        /* \"#utility.yul\":9208:9214   */\n      dup3\n        /* \"#utility.yul\":9202:9206   */\n      dup6\n        /* \"#utility.yul\":9156:9223   */\n      tag_67\n      jump\t// in\n    tag_178:\n        /* \"#utility.yul\":9250:9251   */\n      0x00\n        /* \"#utility.yul\":9274:9278   */\n      0x20\n        /* \"#utility.yul\":9261:9278   */\n      swap1\n      pop\n        /* \"#utility.yul\":9306:9308   */\n      0x1f\n        /* \"#utility.yul\":9298:9304   */\n      dup4\n        /* \"#utility.yul\":9295:9309   */\n      gt\n        /* \"#utility.yul\":9323:9324   */\n      0x01\n        /* \"#utility.yul\":9318:9936   */\n      dup2\n      eq\n      tag_180\n      jumpi\n        /* \"#utility.yul\":9980:9981   */\n      0x00\n        /* \"#utility.yul\":9997:10003   */\n      dup5\n        /* \"#utility.yul\":9994:10071   */\n      iszero\n      tag_181\n      jumpi\n        /* \"#utility.yul\":10046:10055   */\n      dup3\n        /* \"#utility.yul\":10041:10044   */\n      dup8\n        /* \"#utility.yul\":10037:10056   */\n      add\n        /* \"#utility.yul\":10031:10057   */\n      mload\n        /* \"#utility.yul\":10022:10057   */\n      swap1\n      pop\n        /* \"#utility.yul\":9994:10071   */\n    tag_181:\n        /* \"#utility.yul\":10097:10164   */\n      tag_182\n        /* \"#utility.yul\":10157:10163   */\n      dup6\n        /* \"#utility.yul\":10150:10155   */\n      dup3\n        /* \"#utility.yul\":10097:10164   */\n      tag_70\n      jump\t// in\n    tag_182:\n        /* \"#utility.yul\":10091:10095   */\n      dup7\n        /* \"#utility.yul\":10084:10165   */\n      sstore\n        /* \"#utility.yul\":9953:10175   */\n      pop\n        /* \"#utility.yul\":9288:10175   */\n      jump(tag_179)\n        /* \"#utility.yul\":9318:9936   */\n    tag_180:\n        /* \"#utility.yul\":9370:9374   */\n      0x1f\n        /* \"#utility.yul\":9366:9375   */\n      not\n        /* \"#utility.yul\":9358:9364   */\n      dup5\n        /* \"#utility.yul\":9354:9376   */\n      and\n        /* \"#utility.yul\":9404:9441   */\n      tag_183\n        /* \"#utility.yul\":9436:9440   */\n      dup7\n        /* \"#utility.yul\":9404:9441   */\n      tag_56\n      jump\t// in\n    tag_183:\n        /* \"#utility.yul\":9463:9464   */\n      0x00\n        /* \"#utility.yul\":9477:9685   */\n    tag_184:\n        /* \"#utility.yul\":9491:9498   */\n      dup3\n        /* \"#utility.yul\":9488:9489   */\n      dup2\n        /* \"#utility.yul\":9485:9499   */\n      lt\n        /* \"#utility.yul\":9477:9685   */\n      iszero\n      tag_186\n      jumpi\n        /* \"#utility.yul\":9570:9579   */\n      dup5\n        /* \"#utility.yul\":9565:9568   */\n      dup10\n        /* \"#utility.yul\":9561:9580   */\n      add\n        /* \"#utility.yul\":9555:9581   */\n      mload\n        /* \"#utility.yul\":9547:9553   */\n      dup3\n        /* \"#utility.yul\":9540:9582   */\n      sstore\n        /* \"#utility.yul\":9621:9622   */\n      0x01\n        /* \"#utility.yul\":9613:9619   */\n      dup3\n        /* \"#utility.yul\":9609:9623   */\n      add\n        /* \"#utility.yul\":9599:9623   */\n      swap2\n      pop\n        /* \"#utility.yul\":9668:9670   */\n      0x20\n        /* \"#utility.yul\":9657:9666   */\n      dup6\n        /* \"#utility.yul\":9653:9671   */\n      add\n        /* \"#utility.yul\":9640:9671   */\n      swap5\n      pop\n        /* \"#utility.yul\":9514:9518   */\n      0x20\n        /* \"#utility.yul\":9511:9512   */\n      dup2\n        /* \"#utility.yul\":9507:9519   */\n      add\n        /* \"#utility.yul\":9502:9519   */\n      swap1\n      pop\n        /* \"#utility.yul\":9477:9685   */\n      jump(tag_184)\n    tag_186:\n        /* \"#utility.yul\":9713:9719   */\n      dup7\n        /* \"#utility.yul\":9704:9711   */\n      dup4\n        /* \"#utility.yul\":9701:9720   */\n      lt\n        /* \"#utility.yul\":9698:9877   */\n      iszero\n      tag_187\n      jumpi\n        /* \"#utility.yul\":9771:9780   */\n      dup5\n        /* \"#utility.yul\":9766:9769   */\n      dup10\n        /* \"#utility.yul\":9762:9781   */\n      add\n        /* \"#utility.yul\":9756:9782   */\n      mload\n        /* \"#utility.yul\":9814:9862   */\n      tag_188\n        /* \"#utility.yul\":9856:9860   */\n      0x1f\n        /* \"#utility.yul\":9848:9854   */\n      dup10\n        /* \"#utility.yul\":9844:9861   */\n      and\n        /* \"#utility.yul\":9833:9842   */\n      dup3\n        /* \"#utility.yul\":9814:9862   */\n      tag_69\n      jump\t// in\n    tag_188:\n        /* \"#utility.yul\":9806:9812   */\n      dup4\n        /* \"#utility.yul\":9799:9863   */\n      sstore\n        /* \"#utility.yul\":9721:9877   */\n      pop\n        /* \"#utility.yul\":9698:9877   */\n    tag_187:\n        /* \"#utility.yul\":9923:9924   */\n      0x01\n        /* \"#utility.yul\":9919:9920   */\n      0x02\n        /* \"#utility.yul\":9911:9917   */\n      dup9\n        /* \"#utility.yul\":9907:9921   */\n      mul\n        /* \"#utility.yul\":9903:9925   */\n      add\n        /* \"#utility.yul\":9897:9901   */\n      dup9\n        /* \"#utility.yul\":9890:9926   */\n      sstore\n        /* \"#utility.yul\":9325:9936   */\n      pop\n      pop\n      pop\n        /* \"#utility.yul\":9288:10175   */\n    tag_179:\n      pop\n        /* \"#utility.yul\":8878:10181   */\n      pop\n      pop\n      pop\n        /* \"#utility.yul\":8786:10181   */\n      pop\n      pop\n      jump\t// out\n\n    auxdata: 0xa2646970667358221220a02128fbc64f30e13ba00ac74fd89ae7abd10f343906ed377cbb164c44b9d86664736f6c634300081e0033\n}\n",
				"bytecode": {
					"linkReferences": {},
					"object": "6080604052348015600e575f5ffd5b506108af8061001c5f395ff3fe608060405234801561000f575f5ffd5b506004361061003f575f3560e01c80636b7b44d714610043578063b8b2e42c14610075578063ea87152b146100a5575b5f5ffd5b61005d60048036038101906100589190610376565b6100c1565b60405161006c93929190610443565b60405180910390f35b61008f600480360381019061008a9190610376565b6101de565b60405161009c919061047f565b60405180910390f35b6100bf60048036038101906100ba9190610523565b610232565b005b60605f5f5f5f5f8673ffffffffffffffffffffffffffffffffffffffff1673ffffffffffffffffffffffffffffffffffffffff1681526020019081526020015f206040518060600160405290815f8201805461011c906105ad565b80601f0160208091040260200160405190810160405280929190818152602001828054610148906105ad565b80156101935780601f1061016a57610100808354040283529160200191610193565b820191905f5260205f20905b81548152906001019060200180831161017657829003601f168201915b5050505050815260200160018201548152602001600282015f9054906101000a900460ff1615151515815250509050805f015181602001518260400151935093509350509193909250565b5f5f5f8373ffffffffffffffffffffffffffffffffffffffff1673ffffffffffffffffffffffffffffffffffffffff1681526020019081526020015f206002015f9054906101000a900460ff169050919050565b604051806060016040528084848080601f0160208091040260200160405190810160405280939291908181526020018383808284375f81840152601f19601f820116905080830192505050505050508152602001828152602001600115158152505f5f3373ffffffffffffffffffffffffffffffffffffffff1673ffffffffffffffffffffffffffffffffffffffff1681526020019081526020015f205f820151815f0190816102e291906107aa565b50602082015181600101556040820151816002015f6101000a81548160ff021916908315150217905550905050505050565b5f5ffd5b5f5ffd5b5f73ffffffffffffffffffffffffffffffffffffffff82169050919050565b5f6103458261031c565b9050919050565b6103558161033b565b811461035f575f5ffd5b50565b5f813590506103708161034c565b92915050565b5f6020828403121561038b5761038a610314565b5b5f61039884828501610362565b91505092915050565b5f81519050919050565b5f82825260208201905092915050565b8281835e5f83830152505050565b5f601f19601f8301169050919050565b5f6103e3826103a1565b6103ed81856103ab565b93506103fd8185602086016103bb565b610406816103c9565b840191505092915050565b5f819050919050565b61042381610411565b82525050565b5f8115159050919050565b61043d81610429565b82525050565b5f6060820190508181035f83015261045b81866103d9565b905061046a602083018561041a565b6104776040830184610434565b949350505050565b5f6020820190506104925f830184610434565b92915050565b5f5ffd5b5f5ffd5b5f5ffd5b5f5f83601f8401126104b9576104b8610498565b5b8235905067ffffffffffffffff8111156104d6576104d561049c565b5b6020830191508360018202830111156104f2576104f16104a0565b5b9250929050565b61050281610411565b811461050c575f5ffd5b50565b5f8135905061051d816104f9565b92915050565b5f5f5f6040848603121561053a57610539610314565b5b5f84013567ffffffffffffffff81111561055757610556610318565b5b610563868287016104a4565b935093505060206105768682870161050f565b9150509250925092565b7f4e487b71000000000000000000000000000000000000000000000000000000005f52602260045260245ffd5b5f60028204905060018216806105c457607f821691505b6020821081036105d7576105d6610580565b5b50919050565b7f4e487b71000000000000000000000000000000000000000000000000000000005f52604160045260245ffd5b5f819050815f5260205f209050919050565b5f6020601f8301049050919050565b5f82821b905092915050565b5f600883026106667fffffffffffffffffffffffffffffffffffffffffffffffffffffffffffffffff8261062b565b610670868361062b565b95508019841693508086168417925050509392505050565b5f819050919050565b5f6106ab6106a66106a184610411565b610688565b610411565b9050919050565b5f819050919050565b6106c483610691565b6106d86106d0826106b2565b848454610637565b825550505050565b5f5f905090565b6106ef6106e0565b6106fa8184846106bb565b505050565b5b8181101561071d576107125f826106e7565b600181019050610700565b5050565b601f821115610762576107338161060a565b61073c8461061c565b8101602085101561074b578190505b61075f6107578561061c565b8301826106ff565b50505b505050565b5f82821c905092915050565b5f6107825f1984600802610767565b1980831691505092915050565b5f61079a8383610773565b9150826002028217905092915050565b6107b3826103a1565b67ffffffffffffffff8111156107cc576107cb6105dd565b5b6107d682546105ad565b6107e1828285610721565b5f60209050601f831160018114610812575f8415610800578287015190505b61080a858261078f565b865550610871565b601f1984166108208661060a565b5f5b8281101561084757848901518255600182019150602085019450602081019050610822565b868310156108645784890151610860601f891682610773565b8355505b6001600288020188555050505b50505050505056fea2646970667358221220a02128fbc64f30e13ba00ac74fd89ae7abd10f343906ed377cbb164c44b9d86664736f6c634300081e0033",
					"opcodes": "PUSH1 0x80 PUSH1 0x40 MSTORE CALLVALUE DUP1 ISZERO PUSH1 0xE JUMPI PUSH0 PUSH0 REVERT JUMPDEST POP PUSH2 0x8AF DUP1 PUSH2 0x1C PUSH0 CODECOPY PUSH0 RETURN INVALID PUSH1 0x80 PUSH1 0x40 MSTORE CALLVALUE DUP1 ISZERO PUSH2 0xF JUMPI PUSH0 PUSH0 REVERT JUMPDEST POP PUSH1 0x4 CALLDATASIZE LT PUSH2 0x3F JUMPI PUSH0 CALLDATALOAD PUSH1 0xE0 SHR DUP1 PUSH4 0x6B7B44D7 EQ PUSH2 0x43 JUMPI DUP1 PUSH4 0xB8B2E42C EQ PUSH2 0x75 JUMPI DUP1 PUSH4 0xEA87152B EQ PUSH2 0xA5 JUMPI JUMPDEST PUSH0 PUSH0 REVERT JUMPDEST PUSH2 0x5D PUSH1 0x4 DUP1 CALLDATASIZE SUB DUP2 ADD SWAP1 PUSH2 0x58 SWAP2 SWAP1 PUSH2 0x376 JUMP JUMPDEST PUSH2 0xC1 JUMP JUMPDEST PUSH1 0x40 MLOAD PUSH2 0x6C SWAP4 SWAP3 SWAP2 SWAP1 PUSH2 0x443 JUMP JUMPDEST PUSH1 0x40 MLOAD DUP1 SWAP2 SUB SWAP1 RETURN JUMPDEST PUSH2 0x8F PUSH1 0x4 DUP1 CALLDATASIZE SUB DUP2 ADD SWAP1 PUSH2 0x8A SWAP2 SWAP1 PUSH2 0x376 JUMP JUMPDEST PUSH2 0x1DE JUMP JUMPDEST PUSH1 0x40 MLOAD PUSH2 0x9C SWAP2 SWAP1 PUSH2 0x47F JUMP JUMPDEST PUSH1 0x40 MLOAD DUP1 SWAP2 SUB SWAP1 RETURN JUMPDEST PUSH2 0xBF PUSH1 0x4 DUP1 CALLDATASIZE SUB DUP2 ADD SWAP1 PUSH2 0xBA SWAP2 SWAP1 PUSH2 0x523 JUMP JUMPDEST PUSH2 0x232 JUMP JUMPDEST STOP JUMPDEST PUSH1 0x60 PUSH0 PUSH0 PUSH0 PUSH0 PUSH0 DUP7 PUSH20 0xFFFFFFFFFFFFFFFFFFFFFFFFFFFFFFFFFFFFFFFF AND PUSH20 0xFFFFFFFFFFFFFFFFFFFFFFFFFFFFFFFFFFFFFFFF AND DUP2 MSTORE PUSH1 0x20 ADD SWAP1 DUP2 MSTORE PUSH1 0x20 ADD PUSH0 KECCAK256 PUSH1 0x40 MLOAD DUP1 PUSH1 0x60 ADD PUSH1 0x40 MSTORE SWAP1 DUP2 PUSH0 DUP3 ADD DUP1 SLOAD PUSH2 0x11C SWAP1 PUSH2 0x5AD JUMP JUMPDEST DUP1 PUSH1 0x1F ADD PUSH1 0x20 DUP1 SWAP2 DIV MUL PUSH1 0x20 ADD PUSH1 0x40 MLOAD SWAP1 DUP2 ADD PUSH1 0x40 MSTORE DUP1 SWAP3 SWAP2 SWAP1 DUP2 DUP2 MSTORE PUSH1 0x20 ADD DUP3 DUP1 SLOAD PUSH2 0x148 SWAP1 PUSH2 0x5AD JUMP JUMPDEST DUP1 ISZERO PUSH2 0x193 JUMPI DUP1 PUSH1 0x1F LT PUSH2 0x16A JUMPI PUSH2 0x100 DUP1 DUP4 SLOAD DIV MUL DUP4 MSTORE SWAP2 PUSH1 0x20 ADD SWAP2 PUSH2 0x193 JUMP JUMPDEST DUP3 ADD SWAP2 SWAP1 PUSH0 MSTORE PUSH1 0x20 PUSH0 KECCAK256 SWAP1 JUMPDEST DUP2 SLOAD DUP2 MSTORE SWAP1 PUSH1 0x1 ADD SWAP1 PUSH1 0x20 ADD DUP1 DUP4 GT PUSH2 0x176 JUMPI DUP3 SWAP1 SUB PUSH1 0x1F AND DUP3 ADD SWAP2 JUMPDEST POP POP POP POP POP DUP2 MSTORE PUSH1 0x20 ADD PUSH1 0x1 DUP3 ADD SLOAD DUP2 MSTORE PUSH1 0x20 ADD PUSH1 0x2 DUP3 ADD PUSH0 SWAP1 SLOAD SWAP1 PUSH2 0x100 EXP SWAP1 DIV PUSH1 0xFF AND ISZERO ISZERO ISZERO ISZERO DUP2 MSTORE POP POP SWAP1 POP DUP1 PUSH0 ADD MLOAD DUP2 PUSH1 0x20 ADD MLOAD DUP3 PUSH1 0x40 ADD MLOAD SWAP4 POP SWAP4 POP SWAP4 POP POP SWAP2 SWAP4 SWAP1 SWAP3 POP JUMP JUMPDEST PUSH0 PUSH0 PUSH0 DUP4 PUSH20 0xFFFFFFFFFFFFFFFFFFFFFFFFFFFFFFFFFFFFFFFF AND PUSH20 0xFFFFFFFFFFFFFFFFFFFFFFFFFFFFFFFFFFFFFFFF AND DUP2 MSTORE PUSH1 0x20 ADD SWAP1 DUP2 MSTORE PUSH1 0x20 ADD PUSH0 KECCAK256 PUSH1 0x2 ADD PUSH0 SWAP1 SLOAD SWAP1 PUSH2 0x100 EXP SWAP1 DIV PUSH1 0xFF AND SWAP1 POP SWAP2 SWAP1 POP JUMP JUMPDEST PUSH1 0x40 MLOAD DUP1 PUSH1 0x60 ADD PUSH1 0x40 MSTORE DUP1 DUP5 DUP5 DUP1 DUP1 PUSH1 0x1F ADD PUSH1 0x20 DUP1 SWAP2 DIV MUL PUSH1 0x20 ADD PUSH1 0x40 MLOAD SWAP1 DUP2 ADD PUSH1 0x40 MSTORE DUP1 SWAP4 SWAP3 SWAP2 SWAP1 DUP2 DUP2 MSTORE PUSH1 0x20 ADD DUP4 DUP4 DUP1 DUP3 DUP5 CALLDATACOPY PUSH0 DUP2 DUP5 ADD MSTORE PUSH1 0x1F NOT PUSH1 0x1F DUP3 ADD AND SWAP1 POP DUP1 DUP4 ADD SWAP3 POP POP POP POP POP POP POP DUP2 MSTORE PUSH1 0x20 ADD DUP3 DUP2 MSTORE PUSH1 0x20 ADD PUSH1 0x1 ISZERO ISZERO DUP2 MSTORE POP PUSH0 PUSH0 CALLER PUSH20 0xFFFFFFFFFFFFFFFFFFFFFFFFFFFFFFFFFFFFFFFF AND PUSH20 0xFFFFFFFFFFFFFFFFFFFFFFFFFFFFFFFFFFFFFFFF AND DUP2 MSTORE PUSH1 0x20 ADD SWAP1 DUP2 MSTORE PUSH1 0x20 ADD PUSH0 KECCAK256 PUSH0 DUP3 ADD MLOAD DUP2 PUSH0 ADD SWAP1 DUP2 PUSH2 0x2E2 SWAP2 SWAP1 PUSH2 0x7AA JUMP JUMPDEST POP PUSH1 0x20 DUP3 ADD MLOAD DUP2 PUSH1 0x1 ADD SSTORE PUSH1 0x40 DUP3 ADD MLOAD DUP2 PUSH1 0x2 ADD PUSH0 PUSH2 0x100 EXP DUP2 SLOAD DUP2 PUSH1 0xFF MUL NOT AND SWAP1 DUP4 ISZERO ISZERO MUL OR SWAP1 SSTORE POP SWAP1 POP POP POP POP POP JUMP JUMPDEST PUSH0 PUSH0 REVERT JUMPDEST PUSH0 PUSH0 REVERT JUMPDEST PUSH0 PUSH20 0xFFFFFFFFFFFFFFFFFFFFFFFFFFFFFFFFFFFFFFFF DUP3 AND SWAP1 POP SWAP2 SWAP1 POP JUMP JUMPDEST PUSH0 PUSH2 0x345 DUP3 PUSH2 0x31C JUMP JUMPDEST SWAP1 POP SWAP2 SWAP1 POP JUMP JUMPDEST PUSH2 0x355 DUP2 PUSH2 0x33B JUMP JUMPDEST DUP2 EQ PUSH2 0x35F JUMPI PUSH0 PUSH0 REVERT JUMPDEST POP JUMP JUMPDEST PUSH0 DUP2 CALLDATALOAD SWAP1 POP PUSH2 0x370 DUP2 PUSH2 0x34C JUMP JUMPDEST SWAP3 SWAP2 POP POP JUMP JUMPDEST PUSH0 PUSH1 0x20 DUP3 DUP5 SUB SLT ISZERO PUSH2 0x38B JUMPI PUSH2 0x38A PUSH2 0x314 JUMP JUMPDEST JUMPDEST PUSH0 PUSH2 0x398 DUP5 DUP3 DUP6 ADD PUSH2 0x362 JUMP JUMPDEST SWAP2 POP POP SWAP3 SWAP2 POP POP JUMP JUMPDEST PUSH0 DUP2 MLOAD SWAP1 POP SWAP2 SWAP1 POP JUMP JUMPDEST PUSH0 DUP3 DUP3 MSTORE PUSH1 0x20 DUP3 ADD SWAP1 POP SWAP3 SWAP2 POP POP JUMP JUMPDEST DUP3 DUP2 DUP4 MCOPY PUSH0 DUP4 DUP4 ADD MSTORE POP POP POP JUMP JUMPDEST PUSH0 PUSH1 0x1F NOT PUSH1 0x1F DUP4 ADD AND SWAP1 POP SWAP2 SWAP1 POP JUMP JUMPDEST PUSH0 PUSH2 0x3E3 DUP3 PUSH2 0x3A1 JUMP JUMPDEST PUSH2 0x3ED DUP2 DUP6 PUSH2 0x3AB JUMP JUMPDEST SWAP4 POP PUSH2 0x3FD DUP2 DUP6 PUSH1 0x20 DUP7 ADD PUSH2 0x3BB JUMP JUMPDEST PUSH2 0x406 DUP2 PUSH2 0x3C9 JUMP JUMPDEST DUP5 ADD SWAP2 POP POP SWAP3 SWAP2 POP POP JUMP JUMPDEST PUSH0 DUP2 SWAP1 POP SWAP2 SWAP1 POP JUMP JUMPDEST PUSH2 0x423 DUP2 PUSH2 0x411 JUMP JUMPDEST DUP3 MSTORE POP POP JUMP JUMPDEST PUSH0 DUP2 ISZERO ISZERO SWAP1 POP SWAP2 SWAP1 POP JUMP JUMPDEST PUSH2 0x43D DUP2 PUSH2 0x429 JUMP JUMPDEST DUP3 MSTORE POP POP JUMP JUMPDEST PUSH0 PUSH1 0x60 DUP3 ADD SWAP1 POP DUP2 DUP2 SUB PUSH0 DUP4 ADD MSTORE PUSH2 0x45B DUP2 DUP7 PUSH2 0x3D9 JUMP JUMPDEST SWAP1 POP PUSH2 0x46A PUSH1 0x20 DUP4 ADD DUP6 PUSH2 0x41A JUMP JUMPDEST PUSH2 0x477 PUSH1 0x40 DUP4 ADD DUP5 PUSH2 0x434 JUMP JUMPDEST SWAP5 SWAP4 POP POP POP POP JUMP JUMPDEST PUSH0 PUSH1 0x20 DUP3 ADD SWAP1 POP PUSH2 0x492 PUSH0 DUP4 ADD DUP5 PUSH2 0x434 JUMP JUMPDEST SWAP3 SWAP2 POP POP JUMP JUMPDEST PUSH0 PUSH0 REVERT JUMPDEST PUSH0 PUSH0 REVERT JUMPDEST PUSH0 PUSH0 REVERT JUMPDEST PUSH0 PUSH0 DUP4 PUSH1 0x1F DUP5 ADD SLT PUSH2 0x4B9 JUMPI PUSH2 0x4B8 PUSH2 0x498 JUMP JUMPDEST JUMPDEST DUP3 CALLDATALOAD SWAP1 POP PUSH8 0xFFFFFFFFFFFFFFFF DUP2 GT ISZERO PUSH2 0x4D6 JUMPI PUSH2 0x4D5 PUSH2 0x49C JUMP JUMPDEST JUMPDEST PUSH1 0x20 DUP4 ADD SWAP2 POP DUP4 PUSH1 0x1 DUP3 MUL DUP4 ADD GT ISZERO PUSH2 0x4F2 JUMPI PUSH2 0x4F1 PUSH2 0x4A0 JUMP JUMPDEST JUMPDEST SWAP3 POP SWAP3 SWAP1 POP JUMP JUMPDEST PUSH2 0x502 DUP2 PUSH2 0x411 JUMP JUMPDEST DUP2 EQ PUSH2 0x50C JUMPI PUSH0 PUSH0 REVERT JUMPDEST POP JUMP JUMPDEST PUSH0 DUP2 CALLDATALOAD SWAP1 POP PUSH2 0x51D DUP2 PUSH2 0x4F9 JUMP JUMPDEST SWAP3 SWAP2 POP POP JUMP JUMPDEST PUSH0 PUSH0 PUSH0 PUSH1 0x40 DUP5 DUP7 SUB SLT ISZERO PUSH2 0x53A JUMPI PUSH2 0x539 PUSH2 0x314 JUMP JUMPDEST JUMPDEST PUSH0 DUP5 ADD CALLDATALOAD PUSH8 0xFFFFFFFFFFFFFFFF DUP2 GT ISZERO PUSH2 0x557 JUMPI PUSH2 0x556 PUSH2 0x318 JUMP JUMPDEST JUMPDEST PUSH2 0x563 DUP7 DUP3 DUP8 ADD PUSH2 0x4A4 JUMP JUMPDEST SWAP4 POP SWAP4 POP POP PUSH1 0x20 PUSH2 0x576 DUP7 DUP3 DUP8 ADD PUSH2 0x50F JUMP JUMPDEST SWAP2 POP POP SWAP3 POP SWAP3 POP SWAP3 JUMP JUMPDEST PUSH32 0x4E487B7100000000000000000000000000000000000000000000000000000000 PUSH0 MSTORE PUSH1 0x22 PUSH1 0x4 MSTORE PUSH1 0x24 PUSH0 REVERT JUMPDEST PUSH0 PUSH1 0x2 DUP3 DIV SWAP1 POP PUSH1 0x1 DUP3 AND DUP1 PUSH2 0x5C4 JUMPI PUSH1 0x7F DUP3 AND SWAP2 POP JUMPDEST PUSH1 0x20 DUP3 LT DUP2 SUB PUSH2 0x5D7 JUMPI PUSH2 0x5D6 PUSH2 0x580 JUMP JUMPDEST JUMPDEST POP SWAP2 SWAP1 POP JUMP JUMPDEST PUSH32 0x4E487B7100000000000000000000000000000000000000000000000000000000 PUSH0 MSTORE PUSH1 0x41 PUSH1 0x4 MSTORE PUSH1 0x24 PUSH0 REVERT JUMPDEST PUSH0 DUP2 SWAP1 POP DUP2 PUSH0 MSTORE PUSH1 0x20 PUSH0 KECCAK256 SWAP1 POP SWAP2 SWAP1 POP JUMP JUMPDEST PUSH0 PUSH1 0x20 PUSH1 0x1F DUP4 ADD DIV SWAP1 POP SWAP2 SWAP1 POP JUMP JUMPDEST PUSH0 DUP3 DUP3 SHL SWAP1 POP SWAP3 SWAP2 POP POP JUMP JUMPDEST PUSH0 PUSH1 0x8 DUP4 MUL PUSH2 0x666 PUSH32 0xFFFFFFFFFFFFFFFFFFFFFFFFFFFFFFFFFFFFFFFFFFFFFFFFFFFFFFFFFFFFFFFF DUP3 PUSH2 0x62B JUMP JUMPDEST PUSH2 0x670 DUP7 DUP4 PUSH2 0x62B JUMP JUMPDEST SWAP6 POP DUP1 NOT DUP5 AND SWAP4 POP DUP1 DUP7 AND DUP5 OR SWAP3 POP POP POP SWAP4 SWAP3 POP POP POP JUMP JUMPDEST PUSH0 DUP2 SWAP1 POP SWAP2 SWAP1 POP JUMP JUMPDEST PUSH0 PUSH2 0x6AB PUSH2 0x6A6 PUSH2 0x6A1 DUP5 PUSH2 0x411 JUMP JUMPDEST PUSH2 0x688 JUMP JUMPDEST PUSH2 0x411 JUMP JUMPDEST SWAP1 POP SWAP2 SWAP1 POP JUMP JUMPDEST PUSH0 DUP2 SWAP1 POP SWAP2 SWAP1 POP JUMP JUMPDEST PUSH2 0x6C4 DUP4 PUSH2 0x691 JUMP JUMPDEST PUSH2 0x6D8 PUSH2 0x6D0 DUP3 PUSH2 0x6B2 JUMP JUMPDEST DUP5 DUP5 SLOAD PUSH2 0x637 JUMP JUMPDEST DUP3 SSTORE POP POP POP POP JUMP JUMPDEST PUSH0 PUSH0 SWAP1 POP SWAP1 JUMP JUMPDEST PUSH2 0x6EF PUSH2 0x6E0 JUMP JUMPDEST PUSH2 0x6FA DUP2 DUP5 DUP5 PUSH2 0x6BB JUMP JUMPDEST POP POP POP JUMP JUMPDEST JUMPDEST DUP2 DUP2 LT ISZERO PUSH2 0x71D JUMPI PUSH2 0x712 PUSH0 DUP3 PUSH2 0x6E7 JUMP JUMPDEST PUSH1 0x1 DUP2 ADD SWAP1 POP PUSH2 0x700 JUMP JUMPDEST POP POP JUMP JUMPDEST PUSH1 0x1F DUP3 GT ISZERO PUSH2 0x762 JUMPI PUSH2 0x733 DUP2 PUSH2 0x60A JUMP JUMPDEST PUSH2 0x73C DUP5 PUSH2 0x61C JUMP JUMPDEST DUP2 ADD PUSH1 0x20 DUP6 LT ISZERO PUSH2 0x74B JUMPI DUP2 SWAP1 POP JUMPDEST PUSH2 0x75F PUSH2 0x757 DUP6 PUSH2 0x61C JUMP JUMPDEST DUP4 ADD DUP3 PUSH2 0x6FF JUMP JUMPDEST POP POP JUMPDEST POP POP POP JUMP JUMPDEST PUSH0 DUP3 DUP3 SHR SWAP1 POP SWAP3 SWAP2 POP POP JUMP JUMPDEST PUSH0 PUSH2 0x782 PUSH0 NOT DUP5 PUSH1 0x8 MUL PUSH2 0x767 JUMP JUMPDEST NOT DUP1 DUP4 AND SWAP2 POP POP SWAP3 SWAP2 POP POP JUMP JUMPDEST PUSH0 PUSH2 0x79A DUP4 DUP4 PUSH2 0x773 JUMP JUMPDEST SWAP2 POP DUP3 PUSH1 0x2 MUL DUP3 OR SWAP1 POP SWAP3 SWAP2 POP POP JUMP JUMPDEST PUSH2 0x7B3 DUP3 PUSH2 0x3A1 JUMP JUMPDEST PUSH8 0xFFFFFFFFFFFFFFFF DUP2 GT ISZERO PUSH2 0x7CC JUMPI PUSH2 0x7CB PUSH2 0x5DD JUMP JUMPDEST JUMPDEST PUSH2 0x7D6 DUP3 SLOAD PUSH2 0x5AD JUMP JUMPDEST PUSH2 0x7E1 DUP3 DUP3 DUP6 PUSH2 0x721 JUMP JUMPDEST PUSH0 PUSH1 0x20 SWAP1 POP PUSH1 0x1F DUP4 GT PUSH1 0x1 DUP2 EQ PUSH2 0x812 JUMPI PUSH0 DUP5 ISZERO PUSH2 0x800 JUMPI DUP3 DUP8 ADD MLOAD SWAP1 POP JUMPDEST PUSH2 0x80A DUP6 DUP3 PUSH2 0x78F JUMP JUMPDEST DUP7 SSTORE POP PUSH2 0x871 JUMP JUMPDEST PUSH1 0x1F NOT DUP5 AND PUSH2 0x820 DUP7 PUSH2 0x60A JUMP JUMPDEST PUSH0 JUMPDEST DUP3 DUP2 LT ISZERO PUSH2 0x847 JUMPI DUP5 DUP10 ADD MLOAD DUP3 SSTORE PUSH1 0x1 DUP3 ADD SWAP2 POP PUSH1 0x20 DUP6 ADD SWAP5 POP PUSH1 0x20 DUP2 ADD SWAP1 POP PUSH2 0x822 JUMP JUMPDEST DUP7 DUP4 LT ISZERO PUSH2 0x864 JUMPI DUP5 DUP10 ADD MLOAD PUSH2 0x860 PUSH1 0x1F DUP10 AND DUP3 PUSH2 0x773 JUMP JUMPDEST DUP4 SSTORE POP JUMPDEST PUSH1 0x1 PUSH1 0x2 DUP9 MUL ADD DUP9 SSTORE POP POP POP JUMPDEST POP POP POP POP POP POP JUMP INVALID LOG2 PUSH5 0x6970667358 0x22 SLT KECCAK256 LOG0 0x21 0x28 EXTSTATICCALL 0xC6 0x4F ADDRESS RJUMPI 0x3BA0 EXP 0xC7 0x4F 0xD8 SWAP11 SWAPN 0xAB DATALOADN 0xF34 CODECOPY MOD 0xED CALLDATACOPY PUSH29 0xBB164C44B9D86664736F6C634300081E00330000000000000000000000 "
				},
				"gasEstimates": {
					"creation": {
						"codeDepositCost": "444600",
						"executionCost": "478",
						"totalCost": "445078"
					},
					"external": {
						"getStudent(address)": "infinite",
						"isStudentRegistered(address)": "2875",
						"register(string,uint256)": "infinite"
					}
				},
				"methodIdentifiers": {
					"getStudent(address)": "6b7b44d7",
					"isStudentRegistered(address)": "b8b2e42c",
					"register(string,uint256)": "ea87152b"
				}
			},
			"storageLayout": {
				"storage": [
					{
						"astId": 6,
						"contract": "contracts/StudentRegistry.sol:StudentRegistry",
						"label": "students",
						"offset": 0,
						"slot": "0",
						"type": "t_mapping(t_address,t_struct(Student)13_storage)"
					}
				],
				"types": {
					"t_address": {
						"encoding": "inplace",
						"label": "address",
						"numberOfBytes": "20"
					},
					"t_bool": {
						"encoding": "inplace",
						"label": "bool",
						"numberOfBytes": "1"
					},
					"t_mapping(t_address,t_struct(Student)13_storage)": {
						"encoding": "mapping",
						"key": "t_address",
						"label": "mapping(address => struct StudentRegistry.Student)",
						"numberOfBytes": "32",
						"value": "t_struct(Student)13_storage"
					},
					"t_string_storage": {
						"encoding": "bytes",
						"label": "string",
						"numberOfBytes": "32"
					},
					"t_struct(Student)13_storage": {
						"encoding": "inplace",
						"label": "struct StudentRegistry.Student",
						"members": [
							{
								"astId": 8,
								"contract": "contracts/StudentRegistry.sol:StudentRegistry",
								"label": "name",
								"offset": 0,
								"slot": "0",
								"type": "t_string_storage"
							},
							{
								"astId": 10,
								"contract": "contracts/StudentRegistry.sol:StudentRegistry",
								"label": "age",
								"offset": 0,
								"slot": "1",
								"type": "t_uint256"
							},
							{
								"astId": 12,
								"contract": "contracts/StudentRegistry.sol:StudentRegistry",
								"label": "isRegistered",
								"offset": 0,
								"slot": "2",
								"type": "t_bool"
							}
						],
						"numberOfBytes": "96"
					},
					"t_uint256": {
						"encoding": "inplace",
						"label": "uint256",
						"numberOfBytes": "32"
					}
				}
			},
			"userdoc": {
				"kind": "user",
				"methods": {},
				"version": 1
			}
		}
	}
}