{
	"contracts/Voting.sol": {
		"Voting": {
			"abi": [
				{
					"inputs": [],
					"stateMutability": "nonpayable",
					"type": "constructor"
				},
				{
					"anonymous": false,
					"inputs": [
						{
							"indexed": false,
							"internalType": "address",
							"name": "voter",
							"type": "address"
						},
						{
							"indexed": false,
							"internalType": "address",
							"name": "candidateId",
							"type": "address"
						}
					],
					"name": "Voted",
					"type": "event"
				},
				{
					"inputs": [
						{
							"internalType": "address",
							"name": "candidateAddress",
							"type": "address"
						},
						{
							"internalType": "string",
							"name": "name",
							"type": "string"
						}
					],
					"name": "addCandidate",
					"outputs": [],
					"stateMutability": "nonpayable",
					"type": "function"
				},
				{
					"inputs": [
						{
							"internalType": "address",
							"name": "candidateAddress",
							"type": "address"
						}
					],
					"name": "getVoteCount",
					"outputs": [
						{
							"internalType": "uint256",
							"name": "",
							"type": "uint256"
						}
					],
					"stateMutability": "view",
					"type": "function"
				},
				{
					"inputs": [
						{
							"internalType": "address",
							"name": "candidateAddress",
							"type": "address"
						}
					],
					"name": "vote",
					"outputs": [],
					"stateMutability": "nonpayable",
					"type": "function"
				}
			],
			"devdoc": {
				"kind": "dev",
				"methods": {},
				"version": 1
			},
			"evm": {
				"assembly": "    /* \"contracts/Voting.sol\":72:1347  contract Voting {... */\n  mstore(0x40, 0x80)\n    /* \"contracts/Voting.sol\":675:726  constructor() {... */\n  callvalue\n  dup1\n  iszero\n  tag_1\n  jumpi\n  revert(0x00, 0x00)\ntag_1:\n  pop\n    /* \"contracts/Voting.sol\":708:718  msg.sender */\n  caller\n    /* \"contracts/Voting.sol\":700:705  owner */\n  0x00\n  0x00\n    /* \"contracts/Voting.sol\":700:718  owner = msg.sender */\n  0x0100\n  exp\n  dup2\n  sload\n  dup2\n  0xffffffffffffffffffffffffffffffffffffffff\n  mul\n  not\n  and\n  swap1\n  dup4\n  0xffffffffffffffffffffffffffffffffffffffff\n  and\n  mul\n  or\n  swap1\n  sstore\n  pop\n    /* \"contracts/Voting.sol\":72:1347  contract Voting {... */\n  dataSize(sub_0)\n  dup1\n  dataOffset(sub_0)\n  0x00\n  codecopy\n  0x00\n  return\nstop\n\nsub_0: assembly {\n        /* \"contracts/Voting.sol\":72:1347  contract Voting {... */\n      mstore(0x40, 0x80)\n      callvalue\n      dup1\n      iszero\n      tag_1\n      jumpi\n      revert(0x00, 0x00)\n    tag_1:\n      pop\n      jumpi(tag_2, lt(calldatasize, 0x04))\n      shr(0xe0, calldataload(0x00))\n      dup1\n      0x6dd7d8ea\n      eq\n      tag_3\n      jumpi\n      dup1\n      0x9a594f06\n      eq\n      tag_4\n      jumpi\n      dup1\n      0xe652f4cc\n      eq\n      tag_5\n      jumpi\n    tag_2:\n      revert(0x00, 0x00)\n        /* \"contracts/Voting.sol\":897:1145  function vote(address candidateAddress) external hasNotVoted {... */\n    tag_3:\n      tag_6\n      0x04\n      dup1\n      calldatasize\n      sub\n      dup2\n      add\n      swap1\n      tag_7\n      swap2\n      swap1\n      tag_8\n      jump\t// in\n    tag_7:\n      tag_9\n      jump\t// in\n    tag_6:\n      stop\n        /* \"contracts/Voting.sol\":734:889  function addCandidate(address candidateAddress, string calldata name) external isOwner {... */\n    tag_4:\n      tag_10\n      0x04\n      dup1\n      calldatasize\n      sub\n      dup2\n      add\n      swap1\n      tag_11\n      swap2\n      swap1\n      tag_12\n      jump\t// in\n    tag_11:\n      tag_13\n      jump\t// in\n    tag_10:\n      stop\n        /* \"contracts/Voting.sol\":1203:1344  function getVoteCount(address candidateAddress) external view returns (uint) {... */\n    tag_5:\n      tag_14\n      0x04\n      dup1\n      calldatasize\n      sub\n      dup2\n      add\n      swap1\n      tag_15\n      swap2\n      swap1\n      tag_8\n      jump\t// in\n    tag_15:\n      tag_16\n      jump\t// in\n    tag_14:\n      mload(0x40)\n      tag_17\n      swap2\n      swap1\n      tag_18\n      jump\t// in\n    tag_17:\n      mload(0x40)\n      dup1\n      swap2\n      sub\n      swap1\n      return\n        /* \"contracts/Voting.sol\":897:1145  function vote(address candidateAddress) external hasNotVoted {... */\n    tag_9:\n        /* \"contracts/Voting.sol\":568:573  false */\n      0x00\n        /* \"contracts/Voting.sol\":544:573  hasVoted[msg.sender] == false */\n      iszero\n      iszero\n        /* \"contracts/Voting.sol\":544:552  hasVoted */\n      0x02\n        /* \"contracts/Voting.sol\":544:564  hasVoted[msg.sender] */\n      0x00\n        /* \"contracts/Voting.sol\":553:563  msg.sender */\n      caller\n        /* \"contracts/Voting.sol\":544:564  hasVoted[msg.sender] */\n      0xffffffffffffffffffffffffffffffffffffffff\n      and\n      0xffffffffffffffffffffffffffffffffffffffff\n      and\n      dup2\n      mstore\n      0x20\n      add\n      swap1\n      dup2\n      mstore\n      0x20\n      add\n      0x00\n      keccak256\n      0x00\n      swap1\n      sload\n      swap1\n      0x0100\n      exp\n      swap1\n      div\n      0xff\n      and\n        /* \"contracts/Voting.sol\":544:573  hasVoted[msg.sender] == false */\n      iszero\n      iszero\n      eq\n        /* \"contracts/Voting.sol\":536:591  require(hasVoted[msg.sender] == false, \"Already voted\") */\n      tag_20\n      jumpi\n      mload(0x40)\n      0x08c379a000000000000000000000000000000000000000000000000000000000\n      dup2\n      mstore\n      0x04\n      add\n      tag_21\n      swap1\n      tag_22\n      jump\t// in\n    tag_21:\n      mload(0x40)\n      dup1\n      swap2\n      sub\n      swap1\n      revert\n    tag_20:\n        /* \"contracts/Voting.sol\":1011:1012  1 */\n      0x01\n        /* \"contracts/Voting.sol\":969:979  candidates */\n      dup1\n        /* \"contracts/Voting.sol\":969:997  candidates[candidateAddress] */\n      0x00\n        /* \"contracts/Voting.sol\":980:996  candidateAddress */\n      dup4\n        /* \"contracts/Voting.sol\":969:997  candidates[candidateAddress] */\n      0xffffffffffffffffffffffffffffffffffffffff\n      and\n      0xffffffffffffffffffffffffffffffffffffffff\n      and\n      dup2\n      mstore\n      0x20\n      add\n      swap1\n      dup2\n      mstore\n      0x20\n      add\n      0x00\n      keccak256\n        /* \"contracts/Voting.sol\":969:1007  candidates[candidateAddress].voteCount */\n      0x01\n      add\n      0x00\n        /* \"contracts/Voting.sol\":969:1012  candidates[candidateAddress].voteCount += 1 */\n      dup3\n      dup3\n      sload\n      tag_24\n      swap2\n      swap1\n      tag_25\n      jump\t// in\n    tag_24:\n      swap3\n      pop\n      pop\n      dup2\n      swap1\n      sstore\n      pop\n        /* \"contracts/Voting.sol\":1047:1051  true */\n      0x01\n        /* \"contracts/Voting.sol\":1024:1032  hasVoted */\n      0x02\n        /* \"contracts/Voting.sol\":1024:1044  hasVoted[msg.sender] */\n      0x00\n        /* \"contracts/Voting.sol\":1033:1043  msg.sender */\n      caller\n        /* \"contracts/Voting.sol\":1024:1044  hasVoted[msg.sender] */\n      0xffffffffffffffffffffffffffffffffffffffff\n      and\n      0xffffffffffffffffffffffffffffffffffffffff\n      and\n      dup2\n      mstore\n      0x20\n      add\n      swap1\n      dup2\n      mstore\n      0x20\n      add\n      0x00\n      keccak256\n      0x00\n        /* \"contracts/Voting.sol\":1024:1051  hasVoted[msg.sender] = true */\n      0x0100\n      exp\n      dup2\n      sload\n      dup2\n      0xff\n      mul\n      not\n      and\n      swap1\n      dup4\n      iszero\n      iszero\n      mul\n      or\n      swap1\n      sstore\n      pop\n        /* \"contracts/Voting.sol\":1101:1136  Voted(msg.sender, candidateAddress) */\n      0xce0c7a2a940807f7dc2ce7a615c2532e915e6c0ac9a08bc4ed9d515a710a53e2\n        /* \"contracts/Voting.sol\":1107:1117  msg.sender */\n      caller\n        /* \"contracts/Voting.sol\":1119:1135  candidateAddress */\n      dup3\n        /* \"contracts/Voting.sol\":1101:1136  Voted(msg.sender, candidateAddress) */\n      mload(0x40)\n      tag_26\n      swap3\n      swap2\n      swap1\n      tag_27\n      jump\t// in\n    tag_26:\n      mload(0x40)\n      dup1\n      swap2\n      sub\n      swap1\n      log1\n        /* \"contracts/Voting.sol\":897:1145  function vote(address candidateAddress) external hasNotVoted {... */\n      pop\n      jump\t// out\n        /* \"contracts/Voting.sol\":734:889  function addCandidate(address candidateAddress, string calldata name) external isOwner {... */\n    tag_13:\n        /* \"contracts/Voting.sol\":413:418  owner */\n      0x00\n      0x00\n      swap1\n      sload\n      swap1\n      0x0100\n      exp\n      swap1\n      div\n      0xffffffffffffffffffffffffffffffffffffffff\n      and\n        /* \"contracts/Voting.sol\":399:418  msg.sender == owner */\n      0xffffffffffffffffffffffffffffffffffffffff\n      and\n        /* \"contracts/Voting.sol\":399:409  msg.sender */\n      caller\n        /* \"contracts/Voting.sol\":399:418  msg.sender == owner */\n      0xffffffffffffffffffffffffffffffffffffffff\n      and\n      eq\n        /* \"contracts/Voting.sol\":391:432  require(msg.sender == owner, \"Not Owner\") */\n      tag_29\n      jumpi\n      mload(0x40)\n      0x08c379a000000000000000000000000000000000000000000000000000000000\n      dup2\n      mstore\n      0x04\n      add\n      tag_30\n      swap1\n      tag_31\n      jump\t// in\n    tag_30:\n      mload(0x40)\n      dup1\n      swap2\n      sub\n      swap1\n      revert\n    tag_29:\n        /* \"contracts/Voting.sol\":863:881  Candidate(name, 0) */\n      mload(0x40)\n      dup1\n      0x40\n      add\n      0x40\n      mstore\n      dup1\n        /* \"contracts/Voting.sol\":873:877  name */\n      dup4\n      dup4\n        /* \"contracts/Voting.sol\":863:881  Candidate(name, 0) */\n      dup1\n      dup1\n      0x1f\n      add\n      0x20\n      dup1\n      swap2\n      div\n      mul\n      0x20\n      add\n      mload(0x40)\n      swap1\n      dup2\n      add\n      0x40\n      mstore\n      dup1\n      swap4\n      swap3\n      swap2\n      swap1\n      dup2\n      dup2\n      mstore\n      0x20\n      add\n      dup4\n      dup4\n      dup1\n      dup3\n      dup5\n      calldatacopy\n      0x00\n      dup2\n      dup5\n      add\n      mstore\n      not(0x1f)\n      0x1f\n      dup3\n      add\n      and\n      swap1\n      pop\n      dup1\n      dup4\n      add\n      swap3\n      pop\n      pop\n      pop\n      pop\n      pop\n      pop\n      pop\n      dup2\n      mstore\n      0x20\n      add\n        /* \"contracts/Voting.sol\":879:880  0 */\n      0x00\n        /* \"contracts/Voting.sol\":863:881  Candidate(name, 0) */\n      dup2\n      mstore\n      pop\n        /* \"contracts/Voting.sol\":832:842  candidates */\n      0x01\n        /* \"contracts/Voting.sol\":832:860  candidates[candidateAddress] */\n      0x00\n        /* \"contracts/Voting.sol\":843:859  candidateAddress */\n      dup6\n        /* \"contracts/Voting.sol\":832:860  candidates[candidateAddress] */\n      0xffffffffffffffffffffffffffffffffffffffff\n      and\n      0xffffffffffffffffffffffffffffffffffffffff\n      and\n      dup2\n      mstore\n      0x20\n      add\n      swap1\n      dup2\n      mstore\n      0x20\n      add\n      0x00\n      keccak256\n        /* \"contracts/Voting.sol\":832:881  candidates[candidateAddress] = Candidate(name, 0) */\n      0x00\n      dup3\n      add\n      mload\n      dup2\n      0x00\n      add\n      swap1\n      dup2\n      tag_33\n      swap2\n      swap1\n      tag_34\n      jump\t// in\n    tag_33:\n      pop\n      0x20\n      dup3\n      add\n      mload\n      dup2\n      0x01\n      add\n      sstore\n      swap1\n      pop\n      pop\n        /* \"contracts/Voting.sol\":734:889  function addCandidate(address candidateAddress, string calldata name) external isOwner {... */\n      pop\n      pop\n      pop\n      jump\t// out\n        /* \"contracts/Voting.sol\":1203:1344  function getVoteCount(address candidateAddress) external view returns (uint) {... */\n    tag_16:\n        /* \"contracts/Voting.sol\":1274:1278  uint */\n      0x00\n        /* \"contracts/Voting.sol\":1298:1308  candidates */\n      0x01\n        /* \"contracts/Voting.sol\":1298:1326  candidates[candidateAddress] */\n      0x00\n        /* \"contracts/Voting.sol\":1309:1325  candidateAddress */\n      dup4\n        /* \"contracts/Voting.sol\":1298:1326  candidates[candidateAddress] */\n      0xffffffffffffffffffffffffffffffffffffffff\n      and\n      0xffffffffffffffffffffffffffffffffffffffff\n      and\n      dup2\n      mstore\n      0x20\n      add\n      swap1\n      dup2\n      mstore\n      0x20\n      add\n      0x00\n      keccak256\n        /* \"contracts/Voting.sol\":1298:1336  candidates[candidateAddress].voteCount */\n      0x01\n      add\n      sload\n        /* \"contracts/Voting.sol\":1291:1336  return candidates[candidateAddress].voteCount */\n      swap1\n      pop\n        /* \"contracts/Voting.sol\":1203:1344  function getVoteCount(address candidateAddress) external view returns (uint) {... */\n      swap2\n      swap1\n      pop\n      jump\t// out\n        /* \"#utility.yul\":88:205   */\n    tag_37:\n        /* \"#utility.yul\":197:198   */\n      0x00\n        /* \"#utility.yul\":194:195   */\n      0x00\n        /* \"#utility.yul\":187:199   */\n      revert\n        /* \"#utility.yul\":211:328   */\n    tag_38:\n        /* \"#utility.yul\":320:321   */\n      0x00\n        /* \"#utility.yul\":317:318   */\n      0x00\n        /* \"#utility.yul\":310:322   */\n      revert\n        /* \"#utility.yul\":334:460   */\n    tag_39:\n        /* \"#utility.yul\":371:378   */\n      0x00\n        /* \"#utility.yul\":411:453   */\n      0xffffffffffffffffffffffffffffffffffffffff\n        /* \"#utility.yul\":404:409   */\n      dup3\n        /* \"#utility.yul\":400:454   */\n      and\n        /* \"#utility.yul\":389:454   */\n      swap1\n      pop\n        /* \"#utility.yul\":334:460   */\n      swap2\n      swap1\n      pop\n      jump\t// out\n        /* \"#utility.yul\":466:562   */\n    tag_40:\n        /* \"#utility.yul\":503:510   */\n      0x00\n        /* \"#utility.yul\":532:556   */\n      tag_81\n        /* \"#utility.yul\":550:555   */\n      dup3\n        /* \"#utility.yul\":532:556   */\n      tag_39\n      jump\t// in\n    tag_81:\n        /* \"#utility.yul\":521:556   */\n      swap1\n      pop\n        /* \"#utility.yul\":466:562   */\n      swap2\n      swap1\n      pop\n      jump\t// out\n        /* \"#utility.yul\":568:690   */\n    tag_41:\n        /* \"#utility.yul\":641:665   */\n      tag_83\n        /* \"#utility.yul\":659:664   */\n      dup2\n        /* \"#utility.yul\":641:665   */\n      tag_40\n      jump\t// in\n    tag_83:\n        /* \"#utility.yul\":634:639   */\n      dup2\n        /* \"#utility.yul\":631:666   */\n      eq\n        /* \"#utility.yul\":621:684   */\n      tag_84\n      jumpi\n        /* \"#utility.yul\":680:681   */\n      0x00\n        /* \"#utility.yul\":677:678   */\n      0x00\n        /* \"#utility.yul\":670:682   */\n      revert\n        /* \"#utility.yul\":621:684   */\n    tag_84:\n        /* \"#utility.yul\":568:690   */\n      pop\n      jump\t// out\n        /* \"#utility.yul\":696:835   */\n    tag_42:\n        /* \"#utility.yul\":742:747   */\n      0x00\n        /* \"#utility.yul\":780:786   */\n      dup2\n        /* \"#utility.yul\":767:787   */\n      calldataload\n        /* \"#utility.yul\":758:787   */\n      swap1\n      pop\n        /* \"#utility.yul\":796:829   */\n      tag_86\n        /* \"#utility.yul\":823:828   */\n      dup2\n        /* \"#utility.yul\":796:829   */\n      tag_41\n      jump\t// in\n    tag_86:\n        /* \"#utility.yul\":696:835   */\n      swap3\n      swap2\n      pop\n      pop\n      jump\t// out\n        /* \"#utility.yul\":841:1170   */\n    tag_8:\n        /* \"#utility.yul\":900:906   */\n      0x00\n        /* \"#utility.yul\":949:951   */\n      0x20\n        /* \"#utility.yul\":937:946   */\n      dup3\n        /* \"#utility.yul\":928:935   */\n      dup5\n        /* \"#utility.yul\":924:947   */\n      sub\n        /* \"#utility.yul\":920:952   */\n      slt\n        /* \"#utility.yul\":917:1036   */\n      iszero\n      tag_88\n      jumpi\n        /* \"#utility.yul\":955:1034   */\n      tag_89\n      tag_37\n      jump\t// in\n    tag_89:\n        /* \"#utility.yul\":917:1036   */\n    tag_88:\n        /* \"#utility.yul\":1075:1076   */\n      0x00\n        /* \"#utility.yul\":1100:1153   */\n      tag_90\n        /* \"#utility.yul\":1145:1152   */\n      dup5\n        /* \"#utility.yul\":1136:1142   */\n      dup3\n        /* \"#utility.yul\":1125:1134   */\n      dup6\n        /* \"#utility.yul\":1121:1143   */\n      add\n        /* \"#utility.yul\":1100:1153   */\n      tag_42\n      jump\t// in\n    tag_90:\n        /* \"#utility.yul\":1090:1153   */\n      swap2\n      pop\n        /* \"#utility.yul\":1046:1163   */\n      pop\n        /* \"#utility.yul\":841:1170   */\n      swap3\n      swap2\n      pop\n      pop\n      jump\t// out\n        /* \"#utility.yul\":1176:1293   */\n    tag_43:\n        /* \"#utility.yul\":1285:1286   */\n      0x00\n        /* \"#utility.yul\":1282:1283   */\n      0x00\n        /* \"#utility.yul\":1275:1287   */\n      revert\n        /* \"#utility.yul\":1299:1416   */\n    tag_44:\n        /* \"#utility.yul\":1408:1409   */\n      0x00\n        /* \"#utility.yul\":1405:1406   */\n      0x00\n        /* \"#utility.yul\":1398:1410   */\n      revert\n        /* \"#utility.yul\":1422:1539   */\n    tag_45:\n        /* \"#utility.yul\":1531:1532   */\n      0x00\n        /* \"#utility.yul\":1528:1529   */\n      0x00\n        /* \"#utility.yul\":1521:1533   */\n      revert\n        /* \"#utility.yul\":1559:2112   */\n    tag_46:\n        /* \"#utility.yul\":1617:1625   */\n      0x00\n        /* \"#utility.yul\":1627:1633   */\n      0x00\n        /* \"#utility.yul\":1677:1680   */\n      dup4\n        /* \"#utility.yul\":1670:1674   */\n      0x1f\n        /* \"#utility.yul\":1662:1668   */\n      dup5\n        /* \"#utility.yul\":1658:1675   */\n      add\n        /* \"#utility.yul\":1654:1681   */\n      slt\n        /* \"#utility.yul\":1644:1766   */\n      tag_95\n      jumpi\n        /* \"#utility.yul\":1685:1764   */\n      tag_96\n      tag_43\n      jump\t// in\n    tag_96:\n        /* \"#utility.yul\":1644:1766   */\n    tag_95:\n        /* \"#utility.yul\":1798:1804   */\n      dup3\n        /* \"#utility.yul\":1785:1805   */\n      calldataload\n        /* \"#utility.yul\":1775:1805   */\n      swap1\n      pop\n        /* \"#utility.yul\":1828:1846   */\n      0xffffffffffffffff\n        /* \"#utility.yul\":1820:1826   */\n      dup2\n        /* \"#utility.yul\":1817:1847   */\n      gt\n        /* \"#utility.yul\":1814:1931   */\n      iszero\n      tag_97\n      jumpi\n        /* \"#utility.yul\":1850:1929   */\n      tag_98\n      tag_44\n      jump\t// in\n    tag_98:\n        /* \"#utility.yul\":1814:1931   */\n    tag_97:\n        /* \"#utility.yul\":1964:1968   */\n      0x20\n        /* \"#utility.yul\":1956:1962   */\n      dup4\n        /* \"#utility.yul\":1952:1969   */\n      add\n        /* \"#utility.yul\":1940:1969   */\n      swap2\n      pop\n        /* \"#utility.yul\":2018:2021   */\n      dup4\n        /* \"#utility.yul\":2010:2014   */\n      0x01\n        /* \"#utility.yul\":2002:2008   */\n      dup3\n        /* \"#utility.yul\":1998:2015   */\n      mul\n        /* \"#utility.yul\":1988:1996   */\n      dup4\n        /* \"#utility.yul\":1984:2016   */\n      add\n        /* \"#utility.yul\":1981:2022   */\n      gt\n        /* \"#utility.yul\":1978:2106   */\n      iszero\n      tag_99\n      jumpi\n        /* \"#utility.yul\":2025:2104   */\n      tag_100\n      tag_45\n      jump\t// in\n    tag_100:\n        /* \"#utility.yul\":1978:2106   */\n    tag_99:\n        /* \"#utility.yul\":1559:2112   */\n      swap3\n      pop\n      swap3\n      swap1\n      pop\n      jump\t// out\n        /* \"#utility.yul\":2118:2792   */\n    tag_12:\n        /* \"#utility.yul\":2198:2204   */\n      0x00\n        /* \"#utility.yul\":2206:2212   */\n      0x00\n        /* \"#utility.yul\":2214:2220   */\n      0x00\n        /* \"#utility.yul\":2263:2265   */\n      0x40\n        /* \"#utility.yul\":2251:2260   */\n      dup5\n        /* \"#utility.yul\":2242:2249   */\n      dup7\n        /* \"#utility.yul\":2238:2261   */\n      sub\n        /* \"#utility.yul\":2234:2266   */\n      slt\n        /* \"#utility.yul\":2231:2350   */\n      iszero\n      tag_102\n      jumpi\n        /* \"#utility.yul\":2269:2348   */\n      tag_103\n      tag_37\n      jump\t// in\n    tag_103:\n        /* \"#utility.yul\":2231:2350   */\n    tag_102:\n        /* \"#utility.yul\":2389:2390   */\n      0x00\n        /* \"#utility.yul\":2414:2467   */\n      tag_104\n        /* \"#utility.yul\":2459:2466   */\n      dup7\n        /* \"#utility.yul\":2450:2456   */\n      dup3\n        /* \"#utility.yul\":2439:2448   */\n      dup8\n        /* \"#utility.yul\":2435:2457   */\n      add\n        /* \"#utility.yul\":2414:2467   */\n      tag_42\n      jump\t// in\n    tag_104:\n        /* \"#utility.yul\":2404:2467   */\n      swap4\n      pop\n        /* \"#utility.yul\":2360:2477   */\n      pop\n        /* \"#utility.yul\":2544:2546   */\n      0x20\n        /* \"#utility.yul\":2533:2542   */\n      dup5\n        /* \"#utility.yul\":2529:2547   */\n      add\n        /* \"#utility.yul\":2516:2548   */\n      calldataload\n        /* \"#utility.yul\":2575:2593   */\n      0xffffffffffffffff\n        /* \"#utility.yul\":2567:2573   */\n      dup2\n        /* \"#utility.yul\":2564:2594   */\n      gt\n        /* \"#utility.yul\":2561:2678   */\n      iszero\n      tag_105\n      jumpi\n        /* \"#utility.yul\":2597:2676   */\n      tag_106\n      tag_38\n      jump\t// in\n    tag_106:\n        /* \"#utility.yul\":2561:2678   */\n    tag_105:\n        /* \"#utility.yul\":2710:2775   */\n      tag_107\n        /* \"#utility.yul\":2767:2774   */\n      dup7\n        /* \"#utility.yul\":2758:2764   */\n      dup3\n        /* \"#utility.yul\":2747:2756   */\n      dup8\n        /* \"#utility.yul\":2743:2765   */\n      add\n        /* \"#utility.yul\":2710:2775   */\n      tag_46\n      jump\t// in\n    tag_107:\n        /* \"#utility.yul\":2692:2775   */\n      swap3\n      pop\n      swap3\n      pop\n        /* \"#utility.yul\":2487:2785   */\n      pop\n        /* \"#utility.yul\":2118:2792   */\n      swap3\n      pop\n      swap3\n      pop\n      swap3\n      jump\t// out\n        /* \"#utility.yul\":2798:2875   */\n    tag_47:\n        /* \"#utility.yul\":2835:2842   */\n      0x00\n        /* \"#utility.yul\":2864:2869   */\n      dup2\n        /* \"#utility.yul\":2853:2869   */\n      swap1\n      pop\n        /* \"#utility.yul\":2798:2875   */\n      swap2\n      swap1\n      pop\n      jump\t// out\n        /* \"#utility.yul\":2881:2999   */\n    tag_48:\n        /* \"#utility.yul\":2968:2992   */\n      tag_110\n        /* \"#utility.yul\":2986:2991   */\n      dup2\n        /* \"#utility.yul\":2968:2992   */\n      tag_47\n      jump\t// in\n    tag_110:\n        /* \"#utility.yul\":2963:2966   */\n      dup3\n        /* \"#utility.yul\":2956:2993   */\n      mstore\n        /* \"#utility.yul\":2881:2999   */\n      pop\n      pop\n      jump\t// out\n        /* \"#utility.yul\":3005:3227   */\n    tag_18:\n        /* \"#utility.yul\":3098:3102   */\n      0x00\n        /* \"#utility.yul\":3136:3138   */\n      0x20\n        /* \"#utility.yul\":3125:3134   */\n      dup3\n        /* \"#utility.yul\":3121:3139   */\n      add\n        /* \"#utility.yul\":3113:3139   */\n      swap1\n      pop\n        /* \"#utility.yul\":3149:3220   */\n      tag_112\n        /* \"#utility.yul\":3217:3218   */\n      0x00\n        /* \"#utility.yul\":3206:3215   */\n      dup4\n        /* \"#utility.yul\":3202:3219   */\n      add\n        /* \"#utility.yul\":3193:3199   */\n      dup5\n        /* \"#utility.yul\":3149:3220   */\n      tag_48\n      jump\t// in\n    tag_112:\n        /* \"#utility.yul\":3005:3227   */\n      swap3\n      swap2\n      pop\n      pop\n      jump\t// out\n        /* \"#utility.yul\":3233:3402   */\n    tag_49:\n        /* \"#utility.yul\":3317:3328   */\n      0x00\n        /* \"#utility.yul\":3351:3357   */\n      dup3\n        /* \"#utility.yul\":3346:3349   */\n      dup3\n        /* \"#utility.yul\":3339:3358   */\n      mstore\n        /* \"#utility.yul\":3391:3395   */\n      0x20\n        /* \"#utility.yul\":3386:3389   */\n      dup3\n        /* \"#utility.yul\":3382:3396   */\n      add\n        /* \"#utility.yul\":3367:3396   */\n      swap1\n      pop\n        /* \"#utility.yul\":3233:3402   */\n      swap3\n      swap2\n      pop\n      pop\n      jump\t// out\n        /* \"#utility.yul\":3408:3571   */\n    tag_50:\n        /* \"#utility.yul\":3548:3563   */\n      0x416c726561647920766f74656400000000000000000000000000000000000000\n        /* \"#utility.yul\":3544:3545   */\n      0x00\n        /* \"#utility.yul\":3536:3542   */\n      dup3\n        /* \"#utility.yul\":3532:3546   */\n      add\n        /* \"#utility.yul\":3525:3564   */\n      mstore\n        /* \"#utility.yul\":3408:3571   */\n      pop\n      jump\t// out\n        /* \"#utility.yul\":3577:3943   */\n    tag_51:\n        /* \"#utility.yul\":3719:3722   */\n      0x00\n        /* \"#utility.yul\":3740:3807   */\n      tag_116\n        /* \"#utility.yul\":3804:3806   */\n      0x0d\n        /* \"#utility.yul\":3799:3802   */\n      dup4\n        /* \"#utility.yul\":3740:3807   */\n      tag_49\n      jump\t// in\n    tag_116:\n        /* \"#utility.yul\":3733:3807   */\n      swap2\n      pop\n        /* \"#utility.yul\":3816:3909   */\n      tag_117\n        /* \"#utility.yul\":3905:3908   */\n      dup3\n        /* \"#utility.yul\":3816:3909   */\n      tag_50\n      jump\t// in\n    tag_117:\n        /* \"#utility.yul\":3934:3936   */\n      0x20\n        /* \"#utility.yul\":3929:3932   */\n      dup3\n        /* \"#utility.yul\":3925:3937   */\n      add\n        /* \"#utility.yul\":3918:3937   */\n      swap1\n      pop\n        /* \"#utility.yul\":3577:3943   */\n      swap2\n      swap1\n      pop\n      jump\t// out\n        /* \"#utility.yul\":3949:4368   */\n    tag_22:\n        /* \"#utility.yul\":4115:4119   */\n      0x00\n        /* \"#utility.yul\":4153:4155   */\n      0x20\n        /* \"#utility.yul\":4142:4151   */\n      dup3\n        /* \"#utility.yul\":4138:4156   */\n      add\n        /* \"#utility.yul\":4130:4156   */\n      swap1\n      pop\n        /* \"#utility.yul\":4202:4211   */\n      dup2\n        /* \"#utility.yul\":4196:4200   */\n      dup2\n        /* \"#utility.yul\":4192:4212   */\n      sub\n        /* \"#utility.yul\":4188:4189   */\n      0x00\n        /* \"#utility.yul\":4177:4186   */\n      dup4\n        /* \"#utility.yul\":4173:4190   */\n      add\n        /* \"#utility.yul\":4166:4213   */\n      mstore\n        /* \"#utility.yul\":4230:4361   */\n      tag_119\n        /* \"#utility.yul\":4356:4360   */\n      dup2\n        /* \"#utility.yul\":4230:4361   */\n      tag_51\n      jump\t// in\n    tag_119:\n        /* \"#utility.yul\":4222:4361   */\n      swap1\n      pop\n        /* \"#utility.yul\":3949:4368   */\n      swap2\n      swap1\n      pop\n      jump\t// out\n        /* \"#utility.yul\":4374:4554   */\n    tag_52:\n        /* \"#utility.yul\":4422:4499   */\n      0x4e487b7100000000000000000000000000000000000000000000000000000000\n        /* \"#utility.yul\":4419:4420   */\n      0x00\n        /* \"#utility.yul\":4412:4500   */\n      mstore\n        /* \"#utility.yul\":4519:4523   */\n      0x11\n        /* \"#utility.yul\":4516:4517   */\n      0x04\n        /* \"#utility.yul\":4509:4524   */\n      mstore\n        /* \"#utility.yul\":4543:4547   */\n      0x24\n        /* \"#utility.yul\":4540:4541   */\n      0x00\n        /* \"#utility.yul\":4533:4548   */\n      revert\n        /* \"#utility.yul\":4560:4751   */\n    tag_25:\n        /* \"#utility.yul\":4600:4603   */\n      0x00\n        /* \"#utility.yul\":4619:4639   */\n      tag_122\n        /* \"#utility.yul\":4637:4638   */\n      dup3\n        /* \"#utility.yul\":4619:4639   */\n      tag_47\n      jump\t// in\n    tag_122:\n        /* \"#utility.yul\":4614:4639   */\n      swap2\n      pop\n        /* \"#utility.yul\":4653:4673   */\n      tag_123\n        /* \"#utility.yul\":4671:4672   */\n      dup4\n        /* \"#utility.yul\":4653:4673   */\n      tag_47\n      jump\t// in\n    tag_123:\n        /* \"#utility.yul\":4648:4673   */\n      swap3\n      pop\n        /* \"#utility.yul\":4696:4697   */\n      dup3\n        /* \"#utility.yul\":4693:4694   */\n      dup3\n        /* \"#utility.yul\":4689:4698   */\n      add\n        /* \"#utility.yul\":4682:4698   */\n      swap1\n      pop\n        /* \"#utility.yul\":4717:4720   */\n      dup1\n        /* \"#utility.yul\":4714:4715   */\n      dup3\n        /* \"#utility.yul\":4711:4721   */\n      gt\n        /* \"#utility.yul\":4708:4744   */\n      iszero\n      tag_124\n      jumpi\n        /* \"#utility.yul\":4724:4742   */\n      tag_125\n      tag_52\n      jump\t// in\n    tag_125:\n        /* \"#utility.yul\":4708:4744   */\n    tag_124:\n        /* \"#utility.yul\":4560:4751   */\n      swap3\n      swap2\n      pop\n      pop\n      jump\t// out\n        /* \"#utility.yul\":4757:4875   */\n    tag_53:\n        /* \"#utility.yul\":4844:4868   */\n      tag_127\n        /* \"#utility.yul\":4862:4867   */\n      dup2\n        /* \"#utility.yul\":4844:4868   */\n      tag_40\n      jump\t// in\n    tag_127:\n        /* \"#utility.yul\":4839:4842   */\n      dup3\n        /* \"#utility.yul\":4832:4869   */\n      mstore\n        /* \"#utility.yul\":4757:4875   */\n      pop\n      pop\n      jump\t// out\n        /* \"#utility.yul\":4881:5213   */\n    tag_27:\n        /* \"#utility.yul\":5002:5006   */\n      0x00\n        /* \"#utility.yul\":5040:5042   */\n      0x40\n        /* \"#utility.yul\":5029:5038   */\n      dup3\n        /* \"#utility.yul\":5025:5043   */\n      add\n        /* \"#utility.yul\":5017:5043   */\n      swap1\n      pop\n        /* \"#utility.yul\":5053:5124   */\n      tag_129\n        /* \"#utility.yul\":5121:5122   */\n      0x00\n        /* \"#utility.yul\":5110:5119   */\n      dup4\n        /* \"#utility.yul\":5106:5123   */\n      add\n        /* \"#utility.yul\":5097:5103   */\n      dup6\n        /* \"#utility.yul\":5053:5124   */\n      tag_53\n      jump\t// in\n    tag_129:\n        /* \"#utility.yul\":5134:5206   */\n      tag_130\n        /* \"#utility.yul\":5202:5204   */\n      0x20\n        /* \"#utility.yul\":5191:5200   */\n      dup4\n        /* \"#utility.yul\":5187:5205   */\n      add\n        /* \"#utility.yul\":5178:5184   */\n      dup5\n        /* \"#utility.yul\":5134:5206   */\n      tag_53\n      jump\t// in\n    tag_130:\n        /* \"#utility.yul\":4881:5213   */\n      swap4\n      swap3\n      pop\n      pop\n      pop\n      jump\t// out\n        /* \"#utility.yul\":5219:5378   */\n    tag_54:\n        /* \"#utility.yul\":5359:5370   */\n      0x4e6f74204f776e65720000000000000000000000000000000000000000000000\n        /* \"#utility.yul\":5355:5356   */\n      0x00\n        /* \"#utility.yul\":5347:5353   */\n      dup3\n        /* \"#utility.yul\":5343:5357   */\n      add\n        /* \"#utility.yul\":5336:5371   */\n      mstore\n        /* \"#utility.yul\":5219:5378   */\n      pop\n      jump\t// out\n        /* \"#utility.yul\":5384:5749   */\n    tag_55:\n        /* \"#utility.yul\":5526:5529   */\n      0x00\n        /* \"#utility.yul\":5547:5613   */\n      tag_133\n        /* \"#utility.yul\":5611:5612   */\n      0x09\n        /* \"#utility.yul\":5606:5609   */\n      dup4\n        /* \"#utility.yul\":5547:5613   */\n      tag_49\n      jump\t// in\n    tag_133:\n        /* \"#utility.yul\":5540:5613   */\n      swap2\n      pop\n        /* \"#utility.yul\":5622:5715   */\n      tag_134\n        /* \"#utility.yul\":5711:5714   */\n      dup3\n        /* \"#utility.yul\":5622:5715   */\n      tag_54\n      jump\t// in\n    tag_134:\n        /* \"#utility.yul\":5740:5742   */\n      0x20\n        /* \"#utility.yul\":5735:5738   */\n      dup3\n        /* \"#utility.yul\":5731:5743   */\n      add\n        /* \"#utility.yul\":5724:5743   */\n      swap1\n      pop\n        /* \"#utility.yul\":5384:5749   */\n      swap2\n      swap1\n      pop\n      jump\t// out\n        /* \"#utility.yul\":5755:6174   */\n    tag_31:\n        /* \"#utility.yul\":5921:5925   */\n      0x00\n        /* \"#utility.yul\":5959:5961   */\n      0x20\n        /* \"#utility.yul\":5948:5957   */\n      dup3\n        /* \"#utility.yul\":5944:5962   */\n      add\n        /* \"#utility.yul\":5936:5962   */\n      swap1\n      pop\n        /* \"#utility.yul\":6008:6017   */\n      dup2\n        /* \"#utility.yul\":6002:6006   */\n      dup2\n        /* \"#utility.yul\":5998:6018   */\n      sub\n        /* \"#utility.yul\":5994:5995   */\n      0x00\n        /* \"#utility.yul\":5983:5992   */\n      dup4\n        /* \"#utility.yul\":5979:5996   */\n      add\n        /* \"#utility.yul\":5972:6019   */\n      mstore\n        /* \"#utility.yul\":6036:6167   */\n      tag_136\n        /* \"#utility.yul\":6162:6166   */\n      dup2\n        /* \"#utility.yul\":6036:6167   */\n      tag_55\n      jump\t// in\n    tag_136:\n        /* \"#utility.yul\":6028:6167   */\n      swap1\n      pop\n        /* \"#utility.yul\":5755:6174   */\n      swap2\n      swap1\n      pop\n      jump\t// out\n        /* \"#utility.yul\":6180:6279   */\n    tag_56:\n        /* \"#utility.yul\":6232:6238   */\n      0x00\n        /* \"#utility.yul\":6266:6271   */\n      dup2\n        /* \"#utility.yul\":6260:6272   */\n      mload\n        /* \"#utility.yul\":6250:6272   */\n      swap1\n      pop\n        /* \"#utility.yul\":6180:6279   */\n      swap2\n      swap1\n      pop\n      jump\t// out\n        /* \"#utility.yul\":6285:6465   */\n    tag_57:\n        /* \"#utility.yul\":6333:6410   */\n      0x4e487b7100000000000000000000000000000000000000000000000000000000\n        /* \"#utility.yul\":6330:6331   */\n      0x00\n        /* \"#utility.yul\":6323:6411   */\n      mstore\n        /* \"#utility.yul\":6430:6434   */\n      0x41\n        /* \"#utility.yul\":6427:6428   */\n      0x04\n        /* \"#utility.yul\":6420:6435   */\n      mstore\n        /* \"#utility.yul\":6454:6458   */\n      0x24\n        /* \"#utility.yul\":6451:6452   */\n      0x00\n        /* \"#utility.yul\":6444:6459   */\n      revert\n        /* \"#utility.yul\":6471:6651   */\n    tag_58:\n        /* \"#utility.yul\":6519:6596   */\n      0x4e487b7100000000000000000000000000000000000000000000000000000000\n        /* \"#utility.yul\":6516:6517   */\n      0x00\n        /* \"#utility.yul\":6509:6597   */\n      mstore\n        /* \"#utility.yul\":6616:6620   */\n      0x22\n        /* \"#utility.yul\":6613:6614   */\n      0x04\n        /* \"#utility.yul\":6606:6621   */\n      mstore\n        /* \"#utility.yul\":6640:6644   */\n      0x24\n        /* \"#utility.yul\":6637:6638   */\n      0x00\n        /* \"#utility.yul\":6630:6645   */\n      revert\n        /* \"#utility.yul\":6657:6977   */\n    tag_59:\n        /* \"#utility.yul\":6701:6707   */\n      0x00\n        /* \"#utility.yul\":6738:6739   */\n      0x02\n        /* \"#utility.yul\":6732:6736   */\n      dup3\n        /* \"#utility.yul\":6728:6740   */\n      div\n        /* \"#utility.yul\":6718:6740   */\n      swap1\n      pop\n        /* \"#utility.yul\":6785:6786   */\n      0x01\n        /* \"#utility.yul\":6779:6783   */\n      dup3\n        /* \"#utility.yul\":6775:6787   */\n      and\n        /* \"#utility.yul\":6806:6824   */\n      dup1\n        /* \"#utility.yul\":6796:6877   */\n      tag_141\n      jumpi\n        /* \"#utility.yul\":6862:6866   */\n      0x7f\n        /* \"#utility.yul\":6854:6860   */\n      dup3\n        /* \"#utility.yul\":6850:6867   */\n      and\n        /* \"#utility.yul\":6840:6867   */\n      swap2\n      pop\n        /* \"#utility.yul\":6796:6877   */\n    tag_141:\n        /* \"#utility.yul\":6924:6926   */\n      0x20\n        /* \"#utility.yul\":6916:6922   */\n      dup3\n        /* \"#utility.yul\":6913:6927   */\n      lt\n        /* \"#utility.yul\":6893:6911   */\n      dup2\n        /* \"#utility.yul\":6890:6928   */\n      sub\n        /* \"#utility.yul\":6887:6971   */\n      tag_142\n      jumpi\n        /* \"#utility.yul\":6943:6961   */\n      tag_143\n      tag_58\n      jump\t// in\n    tag_143:\n        /* \"#utility.yul\":6887:6971   */\n    tag_142:\n        /* \"#utility.yul\":6708:6977   */\n      pop\n        /* \"#utility.yul\":6657:6977   */\n      swap2\n      swap1\n      pop\n      jump\t// out\n        /* \"#utility.yul\":6983:7124   */\n    tag_60:\n        /* \"#utility.yul\":7032:7036   */\n      0x00\n        /* \"#utility.yul\":7055:7058   */\n      dup2\n        /* \"#utility.yul\":7047:7058   */\n      swap1\n      pop\n        /* \"#utility.yul\":7078:7081   */\n      dup2\n        /* \"#utility.yul\":7075:7076   */\n      0x00\n        /* \"#utility.yul\":7068:7082   */\n      mstore\n        /* \"#utility.yul\":7112:7116   */\n      0x20\n        /* \"#utility.yul\":7109:7110   */\n      0x00\n        /* \"#utility.yul\":7099:7117   */\n      keccak256\n        /* \"#utility.yul\":7091:7117   */\n      swap1\n      pop\n        /* \"#utility.yul\":6983:7124   */\n      swap2\n      swap1\n      pop\n      jump\t// out\n        /* \"#utility.yul\":7130:7223   */\n    tag_61:\n        /* \"#utility.yul\":7167:7173   */\n      0x00\n        /* \"#utility.yul\":7214:7216   */\n      0x20\n        /* \"#utility.yul\":7209:7211   */\n      0x1f\n        /* \"#utility.yul\":7202:7207   */\n      dup4\n        /* \"#utility.yul\":7198:7212   */\n      add\n        /* \"#utility.yul\":7194:7217   */\n      div\n        /* \"#utility.yul\":7184:7217   */\n      swap1\n      pop\n        /* \"#utility.yul\":7130:7223   */\n      swap2\n      swap1\n      pop\n      jump\t// out\n        /* \"#utility.yul\":7229:7336   */\n    tag_62:\n        /* \"#utility.yul\":7273:7281   */\n      0x00\n        /* \"#utility.yul\":7323:7328   */\n      dup3\n        /* \"#utility.yul\":7317:7321   */\n      dup3\n        /* \"#utility.yul\":7313:7329   */\n      shl\n        /* \"#utility.yul\":7292:7329   */\n      swap1\n      pop\n        /* \"#utility.yul\":7229:7336   */\n      swap3\n      swap2\n      pop\n      pop\n      jump\t// out\n        /* \"#utility.yul\":7342:7735   */\n    tag_63:\n        /* \"#utility.yul\":7411:7417   */\n      0x00\n        /* \"#utility.yul\":7461:7462   */\n      0x08\n        /* \"#utility.yul\":7449:7459   */\n      dup4\n        /* \"#utility.yul\":7445:7463   */\n      mul\n        /* \"#utility.yul\":7484:7581   */\n      tag_148\n        /* \"#utility.yul\":7514:7580   */\n      0xffffffffffffffffffffffffffffffffffffffffffffffffffffffffffffffff\n        /* \"#utility.yul\":7503:7512   */\n      dup3\n        /* \"#utility.yul\":7484:7581   */\n      tag_62\n      jump\t// in\n    tag_148:\n        /* \"#utility.yul\":7602:7641   */\n      tag_149\n        /* \"#utility.yul\":7632:7640   */\n      dup7\n        /* \"#utility.yul\":7621:7630   */\n      dup4\n        /* \"#utility.yul\":7602:7641   */\n      tag_62\n      jump\t// in\n    tag_149:\n        /* \"#utility.yul\":7590:7641   */\n      swap6\n      pop\n        /* \"#utility.yul\":7674:7678   */\n      dup1\n        /* \"#utility.yul\":7670:7679   */\n      not\n        /* \"#utility.yul\":7663:7668   */\n      dup5\n        /* \"#utility.yul\":7659:7680   */\n      and\n        /* \"#utility.yul\":7650:7680   */\n      swap4\n      pop\n        /* \"#utility.yul\":7723:7727   */\n      dup1\n        /* \"#utility.yul\":7713:7721   */\n      dup7\n        /* \"#utility.yul\":7709:7728   */\n      and\n        /* \"#utility.yul\":7702:7707   */\n      dup5\n        /* \"#utility.yul\":7699:7729   */\n      or\n        /* \"#utility.yul\":7689:7729   */\n      swap3\n      pop\n        /* \"#utility.yul\":7418:7735   */\n      pop\n      pop\n        /* \"#utility.yul\":7342:7735   */\n      swap4\n      swap3\n      pop\n      pop\n      pop\n      jump\t// out\n        /* \"#utility.yul\":7741:7801   */\n    tag_64:\n        /* \"#utility.yul\":7769:7772   */\n      0x00\n        /* \"#utility.yul\":7790:7795   */\n      dup2\n        /* \"#utility.yul\":7783:7795   */\n      swap1\n      pop\n        /* \"#utility.yul\":7741:7801   */\n      swap2\n      swap1\n      pop\n      jump\t// out\n        /* \"#utility.yul\":7807:7949   */\n    tag_65:\n        /* \"#utility.yul\":7857:7866   */\n      0x00\n        /* \"#utility.yul\":7890:7943   */\n      tag_152\n        /* \"#utility.yul\":7908:7942   */\n      tag_153\n        /* \"#utility.yul\":7917:7941   */\n      tag_154\n        /* \"#utility.yul\":7935:7940   */\n      dup5\n        /* \"#utility.yul\":7917:7941   */\n      tag_47\n      jump\t// in\n    tag_154:\n        /* \"#utility.yul\":7908:7942   */\n      tag_64\n      jump\t// in\n    tag_153:\n        /* \"#utility.yul\":7890:7943   */\n      tag_47\n      jump\t// in\n    tag_152:\n        /* \"#utility.yul\":7877:7943   */\n      swap1\n      pop\n        /* \"#utility.yul\":7807:7949   */\n      swap2\n      swap1\n      pop\n      jump\t// out\n        /* \"#utility.yul\":7955:8030   */\n    tag_66:\n        /* \"#utility.yul\":7998:8001   */\n      0x00\n        /* \"#utility.yul\":8019:8024   */\n      dup2\n        /* \"#utility.yul\":8012:8024   */\n      swap1\n      pop\n        /* \"#utility.yul\":7955:8030   */\n      swap2\n      swap1\n      pop\n      jump\t// out\n        /* \"#utility.yul\":8036:8305   */\n    tag_67:\n        /* \"#utility.yul\":8146:8185   */\n      tag_157\n        /* \"#utility.yul\":8177:8184   */\n      dup4\n        /* \"#utility.yul\":8146:8185   */\n      tag_65\n      jump\t// in\n    tag_157:\n        /* \"#utility.yul\":8207:8298   */\n      tag_158\n        /* \"#utility.yul\":8256:8297   */\n      tag_159\n        /* \"#utility.yul\":8280:8296   */\n      dup3\n        /* \"#utility.yul\":8256:8297   */\n      tag_66\n      jump\t// in\n    tag_159:\n        /* \"#utility.yul\":8248:8254   */\n      dup5\n        /* \"#utility.yul\":8241:8245   */\n      dup5\n        /* \"#utility.yul\":8235:8246   */\n      sload\n        /* \"#utility.yul\":8207:8298   */\n      tag_63\n      jump\t// in\n    tag_158:\n        /* \"#utility.yul\":8201:8205   */\n      dup3\n        /* \"#utility.yul\":8194:8299   */\n      sstore\n        /* \"#utility.yul\":8112:8305   */\n      pop\n        /* \"#utility.yul\":8036:8305   */\n      pop\n      pop\n      pop\n      jump\t// out\n        /* \"#utility.yul\":8311:8384   */\n    tag_68:\n        /* \"#utility.yul\":8356:8359   */\n      0x00\n        /* \"#utility.yul\":8377:8378   */\n      0x00\n        /* \"#utility.yul\":8370:8378   */\n      swap1\n      pop\n        /* \"#utility.yul\":8311:8384   */\n      swap1\n      jump\t// out\n        /* \"#utility.yul\":8390:8579   */\n    tag_69:\n        /* \"#utility.yul\":8467:8499   */\n      tag_162\n      tag_68\n      jump\t// in\n    tag_162:\n        /* \"#utility.yul\":8508:8573   */\n      tag_163\n        /* \"#utility.yul\":8566:8572   */\n      dup2\n        /* \"#utility.yul\":8558:8564   */\n      dup5\n        /* \"#utility.yul\":8552:8556   */\n      dup5\n        /* \"#utility.yul\":8508:8573   */\n      tag_67\n      jump\t// in\n    tag_163:\n        /* \"#utility.yul\":8443:8579   */\n      pop\n        /* \"#utility.yul\":8390:8579   */\n      pop\n      pop\n      jump\t// out\n        /* \"#utility.yul\":8585:8771   */\n    tag_70:\n        /* \"#utility.yul\":8645:8765   */\n    tag_165:\n        /* \"#utility.yul\":8662:8665   */\n      dup2\n        /* \"#utility.yul\":8655:8660   */\n      dup2\n        /* \"#utility.yul\":8652:8666   */\n      lt\n        /* \"#utility.yul\":8645:8765   */\n      iszero\n      tag_167\n      jumpi\n        /* \"#utility.yul\":8716:8755   */\n      tag_168\n        /* \"#utility.yul\":8753:8754   */\n      0x00\n        /* \"#utility.yul\":8746:8751   */\n      dup3\n        /* \"#utility.yul\":8716:8755   */\n      tag_69\n      jump\t// in\n    tag_168:\n        /* \"#utility.yul\":8689:8690   */\n      0x01\n        /* \"#utility.yul\":8682:8687   */\n      dup2\n        /* \"#utility.yul\":8678:8691   */\n      add\n        /* \"#utility.yul\":8669:8691   */\n      swap1\n      pop\n        /* \"#utility.yul\":8645:8765   */\n      jump(tag_165)\n    tag_167:\n        /* \"#utility.yul\":8585:8771   */\n      pop\n      pop\n      jump\t// out\n        /* \"#utility.yul\":8777:9320   */\n    tag_71:\n        /* \"#utility.yul\":8878:8880   */\n      0x1f\n        /* \"#utility.yul\":8873:8876   */\n      dup3\n        /* \"#utility.yul\":8870:8881   */\n      gt\n        /* \"#utility.yul\":8867:9313   */\n      iszero\n      tag_170\n      jumpi\n        /* \"#utility.yul\":8912:8950   */\n      tag_171\n        /* \"#utility.yul\":8944:8949   */\n      dup2\n        /* \"#utility.yul\":8912:8950   */\n      tag_60\n      jump\t// in\n    tag_171:\n        /* \"#utility.yul\":8996:9025   */\n      tag_172\n        /* \"#utility.yul\":9014:9024   */\n      dup5\n        /* \"#utility.yul\":8996:9025   */\n      tag_61\n      jump\t// in\n    tag_172:\n        /* \"#utility.yul\":8986:8994   */\n      dup2\n        /* \"#utility.yul\":8982:9026   */\n      add\n        /* \"#utility.yul\":9179:9181   */\n      0x20\n        /* \"#utility.yul\":9167:9177   */\n      dup6\n        /* \"#utility.yul\":9164:9182   */\n      lt\n        /* \"#utility.yul\":9161:9210   */\n      iszero\n      tag_173\n      jumpi\n        /* \"#utility.yul\":9200:9208   */\n      dup2\n        /* \"#utility.yul\":9185:9208   */\n      swap1\n      pop\n        /* \"#utility.yul\":9161:9210   */\n    tag_173:\n        /* \"#utility.yul\":9223:9303   */\n      tag_174\n        /* \"#utility.yul\":9279:9301   */\n      tag_175\n        /* \"#utility.yul\":9297:9300   */\n      dup6\n        /* \"#utility.yul\":9279:9301   */\n      tag_61\n      jump\t// in\n    tag_175:\n        /* \"#utility.yul\":9269:9277   */\n      dup4\n        /* \"#utility.yul\":9265:9302   */\n      add\n        /* \"#utility.yul\":9252:9263   */\n      dup3\n        /* \"#utility.yul\":9223:9303   */\n      tag_70\n      jump\t// in\n    tag_174:\n        /* \"#utility.yul\":8882:9313   */\n      pop\n      pop\n        /* \"#utility.yul\":8867:9313   */\n    tag_170:\n        /* \"#utility.yul\":8777:9320   */\n      pop\n      pop\n      pop\n      jump\t// out\n        /* \"#utility.yul\":9326:9443   */\n    tag_72:\n        /* \"#utility.yul\":9380:9388   */\n      0x00\n        /* \"#utility.yul\":9430:9435   */\n      dup3\n        /* \"#utility.yul\":9424:9428   */\n      dup3\n        /* \"#utility.yul\":9420:9436   */\n      shr\n        /* \"#utility.yul\":9399:9436   */\n      swap1\n      pop\n        /* \"#utility.yul\":9326:9443   */\n      swap3\n      swap2\n      pop\n      pop\n      jump\t// out\n        /* \"#utility.yul\":9449:9618   */\n    tag_73:\n        /* \"#utility.yul\":9493:9499   */\n      0x00\n        /* \"#utility.yul\":9526:9577   */\n      tag_178\n        /* \"#utility.yul\":9574:9575   */\n      0x00\n        /* \"#utility.yul\":9570:9576   */\n      not\n        /* \"#utility.yul\":9562:9567   */\n      dup5\n        /* \"#utility.yul\":9559:9560   */\n      0x08\n        /* \"#utility.yul\":9555:9568   */\n      mul\n        /* \"#utility.yul\":9526:9577   */\n      tag_72\n      jump\t// in\n    tag_178:\n        /* \"#utility.yul\":9522:9578   */\n      not\n        /* \"#utility.yul\":9607:9611   */\n      dup1\n        /* \"#utility.yul\":9601:9605   */\n      dup4\n        /* \"#utility.yul\":9597:9612   */\n      and\n        /* \"#utility.yul\":9587:9612   */\n      swap2\n      pop\n        /* \"#utility.yul\":9500:9618   */\n      pop\n        /* \"#utility.yul\":9449:9618   */\n      swap3\n      swap2\n      pop\n      pop\n      jump\t// out\n        /* \"#utility.yul\":9623:9918   */\n    tag_74:\n        /* \"#utility.yul\":9699:9703   */\n      0x00\n        /* \"#utility.yul\":9845:9874   */\n      tag_180\n        /* \"#utility.yul\":9870:9873   */\n      dup4\n        /* \"#utility.yul\":9864:9868   */\n      dup4\n        /* \"#utility.yul\":9845:9874   */\n      tag_73\n      jump\t// in\n    tag_180:\n        /* \"#utility.yul\":9837:9874   */\n      swap2\n      pop\n        /* \"#utility.yul\":9907:9910   */\n      dup3\n        /* \"#utility.yul\":9904:9905   */\n      0x02\n        /* \"#utility.yul\":9900:9911   */\n      mul\n        /* \"#utility.yul\":9894:9898   */\n      dup3\n        /* \"#utility.yul\":9891:9912   */\n      or\n        /* \"#utility.yul\":9883:9912   */\n      swap1\n      pop\n        /* \"#utility.yul\":9623:9918   */\n      swap3\n      swap2\n      pop\n      pop\n      jump\t// out\n        /* \"#utility.yul\":9923:11318   */\n    tag_34:\n        /* \"#utility.yul\":10040:10077   */\n      tag_182\n        /* \"#utility.yul\":10073:10076   */\n      dup3\n        /* \"#utility.yul\":10040:10077   */\n      tag_56\n      jump\t// in\n    tag_182:\n        /* \"#utility.yul\":10142:10160   */\n      0xffffffffffffffff\n        /* \"#utility.yul\":10134:10140   */\n      dup2\n        /* \"#utility.yul\":10131:10161   */\n      gt\n        /* \"#utility.yul\":10128:10184   */\n      iszero\n      tag_183\n      jumpi\n        /* \"#utility.yul\":10164:10182   */\n      tag_184\n      tag_57\n      jump\t// in\n    tag_184:\n        /* \"#utility.yul\":10128:10184   */\n    tag_183:\n        /* \"#utility.yul\":10208:10246   */\n      tag_185\n        /* \"#utility.yul\":10240:10244   */\n      dup3\n        /* \"#utility.yul\":10234:10245   */\n      sload\n        /* \"#utility.yul\":10208:10246   */\n      tag_59\n      jump\t// in\n    tag_185:\n        /* \"#utility.yul\":10293:10360   */\n      tag_186\n        /* \"#utility.yul\":10353:10359   */\n      dup3\n        /* \"#utility.yul\":10345:10351   */\n      dup3\n        /* \"#utility.yul\":10339:10343   */\n      dup6\n        /* \"#utility.yul\":10293:10360   */\n      tag_71\n      jump\t// in\n    tag_186:\n        /* \"#utility.yul\":10387:10388   */\n      0x00\n        /* \"#utility.yul\":10411:10415   */\n      0x20\n        /* \"#utility.yul\":10398:10415   */\n      swap1\n      pop\n        /* \"#utility.yul\":10443:10445   */\n      0x1f\n        /* \"#utility.yul\":10435:10441   */\n      dup4\n        /* \"#utility.yul\":10432:10446   */\n      gt\n        /* \"#utility.yul\":10460:10461   */\n      0x01\n        /* \"#utility.yul\":10455:11073   */\n      dup2\n      eq\n      tag_188\n      jumpi\n        /* \"#utility.yul\":11117:11118   */\n      0x00\n        /* \"#utility.yul\":11134:11140   */\n      dup5\n        /* \"#utility.yul\":11131:11208   */\n      iszero\n      tag_189\n      jumpi\n        /* \"#utility.yul\":11183:11192   */\n      dup3\n        /* \"#utility.yul\":11178:11181   */\n      dup8\n        /* \"#utility.yul\":11174:11193   */\n      add\n        /* \"#utility.yul\":11168:11194   */\n      mload\n        /* \"#utility.yul\":11159:11194   */\n      swap1\n      pop\n        /* \"#utility.yul\":11131:11208   */\n    tag_189:\n        /* \"#utility.yul\":11234:11301   */\n      tag_190\n        /* \"#utility.yul\":11294:11300   */\n      dup6\n        /* \"#utility.yul\":11287:11292   */\n      dup3\n        /* \"#utility.yul\":11234:11301   */\n      tag_74\n      jump\t// in\n    tag_190:\n        /* \"#utility.yul\":11228:11232   */\n      dup7\n        /* \"#utility.yul\":11221:11302   */\n      sstore\n        /* \"#utility.yul\":11090:11312   */\n      pop\n        /* \"#utility.yul\":10425:11312   */\n      jump(tag_187)\n        /* \"#utility.yul\":10455:11073   */\n    tag_188:\n        /* \"#utility.yul\":10507:10511   */\n      0x1f\n        /* \"#utility.yul\":10503:10512   */\n      not\n        /* \"#utility.yul\":10495:10501   */\n      dup5\n        /* \"#utility.yul\":10491:10513   */\n      and\n        /* \"#utility.yul\":10541:10578   */\n      tag_191\n        /* \"#utility.yul\":10573:10577   */\n      dup7\n        /* \"#utility.yul\":10541:10578   */\n      tag_60\n      jump\t// in\n    tag_191:\n        /* \"#utility.yul\":10600:10601   */\n      0x00\n        /* \"#utility.yul\":10614:10822   */\n    tag_192:\n        /* \"#utility.yul\":10628:10635   */\n      dup3\n        /* \"#utility.yul\":10625:10626   */\n      dup2\n        /* \"#utility.yul\":10622:10636   */\n      lt\n        /* \"#utility.yul\":10614:10822   */\n      iszero\n      tag_194\n      jumpi\n        /* \"#utility.yul\":10707:10716   */\n      dup5\n        /* \"#utility.yul\":10702:10705   */\n      dup10\n        /* \"#utility.yul\":10698:10717   */\n      add\n        /* \"#utility.yul\":10692:10718   */\n      mload\n        /* \"#utility.yul\":10684:10690   */\n      dup3\n        /* \"#utility.yul\":10677:10719   */\n      sstore\n        /* \"#utility.yul\":10758:10759   */\n      0x01\n        /* \"#utility.yul\":10750:10756   */\n      dup3\n        /* \"#utility.yul\":10746:10760   */\n      add\n        /* \"#utility.yul\":10736:10760   */\n      swap2\n      pop\n        /* \"#utility.yul\":10805:10807   */\n      0x20\n        /* \"#utility.yul\":10794:10803   */\n      dup6\n        /* \"#utility.yul\":10790:10808   */\n      add\n        /* \"#utility.yul\":10777:10808   */\n      swap5\n      pop\n        /* \"#utility.yul\":10651:10655   */\n      0x20\n        /* \"#utility.yul\":10648:10649   */\n      dup2\n        /* \"#utility.yul\":10644:10656   */\n      add\n        /* \"#utility.yul\":10639:10656   */\n      swap1\n      pop\n        /* \"#utility.yul\":10614:10822   */\n      jump(tag_192)\n    tag_194:\n        /* \"#utility.yul\":10850:10856   */\n      dup7\n        /* \"#utility.yul\":10841:10848   */\n      dup4\n        /* \"#utility.yul\":10838:10857   */\n      lt\n        /* \"#utility.yul\":10835:11014   */\n      iszero\n      tag_195\n      jumpi\n        /* \"#utility.yul\":10908:10917   */\n      dup5\n        /* \"#utility.yul\":10903:10906   */\n      dup10\n        /* \"#utility.yul\":10899:10918   */\n      add\n        /* \"#utility.yul\":10893:10919   */\n      mload\n        /* \"#utility.yul\":10951:10999   */\n      tag_196\n        /* \"#utility.yul\":10993:10997   */\n      0x1f\n        /* \"#utility.yul\":10985:10991   */\n      dup10\n        /* \"#utility.yul\":10981:10998   */\n      and\n        /* \"#utility.yul\":10970:10979   */\n      dup3\n        /* \"#utility.yul\":10951:10999   */\n      tag_73\n      jump\t// in\n    tag_196:\n        /* \"#utility.yul\":10943:10949   */\n      dup4\n        /* \"#utility.yul\":10936:11000   */\n      sstore\n        /* \"#utility.yul\":10858:11014   */\n      pop\n        /* \"#utility.yul\":10835:11014   */\n    tag_195:\n        /* \"#utility.yul\":11060:11061   */\n      0x01\n        /* \"#utility.yul\":11056:11057   */\n      0x02\n        /* \"#utility.yul\":11048:11054   */\n      dup9\n        /* \"#utility.yul\":11044:11058   */\n      mul\n        /* \"#utility.yul\":11040:11062   */\n      add\n        /* \"#utility.yul\":11034:11038   */\n      dup9\n        /* \"#utility.yul\":11027:11063   */\n      sstore\n        /* \"#utility.yul\":10462:11073   */\n      pop\n      pop\n      pop\n        /* \"#utility.yul\":10425:11312   */\n    tag_187:\n      pop\n        /* \"#utility.yul\":10015:11318   */\n      pop\n      pop\n      pop\n        /* \"#utility.yul\":9923:11318   */\n      pop\n      pop\n      jump\t// out\n\n    auxdata: 0xa2646970667358221220bec56b12d36e7d0d22dcbbab86a48060fcb63f20d766e976b888ba603b436b2b64736f6c634300081e0033\n}\n",
				"bytecode": {
					"linkReferences": {},
					"object": "6080604052348015600e575f5ffd5b50335f5f6101000a81548173ffffffffffffffffffffffffffffffffffffffff021916908373ffffffffffffffffffffffffffffffffffffffff1602179055506109de8061005b5f395ff3fe608060405234801561000f575f5ffd5b506004361061003f575f3560e01c80636dd7d8ea146100435780639a594f061461005f578063e652f4cc1461007b575b5f5ffd5b61005d60048036038101906100589190610415565b6100ab565b005b610079600480360381019061007491906104a1565b610221565b005b61009560048036038101906100909190610415565b61036a565b6040516100a29190610516565b60405180910390f35b5f151560025f3373ffffffffffffffffffffffffffffffffffffffff1673ffffffffffffffffffffffffffffffffffffffff1681526020019081526020015f205f9054906101000a900460ff1615151461013a576040517f08c379a000000000000000000000000000000000000000000000000000000000815260040161013190610589565b60405180910390fd5b6001805f8373ffffffffffffffffffffffffffffffffffffffff1673ffffffffffffffffffffffffffffffffffffffff1681526020019081526020015f206001015f82825461018991906105d4565b92505081905550600160025f3373ffffffffffffffffffffffffffffffffffffffff1673ffffffffffffffffffffffffffffffffffffffff1681526020019081526020015f205f6101000a81548160ff0219169083151502179055507fce0c7a2a940807f7dc2ce7a615c2532e915e6c0ac9a08bc4ed9d515a710a53e23382604051610216929190610616565b60405180910390a150565b5f5f9054906101000a900473ffffffffffffffffffffffffffffffffffffffff1673ffffffffffffffffffffffffffffffffffffffff163373ffffffffffffffffffffffffffffffffffffffff16146102af576040517f08c379a00000000000000000000000000000000000000000000000000000000081526004016102a690610687565b60405180910390fd5b604051806040016040528083838080601f0160208091040260200160405190810160405280939291908181526020018383808284375f81840152601f19601f8201169050808301925050505050505081526020015f81525060015f8573ffffffffffffffffffffffffffffffffffffffff1673ffffffffffffffffffffffffffffffffffffffff1681526020019081526020015f205f820151815f01908161035791906108d9565b5060208201518160010155905050505050565b5f60015f8373ffffffffffffffffffffffffffffffffffffffff1673ffffffffffffffffffffffffffffffffffffffff1681526020019081526020015f20600101549050919050565b5f5ffd5b5f5ffd5b5f73ffffffffffffffffffffffffffffffffffffffff82169050919050565b5f6103e4826103bb565b9050919050565b6103f4816103da565b81146103fe575f5ffd5b50565b5f8135905061040f816103eb565b92915050565b5f6020828403121561042a576104296103b3565b5b5f61043784828501610401565b91505092915050565b5f5ffd5b5f5ffd5b5f5ffd5b5f5f83601f84011261046157610460610440565b5b8235905067ffffffffffffffff81111561047e5761047d610444565b5b60208301915083600182028301111561049a57610499610448565b5b9250929050565b5f5f5f604084860312156104b8576104b76103b3565b5b5f6104c586828701610401565b935050602084013567ffffffffffffffff8111156104e6576104e56103b7565b5b6104f28682870161044c565b92509250509250925092565b5f819050919050565b610510816104fe565b82525050565b5f6020820190506105295f830184610507565b92915050565b5f82825260208201905092915050565b7f416c726561647920766f746564000000000000000000000000000000000000005f82015250565b5f610573600d8361052f565b915061057e8261053f565b602082019050919050565b5f6020820190508181035f8301526105a081610567565b9050919050565b7f4e487b71000000000000000000000000000000000000000000000000000000005f52601160045260245ffd5b5f6105de826104fe565b91506105e9836104fe565b9250828201905080821115610601576106006105a7565b5b92915050565b610610816103da565b82525050565b5f6040820190506106295f830185610607565b6106366020830184610607565b9392505050565b7f4e6f74204f776e657200000000000000000000000000000000000000000000005f82015250565b5f61067160098361052f565b915061067c8261063d565b602082019050919050565b5f6020820190508181035f83015261069e81610665565b9050919050565b5f81519050919050565b7f4e487b71000000000000000000000000000000000000000000000000000000005f52604160045260245ffd5b7f4e487b71000000000000000000000000000000000000000000000000000000005f52602260045260245ffd5b5f600282049050600182168061072057607f821691505b602082108103610733576107326106dc565b5b50919050565b5f819050815f5260205f209050919050565b5f6020601f8301049050919050565b5f82821b905092915050565b5f600883026107957fffffffffffffffffffffffffffffffffffffffffffffffffffffffffffffffff8261075a565b61079f868361075a565b95508019841693508086168417925050509392505050565b5f819050919050565b5f6107da6107d56107d0846104fe565b6107b7565b6104fe565b9050919050565b5f819050919050565b6107f3836107c0565b6108076107ff826107e1565b848454610766565b825550505050565b5f5f905090565b61081e61080f565b6108298184846107ea565b505050565b5b8181101561084c576108415f82610816565b60018101905061082f565b5050565b601f8211156108915761086281610739565b61086b8461074b565b8101602085101561087a578190505b61088e6108868561074b565b83018261082e565b50505b505050565b5f82821c905092915050565b5f6108b15f1984600802610896565b1980831691505092915050565b5f6108c983836108a2565b9150826002028217905092915050565b6108e2826106a5565b67ffffffffffffffff8111156108fb576108fa6106af565b5b6109058254610709565b610910828285610850565b5f60209050601f831160018114610941575f841561092f578287015190505b61093985826108be565b8655506109a0565b601f19841661094f86610739565b5f5b8281101561097657848901518255600182019150602085019450602081019050610951565b86831015610993578489015161098f601f8916826108a2565b8355505b6001600288020188555050505b50505050505056fea2646970667358221220bec56b12d36e7d0d22dcbbab86a48060fcb63f20d766e976b888ba603b436b2b64736f6c634300081e0033",
					"opcodes": "PUSH1 0x80 PUSH1 0x40 MSTORE CALLVALUE DUP1 ISZERO PUSH1 0xE JUMPI PUSH0 PUSH0 REVERT JUMPDEST POP CALLER PUSH0 PUSH0 PUSH2 0x100 EXP DUP2 SLOAD DUP2 PUSH20 0xFFFFFFFFFFFFFFFFFFFFFFFFFFFFFFFFFFFFFFFF MUL NOT AND SWAP1 DUP4 PUSH20 0xFFFFFFFFFFFFFFFFFFFFFFFFFFFFFFFFFFFFFFFF AND MUL OR SWAP1 SSTORE POP PUSH2 0x9DE DUP1 PUSH2 0x5B PUSH0 CODECOPY PUSH0 RETURN INVALID PUSH1 0x80 PUSH1 0x40 MSTORE CALLVALUE DUP1 ISZERO PUSH2 0xF JUMPI PUSH0 PUSH0 REVERT JUMPDEST POP PUSH1 0x4 CALLDATASIZE LT PUSH2 0x3F JUMPI PUSH0 CALLDATALOAD PUSH1 0xE0 SHR DUP1 PUSH4 0x6DD7D8EA EQ PUSH2 0x43 JUMPI DUP1 PUSH4 0x9A594F06 EQ PUSH2 0x5F JUMPI DUP1 PUSH4 0xE652F4CC EQ PUSH2 0x7B JUMPI JUMPDEST PUSH0 PUSH0 REVERT JUMPDEST PUSH2 0x5D PUSH1 0x4 DUP1 CALLDATASIZE SUB DUP2 ADD SWAP1 PUSH2 0x58 SWAP2 SWAP1 PUSH2 0x415 JUMP JUMPDEST PUSH2 0xAB JUMP JUMPDEST STOP JUMPDEST PUSH2 0x79 PUSH1 0x4 DUP1 CALLDATASIZE SUB DUP2 ADD SWAP1 PUSH2 0x74 SWAP2 SWAP1 PUSH2 0x4A1 JUMP JUMPDEST PUSH2 0x221 JUMP JUMPDEST STOP JUMPDEST PUSH2 0x95 PUSH1 0x4 DUP1 CALLDATASIZE SUB DUP2 ADD SWAP1 PUSH2 0x90 SWAP2 SWAP1 PUSH2 0x415 JUMP JUMPDEST PUSH2 0x36A JUMP JUMPDEST PUSH1 0x40 MLOAD PUSH2 0xA2 SWAP2 SWAP1 PUSH2 0x516 JUMP JUMPDEST PUSH1 0x40 MLOAD DUP1 SWAP2 SUB SWAP1 RETURN JUMPDEST PUSH0 ISZERO ISZERO PUSH1 0x2 PUSH0 CALLER PUSH20 0xFFFFFFFFFFFFFFFFFFFFFFFFFFFFFFFFFFFFFFFF AND PUSH20 0xFFFFFFFFFFFFFFFFFFFFFFFFFFFFFFFFFFFFFFFF AND DUP2 MSTORE PUSH1 0x20 ADD SWAP1 DUP2 MSTORE PUSH1 0x20 ADD PUSH0 KECCAK256 PUSH0 SWAP1 SLOAD SWAP1 PUSH2 0x100 EXP SWAP1 DIV PUSH1 0xFF AND ISZERO ISZERO EQ PUSH2 0x13A JUMPI PUSH1 0x40 MLOAD PUSH32 0x8C379A000000000000000000000000000000000000000000000000000000000 DUP2 MSTORE PUSH1 0x4 ADD PUSH2 0x131 SWAP1 PUSH2 0x589 JUMP JUMPDEST PUSH1 0x40 MLOAD DUP1 SWAP2 SUB SWAP1 REVERT JUMPDEST PUSH1 0x1 DUP1 PUSH0 DUP4 PUSH20 0xFFFFFFFFFFFFFFFFFFFFFFFFFFFFFFFFFFFFFFFF AND PUSH20 0xFFFFFFFFFFFFFFFFFFFFFFFFFFFFFFFFFFFFFFFF AND DUP2 MSTORE PUSH1 0x20 ADD SWAP1 DUP2 MSTORE PUSH1 0x20 ADD PUSH0 KECCAK256 PUSH1 0x1 ADD PUSH0 DUP3 DUP3 SLOAD PUSH2 0x189 SWAP2 SWAP1 PUSH2 0x5D4 JUMP JUMPDEST SWAP3 POP POP DUP2 SWAP1 SSTORE POP PUSH1 0x1 PUSH1 0x2 PUSH0 CALLER PUSH20 0xFFFFFFFFFFFFFFFFFFFFFFFFFFFFFFFFFFFFFFFF AND PUSH20 0xFFFFFFFFFFFFFFFFFFFFFFFFFFFFFFFFFFFFFFFF AND DUP2 MSTORE PUSH1 0x20 ADD SWAP1 DUP2 MSTORE PUSH1 0x20 ADD PUSH0 KECCAK256 PUSH0 PUSH2 0x100 EXP DUP2 SLOAD DUP2 PUSH1 0xFF MUL NOT AND SWAP1 DUP4 ISZERO ISZERO MUL OR SWAP1 SSTORE POP PUSH32 0xCE0C7A2A940807F7DC2CE7A615C2532E915E6C0AC9A08BC4ED9D515A710A53E2 CALLER DUP3 PUSH1 0x40 MLOAD PUSH2 0x216 SWAP3 SWAP2 SWAP1 PUSH2 0x616 JUMP JUMPDEST PUSH1 0x40 MLOAD DUP1 SWAP2 SUB SWAP1 LOG1 POP JUMP JUMPDEST PUSH0 PUSH0 SWAP1 SLOAD SWAP1 PUSH2 0x100 EXP SWAP1 DIV PUSH20 0xFFFFFFFFFFFFFFFFFFFFFFFFFFFFFFFFFFFFFFFF AND PUSH20 0xFFFFFFFFFFFFFFFFFFFFFFFFFFFFFFFFFFFFFFFF AND CALLER PUSH20 0xFFFFFFFFFFFFFFFFFFFFFFFFFFFFFFFFFFFFFFFF AND EQ PUSH2 0x2AF JUMPI PUSH1 0x40 MLOAD PUSH32 0x8C379A000000000000000000000000000000000000000000000000000000000 DUP2 MSTORE PUSH1 0x4 ADD PUSH2 0x2A6 SWAP1 PUSH2 0x687 JUMP JUMPDEST PUSH1 0x40 MLOAD DUP1 SWAP2 SUB SWAP1 REVERT JUMPDEST PUSH1 0x40 MLOAD DUP1 PUSH1 0x40 ADD PUSH1 0x40 MSTORE DUP1 DUP4 DUP4 DUP1 DUP1 PUSH1 0x1F ADD PUSH1 0x20 DUP1 SWAP2 DIV MUL PUSH1 0x20 ADD PUSH1 0x40 MLOAD SWAP1 DUP2 ADD PUSH1 0x40 MSTORE DUP1 SWAP4 SWAP3 SWAP2 SWAP1 DUP2 DUP2 MSTORE PUSH1 0x20 ADD DUP4 DUP4 DUP1 DUP3 DUP5 CALLDATACOPY PUSH0 DUP2 DUP5 ADD MSTORE PUSH1 0x1F NOT PUSH1 0x1F DUP3 ADD AND SWAP1 POP DUP1 DUP4 ADD SWAP3 POP POP POP POP POP POP POP DUP2 MSTORE PUSH1 0x20 ADD PUSH0 DUP2 MSTORE POP PUSH1 0x1 PUSH0 DUP6 PUSH20 0xFFFFFFFFFFFFFFFFFFFFFFFFFFFFFFFFFFFFFFFF AND PUSH20 0xFFFFFFFFFFFFFFFFFFFFFFFFFFFFFFFFFFFFFFFF AND DUP2 MSTORE PUSH1 0x20 ADD SWAP1 DUP2 MSTORE PUSH1 0x20 ADD PUSH0 KECCAK256 PUSH0 DUP3 ADD MLOAD DUP2 PUSH0 ADD SWAP1 DUP2 PUSH2 0x357 SWAP2 SWAP1 PUSH2 0x8D9 JUMP JUMPDEST POP PUSH1 0x20 DUP3 ADD MLOAD DUP2 PUSH1 0x1 ADD SSTORE SWAP1 POP POP POP POP POP JUMP JUMPDEST PUSH0 PUSH1 0x1 PUSH0 DUP4 PUSH20 0xFFFFFFFFFFFFFFFFFFFFFFFFFFFFFFFFFFFFFFFF AND PUSH20 0xFFFFFFFFFFFFFFFFFFFFFFFFFFFFFFFFFFFFFFFF AND DUP2 MSTORE PUSH1 0x20 ADD SWAP1 DUP2 MSTORE PUSH1 0x20 ADD PUSH0 KECCAK256 PUSH1 0x1 ADD SLOAD SWAP1 POP SWAP2 SWAP1 POP JUMP JUMPDEST PUSH0 PUSH0 REVERT JUMPDEST PUSH0 PUSH0 REVERT JUMPDEST PUSH0 PUSH20 0xFFFFFFFFFFFFFFFFFFFFFFFFFFFFFFFFFFFFFFFF DUP3 AND SWAP1 POP SWAP2 SWAP1 POP JUMP JUMPDEST PUSH0 PUSH2 0x3E4 DUP3 PUSH2 0x3BB JUMP JUMPDEST SWAP1 POP SWAP2 SWAP1 POP JUMP JUMPDEST PUSH2 0x3F4 DUP2 PUSH2 0x3DA JUMP JUMPDEST DUP2 EQ PUSH2 0x3FE JUMPI PUSH0 PUSH0 REVERT JUMPDEST POP JUMP JUMPDEST PUSH0 DUP2 CALLDATALOAD SWAP1 POP PUSH2 0x40F DUP2 PUSH2 0x3EB JUMP JUMPDEST SWAP3 SWAP2 POP POP JUMP JUMPDEST PUSH0 PUSH1 0x20 DUP3 DUP5 SUB SLT ISZERO PUSH2 0x42A JUMPI PUSH2 0x429 PUSH2 0x3B3 JUMP JUMPDEST JUMPDEST PUSH0 PUSH2 0x437 DUP5 DUP3 DUP6 ADD PUSH2 0x401 JUMP JUMPDEST SWAP2 POP POP SWAP3 SWAP2 POP POP JUMP JUMPDEST PUSH0 PUSH0 REVERT JUMPDEST PUSH0 PUSH0 REVERT JUMPDEST PUSH0 PUSH0 REVERT JUMPDEST PUSH0 PUSH0 DUP4 PUSH1 0x1F DUP5 ADD SLT PUSH2 0x461 JUMPI PUSH2 0x460 PUSH2 0x440 JUMP JUMPDEST JUMPDEST DUP3 CALLDATALOAD SWAP1 POP PUSH8 0xFFFFFFFFFFFFFFFF DUP2 GT ISZERO PUSH2 0x47E JUMPI PUSH2 0x47D PUSH2 0x444 JUMP JUMPDEST JUMPDEST PUSH1 0x20 DUP4 ADD SWAP2 POP DUP4 PUSH1 0x1 DUP3 MUL DUP4 ADD GT ISZERO PUSH2 0x49A JUMPI PUSH2 0x499 PUSH2 0x448 JUMP JUMPDEST JUMPDEST SWAP3 POP SWAP3 SWAP1 POP JUMP JUMPDEST PUSH0 PUSH0 PUSH0 PUSH1 0x40 DUP5 DUP7 SUB SLT ISZERO PUSH2 0x4B8 JUMPI PUSH2 0x4B7 PUSH2 0x3B3 JUMP JUMPDEST JUMPDEST PUSH0 PUSH2 0x4C5 DUP7 DUP3 DUP8 ADD PUSH2 0x401 JUMP JUMPDEST SWAP4 POP POP PUSH1 0x20 DUP5 ADD CALLDATALOAD PUSH8 0xFFFFFFFFFFFFFFFF DUP2 GT ISZERO PUSH2 0x4E6 JUMPI PUSH2 0x4E5 PUSH2 0x3B7 JUMP JUMPDEST JUMPDEST PUSH2 0x4F2 DUP7 DUP3 DUP8 ADD PUSH2 0x44C JUMP JUMPDEST SWAP3 POP SWAP3 POP POP SWAP3 POP SWAP3 POP SWAP3 JUMP JUMPDEST PUSH0 DUP2 SWAP1 POP SWAP2 SWAP1 POP JUMP JUMPDEST PUSH2 0x510 DUP2 PUSH2 0x4FE JUMP JUMPDEST DUP3 MSTORE POP POP JUMP JUMPDEST PUSH0 PUSH1 0x20 DUP3 ADD SWAP1 POP PUSH2 0x529 PUSH0 DUP4 ADD DUP5 PUSH2 0x507 JUMP JUMPDEST SWAP3 SWAP2 POP POP JUMP JUMPDEST PUSH0 DUP3 DUP3 MSTORE PUSH1 0x20 DUP3 ADD SWAP1 POP SWAP3 SWAP2 POP POP JUMP JUMPDEST PUSH32 0x416C726561647920766F74656400000000000000000000000000000000000000 PUSH0 DUP3 ADD MSTORE POP JUMP JUMPDEST PUSH0 PUSH2 0x573 PUSH1 0xD DUP4 PUSH2 0x52F JUMP JUMPDEST SWAP2 POP PUSH2 0x57E DUP3 PUSH2 0x53F JUMP JUMPDEST PUSH1 0x20 DUP3 ADD SWAP1 POP SWAP2 SWAP1 POP JUMP JUMPDEST PUSH0 PUSH1 0x20 DUP3 ADD SWAP1 POP DUP2 DUP2 SUB PUSH0 DUP4 ADD MSTORE PUSH2 0x5A0 DUP2 PUSH2 0x567 JUMP JUMPDEST SWAP1 POP SWAP2 SWAP1 POP JUMP JUMPDEST PUSH32 0x4E487B7100000000000000000000000000000000000000000000000000000000 PUSH0 MSTORE PUSH1 0x11 PUSH1 0x4 MSTORE PUSH1 0x24 PUSH0 REVERT JUMPDEST PUSH0 PUSH2 0x5DE DUP3 PUSH2 0x4FE JUMP JUMPDEST SWAP2 POP PUSH2 0x5E9 DUP4 PUSH2 0x4FE JUMP JUMPDEST SWAP3 POP DUP3 DUP3 ADD SWAP1 POP DUP1 DUP3 GT ISZERO PUSH2 0x601 JUMPI PUSH2 0x600 PUSH2 0x5A7 JUMP JUMPDEST JUMPDEST SWAP3 SWAP2 POP POP JUMP JUMPDEST PUSH2 0x610 DUP2 PUSH2 0x3DA JUMP JUMPDEST DUP3 MSTORE POP POP JUMP JUMPDEST PUSH0 PUSH1 0x40 DUP3 ADD SWAP1 POP PUSH2 0x629 PUSH0 DUP4 ADD DUP6 PUSH2 0x607 JUMP JUMPDEST PUSH2 0x636 PUSH1 0x20 DUP4 ADD DUP5 PUSH2 0x607 JUMP JUMPDEST SWAP4 SWAP3 POP POP POP JUMP JUMPDEST PUSH32 0x4E6F74204F776E65720000000000000000000000000000000000000000000000 PUSH0 DUP3 ADD MSTORE POP JUMP JUMPDEST PUSH0 PUSH2 0x671 PUSH1 0x9 DUP4 PUSH2 0x52F JUMP JUMPDEST SWAP2 POP PUSH2 0x67C DUP3 PUSH2 0x63D JUMP JUMPDEST PUSH1 0x20 DUP3 ADD SWAP1 POP SWAP2 SWAP1 POP JUMP JUMPDEST PUSH0 PUSH1 0x20 DUP3 ADD SWAP1 POP DUP2 DUP2 SUB PUSH0 DUP4 ADD MSTORE PUSH2 0x69E DUP2 PUSH2 0x665 JUMP JUMPDEST SWAP1 POP SWAP2 SWAP1 POP JUMP JUMPDEST PUSH0 DUP2 MLOAD SWAP1 POP SWAP2 SWAP1 POP JUMP JUMPDEST PUSH32 0x4E487B7100000000000000000000000000000000000000000000000000000000 PUSH0 MSTORE PUSH1 0x41 PUSH1 0x4 MSTORE PUSH1 0x24 PUSH0 REVERT JUMPDEST PUSH32 0x4E487B7100000000000000000000000000000000000000000000000000000000 PUSH0 MSTORE PUSH1 0x22 PUSH1 0x4 MSTORE PUSH1 0x24 PUSH0 REVERT JUMPDEST PUSH0 PUSH1 0x2 DUP3 DIV SWAP1 POP PUSH1 0x1 DUP3 AND DUP1 PUSH2 0x720 JUMPI PUSH1 0x7F DUP3 AND SWAP2 POP JUMPDEST PUSH1 0x20 DUP3 LT DUP2 SUB PUSH2 0x733 JUMPI PUSH2 0x732 PUSH2 0x6DC JUMP JUMPDEST JUMPDEST POP SWAP2 SWAP1 POP JUMP JUMPDEST PUSH0 DUP2 SWAP1 POP DUP2 PUSH0 MSTORE PUSH1 0x20 PUSH0 KECCAK256 SWAP1 POP SWAP2 SWAP1 POP JUMP JUMPDEST PUSH0 PUSH1 0x20 PUSH1 0x1F DUP4 ADD DIV SWAP1 POP SWAP2 SWAP1 POP JUMP JUMPDEST PUSH0 DUP3 DUP3 SHL SWAP1 POP SWAP3 SWAP2 POP POP JUMP JUMPDEST PUSH0 PUSH1 0x8 DUP4 MUL PUSH2 0x795 PUSH32 0xFFFFFFFFFFFFFFFFFFFFFFFFFFFFFFFFFFFFFFFFFFFFFFFFFFFFFFFFFFFFFFFF DUP3 PUSH2 0x75A JUMP JUMPDEST PUSH2 0x79F DUP7 DUP4 PUSH2 0x75A JUMP JUMPDEST SWAP6 POP DUP1 NOT DUP5 AND SWAP4 POP DUP1 DUP7 AND DUP5 OR SWAP3 POP POP POP SWAP4 SWAP3 POP POP POP JUMP JUMPDEST PUSH0 DUP2 SWAP1 POP SWAP2 SWAP1 POP JUMP JUMPDEST PUSH0 PUSH2 0x7DA PUSH2 0x7D5 PUSH2 0x7D0 DUP5 PUSH2 0x4FE JUMP JUMPDEST PUSH2 0x7B7 JUMP JUMPDEST PUSH2 0x4FE JUMP JUMPDEST SWAP1 POP SWAP2 SWAP1 POP JUMP JUMPDEST PUSH0 DUP2 SWAP1 POP SWAP2 SWAP1 POP JUMP JUMPDEST PUSH2 0x7F3 DUP4 PUSH2 0x7C0 JUMP JUMPDEST PUSH2 0x807 PUSH2 0x7FF DUP3 PUSH2 0x7E1 JUMP JUMPDEST DUP5 DUP5 SLOAD PUSH2 0x766 JUMP JUMPDEST DUP3 SSTORE POP POP POP POP JUMP JUMPDEST PUSH0 PUSH0 SWAP1 POP SWAP1 JUMP JUMPDEST PUSH2 0x81E PUSH2 0x80F JUMP JUMPDEST PUSH2 0x829 DUP2 DUP5 DUP5 PUSH2 0x7EA JUMP JUMPDEST POP POP POP JUMP JUMPDEST JUMPDEST DUP2 DUP2 LT ISZERO PUSH2 0x84C JUMPI PUSH2 0x841 PUSH0 DUP3 PUSH2 0x816 JUMP JUMPDEST PUSH1 0x1 DUP2 ADD SWAP1 POP PUSH2 0x82F JUMP JUMPDEST POP POP JUMP JUMPDEST PUSH1 0x1F DUP3 GT ISZERO PUSH2 0x891 JUMPI PUSH2 0x862 DUP2 PUSH2 0x739 JUMP JUMPDEST PUSH2 0x86B DUP5 PUSH2 0x74B JUMP JUMPDEST DUP2 ADD PUSH1 0x20 DUP6 LT ISZERO PUSH2 0x87A JUMPI DUP2 SWAP1 POP JUMPDEST PUSH2 0x88E PUSH2 0x886 DUP6 PUSH2 0x74B JUMP JUMPDEST DUP4 ADD DUP3 PUSH2 0x82E JUMP JUMPDEST POP POP JUMPDEST POP POP POP JUMP JUMPDEST PUSH0 DUP3 DUP3 SHR SWAP1 POP SWAP3 SWAP2 POP POP JUMP JUMPDEST PUSH0 PUSH2 0x8B1 PUSH0 NOT DUP5 PUSH1 0x8 MUL PUSH2 0x896 JUMP JUMPDEST NOT DUP1 DUP4 AND SWAP2 POP POP SWAP3 SWAP2 POP POP JUMP JUMPDEST PUSH0 PUSH2 0x8C9 DUP4 DUP4 PUSH2 0x8A2 JUMP JUMPDEST SWAP2 POP DUP3 PUSH1 0x2 MUL DUP3 OR SWAP1 POP SWAP3 SWAP2 POP POP JUMP JUMPDEST PUSH2 0x8E2 DUP3 PUSH2 0x6A5 JUMP JUMPDEST PUSH8 0xFFFFFFFFFFFFFFFF DUP2 GT ISZERO PUSH2 0x8FB JUMPI PUSH2 0x8FA PUSH2 0x6AF JUMP JUMPDEST JUMPDEST PUSH2 0x905 DUP3 SLOAD PUSH2 0x709 JUMP JUMPDEST PUSH2 0x910 DUP3 DUP3 DUP6 PUSH2 0x850 JUMP JUMPDEST PUSH0 PUSH1 0x20 SWAP1 POP PUSH1 0x1F DUP4 GT PUSH1 0x1 DUP2 EQ PUSH2 0x941 JUMPI PUSH0 DUP5 ISZERO PUSH2 0x92F JUMPI DUP3 DUP8 ADD MLOAD SWAP1 POP JUMPDEST PUSH2 0x939 DUP6 DUP3 PUSH2 0x8BE JUMP JUMPDEST DUP7 SSTORE POP PUSH2 0x9A0 JUMP JUMPDEST PUSH1 0x1F NOT DUP5 AND PUSH2 0x94F DUP7 PUSH2 0x739 JUMP JUMPDEST PUSH0 JUMPDEST DUP3 DUP2 LT ISZERO PUSH2 0x976 JUMPI DUP5 DUP10 ADD MLOAD DUP3 SSTORE PUSH1 0x1 DUP3 ADD SWAP2 POP PUSH1 0x20 DUP6 ADD SWAP5 POP PUSH1 0x20 DUP2 ADD SWAP1 POP PUSH2 0x951 JUMP JUMPDEST DUP7 DUP4 LT ISZERO PUSH2 0x993 JUMPI DUP5 DUP10 ADD MLOAD PUSH2 0x98F PUSH1 0x1F DUP10 AND DUP3 PUSH2 0x8A2 JUMP JUMPDEST DUP4 SSTORE POP JUMPDEST PUSH1 0x1 PUSH1 0x2 DUP9 MUL ADD DUP9 SSTORE POP POP POP JUMPDEST POP POP POP POP POP POP JUMP INVALID LOG2 PUSH5 0x6970667358 0x22 SLT KECCAK256 0xBE 0xC5 PUSH12 0x12D36E7D0D22DCBBAB86A480 PUSH1 0xFC 0xB6 EXTCODEHASH KECCAK256 0xD7 PUSH7 0xE976B888BA603B NUMBER PUSH12 0x2B64736F6C634300081E0033 "
				},
				"gasEstimates": {
					"creation": {
						"codeDepositCost": "505200",
						"executionCost": "24799",
						"totalCost": "529999"
					},
					"external": {
						"addCandidate(address,string)": "infinite",
						"getVoteCount(address)": "2857",
						"vote(address)": "infinite"
					}
				},
				"methodIdentifiers": {
					"addCandidate(address,string)": "9a594f06",
					"getVoteCount(address)": "e652f4cc",
					"vote(address)": "6dd7d8ea"
				}
			},
			"storageLayout": {
				"storage": [
					{
						"astId": 3,
						"contract": "contracts/Voting.sol:Voting",
						"label": "owner",
						"offset": 0,
						"slot": "0",
						"type": "t_address"
					},
					{
						"astId": 13,
						"contract": "contracts/Voting.sol:Voting",
						"label": "candidates",
						"offset": 0,
						"slot": "1",
						"type": "t_mapping(t_address,t_struct(Candidate)8_storage)"
					},
					{
						"astId": 17,
						"contract": "contracts/Voting.sol:Voting",
						"label": "hasVoted",
						"offset": 0,
						"slot": "2",
						"type": "t_mapping(t_address,t_bool)"
					}
				],
				"types": {
					"t_address": {
						"encoding": "inplace",
						"label": "address",
						"numberOfBytes": "20"
					},
					"t_bool": {
						"encoding": "inplace",
						"label": "bool",
						"numberOfBytes": "1"
					},
					"t_mapping(t_address,t_bool)": {
						"encoding": "mapping",
						"key": "t_address",
						"label": "mapping(address => bool)",
						"numberOfBytes": "32",
						"value": "t_bool"
					},
					"t_mapping(t_address,t_struct(Candidate)8_storage)": {
						"encoding": "mapping",
						"key": "t_address",
						"label": "mapping(address => struct Voting.Candidate)",
						"numberOfBytes": "32",
						"value": "t_struct(Candidate)8_storage"
					},
					"t_string_storage": {
						"encoding": "bytes",
						"label": "string",
						"numberOfBytes": "32"
					},
					"t_struct(Candidate)8_storage": {
						"encoding": "inplace",
						"label": "struct Voting.Candidate",
						"members": [
							{
								"astId": 5,
								"contract": "contracts/Voting.sol:Voting",
								"label": "name",
								"offset": 0,
								"slot": "0",
								"type": "t_string_storage"
							},
							{
								"astId": 7,
								"contract": "contracts/Voting.sol:Voting",
								"label": "voteCount",
								"offset": 0,
								"slot": "1",
								"type": "t_uint256"
							}
						],
						"numberOfBytes": "64"
					},
					"t_uint256": {
						"encoding": "inplace",
						"label": "uint256",
						"numberOfBytes": "32"
					}
				}
			},
			"userdoc": {
				"kind": "user",
				"methods": {},
				"version": 1
			}
		}
	}
}