{
	"contracts/StudentRegistryV2.sol": {
		"StudentRegistryV2": {
			"abi": [
				{
					"inputs": [],
					"stateMutability": "nonpayable",
					"type": "constructor"
				},
				{
					"anonymous": false,
					"inputs": [
						{
							"indexed": false,
							"internalType": "address",
							"name": "user",
							"type": "address"
						},
						{
							"indexed": false,
							"internalType": "string",
							"name": "name",
							"type": "string"
						},
						{
							"indexed": false,
							"internalType": "uint256",
							"name": "age",
							"type": "uint256"
						}
					],
					"name": "Registered",
					"type": "event"
				},
				{
					"inputs": [
						{
							"internalType": "address",
							"name": "user",
							"type": "address"
						}
					],
					"name": "getStudent",
					"outputs": [
						{
							"internalType": "string",
							"name": "",
							"type": "string"
						},
						{
							"internalType": "uint256",
							"name": "",
							"type": "uint256"
						},
						{
							"internalType": "bool",
							"name": "",
							"type": "bool"
						}
					],
					"stateMutability": "view",
					"type": "function"
				},
				{
					"inputs": [
						{
							"internalType": "address",
							"name": "user",
							"type": "address"
						}
					],
					"name": "isStudentRegistered",
					"outputs": [
						{
							"internalType": "bool",
							"name": "",
							"type": "bool"
						}
					],
					"stateMutability": "view",
					"type": "function"
				},
				{
					"inputs": [
						{
							"internalType": "address",
							"name": "studentAddress",
							"type": "address"
						},
						{
							"internalType": "string",
							"name": "name",
							"type": "string"
						},
						{
							"internalType": "uint256",
							"name": "age",
							"type": "uint256"
						}
					],
					"name": "register",
					"outputs": [],
					"stateMutability": "nonpayable",
					"type": "function"
				}
			],
			"devdoc": {
				"kind": "dev",
				"methods": {},
				"version": 1
			},
			"evm": {
				"assembly": "    /* \"contracts/StudentRegistryV2.sol\":74:1137  contract StudentRegistryV2 {... */\n  mstore(0x40, 0x80)\n    /* \"contracts/StudentRegistryV2.sol\":509:560  constructor() {... */\n  callvalue\n  dup1\n  iszero\n  tag_1\n  jumpi\n  revert(0x00, 0x00)\ntag_1:\n  pop\n    /* \"contracts/StudentRegistryV2.sol\":542:552  msg.sender */\n  caller\n    /* \"contracts/StudentRegistryV2.sol\":534:539  owner */\n  0x01\n  0x00\n    /* \"contracts/StudentRegistryV2.sol\":534:552  owner = msg.sender */\n  0x0100\n  exp\n  dup2\n  sload\n  dup2\n  0xffffffffffffffffffffffffffffffffffffffff\n  mul\n  not\n  and\n  swap1\n  dup4\n  0xffffffffffffffffffffffffffffffffffffffff\n  and\n  mul\n  or\n  swap1\n  sstore\n  pop\n    /* \"contracts/StudentRegistryV2.sol\":74:1137  contract StudentRegistryV2 {... */\n  dataSize(sub_0)\n  dup1\n  dataOffset(sub_0)\n  0x00\n  codecopy\n  0x00\n  return\nstop\n\nsub_0: assembly {\n        /* \"contracts/StudentRegistryV2.sol\":74:1137  contract StudentRegistryV2 {... */\n      mstore(0x40, 0x80)\n      callvalue\n      dup1\n      iszero\n      tag_1\n      jumpi\n      revert(0x00, 0x00)\n    tag_1:\n      pop\n      jumpi(tag_2, lt(calldatasize, 0x04))\n      shr(0xe0, calldataload(0x00))\n      dup1\n      0x6b7b44d7\n      eq\n      tag_3\n      jumpi\n      dup1\n      0xb8b2e42c\n      eq\n      tag_4\n      jumpi\n      dup1\n      0xfc0d1b84\n      eq\n      tag_5\n      jumpi\n    tag_2:\n      revert(0x00, 0x00)\n        /* \"contracts/StudentRegistryV2.sol\":568:779  function getStudent (address user) external view returns (string memory , uint, bool) {... */\n    tag_3:\n      tag_6\n      0x04\n      dup1\n      calldatasize\n      sub\n      dup2\n      add\n      swap1\n      tag_7\n      swap2\n      swap1\n      tag_8\n      jump\t// in\n    tag_7:\n      tag_9\n      jump\t// in\n    tag_6:\n      mload(0x40)\n      tag_10\n      swap4\n      swap3\n      swap2\n      swap1\n      tag_11\n      jump\t// in\n    tag_10:\n      mload(0x40)\n      dup1\n      swap2\n      sub\n      swap1\n      return\n        /* \"contracts/StudentRegistryV2.sol\":1009:1134  function isStudentRegistered(address user) external view returns (bool) {... */\n    tag_4:\n      tag_12\n      0x04\n      dup1\n      calldatasize\n      sub\n      dup2\n      add\n      swap1\n      tag_13\n      swap2\n      swap1\n      tag_8\n      jump\t// in\n    tag_13:\n      tag_14\n      jump\t// in\n    tag_12:\n      mload(0x40)\n      tag_15\n      swap2\n      swap1\n      tag_16\n      jump\t// in\n    tag_15:\n      mload(0x40)\n      dup1\n      swap2\n      sub\n      swap1\n      return\n        /* \"contracts/StudentRegistryV2.sol\":787:1001  function register(address studentAddress, string calldata name, uint age) external isOwner {... */\n    tag_5:\n      tag_17\n      0x04\n      dup1\n      calldatasize\n      sub\n      dup2\n      add\n      swap1\n      tag_18\n      swap2\n      swap1\n      tag_19\n      jump\t// in\n    tag_18:\n      tag_20\n      jump\t// in\n    tag_17:\n      stop\n        /* \"contracts/StudentRegistryV2.sol\":568:779  function getStudent (address user) external view returns (string memory , uint, bool) {... */\n    tag_9:\n        /* \"contracts/StudentRegistryV2.sol\":626:639  string memory */\n      0x60\n        /* \"contracts/StudentRegistryV2.sol\":642:646  uint */\n      0x00\n        /* \"contracts/StudentRegistryV2.sol\":648:652  bool */\n      0x00\n        /* \"contracts/StudentRegistryV2.sol\":665:687  Student memory student */\n      0x00\n        /* \"contracts/StudentRegistryV2.sol\":690:698  students */\n      0x00\n        /* \"contracts/StudentRegistryV2.sol\":690:704  students[user] */\n      0x00\n        /* \"contracts/StudentRegistryV2.sol\":699:703  user */\n      dup7\n        /* \"contracts/StudentRegistryV2.sol\":690:704  students[user] */\n      0xffffffffffffffffffffffffffffffffffffffff\n      and\n      0xffffffffffffffffffffffffffffffffffffffff\n      and\n      dup2\n      mstore\n      0x20\n      add\n      swap1\n      dup2\n      mstore\n      0x20\n      add\n      0x00\n      keccak256\n        /* \"contracts/StudentRegistryV2.sol\":665:704  Student memory student = students[user] */\n      mload(0x40)\n      dup1\n      0x60\n      add\n      0x40\n      mstore\n      swap1\n      dup2\n      0x00\n      dup3\n      add\n      dup1\n      sload\n      tag_22\n      swap1\n      tag_23\n      jump\t// in\n    tag_22:\n      dup1\n      0x1f\n      add\n      0x20\n      dup1\n      swap2\n      div\n      mul\n      0x20\n      add\n      mload(0x40)\n      swap1\n      dup2\n      add\n      0x40\n      mstore\n      dup1\n      swap3\n      swap2\n      swap1\n      dup2\n      dup2\n      mstore\n      0x20\n      add\n      dup3\n      dup1\n      sload\n      tag_24\n      swap1\n      tag_23\n      jump\t// in\n    tag_24:\n      dup1\n      iszero\n      tag_25\n      jumpi\n      dup1\n      0x1f\n      lt\n      tag_26\n      jumpi\n      0x0100\n      dup1\n      dup4\n      sload\n      div\n      mul\n      dup4\n      mstore\n      swap2\n      0x20\n      add\n      swap2\n      jump(tag_25)\n    tag_26:\n      dup3\n      add\n      swap2\n      swap1\n      0x00\n      mstore\n      keccak256(0x00, 0x20)\n      swap1\n    tag_27:\n      dup2\n      sload\n      dup2\n      mstore\n      swap1\n      0x01\n      add\n      swap1\n      0x20\n      add\n      dup1\n      dup4\n      gt\n      tag_27\n      jumpi\n      dup3\n      swap1\n      sub\n      0x1f\n      and\n      dup3\n      add\n      swap2\n    tag_25:\n      pop\n      pop\n      pop\n      pop\n      pop\n      dup2\n      mstore\n      0x20\n      add\n      0x01\n      dup3\n      add\n      sload\n      dup2\n      mstore\n      0x20\n      add\n      0x02\n      dup3\n      add\n      0x00\n      swap1\n      sload\n      swap1\n      0x0100\n      exp\n      swap1\n      div\n      0xff\n      and\n      iszero\n      iszero\n      iszero\n      iszero\n      dup2\n      mstore\n      pop\n      pop\n      swap1\n      pop\n        /* \"contracts/StudentRegistryV2.sol\":723:730  student */\n      dup1\n        /* \"contracts/StudentRegistryV2.sol\":723:735  student.name */\n      0x00\n      add\n      mload\n        /* \"contracts/StudentRegistryV2.sol\":737:744  student */\n      dup2\n        /* \"contracts/StudentRegistryV2.sol\":737:748  student.age */\n      0x20\n      add\n      mload\n        /* \"contracts/StudentRegistryV2.sol\":750:757  student */\n      dup3\n        /* \"contracts/StudentRegistryV2.sol\":750:770  student.isRegistered */\n      0x40\n      add\n      mload\n        /* \"contracts/StudentRegistryV2.sol\":715:771  return (student.name, student.age, student.isRegistered) */\n      swap4\n      pop\n      swap4\n      pop\n      swap4\n      pop\n      pop\n        /* \"contracts/StudentRegistryV2.sol\":568:779  function getStudent (address user) external view returns (string memory , uint, bool) {... */\n      swap2\n      swap4\n      swap1\n      swap3\n      pop\n      jump\t// out\n        /* \"contracts/StudentRegistryV2.sol\":1009:1134  function isStudentRegistered(address user) external view returns (bool) {... */\n    tag_14:\n        /* \"contracts/StudentRegistryV2.sol\":1075:1079  bool */\n      0x00\n        /* \"contracts/StudentRegistryV2.sol\":1099:1107  students */\n      0x00\n        /* \"contracts/StudentRegistryV2.sol\":1099:1113  students[user] */\n      0x00\n        /* \"contracts/StudentRegistryV2.sol\":1108:1112  user */\n      dup4\n        /* \"contracts/StudentRegistryV2.sol\":1099:1113  students[user] */\n      0xffffffffffffffffffffffffffffffffffffffff\n      and\n      0xffffffffffffffffffffffffffffffffffffffff\n      and\n      dup2\n      mstore\n      0x20\n      add\n      swap1\n      dup2\n      mstore\n      0x20\n      add\n      0x00\n      keccak256\n        /* \"contracts/StudentRegistryV2.sol\":1099:1126  students[user].isRegistered */\n      0x02\n      add\n      0x00\n      swap1\n      sload\n      swap1\n      0x0100\n      exp\n      swap1\n      div\n      0xff\n      and\n        /* \"contracts/StudentRegistryV2.sol\":1092:1126  return students[user].isRegistered */\n      swap1\n      pop\n        /* \"contracts/StudentRegistryV2.sol\":1009:1134  function isStudentRegistered(address user) external view returns (bool) {... */\n      swap2\n      swap1\n      pop\n      jump\t// out\n        /* \"contracts/StudentRegistryV2.sol\":787:1001  function register(address studentAddress, string calldata name, uint age) external isOwner {... */\n    tag_20:\n        /* \"contracts/StudentRegistryV2.sol\":394:399  owner */\n      0x01\n      0x00\n      swap1\n      sload\n      swap1\n      0x0100\n      exp\n      swap1\n      div\n      0xffffffffffffffffffffffffffffffffffffffff\n      and\n        /* \"contracts/StudentRegistryV2.sol\":380:399  msg.sender == owner */\n      0xffffffffffffffffffffffffffffffffffffffff\n      and\n        /* \"contracts/StudentRegistryV2.sol\":380:390  msg.sender */\n      caller\n        /* \"contracts/StudentRegistryV2.sol\":380:399  msg.sender == owner */\n      0xffffffffffffffffffffffffffffffffffffffff\n      and\n      eq\n        /* \"contracts/StudentRegistryV2.sol\":372:413  require(msg.sender == owner, \"Not Owner\") */\n      tag_30\n      jumpi\n      mload(0x40)\n      0x08c379a000000000000000000000000000000000000000000000000000000000\n      dup2\n      mstore\n      0x04\n      add\n      tag_31\n      swap1\n      tag_32\n      jump\t// in\n    tag_31:\n      mload(0x40)\n      dup1\n      swap2\n      sub\n      swap1\n      revert\n    tag_30:\n        /* \"contracts/StudentRegistryV2.sol\":916:940  Student(name, age, true) */\n      mload(0x40)\n      dup1\n      0x60\n      add\n      0x40\n      mstore\n      dup1\n        /* \"contracts/StudentRegistryV2.sol\":924:928  name */\n      dup5\n      dup5\n        /* \"contracts/StudentRegistryV2.sol\":916:940  Student(name, age, true) */\n      dup1\n      dup1\n      0x1f\n      add\n      0x20\n      dup1\n      swap2\n      div\n      mul\n      0x20\n      add\n      mload(0x40)\n      swap1\n      dup2\n      add\n      0x40\n      mstore\n      dup1\n      swap4\n      swap3\n      swap2\n      swap1\n      dup2\n      dup2\n      mstore\n      0x20\n      add\n      dup4\n      dup4\n      dup1\n      dup3\n      dup5\n      calldatacopy\n      0x00\n      dup2\n      dup5\n      add\n      mstore\n      not(0x1f)\n      0x1f\n      dup3\n      add\n      and\n      swap1\n      pop\n      dup1\n      dup4\n      add\n      swap3\n      pop\n      pop\n      pop\n      pop\n      pop\n      pop\n      pop\n      dup2\n      mstore\n      0x20\n      add\n        /* \"contracts/StudentRegistryV2.sol\":930:933  age */\n      dup3\n        /* \"contracts/StudentRegistryV2.sol\":916:940  Student(name, age, true) */\n      dup2\n      mstore\n      0x20\n      add\n        /* \"contracts/StudentRegistryV2.sol\":935:939  true */\n      0x01\n        /* \"contracts/StudentRegistryV2.sol\":916:940  Student(name, age, true) */\n      iszero\n      iszero\n      dup2\n      mstore\n      pop\n        /* \"contracts/StudentRegistryV2.sol\":889:897  students */\n      0x00\n        /* \"contracts/StudentRegistryV2.sol\":889:913  students[studentAddress] */\n      0x00\n        /* \"contracts/StudentRegistryV2.sol\":898:912  studentAddress */\n      dup7\n        /* \"contracts/StudentRegistryV2.sol\":889:913  students[studentAddress] */\n      0xffffffffffffffffffffffffffffffffffffffff\n      and\n      0xffffffffffffffffffffffffffffffffffffffff\n      and\n      dup2\n      mstore\n      0x20\n      add\n      swap1\n      dup2\n      mstore\n      0x20\n      add\n      0x00\n      keccak256\n        /* \"contracts/StudentRegistryV2.sol\":889:940  students[studentAddress] = Student(name, age, true) */\n      0x00\n      dup3\n      add\n      mload\n      dup2\n      0x00\n      add\n      swap1\n      dup2\n      tag_34\n      swap2\n      swap1\n      tag_35\n      jump\t// in\n    tag_34:\n      pop\n      0x20\n      dup3\n      add\n      mload\n      dup2\n      0x01\n      add\n      sstore\n      0x40\n      dup3\n      add\n      mload\n      dup2\n      0x02\n      add\n      exp(0x0100, 0x00)\n      dup2\n      sload\n      dup2\n      0xff\n      mul\n      not\n      and\n      swap1\n      dup4\n      iszero\n      iszero\n      mul\n      or\n      swap1\n      sstore\n      pop\n      swap1\n      pop\n      pop\n        /* \"contracts/StudentRegistryV2.sol\":956:993  Registered(studentAddress, name, age) */\n      0x89b886e508b5806f8c28179176052458c2bd0f54106811773b56be2d51a14e60\n        /* \"contracts/StudentRegistryV2.sol\":967:981  studentAddress */\n      dup5\n        /* \"contracts/StudentRegistryV2.sol\":983:987  name */\n      dup5\n      dup5\n        /* \"contracts/StudentRegistryV2.sol\":989:992  age */\n      dup5\n        /* \"contracts/StudentRegistryV2.sol\":956:993  Registered(studentAddress, name, age) */\n      mload(0x40)\n      tag_36\n      swap5\n      swap4\n      swap3\n      swap2\n      swap1\n      tag_37\n      jump\t// in\n    tag_36:\n      mload(0x40)\n      dup1\n      swap2\n      sub\n      swap1\n      log1\n        /* \"contracts/StudentRegistryV2.sol\":787:1001  function register(address studentAddress, string calldata name, uint age) external isOwner {... */\n      pop\n      pop\n      pop\n      pop\n      jump\t// out\n        /* \"#utility.yul\":88:205   */\n    tag_39:\n        /* \"#utility.yul\":197:198   */\n      0x00\n        /* \"#utility.yul\":194:195   */\n      0x00\n        /* \"#utility.yul\":187:199   */\n      revert\n        /* \"#utility.yul\":211:328   */\n    tag_40:\n        /* \"#utility.yul\":320:321   */\n      0x00\n        /* \"#utility.yul\":317:318   */\n      0x00\n        /* \"#utility.yul\":310:322   */\n      revert\n        /* \"#utility.yul\":334:460   */\n    tag_41:\n        /* \"#utility.yul\":371:378   */\n      0x00\n        /* \"#utility.yul\":411:453   */\n      0xffffffffffffffffffffffffffffffffffffffff\n        /* \"#utility.yul\":404:409   */\n      dup3\n        /* \"#utility.yul\":400:454   */\n      and\n        /* \"#utility.yul\":389:454   */\n      swap1\n      pop\n        /* \"#utility.yul\":334:460   */\n      swap2\n      swap1\n      pop\n      jump\t// out\n        /* \"#utility.yul\":466:562   */\n    tag_42:\n        /* \"#utility.yul\":503:510   */\n      0x00\n        /* \"#utility.yul\":532:556   */\n      tag_88\n        /* \"#utility.yul\":550:555   */\n      dup3\n        /* \"#utility.yul\":532:556   */\n      tag_41\n      jump\t// in\n    tag_88:\n        /* \"#utility.yul\":521:556   */\n      swap1\n      pop\n        /* \"#utility.yul\":466:562   */\n      swap2\n      swap1\n      pop\n      jump\t// out\n        /* \"#utility.yul\":568:690   */\n    tag_43:\n        /* \"#utility.yul\":641:665   */\n      tag_90\n        /* \"#utility.yul\":659:664   */\n      dup2\n        /* \"#utility.yul\":641:665   */\n      tag_42\n      jump\t// in\n    tag_90:\n        /* \"#utility.yul\":634:639   */\n      dup2\n        /* \"#utility.yul\":631:666   */\n      eq\n        /* \"#utility.yul\":621:684   */\n      tag_91\n      jumpi\n        /* \"#utility.yul\":680:681   */\n      0x00\n        /* \"#utility.yul\":677:678   */\n      0x00\n        /* \"#utility.yul\":670:682   */\n      revert\n        /* \"#utility.yul\":621:684   */\n    tag_91:\n        /* \"#utility.yul\":568:690   */\n      pop\n      jump\t// out\n        /* \"#utility.yul\":696:835   */\n    tag_44:\n        /* \"#utility.yul\":742:747   */\n      0x00\n        /* \"#utility.yul\":780:786   */\n      dup2\n        /* \"#utility.yul\":767:787   */\n      calldataload\n        /* \"#utility.yul\":758:787   */\n      swap1\n      pop\n        /* \"#utility.yul\":796:829   */\n      tag_93\n        /* \"#utility.yul\":823:828   */\n      dup2\n        /* \"#utility.yul\":796:829   */\n      tag_43\n      jump\t// in\n    tag_93:\n        /* \"#utility.yul\":696:835   */\n      swap3\n      swap2\n      pop\n      pop\n      jump\t// out\n        /* \"#utility.yul\":841:1170   */\n    tag_8:\n        /* \"#utility.yul\":900:906   */\n      0x00\n        /* \"#utility.yul\":949:951   */\n      0x20\n        /* \"#utility.yul\":937:946   */\n      dup3\n        /* \"#utility.yul\":928:935   */\n      dup5\n        /* \"#utility.yul\":924:947   */\n      sub\n        /* \"#utility.yul\":920:952   */\n      slt\n        /* \"#utility.yul\":917:1036   */\n      iszero\n      tag_95\n      jumpi\n        /* \"#utility.yul\":955:1034   */\n      tag_96\n      tag_39\n      jump\t// in\n    tag_96:\n        /* \"#utility.yul\":917:1036   */\n    tag_95:\n        /* \"#utility.yul\":1075:1076   */\n      0x00\n        /* \"#utility.yul\":1100:1153   */\n      tag_97\n        /* \"#utility.yul\":1145:1152   */\n      dup5\n        /* \"#utility.yul\":1136:1142   */\n      dup3\n        /* \"#utility.yul\":1125:1134   */\n      dup6\n        /* \"#utility.yul\":1121:1143   */\n      add\n        /* \"#utility.yul\":1100:1153   */\n      tag_44\n      jump\t// in\n    tag_97:\n        /* \"#utility.yul\":1090:1153   */\n      swap2\n      pop\n        /* \"#utility.yul\":1046:1163   */\n      pop\n        /* \"#utility.yul\":841:1170   */\n      swap3\n      swap2\n      pop\n      pop\n      jump\t// out\n        /* \"#utility.yul\":1176:1275   */\n    tag_45:\n        /* \"#utility.yul\":1228:1234   */\n      0x00\n        /* \"#utility.yul\":1262:1267   */\n      dup2\n        /* \"#utility.yul\":1256:1268   */\n      mload\n        /* \"#utility.yul\":1246:1268   */\n      swap1\n      pop\n        /* \"#utility.yul\":1176:1275   */\n      swap2\n      swap1\n      pop\n      jump\t// out\n        /* \"#utility.yul\":1281:1450   */\n    tag_46:\n        /* \"#utility.yul\":1365:1376   */\n      0x00\n        /* \"#utility.yul\":1399:1405   */\n      dup3\n        /* \"#utility.yul\":1394:1397   */\n      dup3\n        /* \"#utility.yul\":1387:1406   */\n      mstore\n        /* \"#utility.yul\":1439:1443   */\n      0x20\n        /* \"#utility.yul\":1434:1437   */\n      dup3\n        /* \"#utility.yul\":1430:1444   */\n      add\n        /* \"#utility.yul\":1415:1444   */\n      swap1\n      pop\n        /* \"#utility.yul\":1281:1450   */\n      swap3\n      swap2\n      pop\n      pop\n      jump\t// out\n        /* \"#utility.yul\":1456:1595   */\n    tag_47:\n        /* \"#utility.yul\":1545:1551   */\n      dup3\n        /* \"#utility.yul\":1540:1543   */\n      dup2\n        /* \"#utility.yul\":1535:1538   */\n      dup4\n        /* \"#utility.yul\":1529:1552   */\n      mcopy\n        /* \"#utility.yul\":1586:1587   */\n      0x00\n        /* \"#utility.yul\":1577:1583   */\n      dup4\n        /* \"#utility.yul\":1572:1575   */\n      dup4\n        /* \"#utility.yul\":1568:1584   */\n      add\n        /* \"#utility.yul\":1561:1588   */\n      mstore\n        /* \"#utility.yul\":1456:1595   */\n      pop\n      pop\n      pop\n      jump\t// out\n        /* \"#utility.yul\":1601:1703   */\n    tag_48:\n        /* \"#utility.yul\":1642:1648   */\n      0x00\n        /* \"#utility.yul\":1693:1695   */\n      0x1f\n        /* \"#utility.yul\":1689:1696   */\n      not\n        /* \"#utility.yul\":1684:1686   */\n      0x1f\n        /* \"#utility.yul\":1677:1682   */\n      dup4\n        /* \"#utility.yul\":1673:1687   */\n      add\n        /* \"#utility.yul\":1669:1697   */\n      and\n        /* \"#utility.yul\":1659:1697   */\n      swap1\n      pop\n        /* \"#utility.yul\":1601:1703   */\n      swap2\n      swap1\n      pop\n      jump\t// out\n        /* \"#utility.yul\":1709:2086   */\n    tag_49:\n        /* \"#utility.yul\":1797:1800   */\n      0x00\n        /* \"#utility.yul\":1825:1864   */\n      tag_103\n        /* \"#utility.yul\":1858:1863   */\n      dup3\n        /* \"#utility.yul\":1825:1864   */\n      tag_45\n      jump\t// in\n    tag_103:\n        /* \"#utility.yul\":1880:1951   */\n      tag_104\n        /* \"#utility.yul\":1944:1950   */\n      dup2\n        /* \"#utility.yul\":1939:1942   */\n      dup6\n        /* \"#utility.yul\":1880:1951   */\n      tag_46\n      jump\t// in\n    tag_104:\n        /* \"#utility.yul\":1873:1951   */\n      swap4\n      pop\n        /* \"#utility.yul\":1960:2025   */\n      tag_105\n        /* \"#utility.yul\":2018:2024   */\n      dup2\n        /* \"#utility.yul\":2013:2016   */\n      dup6\n        /* \"#utility.yul\":2006:2010   */\n      0x20\n        /* \"#utility.yul\":1999:2004   */\n      dup7\n        /* \"#utility.yul\":1995:2011   */\n      add\n        /* \"#utility.yul\":1960:2025   */\n      tag_47\n      jump\t// in\n    tag_105:\n        /* \"#utility.yul\":2050:2079   */\n      tag_106\n        /* \"#utility.yul\":2072:2078   */\n      dup2\n        /* \"#utility.yul\":2050:2079   */\n      tag_48\n      jump\t// in\n    tag_106:\n        /* \"#utility.yul\":2045:2048   */\n      dup5\n        /* \"#utility.yul\":2041:2080   */\n      add\n        /* \"#utility.yul\":2034:2080   */\n      swap2\n      pop\n        /* \"#utility.yul\":1801:2086   */\n      pop\n        /* \"#utility.yul\":1709:2086   */\n      swap3\n      swap2\n      pop\n      pop\n      jump\t// out\n        /* \"#utility.yul\":2092:2169   */\n    tag_50:\n        /* \"#utility.yul\":2129:2136   */\n      0x00\n        /* \"#utility.yul\":2158:2163   */\n      dup2\n        /* \"#utility.yul\":2147:2163   */\n      swap1\n      pop\n        /* \"#utility.yul\":2092:2169   */\n      swap2\n      swap1\n      pop\n      jump\t// out\n        /* \"#utility.yul\":2175:2293   */\n    tag_51:\n        /* \"#utility.yul\":2262:2286   */\n      tag_109\n        /* \"#utility.yul\":2280:2285   */\n      dup2\n        /* \"#utility.yul\":2262:2286   */\n      tag_50\n      jump\t// in\n    tag_109:\n        /* \"#utility.yul\":2257:2260   */\n      dup3\n        /* \"#utility.yul\":2250:2287   */\n      mstore\n        /* \"#utility.yul\":2175:2293   */\n      pop\n      pop\n      jump\t// out\n        /* \"#utility.yul\":2299:2389   */\n    tag_52:\n        /* \"#utility.yul\":2333:2340   */\n      0x00\n        /* \"#utility.yul\":2376:2381   */\n      dup2\n        /* \"#utility.yul\":2369:2382   */\n      iszero\n        /* \"#utility.yul\":2362:2383   */\n      iszero\n        /* \"#utility.yul\":2351:2383   */\n      swap1\n      pop\n        /* \"#utility.yul\":2299:2389   */\n      swap2\n      swap1\n      pop\n      jump\t// out\n        /* \"#utility.yul\":2395:2504   */\n    tag_53:\n        /* \"#utility.yul\":2476:2497   */\n      tag_112\n        /* \"#utility.yul\":2491:2496   */\n      dup2\n        /* \"#utility.yul\":2476:2497   */\n      tag_52\n      jump\t// in\n    tag_112:\n        /* \"#utility.yul\":2471:2474   */\n      dup3\n        /* \"#utility.yul\":2464:2498   */\n      mstore\n        /* \"#utility.yul\":2395:2504   */\n      pop\n      pop\n      jump\t// out\n        /* \"#utility.yul\":2510:3031   */\n    tag_11:\n        /* \"#utility.yul\":2673:2677   */\n      0x00\n        /* \"#utility.yul\":2711:2713   */\n      0x60\n        /* \"#utility.yul\":2700:2709   */\n      dup3\n        /* \"#utility.yul\":2696:2714   */\n      add\n        /* \"#utility.yul\":2688:2714   */\n      swap1\n      pop\n        /* \"#utility.yul\":2760:2769   */\n      dup2\n        /* \"#utility.yul\":2754:2758   */\n      dup2\n        /* \"#utility.yul\":2750:2770   */\n      sub\n        /* \"#utility.yul\":2746:2747   */\n      0x00\n        /* \"#utility.yul\":2735:2744   */\n      dup4\n        /* \"#utility.yul\":2731:2748   */\n      add\n        /* \"#utility.yul\":2724:2771   */\n      mstore\n        /* \"#utility.yul\":2788:2866   */\n      tag_114\n        /* \"#utility.yul\":2861:2865   */\n      dup2\n        /* \"#utility.yul\":2852:2858   */\n      dup7\n        /* \"#utility.yul\":2788:2866   */\n      tag_49\n      jump\t// in\n    tag_114:\n        /* \"#utility.yul\":2780:2866   */\n      swap1\n      pop\n        /* \"#utility.yul\":2876:2948   */\n      tag_115\n        /* \"#utility.yul\":2944:2946   */\n      0x20\n        /* \"#utility.yul\":2933:2942   */\n      dup4\n        /* \"#utility.yul\":2929:2947   */\n      add\n        /* \"#utility.yul\":2920:2926   */\n      dup6\n        /* \"#utility.yul\":2876:2948   */\n      tag_51\n      jump\t// in\n    tag_115:\n        /* \"#utility.yul\":2958:3024   */\n      tag_116\n        /* \"#utility.yul\":3020:3022   */\n      0x40\n        /* \"#utility.yul\":3009:3018   */\n      dup4\n        /* \"#utility.yul\":3005:3023   */\n      add\n        /* \"#utility.yul\":2996:3002   */\n      dup5\n        /* \"#utility.yul\":2958:3024   */\n      tag_53\n      jump\t// in\n    tag_116:\n        /* \"#utility.yul\":2510:3031   */\n      swap5\n      swap4\n      pop\n      pop\n      pop\n      pop\n      jump\t// out\n        /* \"#utility.yul\":3037:3247   */\n    tag_16:\n        /* \"#utility.yul\":3124:3128   */\n      0x00\n        /* \"#utility.yul\":3162:3164   */\n      0x20\n        /* \"#utility.yul\":3151:3160   */\n      dup3\n        /* \"#utility.yul\":3147:3165   */\n      add\n        /* \"#utility.yul\":3139:3165   */\n      swap1\n      pop\n        /* \"#utility.yul\":3175:3240   */\n      tag_118\n        /* \"#utility.yul\":3237:3238   */\n      0x00\n        /* \"#utility.yul\":3226:3235   */\n      dup4\n        /* \"#utility.yul\":3222:3239   */\n      add\n        /* \"#utility.yul\":3213:3219   */\n      dup5\n        /* \"#utility.yul\":3175:3240   */\n      tag_53\n      jump\t// in\n    tag_118:\n        /* \"#utility.yul\":3037:3247   */\n      swap3\n      swap2\n      pop\n      pop\n      jump\t// out\n        /* \"#utility.yul\":3253:3370   */\n    tag_54:\n        /* \"#utility.yul\":3362:3363   */\n      0x00\n        /* \"#utility.yul\":3359:3360   */\n      0x00\n        /* \"#utility.yul\":3352:3364   */\n      revert\n        /* \"#utility.yul\":3376:3493   */\n    tag_55:\n        /* \"#utility.yul\":3485:3486   */\n      0x00\n        /* \"#utility.yul\":3482:3483   */\n      0x00\n        /* \"#utility.yul\":3475:3487   */\n      revert\n        /* \"#utility.yul\":3499:3616   */\n    tag_56:\n        /* \"#utility.yul\":3608:3609   */\n      0x00\n        /* \"#utility.yul\":3605:3606   */\n      0x00\n        /* \"#utility.yul\":3598:3610   */\n      revert\n        /* \"#utility.yul\":3636:4189   */\n    tag_57:\n        /* \"#utility.yul\":3694:3702   */\n      0x00\n        /* \"#utility.yul\":3704:3710   */\n      0x00\n        /* \"#utility.yul\":3754:3757   */\n      dup4\n        /* \"#utility.yul\":3747:3751   */\n      0x1f\n        /* \"#utility.yul\":3739:3745   */\n      dup5\n        /* \"#utility.yul\":3735:3752   */\n      add\n        /* \"#utility.yul\":3731:3758   */\n      slt\n        /* \"#utility.yul\":3721:3843   */\n      tag_123\n      jumpi\n        /* \"#utility.yul\":3762:3841   */\n      tag_124\n      tag_54\n      jump\t// in\n    tag_124:\n        /* \"#utility.yul\":3721:3843   */\n    tag_123:\n        /* \"#utility.yul\":3875:3881   */\n      dup3\n        /* \"#utility.yul\":3862:3882   */\n      calldataload\n        /* \"#utility.yul\":3852:3882   */\n      swap1\n      pop\n        /* \"#utility.yul\":3905:3923   */\n      0xffffffffffffffff\n        /* \"#utility.yul\":3897:3903   */\n      dup2\n        /* \"#utility.yul\":3894:3924   */\n      gt\n        /* \"#utility.yul\":3891:4008   */\n      iszero\n      tag_125\n      jumpi\n        /* \"#utility.yul\":3927:4006   */\n      tag_126\n      tag_55\n      jump\t// in\n    tag_126:\n        /* \"#utility.yul\":3891:4008   */\n    tag_125:\n        /* \"#utility.yul\":4041:4045   */\n      0x20\n        /* \"#utility.yul\":4033:4039   */\n      dup4\n        /* \"#utility.yul\":4029:4046   */\n      add\n        /* \"#utility.yul\":4017:4046   */\n      swap2\n      pop\n        /* \"#utility.yul\":4095:4098   */\n      dup4\n        /* \"#utility.yul\":4087:4091   */\n      0x01\n        /* \"#utility.yul\":4079:4085   */\n      dup3\n        /* \"#utility.yul\":4075:4092   */\n      mul\n        /* \"#utility.yul\":4065:4073   */\n      dup4\n        /* \"#utility.yul\":4061:4093   */\n      add\n        /* \"#utility.yul\":4058:4099   */\n      gt\n        /* \"#utility.yul\":4055:4183   */\n      iszero\n      tag_127\n      jumpi\n        /* \"#utility.yul\":4102:4181   */\n      tag_128\n      tag_56\n      jump\t// in\n    tag_128:\n        /* \"#utility.yul\":4055:4183   */\n    tag_127:\n        /* \"#utility.yul\":3636:4189   */\n      swap3\n      pop\n      swap3\n      swap1\n      pop\n      jump\t// out\n        /* \"#utility.yul\":4195:4317   */\n    tag_58:\n        /* \"#utility.yul\":4268:4292   */\n      tag_130\n        /* \"#utility.yul\":4286:4291   */\n      dup2\n        /* \"#utility.yul\":4268:4292   */\n      tag_50\n      jump\t// in\n    tag_130:\n        /* \"#utility.yul\":4261:4266   */\n      dup2\n        /* \"#utility.yul\":4258:4293   */\n      eq\n        /* \"#utility.yul\":4248:4311   */\n      tag_131\n      jumpi\n        /* \"#utility.yul\":4307:4308   */\n      0x00\n        /* \"#utility.yul\":4304:4305   */\n      0x00\n        /* \"#utility.yul\":4297:4309   */\n      revert\n        /* \"#utility.yul\":4248:4311   */\n    tag_131:\n        /* \"#utility.yul\":4195:4317   */\n      pop\n      jump\t// out\n        /* \"#utility.yul\":4323:4462   */\n    tag_59:\n        /* \"#utility.yul\":4369:4374   */\n      0x00\n        /* \"#utility.yul\":4407:4413   */\n      dup2\n        /* \"#utility.yul\":4394:4414   */\n      calldataload\n        /* \"#utility.yul\":4385:4414   */\n      swap1\n      pop\n        /* \"#utility.yul\":4423:4456   */\n      tag_133\n        /* \"#utility.yul\":4450:4455   */\n      dup2\n        /* \"#utility.yul\":4423:4456   */\n      tag_58\n      jump\t// in\n    tag_133:\n        /* \"#utility.yul\":4323:4462   */\n      swap3\n      swap2\n      pop\n      pop\n      jump\t// out\n        /* \"#utility.yul\":4468:5287   */\n    tag_19:\n        /* \"#utility.yul\":4557:4563   */\n      0x00\n        /* \"#utility.yul\":4565:4571   */\n      0x00\n        /* \"#utility.yul\":4573:4579   */\n      0x00\n        /* \"#utility.yul\":4581:4587   */\n      0x00\n        /* \"#utility.yul\":4630:4632   */\n      0x60\n        /* \"#utility.yul\":4618:4627   */\n      dup6\n        /* \"#utility.yul\":4609:4616   */\n      dup8\n        /* \"#utility.yul\":4605:4628   */\n      sub\n        /* \"#utility.yul\":4601:4633   */\n      slt\n        /* \"#utility.yul\":4598:4717   */\n      iszero\n      tag_135\n      jumpi\n        /* \"#utility.yul\":4636:4715   */\n      tag_136\n      tag_39\n      jump\t// in\n    tag_136:\n        /* \"#utility.yul\":4598:4717   */\n    tag_135:\n        /* \"#utility.yul\":4756:4757   */\n      0x00\n        /* \"#utility.yul\":4781:4834   */\n      tag_137\n        /* \"#utility.yul\":4826:4833   */\n      dup8\n        /* \"#utility.yul\":4817:4823   */\n      dup3\n        /* \"#utility.yul\":4806:4815   */\n      dup9\n        /* \"#utility.yul\":4802:4824   */\n      add\n        /* \"#utility.yul\":4781:4834   */\n      tag_44\n      jump\t// in\n    tag_137:\n        /* \"#utility.yul\":4771:4834   */\n      swap5\n      pop\n        /* \"#utility.yul\":4727:4844   */\n      pop\n        /* \"#utility.yul\":4911:4913   */\n      0x20\n        /* \"#utility.yul\":4900:4909   */\n      dup6\n        /* \"#utility.yul\":4896:4914   */\n      add\n        /* \"#utility.yul\":4883:4915   */\n      calldataload\n        /* \"#utility.yul\":4942:4960   */\n      0xffffffffffffffff\n        /* \"#utility.yul\":4934:4940   */\n      dup2\n        /* \"#utility.yul\":4931:4961   */\n      gt\n        /* \"#utility.yul\":4928:5045   */\n      iszero\n      tag_138\n      jumpi\n        /* \"#utility.yul\":4964:5043   */\n      tag_139\n      tag_40\n      jump\t// in\n    tag_139:\n        /* \"#utility.yul\":4928:5045   */\n    tag_138:\n        /* \"#utility.yul\":5077:5142   */\n      tag_140\n        /* \"#utility.yul\":5134:5141   */\n      dup8\n        /* \"#utility.yul\":5125:5131   */\n      dup3\n        /* \"#utility.yul\":5114:5123   */\n      dup9\n        /* \"#utility.yul\":5110:5132   */\n      add\n        /* \"#utility.yul\":5077:5142   */\n      tag_57\n      jump\t// in\n    tag_140:\n        /* \"#utility.yul\":5059:5142   */\n      swap4\n      pop\n      swap4\n      pop\n        /* \"#utility.yul\":4854:5152   */\n      pop\n        /* \"#utility.yul\":5191:5193   */\n      0x40\n        /* \"#utility.yul\":5217:5270   */\n      tag_141\n        /* \"#utility.yul\":5262:5269   */\n      dup8\n        /* \"#utility.yul\":5253:5259   */\n      dup3\n        /* \"#utility.yul\":5242:5251   */\n      dup9\n        /* \"#utility.yul\":5238:5260   */\n      add\n        /* \"#utility.yul\":5217:5270   */\n      tag_59\n      jump\t// in\n    tag_141:\n        /* \"#utility.yul\":5207:5270   */\n      swap2\n      pop\n        /* \"#utility.yul\":5162:5280   */\n      pop\n        /* \"#utility.yul\":4468:5287   */\n      swap3\n      swap6\n      swap2\n      swap5\n      pop\n      swap3\n      pop\n      jump\t// out\n        /* \"#utility.yul\":5293:5473   */\n    tag_60:\n        /* \"#utility.yul\":5341:5418   */\n      0x4e487b7100000000000000000000000000000000000000000000000000000000\n        /* \"#utility.yul\":5338:5339   */\n      0x00\n        /* \"#utility.yul\":5331:5419   */\n      mstore\n        /* \"#utility.yul\":5438:5442   */\n      0x22\n        /* \"#utility.yul\":5435:5436   */\n      0x04\n        /* \"#utility.yul\":5428:5443   */\n      mstore\n        /* \"#utility.yul\":5462:5466   */\n      0x24\n        /* \"#utility.yul\":5459:5460   */\n      0x00\n        /* \"#utility.yul\":5452:5467   */\n      revert\n        /* \"#utility.yul\":5479:5799   */\n    tag_23:\n        /* \"#utility.yul\":5523:5529   */\n      0x00\n        /* \"#utility.yul\":5560:5561   */\n      0x02\n        /* \"#utility.yul\":5554:5558   */\n      dup3\n        /* \"#utility.yul\":5550:5562   */\n      div\n        /* \"#utility.yul\":5540:5562   */\n      swap1\n      pop\n        /* \"#utility.yul\":5607:5608   */\n      0x01\n        /* \"#utility.yul\":5601:5605   */\n      dup3\n        /* \"#utility.yul\":5597:5609   */\n      and\n        /* \"#utility.yul\":5628:5646   */\n      dup1\n        /* \"#utility.yul\":5618:5699   */\n      tag_144\n      jumpi\n        /* \"#utility.yul\":5684:5688   */\n      0x7f\n        /* \"#utility.yul\":5676:5682   */\n      dup3\n        /* \"#utility.yul\":5672:5689   */\n      and\n        /* \"#utility.yul\":5662:5689   */\n      swap2\n      pop\n        /* \"#utility.yul\":5618:5699   */\n    tag_144:\n        /* \"#utility.yul\":5746:5748   */\n      0x20\n        /* \"#utility.yul\":5738:5744   */\n      dup3\n        /* \"#utility.yul\":5735:5749   */\n      lt\n        /* \"#utility.yul\":5715:5733   */\n      dup2\n        /* \"#utility.yul\":5712:5750   */\n      sub\n        /* \"#utility.yul\":5709:5793   */\n      tag_145\n      jumpi\n        /* \"#utility.yul\":5765:5783   */\n      tag_146\n      tag_60\n      jump\t// in\n    tag_146:\n        /* \"#utility.yul\":5709:5793   */\n    tag_145:\n        /* \"#utility.yul\":5530:5799   */\n      pop\n        /* \"#utility.yul\":5479:5799   */\n      swap2\n      swap1\n      pop\n      jump\t// out\n        /* \"#utility.yul\":5805:5964   */\n    tag_61:\n        /* \"#utility.yul\":5945:5956   */\n      0x4e6f74204f776e65720000000000000000000000000000000000000000000000\n        /* \"#utility.yul\":5941:5942   */\n      0x00\n        /* \"#utility.yul\":5933:5939   */\n      dup3\n        /* \"#utility.yul\":5929:5943   */\n      add\n        /* \"#utility.yul\":5922:5957   */\n      mstore\n        /* \"#utility.yul\":5805:5964   */\n      pop\n      jump\t// out\n        /* \"#utility.yul\":5970:6335   */\n    tag_62:\n        /* \"#utility.yul\":6112:6115   */\n      0x00\n        /* \"#utility.yul\":6133:6199   */\n      tag_149\n        /* \"#utility.yul\":6197:6198   */\n      0x09\n        /* \"#utility.yul\":6192:6195   */\n      dup4\n        /* \"#utility.yul\":6133:6199   */\n      tag_46\n      jump\t// in\n    tag_149:\n        /* \"#utility.yul\":6126:6199   */\n      swap2\n      pop\n        /* \"#utility.yul\":6208:6301   */\n      tag_150\n        /* \"#utility.yul\":6297:6300   */\n      dup3\n        /* \"#utility.yul\":6208:6301   */\n      tag_61\n      jump\t// in\n    tag_150:\n        /* \"#utility.yul\":6326:6328   */\n      0x20\n        /* \"#utility.yul\":6321:6324   */\n      dup3\n        /* \"#utility.yul\":6317:6329   */\n      add\n        /* \"#utility.yul\":6310:6329   */\n      swap1\n      pop\n        /* \"#utility.yul\":5970:6335   */\n      swap2\n      swap1\n      pop\n      jump\t// out\n        /* \"#utility.yul\":6341:6760   */\n    tag_32:\n        /* \"#utility.yul\":6507:6511   */\n      0x00\n        /* \"#utility.yul\":6545:6547   */\n      0x20\n        /* \"#utility.yul\":6534:6543   */\n      dup3\n        /* \"#utility.yul\":6530:6548   */\n      add\n        /* \"#utility.yul\":6522:6548   */\n      swap1\n      pop\n        /* \"#utility.yul\":6594:6603   */\n      dup2\n        /* \"#utility.yul\":6588:6592   */\n      dup2\n        /* \"#utility.yul\":6584:6604   */\n      sub\n        /* \"#utility.yul\":6580:6581   */\n      0x00\n        /* \"#utility.yul\":6569:6578   */\n      dup4\n        /* \"#utility.yul\":6565:6582   */\n      add\n        /* \"#utility.yul\":6558:6605   */\n      mstore\n        /* \"#utility.yul\":6622:6753   */\n      tag_152\n        /* \"#utility.yul\":6748:6752   */\n      dup2\n        /* \"#utility.yul\":6622:6753   */\n      tag_62\n      jump\t// in\n    tag_152:\n        /* \"#utility.yul\":6614:6753   */\n      swap1\n      pop\n        /* \"#utility.yul\":6341:6760   */\n      swap2\n      swap1\n      pop\n      jump\t// out\n        /* \"#utility.yul\":6766:6946   */\n    tag_63:\n        /* \"#utility.yul\":6814:6891   */\n      0x4e487b7100000000000000000000000000000000000000000000000000000000\n        /* \"#utility.yul\":6811:6812   */\n      0x00\n        /* \"#utility.yul\":6804:6892   */\n      mstore\n        /* \"#utility.yul\":6911:6915   */\n      0x41\n        /* \"#utility.yul\":6908:6909   */\n      0x04\n        /* \"#utility.yul\":6901:6916   */\n      mstore\n        /* \"#utility.yul\":6935:6939   */\n      0x24\n        /* \"#utility.yul\":6932:6933   */\n      0x00\n        /* \"#utility.yul\":6925:6940   */\n      revert\n        /* \"#utility.yul\":6952:7093   */\n    tag_64:\n        /* \"#utility.yul\":7001:7005   */\n      0x00\n        /* \"#utility.yul\":7024:7027   */\n      dup2\n        /* \"#utility.yul\":7016:7027   */\n      swap1\n      pop\n        /* \"#utility.yul\":7047:7050   */\n      dup2\n        /* \"#utility.yul\":7044:7045   */\n      0x00\n        /* \"#utility.yul\":7037:7051   */\n      mstore\n        /* \"#utility.yul\":7081:7085   */\n      0x20\n        /* \"#utility.yul\":7078:7079   */\n      0x00\n        /* \"#utility.yul\":7068:7086   */\n      keccak256\n        /* \"#utility.yul\":7060:7086   */\n      swap1\n      pop\n        /* \"#utility.yul\":6952:7093   */\n      swap2\n      swap1\n      pop\n      jump\t// out\n        /* \"#utility.yul\":7099:7192   */\n    tag_65:\n        /* \"#utility.yul\":7136:7142   */\n      0x00\n        /* \"#utility.yul\":7183:7185   */\n      0x20\n        /* \"#utility.yul\":7178:7180   */\n      0x1f\n        /* \"#utility.yul\":7171:7176   */\n      dup4\n        /* \"#utility.yul\":7167:7181   */\n      add\n        /* \"#utility.yul\":7163:7186   */\n      div\n        /* \"#utility.yul\":7153:7186   */\n      swap1\n      pop\n        /* \"#utility.yul\":7099:7192   */\n      swap2\n      swap1\n      pop\n      jump\t// out\n        /* \"#utility.yul\":7198:7305   */\n    tag_66:\n        /* \"#utility.yul\":7242:7250   */\n      0x00\n        /* \"#utility.yul\":7292:7297   */\n      dup3\n        /* \"#utility.yul\":7286:7290   */\n      dup3\n        /* \"#utility.yul\":7282:7298   */\n      shl\n        /* \"#utility.yul\":7261:7298   */\n      swap1\n      pop\n        /* \"#utility.yul\":7198:7305   */\n      swap3\n      swap2\n      pop\n      pop\n      jump\t// out\n        /* \"#utility.yul\":7311:7704   */\n    tag_67:\n        /* \"#utility.yul\":7380:7386   */\n      0x00\n        /* \"#utility.yul\":7430:7431   */\n      0x08\n        /* \"#utility.yul\":7418:7428   */\n      dup4\n        /* \"#utility.yul\":7414:7432   */\n      mul\n        /* \"#utility.yul\":7453:7550   */\n      tag_158\n        /* \"#utility.yul\":7483:7549   */\n      0xffffffffffffffffffffffffffffffffffffffffffffffffffffffffffffffff\n        /* \"#utility.yul\":7472:7481   */\n      dup3\n        /* \"#utility.yul\":7453:7550   */\n      tag_66\n      jump\t// in\n    tag_158:\n        /* \"#utility.yul\":7571:7610   */\n      tag_159\n        /* \"#utility.yul\":7601:7609   */\n      dup7\n        /* \"#utility.yul\":7590:7599   */\n      dup4\n        /* \"#utility.yul\":7571:7610   */\n      tag_66\n      jump\t// in\n    tag_159:\n        /* \"#utility.yul\":7559:7610   */\n      swap6\n      pop\n        /* \"#utility.yul\":7643:7647   */\n      dup1\n        /* \"#utility.yul\":7639:7648   */\n      not\n        /* \"#utility.yul\":7632:7637   */\n      dup5\n        /* \"#utility.yul\":7628:7649   */\n      and\n        /* \"#utility.yul\":7619:7649   */\n      swap4\n      pop\n        /* \"#utility.yul\":7692:7696   */\n      dup1\n        /* \"#utility.yul\":7682:7690   */\n      dup7\n        /* \"#utility.yul\":7678:7697   */\n      and\n        /* \"#utility.yul\":7671:7676   */\n      dup5\n        /* \"#utility.yul\":7668:7698   */\n      or\n        /* \"#utility.yul\":7658:7698   */\n      swap3\n      pop\n        /* \"#utility.yul\":7387:7704   */\n      pop\n      pop\n        /* \"#utility.yul\":7311:7704   */\n      swap4\n      swap3\n      pop\n      pop\n      pop\n      jump\t// out\n        /* \"#utility.yul\":7710:7770   */\n    tag_68:\n        /* \"#utility.yul\":7738:7741   */\n      0x00\n        /* \"#utility.yul\":7759:7764   */\n      dup2\n        /* \"#utility.yul\":7752:7764   */\n      swap1\n      pop\n        /* \"#utility.yul\":7710:7770   */\n      swap2\n      swap1\n      pop\n      jump\t// out\n        /* \"#utility.yul\":7776:7918   */\n    tag_69:\n        /* \"#utility.yul\":7826:7835   */\n      0x00\n        /* \"#utility.yul\":7859:7912   */\n      tag_162\n        /* \"#utility.yul\":7877:7911   */\n      tag_163\n        /* \"#utility.yul\":7886:7910   */\n      tag_164\n        /* \"#utility.yul\":7904:7909   */\n      dup5\n        /* \"#utility.yul\":7886:7910   */\n      tag_50\n      jump\t// in\n    tag_164:\n        /* \"#utility.yul\":7877:7911   */\n      tag_68\n      jump\t// in\n    tag_163:\n        /* \"#utility.yul\":7859:7912   */\n      tag_50\n      jump\t// in\n    tag_162:\n        /* \"#utility.yul\":7846:7912   */\n      swap1\n      pop\n        /* \"#utility.yul\":7776:7918   */\n      swap2\n      swap1\n      pop\n      jump\t// out\n        /* \"#utility.yul\":7924:7999   */\n    tag_70:\n        /* \"#utility.yul\":7967:7970   */\n      0x00\n        /* \"#utility.yul\":7988:7993   */\n      dup2\n        /* \"#utility.yul\":7981:7993   */\n      swap1\n      pop\n        /* \"#utility.yul\":7924:7999   */\n      swap2\n      swap1\n      pop\n      jump\t// out\n        /* \"#utility.yul\":8005:8274   */\n    tag_71:\n        /* \"#utility.yul\":8115:8154   */\n      tag_167\n        /* \"#utility.yul\":8146:8153   */\n      dup4\n        /* \"#utility.yul\":8115:8154   */\n      tag_69\n      jump\t// in\n    tag_167:\n        /* \"#utility.yul\":8176:8267   */\n      tag_168\n        /* \"#utility.yul\":8225:8266   */\n      tag_169\n        /* \"#utility.yul\":8249:8265   */\n      dup3\n        /* \"#utility.yul\":8225:8266   */\n      tag_70\n      jump\t// in\n    tag_169:\n        /* \"#utility.yul\":8217:8223   */\n      dup5\n        /* \"#utility.yul\":8210:8214   */\n      dup5\n        /* \"#utility.yul\":8204:8215   */\n      sload\n        /* \"#utility.yul\":8176:8267   */\n      tag_67\n      jump\t// in\n    tag_168:\n        /* \"#utility.yul\":8170:8174   */\n      dup3\n        /* \"#utility.yul\":8163:8268   */\n      sstore\n        /* \"#utility.yul\":8081:8274   */\n      pop\n        /* \"#utility.yul\":8005:8274   */\n      pop\n      pop\n      pop\n      jump\t// out\n        /* \"#utility.yul\":8280:8353   */\n    tag_72:\n        /* \"#utility.yul\":8325:8328   */\n      0x00\n        /* \"#utility.yul\":8346:8347   */\n      0x00\n        /* \"#utility.yul\":8339:8347   */\n      swap1\n      pop\n        /* \"#utility.yul\":8280:8353   */\n      swap1\n      jump\t// out\n        /* \"#utility.yul\":8359:8548   */\n    tag_73:\n        /* \"#utility.yul\":8436:8468   */\n      tag_172\n      tag_72\n      jump\t// in\n    tag_172:\n        /* \"#utility.yul\":8477:8542   */\n      tag_173\n        /* \"#utility.yul\":8535:8541   */\n      dup2\n        /* \"#utility.yul\":8527:8533   */\n      dup5\n        /* \"#utility.yul\":8521:8525   */\n      dup5\n        /* \"#utility.yul\":8477:8542   */\n      tag_71\n      jump\t// in\n    tag_173:\n        /* \"#utility.yul\":8412:8548   */\n      pop\n        /* \"#utility.yul\":8359:8548   */\n      pop\n      pop\n      jump\t// out\n        /* \"#utility.yul\":8554:8740   */\n    tag_74:\n        /* \"#utility.yul\":8614:8734   */\n    tag_175:\n        /* \"#utility.yul\":8631:8634   */\n      dup2\n        /* \"#utility.yul\":8624:8629   */\n      dup2\n        /* \"#utility.yul\":8621:8635   */\n      lt\n        /* \"#utility.yul\":8614:8734   */\n      iszero\n      tag_177\n      jumpi\n        /* \"#utility.yul\":8685:8724   */\n      tag_178\n        /* \"#utility.yul\":8722:8723   */\n      0x00\n        /* \"#utility.yul\":8715:8720   */\n      dup3\n        /* \"#utility.yul\":8685:8724   */\n      tag_73\n      jump\t// in\n    tag_178:\n        /* \"#utility.yul\":8658:8659   */\n      0x01\n        /* \"#utility.yul\":8651:8656   */\n      dup2\n        /* \"#utility.yul\":8647:8660   */\n      add\n        /* \"#utility.yul\":8638:8660   */\n      swap1\n      pop\n        /* \"#utility.yul\":8614:8734   */\n      jump(tag_175)\n    tag_177:\n        /* \"#utility.yul\":8554:8740   */\n      pop\n      pop\n      jump\t// out\n        /* \"#utility.yul\":8746:9289   */\n    tag_75:\n        /* \"#utility.yul\":8847:8849   */\n      0x1f\n        /* \"#utility.yul\":8842:8845   */\n      dup3\n        /* \"#utility.yul\":8839:8850   */\n      gt\n        /* \"#utility.yul\":8836:9282   */\n      iszero\n      tag_180\n      jumpi\n        /* \"#utility.yul\":8881:8919   */\n      tag_181\n        /* \"#utility.yul\":8913:8918   */\n      dup2\n        /* \"#utility.yul\":8881:8919   */\n      tag_64\n      jump\t// in\n    tag_181:\n        /* \"#utility.yul\":8965:8994   */\n      tag_182\n        /* \"#utility.yul\":8983:8993   */\n      dup5\n        /* \"#utility.yul\":8965:8994   */\n      tag_65\n      jump\t// in\n    tag_182:\n        /* \"#utility.yul\":8955:8963   */\n      dup2\n        /* \"#utility.yul\":8951:8995   */\n      add\n        /* \"#utility.yul\":9148:9150   */\n      0x20\n        /* \"#utility.yul\":9136:9146   */\n      dup6\n        /* \"#utility.yul\":9133:9151   */\n      lt\n        /* \"#utility.yul\":9130:9179   */\n      iszero\n      tag_183\n      jumpi\n        /* \"#utility.yul\":9169:9177   */\n      dup2\n        /* \"#utility.yul\":9154:9177   */\n      swap1\n      pop\n        /* \"#utility.yul\":9130:9179   */\n    tag_183:\n        /* \"#utility.yul\":9192:9272   */\n      tag_184\n        /* \"#utility.yul\":9248:9270   */\n      tag_185\n        /* \"#utility.yul\":9266:9269   */\n      dup6\n        /* \"#utility.yul\":9248:9270   */\n      tag_65\n      jump\t// in\n    tag_185:\n        /* \"#utility.yul\":9238:9246   */\n      dup4\n        /* \"#utility.yul\":9234:9271   */\n      add\n        /* \"#utility.yul\":9221:9232   */\n      dup3\n        /* \"#utility.yul\":9192:9272   */\n      tag_74\n      jump\t// in\n    tag_184:\n        /* \"#utility.yul\":8851:9282   */\n      pop\n      pop\n        /* \"#utility.yul\":8836:9282   */\n    tag_180:\n        /* \"#utility.yul\":8746:9289   */\n      pop\n      pop\n      pop\n      jump\t// out\n        /* \"#utility.yul\":9295:9412   */\n    tag_76:\n        /* \"#utility.yul\":9349:9357   */\n      0x00\n        /* \"#utility.yul\":9399:9404   */\n      dup3\n        /* \"#utility.yul\":9393:9397   */\n      dup3\n        /* \"#utility.yul\":9389:9405   */\n      shr\n        /* \"#utility.yul\":9368:9405   */\n      swap1\n      pop\n        /* \"#utility.yul\":9295:9412   */\n      swap3\n      swap2\n      pop\n      pop\n      jump\t// out\n        /* \"#utility.yul\":9418:9587   */\n    tag_77:\n        /* \"#utility.yul\":9462:9468   */\n      0x00\n        /* \"#utility.yul\":9495:9546   */\n      tag_188\n        /* \"#utility.yul\":9543:9544   */\n      0x00\n        /* \"#utility.yul\":9539:9545   */\n      not\n        /* \"#utility.yul\":9531:9536   */\n      dup5\n        /* \"#utility.yul\":9528:9529   */\n      0x08\n        /* \"#utility.yul\":9524:9537   */\n      mul\n        /* \"#utility.yul\":9495:9546   */\n      tag_76\n      jump\t// in\n    tag_188:\n        /* \"#utility.yul\":9491:9547   */\n      not\n        /* \"#utility.yul\":9576:9580   */\n      dup1\n        /* \"#utility.yul\":9570:9574   */\n      dup4\n        /* \"#utility.yul\":9566:9581   */\n      and\n        /* \"#utility.yul\":9556:9581   */\n      swap2\n      pop\n        /* \"#utility.yul\":9469:9587   */\n      pop\n        /* \"#utility.yul\":9418:9587   */\n      swap3\n      swap2\n      pop\n      pop\n      jump\t// out\n        /* \"#utility.yul\":9592:9887   */\n    tag_78:\n        /* \"#utility.yul\":9668:9672   */\n      0x00\n        /* \"#utility.yul\":9814:9843   */\n      tag_190\n        /* \"#utility.yul\":9839:9842   */\n      dup4\n        /* \"#utility.yul\":9833:9837   */\n      dup4\n        /* \"#utility.yul\":9814:9843   */\n      tag_77\n      jump\t// in\n    tag_190:\n        /* \"#utility.yul\":9806:9843   */\n      swap2\n      pop\n        /* \"#utility.yul\":9876:9879   */\n      dup3\n        /* \"#utility.yul\":9873:9874   */\n      0x02\n        /* \"#utility.yul\":9869:9880   */\n      mul\n        /* \"#utility.yul\":9863:9867   */\n      dup3\n        /* \"#utility.yul\":9860:9881   */\n      or\n        /* \"#utility.yul\":9852:9881   */\n      swap1\n      pop\n        /* \"#utility.yul\":9592:9887   */\n      swap3\n      swap2\n      pop\n      pop\n      jump\t// out\n        /* \"#utility.yul\":9892:11287   */\n    tag_35:\n        /* \"#utility.yul\":10009:10046   */\n      tag_192\n        /* \"#utility.yul\":10042:10045   */\n      dup3\n        /* \"#utility.yul\":10009:10046   */\n      tag_45\n      jump\t// in\n    tag_192:\n        /* \"#utility.yul\":10111:10129   */\n      0xffffffffffffffff\n        /* \"#utility.yul\":10103:10109   */\n      dup2\n        /* \"#utility.yul\":10100:10130   */\n      gt\n        /* \"#utility.yul\":10097:10153   */\n      iszero\n      tag_193\n      jumpi\n        /* \"#utility.yul\":10133:10151   */\n      tag_194\n      tag_63\n      jump\t// in\n    tag_194:\n        /* \"#utility.yul\":10097:10153   */\n    tag_193:\n        /* \"#utility.yul\":10177:10215   */\n      tag_195\n        /* \"#utility.yul\":10209:10213   */\n      dup3\n        /* \"#utility.yul\":10203:10214   */\n      sload\n        /* \"#utility.yul\":10177:10215   */\n      tag_23\n      jump\t// in\n    tag_195:\n        /* \"#utility.yul\":10262:10329   */\n      tag_196\n        /* \"#utility.yul\":10322:10328   */\n      dup3\n        /* \"#utility.yul\":10314:10320   */\n      dup3\n        /* \"#utility.yul\":10308:10312   */\n      dup6\n        /* \"#utility.yul\":10262:10329   */\n      tag_75\n      jump\t// in\n    tag_196:\n        /* \"#utility.yul\":10356:10357   */\n      0x00\n        /* \"#utility.yul\":10380:10384   */\n      0x20\n        /* \"#utility.yul\":10367:10384   */\n      swap1\n      pop\n        /* \"#utility.yul\":10412:10414   */\n      0x1f\n        /* \"#utility.yul\":10404:10410   */\n      dup4\n        /* \"#utility.yul\":10401:10415   */\n      gt\n        /* \"#utility.yul\":10429:10430   */\n      0x01\n        /* \"#utility.yul\":10424:11042   */\n      dup2\n      eq\n      tag_198\n      jumpi\n        /* \"#utility.yul\":11086:11087   */\n      0x00\n        /* \"#utility.yul\":11103:11109   */\n      dup5\n        /* \"#utility.yul\":11100:11177   */\n      iszero\n      tag_199\n      jumpi\n        /* \"#utility.yul\":11152:11161   */\n      dup3\n        /* \"#utility.yul\":11147:11150   */\n      dup8\n        /* \"#utility.yul\":11143:11162   */\n      add\n        /* \"#utility.yul\":11137:11163   */\n      mload\n        /* \"#utility.yul\":11128:11163   */\n      swap1\n      pop\n        /* \"#utility.yul\":11100:11177   */\n    tag_199:\n        /* \"#utility.yul\":11203:11270   */\n      tag_200\n        /* \"#utility.yul\":11263:11269   */\n      dup6\n        /* \"#utility.yul\":11256:11261   */\n      dup3\n        /* \"#utility.yul\":11203:11270   */\n      tag_78\n      jump\t// in\n    tag_200:\n        /* \"#utility.yul\":11197:11201   */\n      dup7\n        /* \"#utility.yul\":11190:11271   */\n      sstore\n        /* \"#utility.yul\":11059:11281   */\n      pop\n        /* \"#utility.yul\":10394:11281   */\n      jump(tag_197)\n        /* \"#utility.yul\":10424:11042   */\n    tag_198:\n        /* \"#utility.yul\":10476:10480   */\n      0x1f\n        /* \"#utility.yul\":10472:10481   */\n      not\n        /* \"#utility.yul\":10464:10470   */\n      dup5\n        /* \"#utility.yul\":10460:10482   */\n      and\n        /* \"#utility.yul\":10510:10547   */\n      tag_201\n        /* \"#utility.yul\":10542:10546   */\n      dup7\n        /* \"#utility.yul\":10510:10547   */\n      tag_64\n      jump\t// in\n    tag_201:\n        /* \"#utility.yul\":10569:10570   */\n      0x00\n        /* \"#utility.yul\":10583:10791   */\n    tag_202:\n        /* \"#utility.yul\":10597:10604   */\n      dup3\n        /* \"#utility.yul\":10594:10595   */\n      dup2\n        /* \"#utility.yul\":10591:10605   */\n      lt\n        /* \"#utility.yul\":10583:10791   */\n      iszero\n      tag_204\n      jumpi\n        /* \"#utility.yul\":10676:10685   */\n      dup5\n        /* \"#utility.yul\":10671:10674   */\n      dup10\n        /* \"#utility.yul\":10667:10686   */\n      add\n        /* \"#utility.yul\":10661:10687   */\n      mload\n        /* \"#utility.yul\":10653:10659   */\n      dup3\n        /* \"#utility.yul\":10646:10688   */\n      sstore\n        /* \"#utility.yul\":10727:10728   */\n      0x01\n        /* \"#utility.yul\":10719:10725   */\n      dup3\n        /* \"#utility.yul\":10715:10729   */\n      add\n        /* \"#utility.yul\":10705:10729   */\n      swap2\n      pop\n        /* \"#utility.yul\":10774:10776   */\n      0x20\n        /* \"#utility.yul\":10763:10772   */\n      dup6\n        /* \"#utility.yul\":10759:10777   */\n      add\n        /* \"#utility.yul\":10746:10777   */\n      swap5\n      pop\n        /* \"#utility.yul\":10620:10624   */\n      0x20\n        /* \"#utility.yul\":10617:10618   */\n      dup2\n        /* \"#utility.yul\":10613:10625   */\n      add\n        /* \"#utility.yul\":10608:10625   */\n      swap1\n      pop\n        /* \"#utility.yul\":10583:10791   */\n      jump(tag_202)\n    tag_204:\n        /* \"#utility.yul\":10819:10825   */\n      dup7\n        /* \"#utility.yul\":10810:10817   */\n      dup4\n        /* \"#utility.yul\":10807:10826   */\n      lt\n        /* \"#utility.yul\":10804:10983   */\n      iszero\n      tag_205\n      jumpi\n        /* \"#utility.yul\":10877:10886   */\n      dup5\n        /* \"#utility.yul\":10872:10875   */\n      dup10\n        /* \"#utility.yul\":10868:10887   */\n      add\n        /* \"#utility.yul\":10862:10888   */\n      mload\n        /* \"#utility.yul\":10920:10968   */\n      tag_206\n        /* \"#utility.yul\":10962:10966   */\n      0x1f\n        /* \"#utility.yul\":10954:10960   */\n      dup10\n        /* \"#utility.yul\":10950:10967   */\n      and\n        /* \"#utility.yul\":10939:10948   */\n      dup3\n        /* \"#utility.yul\":10920:10968   */\n      tag_77\n      jump\t// in\n    tag_206:\n        /* \"#utility.yul\":10912:10918   */\n      dup4\n        /* \"#utility.yul\":10905:10969   */\n      sstore\n        /* \"#utility.yul\":10827:10983   */\n      pop\n        /* \"#utility.yul\":10804:10983   */\n    tag_205:\n        /* \"#utility.yul\":11029:11030   */\n      0x01\n        /* \"#utility.yul\":11025:11026   */\n      0x02\n        /* \"#utility.yul\":11017:11023   */\n      dup9\n        /* \"#utility.yul\":11013:11027   */\n      mul\n        /* \"#utility.yul\":11009:11031   */\n      add\n        /* \"#utility.yul\":11003:11007   */\n      dup9\n        /* \"#utility.yul\":10996:11032   */\n      sstore\n        /* \"#utility.yul\":10431:11042   */\n      pop\n      pop\n      pop\n        /* \"#utility.yul\":10394:11281   */\n    tag_197:\n      pop\n        /* \"#utility.yul\":9984:11287   */\n      pop\n      pop\n      pop\n        /* \"#utility.yul\":9892:11287   */\n      pop\n      pop\n      jump\t// out\n        /* \"#utility.yul\":11293:11411   */\n    tag_79:\n        /* \"#utility.yul\":11380:11404   */\n      tag_208\n        /* \"#utility.yul\":11398:11403   */\n      dup2\n        /* \"#utility.yul\":11380:11404   */\n      tag_42\n      jump\t// in\n    tag_208:\n        /* \"#utility.yul\":11375:11378   */\n      dup3\n        /* \"#utility.yul\":11368:11405   */\n      mstore\n        /* \"#utility.yul\":11293:11411   */\n      pop\n      pop\n      jump\t// out\n        /* \"#utility.yul\":11417:11565   */\n    tag_80:\n        /* \"#utility.yul\":11515:11521   */\n      dup3\n        /* \"#utility.yul\":11510:11513   */\n      dup2\n        /* \"#utility.yul\":11505:11508   */\n      dup4\n        /* \"#utility.yul\":11492:11522   */\n      calldatacopy\n        /* \"#utility.yul\":11556:11557   */\n      0x00\n        /* \"#utility.yul\":11547:11553   */\n      dup4\n        /* \"#utility.yul\":11542:11545   */\n      dup4\n        /* \"#utility.yul\":11538:11554   */\n      add\n        /* \"#utility.yul\":11531:11558   */\n      mstore\n        /* \"#utility.yul\":11417:11565   */\n      pop\n      pop\n      pop\n      jump\t// out\n        /* \"#utility.yul\":11595:11912   */\n    tag_81:\n        /* \"#utility.yul\":11693:11696   */\n      0x00\n        /* \"#utility.yul\":11714:11785   */\n      tag_211\n        /* \"#utility.yul\":11778:11784   */\n      dup4\n        /* \"#utility.yul\":11773:11776   */\n      dup6\n        /* \"#utility.yul\":11714:11785   */\n      tag_46\n      jump\t// in\n    tag_211:\n        /* \"#utility.yul\":11707:11785   */\n      swap4\n      pop\n        /* \"#utility.yul\":11795:11851   */\n      tag_212\n        /* \"#utility.yul\":11844:11850   */\n      dup4\n        /* \"#utility.yul\":11839:11842   */\n      dup6\n        /* \"#utility.yul\":11832:11837   */\n      dup5\n        /* \"#utility.yul\":11795:11851   */\n      tag_80\n      jump\t// in\n    tag_212:\n        /* \"#utility.yul\":11876:11905   */\n      tag_213\n        /* \"#utility.yul\":11898:11904   */\n      dup4\n        /* \"#utility.yul\":11876:11905   */\n      tag_48\n      jump\t// in\n    tag_213:\n        /* \"#utility.yul\":11871:11874   */\n      dup5\n        /* \"#utility.yul\":11867:11906   */\n      add\n        /* \"#utility.yul\":11860:11906   */\n      swap1\n      pop\n        /* \"#utility.yul\":11595:11912   */\n      swap4\n      swap3\n      pop\n      pop\n      pop\n      jump\t// out\n        /* \"#utility.yul\":11918:12471   */\n    tag_37:\n        /* \"#utility.yul\":12097:12101   */\n      0x00\n        /* \"#utility.yul\":12135:12137   */\n      0x60\n        /* \"#utility.yul\":12124:12133   */\n      dup3\n        /* \"#utility.yul\":12120:12138   */\n      add\n        /* \"#utility.yul\":12112:12138   */\n      swap1\n      pop\n        /* \"#utility.yul\":12148:12219   */\n      tag_215\n        /* \"#utility.yul\":12216:12217   */\n      0x00\n        /* \"#utility.yul\":12205:12214   */\n      dup4\n        /* \"#utility.yul\":12201:12218   */\n      add\n        /* \"#utility.yul\":12192:12198   */\n      dup8\n        /* \"#utility.yul\":12148:12219   */\n      tag_79\n      jump\t// in\n    tag_215:\n        /* \"#utility.yul\":12266:12275   */\n      dup2\n        /* \"#utility.yul\":12260:12264   */\n      dup2\n        /* \"#utility.yul\":12256:12276   */\n      sub\n        /* \"#utility.yul\":12251:12253   */\n      0x20\n        /* \"#utility.yul\":12240:12249   */\n      dup4\n        /* \"#utility.yul\":12236:12254   */\n      add\n        /* \"#utility.yul\":12229:12277   */\n      mstore\n        /* \"#utility.yul\":12294:12382   */\n      tag_216\n        /* \"#utility.yul\":12377:12381   */\n      dup2\n        /* \"#utility.yul\":12368:12374   */\n      dup6\n        /* \"#utility.yul\":12360:12366   */\n      dup8\n        /* \"#utility.yul\":12294:12382   */\n      tag_81\n      jump\t// in\n    tag_216:\n        /* \"#utility.yul\":12286:12382   */\n      swap1\n      pop\n        /* \"#utility.yul\":12392:12464   */\n      tag_217\n        /* \"#utility.yul\":12460:12462   */\n      0x40\n        /* \"#utility.yul\":12449:12458   */\n      dup4\n        /* \"#utility.yul\":12445:12463   */\n      add\n        /* \"#utility.yul\":12436:12442   */\n      dup5\n        /* \"#utility.yul\":12392:12464   */\n      tag_51\n      jump\t// in\n    tag_217:\n        /* \"#utility.yul\":11918:12471   */\n      swap6\n      swap5\n      pop\n      pop\n      pop\n      pop\n      pop\n      jump\t// out\n\n    auxdata: 0xa2646970667358221220a4d0f0bd9e63fe3135590c75d097223fb53f5e69b93cb16acacf2ff381585e9664736f6c634300081e0033\n}\n",
				"bytecode": {
					"linkReferences": {},
					"object": "6080604052348015600e575f5ffd5b503360015f6101000a81548173ffffffffffffffffffffffffffffffffffffffff021916908373ffffffffffffffffffffffffffffffffffffffff160217905550610a7f8061005c5f395ff3fe608060405234801561000f575f5ffd5b506004361061003f575f3560e01c80636b7b44d714610043578063b8b2e42c14610075578063fc0d1b84146100a5575b5f5ffd5b61005d60048036038101906100589190610443565b6100c1565b60405161006c93929190610510565b60405180910390f35b61008f600480360381019061008a9190610443565b6101de565b60405161009c919061054c565b60405180910390f35b6100bf60048036038101906100ba91906105f0565b610232565b005b60605f5f5f5f5f8673ffffffffffffffffffffffffffffffffffffffff1673ffffffffffffffffffffffffffffffffffffffff1681526020019081526020015f206040518060600160405290815f8201805461011c9061068e565b80601f01602080910402602001604051908101604052809291908181526020018280546101489061068e565b80156101935780601f1061016a57610100808354040283529160200191610193565b820191905f5260205f20905b81548152906001019060200180831161017657829003601f168201915b5050505050815260200160018201548152602001600282015f9054906101000a900460ff1615151515815250509050805f015181602001518260400151935093509350509193909250565b5f5f5f8373ffffffffffffffffffffffffffffffffffffffff1673ffffffffffffffffffffffffffffffffffffffff1681526020019081526020015f206002015f9054906101000a900460ff169050919050565b60015f9054906101000a900473ffffffffffffffffffffffffffffffffffffffff1673ffffffffffffffffffffffffffffffffffffffff163373ffffffffffffffffffffffffffffffffffffffff16146102c1576040517f08c379a00000000000000000000000000000000000000000000000000000000081526004016102b890610708565b60405180910390fd5b604051806060016040528084848080601f0160208091040260200160405190810160405280939291908181526020018383808284375f81840152601f19601f820116905080830192505050505050508152602001828152602001600115158152505f5f8673ffffffffffffffffffffffffffffffffffffffff1673ffffffffffffffffffffffffffffffffffffffff1681526020019081526020015f205f820151815f01908161037191906108f3565b50602082015181600101556040820151816002015f6101000a81548160ff0219169083151502179055509050507f89b886e508b5806f8c28179176052458c2bd0f54106811773b56be2d51a14e60848484846040516103d39493929190610a0b565b60405180910390a150505050565b5f5ffd5b5f5ffd5b5f73ffffffffffffffffffffffffffffffffffffffff82169050919050565b5f610412826103e9565b9050919050565b61042281610408565b811461042c575f5ffd5b50565b5f8135905061043d81610419565b92915050565b5f60208284031215610458576104576103e1565b5b5f6104658482850161042f565b91505092915050565b5f81519050919050565b5f82825260208201905092915050565b8281835e5f83830152505050565b5f601f19601f8301169050919050565b5f6104b08261046e565b6104ba8185610478565b93506104ca818560208601610488565b6104d381610496565b840191505092915050565b5f819050919050565b6104f0816104de565b82525050565b5f8115159050919050565b61050a816104f6565b82525050565b5f6060820190508181035f83015261052881866104a6565b905061053760208301856104e7565b6105446040830184610501565b949350505050565b5f60208201905061055f5f830184610501565b92915050565b5f5ffd5b5f5ffd5b5f5ffd5b5f5f83601f84011261058657610585610565565b5b8235905067ffffffffffffffff8111156105a3576105a2610569565b5b6020830191508360018202830111156105bf576105be61056d565b5b9250929050565b6105cf816104de565b81146105d9575f5ffd5b50565b5f813590506105ea816105c6565b92915050565b5f5f5f5f60608587031215610608576106076103e1565b5b5f6106158782880161042f565b945050602085013567ffffffffffffffff811115610636576106356103e5565b5b61064287828801610571565b93509350506040610655878288016105dc565b91505092959194509250565b7f4e487b71000000000000000000000000000000000000000000000000000000005f52602260045260245ffd5b5f60028204905060018216806106a557607f821691505b6020821081036106b8576106b7610661565b5b50919050565b7f4e6f74204f776e657200000000000000000000000000000000000000000000005f82015250565b5f6106f2600983610478565b91506106fd826106be565b602082019050919050565b5f6020820190508181035f83015261071f816106e6565b9050919050565b7f4e487b71000000000000000000000000000000000000000000000000000000005f52604160045260245ffd5b5f819050815f5260205f209050919050565b5f6020601f8301049050919050565b5f82821b905092915050565b5f600883026107af7fffffffffffffffffffffffffffffffffffffffffffffffffffffffffffffffff82610774565b6107b98683610774565b95508019841693508086168417925050509392505050565b5f819050919050565b5f6107f46107ef6107ea846104de565b6107d1565b6104de565b9050919050565b5f819050919050565b61080d836107da565b610821610819826107fb565b848454610780565b825550505050565b5f5f905090565b610838610829565b610843818484610804565b505050565b5b818110156108665761085b5f82610830565b600181019050610849565b5050565b601f8211156108ab5761087c81610753565b61088584610765565b81016020851015610894578190505b6108a86108a085610765565b830182610848565b50505b505050565b5f82821c905092915050565b5f6108cb5f19846008026108b0565b1980831691505092915050565b5f6108e383836108bc565b9150826002028217905092915050565b6108fc8261046e565b67ffffffffffffffff81111561091557610914610726565b5b61091f825461068e565b61092a82828561086a565b5f60209050601f83116001811461095b575f8415610949578287015190505b61095385826108d8565b8655506109ba565b601f19841661096986610753565b5f5b828110156109905784890151825560018201915060208501945060208101905061096b565b868310156109ad57848901516109a9601f8916826108bc565b8355505b6001600288020188555050505b505050505050565b6109cb81610408565b82525050565b828183375f83830152505050565b5f6109ea8385610478565b93506109f78385846109d1565b610a0083610496565b840190509392505050565b5f606082019050610a1e5f8301876109c2565b8181036020830152610a318185876109df565b9050610a4060408301846104e7565b9594505050505056fea2646970667358221220a4d0f0bd9e63fe3135590c75d097223fb53f5e69b93cb16acacf2ff381585e9664736f6c634300081e0033",
					"opcodes": "PUSH1 0x80 PUSH1 0x40 MSTORE CALLVALUE DUP1 ISZERO PUSH1 0xE JUMPI PUSH0 PUSH0 REVERT JUMPDEST POP CALLER PUSH1 0x1 PUSH0 PUSH2 0x100 EXP DUP2 SLOAD DUP2 PUSH20 0xFFFFFFFFFFFFFFFFFFFFFFFFFFFFFFFFFFFFFFFF MUL NOT AND SWAP1 DUP4 PUSH20 0xFFFFFFFFFFFFFFFFFFFFFFFFFFFFFFFFFFFFFFFF AND MUL OR SWAP1 SSTORE POP PUSH2 0xA7F DUP1 PUSH2 0x5C PUSH0 CODECOPY PUSH0 RETURN INVALID PUSH1 0x80 PUSH1 0x40 MSTORE CALLVALUE DUP1 ISZERO PUSH2 0xF JUMPI PUSH0 PUSH0 REVERT JUMPDEST POP PUSH1 0x4 CALLDATASIZE LT PUSH2 0x3F JUMPI PUSH0 CALLDATALOAD PUSH1 0xE0 SHR DUP1 PUSH4 0x6B7B44D7 EQ PUSH2 0x43 JUMPI DUP1 PUSH4 0xB8B2E42C EQ PUSH2 0x75 JUMPI DUP1 PUSH4 0xFC0D1B84 EQ PUSH2 0xA5 JUMPI JUMPDEST PUSH0 PUSH0 REVERT JUMPDEST PUSH2 0x5D PUSH1 0x4 DUP1 CALLDATASIZE SUB DUP2 ADD SWAP1 PUSH2 0x58 SWAP2 SWAP1 PUSH2 0x443 JUMP JUMPDEST PUSH2 0xC1 JUMP JUMPDEST PUSH1 0x40 MLOAD PUSH2 0x6C SWAP4 SWAP3 SWAP2 SWAP1 PUSH2 0x510 JUMP JUMPDEST PUSH1 0x40 MLOAD DUP1 SWAP2 SUB SWAP1 RETURN JUMPDEST PUSH2 0x8F PUSH1 0x4 DUP1 CALLDATASIZE SUB DUP2 ADD SWAP1 PUSH2 0x8A SWAP2 SWAP1 PUSH2 0x443 JUMP JUMPDEST PUSH2 0x1DE JUMP JUMPDEST PUSH1 0x40 MLOAD PUSH2 0x9C SWAP2 SWAP1 PUSH2 0x54C JUMP JUMPDEST PUSH1 0x40 MLOAD DUP1 SWAP2 SUB SWAP1 RETURN JUMPDEST PUSH2 0xBF PUSH1 0x4 DUP1 CALLDATASIZE SUB DUP2 ADD SWAP1 PUSH2 0xBA SWAP2 SWAP1 PUSH2 0x5F0 JUMP JUMPDEST PUSH2 0x232 JUMP JUMPDEST STOP JUMPDEST PUSH1 0x60 PUSH0 PUSH0 PUSH0 PUSH0 PUSH0 DUP7 PUSH20 0xFFFFFFFFFFFFFFFFFFFFFFFFFFFFFFFFFFFFFFFF AND PUSH20 0xFFFFFFFFFFFFFFFFFFFFFFFFFFFFFFFFFFFFFFFF AND DUP2 MSTORE PUSH1 0x20 ADD SWAP1 DUP2 MSTORE PUSH1 0x20 ADD PUSH0 KECCAK256 PUSH1 0x40 MLOAD DUP1 PUSH1 0x60 ADD PUSH1 0x40 MSTORE SWAP1 DUP2 PUSH0 DUP3 ADD DUP1 SLOAD PUSH2 0x11C SWAP1 PUSH2 0x68E JUMP JUMPDEST DUP1 PUSH1 0x1F ADD PUSH1 0x20 DUP1 SWAP2 DIV MUL PUSH1 0x20 ADD PUSH1 0x40 MLOAD SWAP1 DUP2 ADD PUSH1 0x40 MSTORE DUP1 SWAP3 SWAP2 SWAP1 DUP2 DUP2 MSTORE PUSH1 0x20 ADD DUP3 DUP1 SLOAD PUSH2 0x148 SWAP1 PUSH2 0x68E JUMP JUMPDEST DUP1 ISZERO PUSH2 0x193 JUMPI DUP1 PUSH1 0x1F LT PUSH2 0x16A JUMPI PUSH2 0x100 DUP1 DUP4 SLOAD DIV MUL DUP4 MSTORE SWAP2 PUSH1 0x20 ADD SWAP2 PUSH2 0x193 JUMP JUMPDEST DUP3 ADD SWAP2 SWAP1 PUSH0 MSTORE PUSH1 0x20 PUSH0 KECCAK256 SWAP1 JUMPDEST DUP2 SLOAD DUP2 MSTORE SWAP1 PUSH1 0x1 ADD SWAP1 PUSH1 0x20 ADD DUP1 DUP4 GT PUSH2 0x176 JUMPI DUP3 SWAP1 SUB PUSH1 0x1F AND DUP3 ADD SWAP2 JUMPDEST POP POP POP POP POP DUP2 MSTORE PUSH1 0x20 ADD PUSH1 0x1 DUP3 ADD SLOAD DUP2 MSTORE PUSH1 0x20 ADD PUSH1 0x2 DUP3 ADD PUSH0 SWAP1 SLOAD SWAP1 PUSH2 0x100 EXP SWAP1 DIV PUSH1 0xFF AND ISZERO ISZERO ISZERO ISZERO DUP2 MSTORE POP POP SWAP1 POP DUP1 PUSH0 ADD MLOAD DUP2 PUSH1 0x20 ADD MLOAD DUP3 PUSH1 0x40 ADD MLOAD SWAP4 POP SWAP4 POP SWAP4 POP POP SWAP2 SWAP4 SWAP1 SWAP3 POP JUMP JUMPDEST PUSH0 PUSH0 PUSH0 DUP4 PUSH20 0xFFFFFFFFFFFFFFFFFFFFFFFFFFFFFFFFFFFFFFFF AND PUSH20 0xFFFFFFFFFFFFFFFFFFFFFFFFFFFFFFFFFFFFFFFF AND DUP2 MSTORE PUSH1 0x20 ADD SWAP1 DUP2 MSTORE PUSH1 0x20 ADD PUSH0 KECCAK256 PUSH1 0x2 ADD PUSH0 SWAP1 SLOAD SWAP1 PUSH2 0x100 EXP SWAP1 DIV PUSH1 0xFF AND SWAP1 POP SWAP2 SWAP1 POP JUMP JUMPDEST PUSH1 0x1 PUSH0 SWAP1 SLOAD SWAP1 PUSH2 0x100 EXP SWAP1 DIV PUSH20 0xFFFFFFFFFFFFFFFFFFFFFFFFFFFFFFFFFFFFFFFF AND PUSH20 0xFFFFFFFFFFFFFFFFFFFFFFFFFFFFFFFFFFFFFFFF AND CALLER PUSH20 0xFFFFFFFFFFFFFFFFFFFFFFFFFFFFFFFFFFFFFFFF AND EQ PUSH2 0x2C1 JUMPI PUSH1 0x40 MLOAD PUSH32 0x8C379A000000000000000000000000000000000000000000000000000000000 DUP2 MSTORE PUSH1 0x4 ADD PUSH2 0x2B8 SWAP1 PUSH2 0x708 JUMP JUMPDEST PUSH1 0x40 MLOAD DUP1 SWAP2 SUB SWAP1 REVERT JUMPDEST PUSH1 0x40 MLOAD DUP1 PUSH1 0x60 ADD PUSH1 0x40 MSTORE DUP1 DUP5 DUP5 DUP1 DUP1 PUSH1 0x1F ADD PUSH1 0x20 DUP1 SWAP2 DIV MUL PUSH1 0x20 ADD PUSH1 0x40 MLOAD SWAP1 DUP2 ADD PUSH1 0x40 MSTORE DUP1 SWAP4 SWAP3 SWAP2 SWAP1 DUP2 DUP2 MSTORE PUSH1 0x20 ADD DUP4 DUP4 DUP1 DUP3 DUP5 CALLDATACOPY PUSH0 DUP2 DUP5 ADD MSTORE PUSH1 0x1F NOT PUSH1 0x1F DUP3 ADD AND SWAP1 POP DUP1 DUP4 ADD SWAP3 POP POP POP POP POP POP POP DUP2 MSTORE PUSH1 0x20 ADD DUP3 DUP2 MSTORE PUSH1 0x20 ADD PUSH1 0x1 ISZERO ISZERO DUP2 MSTORE POP PUSH0 PUSH0 DUP7 PUSH20 0xFFFFFFFFFFFFFFFFFFFFFFFFFFFFFFFFFFFFFFFF AND PUSH20 0xFFFFFFFFFFFFFFFFFFFFFFFFFFFFFFFFFFFFFFFF AND DUP2 MSTORE PUSH1 0x20 ADD SWAP1 DUP2 MSTORE PUSH1 0x20 ADD PUSH0 KECCAK256 PUSH0 DUP3 ADD MLOAD DUP2 PUSH0 ADD SWAP1 DUP2 PUSH2 0x371 SWAP2 SWAP1 PUSH2 0x8F3 JUMP JUMPDEST POP PUSH1 0x20 DUP3 ADD MLOAD DUP2 PUSH1 0x1 ADD SSTORE PUSH1 0x40 DUP3 ADD MLOAD DUP2 PUSH1 0x2 ADD PUSH0 PUSH2 0x100 EXP DUP2 SLOAD DUP2 PUSH1 0xFF MUL NOT AND SWAP1 DUP4 ISZERO ISZERO MUL OR SWAP1 SSTORE POP SWAP1 POP POP PUSH32 0x89B886E508B5806F8C28179176052458C2BD0F54106811773B56BE2D51A14E60 DUP5 DUP5 DUP5 DUP5 PUSH1 0x40 MLOAD PUSH2 0x3D3 SWAP5 SWAP4 SWAP3 SWAP2 SWAP1 PUSH2 0xA0B JUMP JUMPDEST PUSH1 0x40 MLOAD DUP1 SWAP2 SUB SWAP1 LOG1 POP POP POP POP JUMP JUMPDEST PUSH0 PUSH0 REVERT JUMPDEST PUSH0 PUSH0 REVERT JUMPDEST PUSH0 PUSH20 0xFFFFFFFFFFFFFFFFFFFFFFFFFFFFFFFFFFFFFFFF DUP3 AND SWAP1 POP SWAP2 SWAP1 POP JUMP JUMPDEST PUSH0 PUSH2 0x412 DUP3 PUSH2 0x3E9 JUMP JUMPDEST SWAP1 POP SWAP2 SWAP1 POP JUMP JUMPDEST PUSH2 0x422 DUP2 PUSH2 0x408 JUMP JUMPDEST DUP2 EQ PUSH2 0x42C JUMPI PUSH0 PUSH0 REVERT JUMPDEST POP JUMP JUMPDEST PUSH0 DUP2 CALLDATALOAD SWAP1 POP PUSH2 0x43D DUP2 PUSH2 0x419 JUMP JUMPDEST SWAP3 SWAP2 POP POP JUMP JUMPDEST PUSH0 PUSH1 0x20 DUP3 DUP5 SUB SLT ISZERO PUSH2 0x458 JUMPI PUSH2 0x457 PUSH2 0x3E1 JUMP JUMPDEST JUMPDEST PUSH0 PUSH2 0x465 DUP5 DUP3 DUP6 ADD PUSH2 0x42F JUMP JUMPDEST SWAP2 POP POP SWAP3 SWAP2 POP POP JUMP JUMPDEST PUSH0 DUP2 MLOAD SWAP1 POP SWAP2 SWAP1 POP JUMP JUMPDEST PUSH0 DUP3 DUP3 MSTORE PUSH1 0x20 DUP3 ADD SWAP1 POP SWAP3 SWAP2 POP POP JUMP JUMPDEST DUP3 DUP2 DUP4 MCOPY PUSH0 DUP4 DUP4 ADD MSTORE POP POP POP JUMP JUMPDEST PUSH0 PUSH1 0x1F NOT PUSH1 0x1F DUP4 ADD AND SWAP1 POP SWAP2 SWAP1 POP JUMP JUMPDEST PUSH0 PUSH2 0x4B0 DUP3 PUSH2 0x46E JUMP JUMPDEST PUSH2 0x4BA DUP2 DUP6 PUSH2 0x478 JUMP JUMPDEST SWAP4 POP PUSH2 0x4CA DUP2 DUP6 PUSH1 0x20 DUP7 ADD PUSH2 0x488 JUMP JUMPDEST PUSH2 0x4D3 DUP2 PUSH2 0x496 JUMP JUMPDEST DUP5 ADD SWAP2 POP POP SWAP3 SWAP2 POP POP JUMP JUMPDEST PUSH0 DUP2 SWAP1 POP SWAP2 SWAP1 POP JUMP JUMPDEST PUSH2 0x4F0 DUP2 PUSH2 0x4DE JUMP JUMPDEST DUP3 MSTORE POP POP JUMP JUMPDEST PUSH0 DUP2 ISZERO ISZERO SWAP1 POP SWAP2 SWAP1 POP JUMP JUMPDEST PUSH2 0x50A DUP2 PUSH2 0x4F6 JUMP JUMPDEST DUP3 MSTORE POP POP JUMP JUMPDEST PUSH0 PUSH1 0x60 DUP3 ADD SWAP1 POP DUP2 DUP2 SUB PUSH0 DUP4 ADD MSTORE PUSH2 0x528 DUP2 DUP7 PUSH2 0x4A6 JUMP JUMPDEST SWAP1 POP PUSH2 0x537 PUSH1 0x20 DUP4 ADD DUP6 PUSH2 0x4E7 JUMP JUMPDEST PUSH2 0x544 PUSH1 0x40 DUP4 ADD DUP5 PUSH2 0x501 JUMP JUMPDEST SWAP5 SWAP4 POP POP POP POP JUMP JUMPDEST PUSH0 PUSH1 0x20 DUP3 ADD SWAP1 POP PUSH2 0x55F PUSH0 DUP4 ADD DUP5 PUSH2 0x501 JUMP JUMPDEST SWAP3 SWAP2 POP POP JUMP JUMPDEST PUSH0 PUSH0 REVERT JUMPDEST PUSH0 PUSH0 REVERT JUMPDEST PUSH0 PUSH0 REVERT JUMPDEST PUSH0 PUSH0 DUP4 PUSH1 0x1F DUP5 ADD SLT PUSH2 0x586 JUMPI PUSH2 0x585 PUSH2 0x565 JUMP JUMPDEST JUMPDEST DUP3 CALLDATALOAD SWAP1 POP PUSH8 0xFFFFFFFFFFFFFFFF DUP2 GT ISZERO PUSH2 0x5A3 JUMPI PUSH2 0x5A2 PUSH2 0x569 JUMP JUMPDEST JUMPDEST PUSH1 0x20 DUP4 ADD SWAP2 POP DUP4 PUSH1 0x1 DUP3 MUL DUP4 ADD GT ISZERO PUSH2 0x5BF JUMPI PUSH2 0x5BE PUSH2 0x56D JUMP JUMPDEST JUMPDEST SWAP3 POP SWAP3 SWAP1 POP JUMP JUMPDEST PUSH2 0x5CF DUP2 PUSH2 0x4DE JUMP JUMPDEST DUP2 EQ PUSH2 0x5D9 JUMPI PUSH0 PUSH0 REVERT JUMPDEST POP JUMP JUMPDEST PUSH0 DUP2 CALLDATALOAD SWAP1 POP PUSH2 0x5EA DUP2 PUSH2 0x5C6 JUMP JUMPDEST SWAP3 SWAP2 POP POP JUMP JUMPDEST PUSH0 PUSH0 PUSH0 PUSH0 PUSH1 0x60 DUP6 DUP8 SUB SLT ISZERO PUSH2 0x608 JUMPI PUSH2 0x607 PUSH2 0x3E1 JUMP JUMPDEST JUMPDEST PUSH0 PUSH2 0x615 DUP8 DUP3 DUP9 ADD PUSH2 0x42F JUMP JUMPDEST SWAP5 POP POP PUSH1 0x20 DUP6 ADD CALLDATALOAD PUSH8 0xFFFFFFFFFFFFFFFF DUP2 GT ISZERO PUSH2 0x636 JUMPI PUSH2 0x635 PUSH2 0x3E5 JUMP JUMPDEST JUMPDEST PUSH2 0x642 DUP8 DUP3 DUP9 ADD PUSH2 0x571 JUMP JUMPDEST SWAP4 POP SWAP4 POP POP PUSH1 0x40 PUSH2 0x655 DUP8 DUP3 DUP9 ADD PUSH2 0x5DC JUMP JUMPDEST SWAP2 POP POP SWAP3 SWAP6 SWAP2 SWAP5 POP SWAP3 POP JUMP JUMPDEST PUSH32 0x4E487B7100000000000000000000000000000000000000000000000000000000 PUSH0 MSTORE PUSH1 0x22 PUSH1 0x4 MSTORE PUSH1 0x24 PUSH0 REVERT JUMPDEST PUSH0 PUSH1 0x2 DUP3 DIV SWAP1 POP PUSH1 0x1 DUP3 AND DUP1 PUSH2 0x6A5 JUMPI PUSH1 0x7F DUP3 AND SWAP2 POP JUMPDEST PUSH1 0x20 DUP3 LT DUP2 SUB PUSH2 0x6B8 JUMPI PUSH2 0x6B7 PUSH2 0x661 JUMP JUMPDEST JUMPDEST POP SWAP2 SWAP1 POP JUMP JUMPDEST PUSH32 0x4E6F74204F776E65720000000000000000000000000000000000000000000000 PUSH0 DUP3 ADD MSTORE POP JUMP JUMPDEST PUSH0 PUSH2 0x6F2 PUSH1 0x9 DUP4 PUSH2 0x478 JUMP JUMPDEST SWAP2 POP PUSH2 0x6FD DUP3 PUSH2 0x6BE JUMP JUMPDEST PUSH1 0x20 DUP3 ADD SWAP1 POP SWAP2 SWAP1 POP JUMP JUMPDEST PUSH0 PUSH1 0x20 DUP3 ADD SWAP1 POP DUP2 DUP2 SUB PUSH0 DUP4 ADD MSTORE PUSH2 0x71F DUP2 PUSH2 0x6E6 JUMP JUMPDEST SWAP1 POP SWAP2 SWAP1 POP JUMP JUMPDEST PUSH32 0x4E487B7100000000000000000000000000000000000000000000000000000000 PUSH0 MSTORE PUSH1 0x41 PUSH1 0x4 MSTORE PUSH1 0x24 PUSH0 REVERT JUMPDEST PUSH0 DUP2 SWAP1 POP DUP2 PUSH0 MSTORE PUSH1 0x20 PUSH0 KECCAK256 SWAP1 POP SWAP2 SWAP1 POP JUMP JUMPDEST PUSH0 PUSH1 0x20 PUSH1 0x1F DUP4 ADD DIV SWAP1 POP SWAP2 SWAP1 POP JUMP JUMPDEST PUSH0 DUP3 DUP3 SHL SWAP1 POP SWAP3 SWAP2 POP POP JUMP JUMPDEST PUSH0 PUSH1 0x8 DUP4 MUL PUSH2 0x7AF PUSH32 0xFFFFFFFFFFFFFFFFFFFFFFFFFFFFFFFFFFFFFFFFFFFFFFFFFFFFFFFFFFFFFFFF DUP3 PUSH2 0x774 JUMP JUMPDEST PUSH2 0x7B9 DUP7 DUP4 PUSH2 0x774 JUMP JUMPDEST SWAP6 POP DUP1 NOT DUP5 AND SWAP4 POP DUP1 DUP7 AND DUP5 OR SWAP3 POP POP POP SWAP4 SWAP3 POP POP POP JUMP JUMPDEST PUSH0 DUP2 SWAP1 POP SWAP2 SWAP1 POP JUMP JUMPDEST PUSH0 PUSH2 0x7F4 PUSH2 0x7EF PUSH2 0x7EA DUP5 PUSH2 0x4DE JUMP JUMPDEST PUSH2 0x7D1 JUMP JUMPDEST PUSH2 0x4DE JUMP JUMPDEST SWAP1 POP SWAP2 SWAP1 POP JUMP JUMPDEST PUSH0 DUP2 SWAP1 POP SWAP2 SWAP1 POP JUMP JUMPDEST PUSH2 0x80D DUP4 PUSH2 0x7DA JUMP JUMPDEST PUSH2 0x821 PUSH2 0x819 DUP3 PUSH2 0x7FB JUMP JUMPDEST DUP5 DUP5 SLOAD PUSH2 0x780 JUMP JUMPDEST DUP3 SSTORE POP POP POP POP JUMP JUMPDEST PUSH0 PUSH0 SWAP1 POP SWAP1 JUMP JUMPDEST PUSH2 0x838 PUSH2 0x829 JUMP JUMPDEST PUSH2 0x843 DUP2 DUP5 DUP5 PUSH2 0x804 JUMP JUMPDEST POP POP POP JUMP JUMPDEST JUMPDEST DUP2 DUP2 LT ISZERO PUSH2 0x866 JUMPI PUSH2 0x85B PUSH0 DUP3 PUSH2 0x830 JUMP JUMPDEST PUSH1 0x1 DUP2 ADD SWAP1 POP PUSH2 0x849 JUMP JUMPDEST POP POP JUMP JUMPDEST PUSH1 0x1F DUP3 GT ISZERO PUSH2 0x8AB JUMPI PUSH2 0x87C DUP2 PUSH2 0x753 JUMP JUMPDEST PUSH2 0x885 DUP5 PUSH2 0x765 JUMP JUMPDEST DUP2 ADD PUSH1 0x20 DUP6 LT ISZERO PUSH2 0x894 JUMPI DUP2 SWAP1 POP JUMPDEST PUSH2 0x8A8 PUSH2 0x8A0 DUP6 PUSH2 0x765 JUMP JUMPDEST DUP4 ADD DUP3 PUSH2 0x848 JUMP JUMPDEST POP POP JUMPDEST POP POP POP JUMP JUMPDEST PUSH0 DUP3 DUP3 SHR SWAP1 POP SWAP3 SWAP2 POP POP JUMP JUMPDEST PUSH0 PUSH2 0x8CB PUSH0 NOT DUP5 PUSH1 0x8 MUL PUSH2 0x8B0 JUMP JUMPDEST NOT DUP1 DUP4 AND SWAP2 POP POP SWAP3 SWAP2 POP POP JUMP JUMPDEST PUSH0 PUSH2 0x8E3 DUP4 DUP4 PUSH2 0x8BC JUMP JUMPDEST SWAP2 POP DUP3 PUSH1 0x2 MUL DUP3 OR SWAP1 POP SWAP3 SWAP2 POP POP JUMP JUMPDEST PUSH2 0x8FC DUP3 PUSH2 0x46E JUMP JUMPDEST PUSH8 0xFFFFFFFFFFFFFFFF DUP2 GT ISZERO PUSH2 0x915 JUMPI PUSH2 0x914 PUSH2 0x726 JUMP JUMPDEST JUMPDEST PUSH2 0x91F DUP3 SLOAD PUSH2 0x68E JUMP JUMPDEST PUSH2 0x92A DUP3 DUP3 DUP6 PUSH2 0x86A JUMP JUMPDEST PUSH0 PUSH1 0x20 SWAP1 POP PUSH1 0x1F DUP4 GT PUSH1 0x1 DUP2 EQ PUSH2 0x95B JUMPI PUSH0 DUP5 ISZERO PUSH2 0x949 JUMPI DUP3 DUP8 ADD MLOAD SWAP1 POP JUMPDEST PUSH2 0x953 DUP6 DUP3 PUSH2 0x8D8 JUMP JUMPDEST DUP7 SSTORE POP PUSH2 0x9BA JUMP JUMPDEST PUSH1 0x1F NOT DUP5 AND PUSH2 0x969 DUP7 PUSH2 0x753 JUMP JUMPDEST PUSH0 JUMPDEST DUP3 DUP2 LT ISZERO PUSH2 0x990 JUMPI DUP5 DUP10 ADD MLOAD DUP3 SSTORE PUSH1 0x1 DUP3 ADD SWAP2 POP PUSH1 0x20 DUP6 ADD SWAP5 POP PUSH1 0x20 DUP2 ADD SWAP1 POP PUSH2 0x96B JUMP JUMPDEST DUP7 DUP4 LT ISZERO PUSH2 0x9AD JUMPI DUP5 DUP10 ADD MLOAD PUSH2 0x9A9 PUSH1 0x1F DUP10 AND DUP3 PUSH2 0x8BC JUMP JUMPDEST DUP4 SSTORE POP JUMPDEST PUSH1 0x1 PUSH1 0x2 DUP9 MUL ADD DUP9 SSTORE POP POP POP JUMPDEST POP POP POP POP POP POP JUMP JUMPDEST PUSH2 0x9CB DUP2 PUSH2 0x408 JUMP JUMPDEST DUP3 MSTORE POP POP JUMP JUMPDEST DUP3 DUP2 DUP4 CALLDATACOPY PUSH0 DUP4 DUP4 ADD MSTORE POP POP POP JUMP JUMPDEST PUSH0 PUSH2 0x9EA DUP4 DUP6 PUSH2 0x478 JUMP JUMPDEST SWAP4 POP PUSH2 0x9F7 DUP4 DUP6 DUP5 PUSH2 0x9D1 JUMP JUMPDEST PUSH2 0xA00 DUP4 PUSH2 0x496 JUMP JUMPDEST DUP5 ADD SWAP1 POP SWAP4 SWAP3 POP POP POP JUMP JUMPDEST PUSH0 PUSH1 0x60 DUP3 ADD SWAP1 POP PUSH2 0xA1E PUSH0 DUP4 ADD DUP8 PUSH2 0x9C2 JUMP JUMPDEST DUP2 DUP2 SUB PUSH1 0x20 DUP4 ADD MSTORE PUSH2 0xA31 DUP2 DUP6 DUP8 PUSH2 0x9DF JUMP JUMPDEST SWAP1 POP PUSH2 0xA40 PUSH1 0x40 DUP4 ADD DUP5 PUSH2 0x4E7 JUMP JUMPDEST SWAP6 SWAP5 POP POP POP POP POP JUMP INVALID LOG2 PUSH5 0x6970667358 0x22 SLT KECCAK256 LOG4 0xD0 CREATE 0xBD SWAP15 PUSH4 0xFE313559 0xC PUSH22 0xD097223FB53F5E69B93CB16ACACF2FF381585E966473 PUSH16 0x6C634300081E00330000000000000000 "
				},
				"gasEstimates": {
					"creation": {
						"codeDepositCost": "537400",
						"executionCost": "24831",
						"totalCost": "562231"
					},
					"external": {
						"getStudent(address)": "infinite",
						"isStudentRegistered(address)": "2875",
						"register(address,string,uint256)": "infinite"
					}
				},
				"methodIdentifiers": {
					"getStudent(address)": "6b7b44d7",
					"isStudentRegistered(address)": "b8b2e42c",
					"register(address,string,uint256)": "fc0d1b84"
				}
			},
			"storageLayout": {
				"storage": [
					{
						"astId": 6,
						"contract": "contracts/StudentRegistryV2.sol:StudentRegistryV2",
						"label": "students",
						"offset": 0,
						"slot": "0",
						"type": "t_mapping(t_address,t_struct(Student)15_storage)"
					},
					{
						"astId": 8,
						"contract": "contracts/StudentRegistryV2.sol:StudentRegistryV2",
						"label": "owner",
						"offset": 0,
						"slot": "1",
						"type": "t_address"
					}
				],
				"types": {
					"t_address": {
						"encoding": "inplace",
						"label": "address",
						"numberOfBytes": "20"
					},
					"t_bool": {
						"encoding": "inplace",
						"label": "bool",
						"numberOfBytes": "1"
					},
					"t_mapping(t_address,t_struct(Student)15_storage)": {
						"encoding": "mapping",
						"key": "t_address",
						"label": "mapping(address => struct StudentRegistryV2.Student)",
						"numberOfBytes": "32",
						"value": "t_struct(Student)15_storage"
					},
					"t_string_storage": {
						"encoding": "bytes",
						"label": "string",
						"numberOfBytes": "32"
					},
					"t_struct(Student)15_storage": {
						"encoding": "inplace",
						"label": "struct StudentRegistryV2.Student",
						"members": [
							{
								"astId": 10,
								"contract": "contracts/StudentRegistryV2.sol:StudentRegistryV2",
								"label": "name",
								"offset": 0,
								"slot": "0",
								"type": "t_string_storage"
							},
							{
								"astId": 12,
								"contract": "contracts/StudentRegistryV2.sol:StudentRegistryV2",
								"label": "age",
								"offset": 0,
								"slot": "1",
								"type": "t_uint256"
							},
							{
								"astId": 14,
								"contract": "contracts/StudentRegistryV2.sol:StudentRegistryV2",
								"label": "isRegistered",
								"offset": 0,
								"slot": "2",
								"type": "t_bool"
							}
						],
						"numberOfBytes": "96"
					},
					"t_uint256": {
						"encoding": "inplace",
						"label": "uint256",
						"numberOfBytes": "32"
					}
				}
			},
			"userdoc": {
				"kind": "user",
				"methods": {},
				"version": 1
			}
		}
	}
}