{
	"game.sol": {
		"Game": {
			"abi": [
				{
					"inputs": [
						{
							"internalType": "string",
							"name": "fullname",
							"type": "string"
						},
						{
							"internalType": "uint256",
							"name": "age",
							"type": "uint256"
						},
						{
							"internalType": "string",
							"name": "sex",
							"type": "string"
						}
					],
					"name": "addPlayer",
					"outputs": [],
					"stateMutability": "nonpayable",
					"type": "function"
				},
				{
					"inputs": [
						{
							"internalType": "address",
							"name": "playerAddress",
							"type": "address"
						}
					],
					"name": "getPlayer",
					"outputs": [
						{
							"internalType": "address",
							"name": "",
							"type": "address"
						},
						{
							"internalType": "string",
							"name": "",
							"type": "string"
						},
						{
							"internalType": "uint256",
							"name": "",
							"type": "uint256"
						},
						{
							"internalType": "string",
							"name": "",
							"type": "string"
						},
						{
							"internalType": "enum Game.Level",
							"name": "",
							"type": "uint8"
						}
					],
					"stateMutability": "view",
					"type": "function"
				},
				{
					"inputs": [
						{
							"internalType": "address",
							"name": "",
							"type": "address"
						}
					],
					"name": "players",
					"outputs": [
						{
							"internalType": "address",
							"name": "addressPlayer",
							"type": "address"
						},
						{
							"internalType": "string",
							"name": "fullName",
							"type": "string"
						},
						{
							"internalType": "uint256",
							"name": "age",
							"type": "uint256"
						},
						{
							"internalType": "string",
							"name": "sex",
							"type": "string"
						},
						{
							"internalType": "enum Game.Level",
							"name": "myLevel",
							"type": "uint8"
						}
					],
					"stateMutability": "view",
					"type": "function"
				}
			],
			"devdoc": {
				"kind": "dev",
				"methods": {},
				"version": 1
			},
			"evm": {
				"assembly": "    /* \"game.sol\":61:823  contract Game {... */\n  mstore(0x40, 0x80)\n  callvalue\n  dup1\n  iszero\n  tag_1\n  jumpi\n  revert(0x00, 0x00)\ntag_1:\n  pop\n  dataSize(sub_0)\n  dup1\n  dataOffset(sub_0)\n  0x00\n  codecopy\n  0x00\n  return\nstop\n\nsub_0: assembly {\n        /* \"game.sol\":61:823  contract Game {... */\n      mstore(0x40, 0x80)\n      callvalue\n      dup1\n      iszero\n      tag_1\n      jumpi\n      revert(0x00, 0x00)\n    tag_1:\n      pop\n      jumpi(tag_2, lt(calldatasize, 0x04))\n      shr(0xe0, calldataload(0x00))\n      dup1\n      0x5c12cd4b\n      eq\n      tag_3\n      jumpi\n      dup1\n      0xaab48c52\n      eq\n      tag_4\n      jumpi\n      dup1\n      0xe2eb41ff\n      eq\n      tag_5\n      jumpi\n    tag_2:\n      revert(0x00, 0x00)\n        /* \"game.sol\":521:820  function getPlayer (address playerAddress) public view returns (... */\n    tag_3:\n      tag_6\n      0x04\n      dup1\n      calldatasize\n      sub\n      dup2\n      add\n      swap1\n      tag_7\n      swap2\n      swap1\n      tag_8\n      jump\t// in\n    tag_7:\n      tag_9\n      jump\t// in\n    tag_6:\n      mload(0x40)\n      tag_10\n      swap6\n      swap5\n      swap4\n      swap3\n      swap2\n      swap1\n      tag_11\n      jump\t// in\n    tag_10:\n      mload(0x40)\n      dup1\n      swap2\n      sub\n      swap1\n      return\n        /* \"game.sol\":339:513  function addPlayer(string memory fullname, uint age, string memory sex) public {... */\n    tag_4:\n      tag_12\n      0x04\n      dup1\n      calldatasize\n      sub\n      dup2\n      add\n      swap1\n      tag_13\n      swap2\n      swap1\n      tag_14\n      jump\t// in\n    tag_13:\n      tag_15\n      jump\t// in\n    tag_12:\n      stop\n        /* \"game.sol\":84:126  mapping (address => Player) public players */\n    tag_5:\n      tag_16\n      0x04\n      dup1\n      calldatasize\n      sub\n      dup2\n      add\n      swap1\n      tag_17\n      swap2\n      swap1\n      tag_8\n      jump\t// in\n    tag_17:\n      tag_18\n      jump\t// in\n    tag_16:\n      mload(0x40)\n      tag_19\n      swap6\n      swap5\n      swap4\n      swap3\n      swap2\n      swap1\n      tag_11\n      jump\t// in\n    tag_19:\n      mload(0x40)\n      dup1\n      swap2\n      sub\n      swap1\n      return\n        /* \"game.sol\":521:820  function getPlayer (address playerAddress) public view returns (... */\n    tag_9:\n        /* \"game.sol\":595:602  address */\n      0x00\n        /* \"game.sol\":613:626  string memory */\n      0x60\n        /* \"game.sol\":637:641  uint */\n      0x00\n        /* \"game.sol\":652:665  string memory */\n      0x60\n        /* \"game.sol\":676:681  Level */\n      0x00\n        /* \"game.sol\":700:715  Player memory p */\n      0x00\n        /* \"game.sol\":718:725  players */\n      0x00\n        /* \"game.sol\":718:740  players[playerAddress] */\n      0x00\n        /* \"game.sol\":726:739  playerAddress */\n      dup9\n        /* \"game.sol\":718:740  players[playerAddress] */\n      0xffffffffffffffffffffffffffffffffffffffff\n      and\n      0xffffffffffffffffffffffffffffffffffffffff\n      and\n      dup2\n      mstore\n      0x20\n      add\n      swap1\n      dup2\n      mstore\n      0x20\n      add\n      0x00\n      keccak256\n        /* \"game.sol\":700:740  Player memory p = players[playerAddress] */\n      mload(0x40)\n      dup1\n      0xa0\n      add\n      0x40\n      mstore\n      swap1\n      dup2\n      0x00\n      dup3\n      add\n      0x00\n      swap1\n      sload\n      swap1\n      0x0100\n      exp\n      swap1\n      div\n      0xffffffffffffffffffffffffffffffffffffffff\n      and\n      0xffffffffffffffffffffffffffffffffffffffff\n      and\n      0xffffffffffffffffffffffffffffffffffffffff\n      and\n      dup2\n      mstore\n      0x20\n      add\n      0x01\n      dup3\n      add\n      dup1\n      sload\n      tag_21\n      swap1\n      tag_22\n      jump\t// in\n    tag_21:\n      dup1\n      0x1f\n      add\n      0x20\n      dup1\n      swap2\n      div\n      mul\n      0x20\n      add\n      mload(0x40)\n      swap1\n      dup2\n      add\n      0x40\n      mstore\n      dup1\n      swap3\n      swap2\n      swap1\n      dup2\n      dup2\n      mstore\n      0x20\n      add\n      dup3\n      dup1\n      sload\n      tag_23\n      swap1\n      tag_22\n      jump\t// in\n    tag_23:\n      dup1\n      iszero\n      tag_24\n      jumpi\n      dup1\n      0x1f\n      lt\n      tag_25\n      jumpi\n      0x0100\n      dup1\n      dup4\n      sload\n      div\n      mul\n      dup4\n      mstore\n      swap2\n      0x20\n      add\n      swap2\n      jump(tag_24)\n    tag_25:\n      dup3\n      add\n      swap2\n      swap1\n      0x00\n      mstore\n      keccak256(0x00, 0x20)\n      swap1\n    tag_26:\n      dup2\n      sload\n      dup2\n      mstore\n      swap1\n      0x01\n      add\n      swap1\n      0x20\n      add\n      dup1\n      dup4\n      gt\n      tag_26\n      jumpi\n      dup3\n      swap1\n      sub\n      0x1f\n      and\n      dup3\n      add\n      swap2\n    tag_24:\n      pop\n      pop\n      pop\n      pop\n      pop\n      dup2\n      mstore\n      0x20\n      add\n      0x02\n      dup3\n      add\n      sload\n      dup2\n      mstore\n      0x20\n      add\n      0x03\n      dup3\n      add\n      dup1\n      sload\n      tag_27\n      swap1\n      tag_22\n      jump\t// in\n    tag_27:\n      dup1\n      0x1f\n      add\n      0x20\n      dup1\n      swap2\n      div\n      mul\n      0x20\n      add\n      mload(0x40)\n      swap1\n      dup2\n      add\n      0x40\n      mstore\n      dup1\n      swap3\n      swap2\n      swap1\n      dup2\n      dup2\n      mstore\n      0x20\n      add\n      dup3\n      dup1\n      sload\n      tag_28\n      swap1\n      tag_22\n      jump\t// in\n    tag_28:\n      dup1\n      iszero\n      tag_29\n      jumpi\n      dup1\n      0x1f\n      lt\n      tag_30\n      jumpi\n      0x0100\n      dup1\n      dup4\n      sload\n      div\n      mul\n      dup4\n      mstore\n      swap2\n      0x20\n      add\n      swap2\n      jump(tag_29)\n    tag_30:\n      dup3\n      add\n      swap2\n      swap1\n      0x00\n      mstore\n      keccak256(0x00, 0x20)\n      swap1\n    tag_31:\n      dup2\n      sload\n      dup2\n      mstore\n      swap1\n      0x01\n      add\n      swap1\n      0x20\n      add\n      dup1\n      dup4\n      gt\n      tag_31\n      jumpi\n      dup3\n      swap1\n      sub\n      0x1f\n      and\n      dup3\n      add\n      swap2\n    tag_29:\n      pop\n      pop\n      pop\n      pop\n      pop\n      dup2\n      mstore\n      0x20\n      add\n      0x04\n      dup3\n      add\n      0x00\n      swap1\n      sload\n      swap1\n      0x0100\n      exp\n      swap1\n      div\n      0xff\n      and\n      0x02\n      dup2\n      gt\n      iszero\n      tag_32\n      jumpi\n      tag_33\n      tag_34\n      jump\t// in\n    tag_33:\n    tag_32:\n      0x02\n      dup2\n      gt\n      iszero\n      tag_35\n      jumpi\n      tag_36\n      tag_34\n      jump\t// in\n    tag_36:\n    tag_35:\n      dup2\n      mstore\n      pop\n      pop\n      swap1\n      pop\n        /* \"game.sol\":759:760  p */\n      dup1\n        /* \"game.sol\":759:774  p.addressPlayer */\n      0x00\n      add\n      mload\n        /* \"game.sol\":776:777  p */\n      dup2\n        /* \"game.sol\":776:786  p.fullName */\n      0x20\n      add\n      mload\n        /* \"game.sol\":788:789  p */\n      dup3\n        /* \"game.sol\":788:793  p.age */\n      0x40\n      add\n      mload\n        /* \"game.sol\":795:796  p */\n      dup4\n        /* \"game.sol\":795:800  p.sex */\n      0x60\n      add\n      mload\n        /* \"game.sol\":802:803  p */\n      dup5\n        /* \"game.sol\":802:811  p.myLevel */\n      0x80\n      add\n      mload\n        /* \"game.sol\":751:812  return (p.addressPlayer, p.fullName, p.age, p.sex, p.myLevel) */\n      swap6\n      pop\n      swap6\n      pop\n      swap6\n      pop\n      swap6\n      pop\n      swap6\n      pop\n      pop\n        /* \"game.sol\":521:820  function getPlayer (address playerAddress) public view returns (... */\n      swap2\n      swap4\n      swap6\n      swap1\n      swap3\n      swap5\n      pop\n      jump\t// out\n        /* \"game.sol\":339:513  function addPlayer(string memory fullname, uint age, string memory sex) public {... */\n    tag_15:\n        /* \"game.sol\":451:505  Player(msg.sender, fullname, age, sex, Level.Beginner) */\n      mload(0x40)\n      dup1\n      0xa0\n      add\n      0x40\n      mstore\n      dup1\n        /* \"game.sol\":458:468  msg.sender */\n      caller\n        /* \"game.sol\":451:505  Player(msg.sender, fullname, age, sex, Level.Beginner) */\n      0xffffffffffffffffffffffffffffffffffffffff\n      and\n      dup2\n      mstore\n      0x20\n      add\n        /* \"game.sol\":470:478  fullname */\n      dup5\n        /* \"game.sol\":451:505  Player(msg.sender, fullname, age, sex, Level.Beginner) */\n      dup2\n      mstore\n      0x20\n      add\n        /* \"game.sol\":480:483  age */\n      dup4\n        /* \"game.sol\":451:505  Player(msg.sender, fullname, age, sex, Level.Beginner) */\n      dup2\n      mstore\n      0x20\n      add\n        /* \"game.sol\":485:488  sex */\n      dup3\n        /* \"game.sol\":451:505  Player(msg.sender, fullname, age, sex, Level.Beginner) */\n      dup2\n      mstore\n      0x20\n      add\n        /* \"game.sol\":490:504  Level.Beginner */\n      0x00\n        /* \"game.sol\":451:505  Player(msg.sender, fullname, age, sex, Level.Beginner) */\n      0x02\n      dup2\n      gt\n      iszero\n      tag_38\n      jumpi\n      tag_39\n      tag_34\n      jump\t// in\n    tag_39:\n    tag_38:\n      dup2\n      mstore\n      pop\n        /* \"game.sol\":429:436  players */\n      0x00\n        /* \"game.sol\":429:448  players[msg.sender] */\n      0x00\n        /* \"game.sol\":437:447  msg.sender */\n      caller\n        /* \"game.sol\":429:448  players[msg.sender] */\n      0xffffffffffffffffffffffffffffffffffffffff\n      and\n      0xffffffffffffffffffffffffffffffffffffffff\n      and\n      dup2\n      mstore\n      0x20\n      add\n      swap1\n      dup2\n      mstore\n      0x20\n      add\n      0x00\n      keccak256\n        /* \"game.sol\":429:505  players[msg.sender] = Player(msg.sender, fullname, age, sex, Level.Beginner) */\n      0x00\n      dup3\n      add\n      mload\n      dup2\n      0x00\n      add\n      exp(0x0100, 0x00)\n      dup2\n      sload\n      dup2\n      0xffffffffffffffffffffffffffffffffffffffff\n      mul\n      not\n      and\n      swap1\n      dup4\n      0xffffffffffffffffffffffffffffffffffffffff\n      and\n      mul\n      or\n      swap1\n      sstore\n      pop\n      0x20\n      dup3\n      add\n      mload\n      dup2\n      0x01\n      add\n      swap1\n      dup2\n      tag_40\n      swap2\n      swap1\n      tag_41\n      jump\t// in\n    tag_40:\n      pop\n      0x40\n      dup3\n      add\n      mload\n      dup2\n      0x02\n      add\n      sstore\n      0x60\n      dup3\n      add\n      mload\n      dup2\n      0x03\n      add\n      swap1\n      dup2\n      tag_42\n      swap2\n      swap1\n      tag_41\n      jump\t// in\n    tag_42:\n      pop\n      0x80\n      dup3\n      add\n      mload\n      dup2\n      0x04\n      add\n      exp(0x0100, 0x00)\n      dup2\n      sload\n      dup2\n      0xff\n      mul\n      not\n      and\n      swap1\n      dup4\n      0x02\n      dup2\n      gt\n      iszero\n      tag_43\n      jumpi\n      tag_44\n      tag_34\n      jump\t// in\n    tag_44:\n    tag_43:\n      mul\n      or\n      swap1\n      sstore\n      pop\n      swap1\n      pop\n      pop\n        /* \"game.sol\":339:513  function addPlayer(string memory fullname, uint age, string memory sex) public {... */\n      pop\n      pop\n      pop\n      jump\t// out\n        /* \"game.sol\":84:126  mapping (address => Player) public players */\n    tag_18:\n      mstore(0x20, 0x00)\n      dup1\n      0x00\n      mstore\n      keccak256(0x00, 0x40)\n      0x00\n      swap2\n      pop\n      swap1\n      pop\n      dup1\n      0x00\n      add\n      0x00\n      swap1\n      sload\n      swap1\n      0x0100\n      exp\n      swap1\n      div\n      0xffffffffffffffffffffffffffffffffffffffff\n      and\n      swap1\n      dup1\n      0x01\n      add\n      dup1\n      sload\n      tag_45\n      swap1\n      tag_22\n      jump\t// in\n    tag_45:\n      dup1\n      0x1f\n      add\n      0x20\n      dup1\n      swap2\n      div\n      mul\n      0x20\n      add\n      mload(0x40)\n      swap1\n      dup2\n      add\n      0x40\n      mstore\n      dup1\n      swap3\n      swap2\n      swap1\n      dup2\n      dup2\n      mstore\n      0x20\n      add\n      dup3\n      dup1\n      sload\n      tag_46\n      swap1\n      tag_22\n      jump\t// in\n    tag_46:\n      dup1\n      iszero\n      tag_47\n      jumpi\n      dup1\n      0x1f\n      lt\n      tag_48\n      jumpi\n      0x0100\n      dup1\n      dup4\n      sload\n      div\n      mul\n      dup4\n      mstore\n      swap2\n      0x20\n      add\n      swap2\n      jump(tag_47)\n    tag_48:\n      dup3\n      add\n      swap2\n      swap1\n      0x00\n      mstore\n      keccak256(0x00, 0x20)\n      swap1\n    tag_49:\n      dup2\n      sload\n      dup2\n      mstore\n      swap1\n      0x01\n      add\n      swap1\n      0x20\n      add\n      dup1\n      dup4\n      gt\n      tag_49\n      jumpi\n      dup3\n      swap1\n      sub\n      0x1f\n      and\n      dup3\n      add\n      swap2\n    tag_47:\n      pop\n      pop\n      pop\n      pop\n      pop\n      swap1\n      dup1\n      0x02\n      add\n      sload\n      swap1\n      dup1\n      0x03\n      add\n      dup1\n      sload\n      tag_50\n      swap1\n      tag_22\n      jump\t// in\n    tag_50:\n      dup1\n      0x1f\n      add\n      0x20\n      dup1\n      swap2\n      div\n      mul\n      0x20\n      add\n      mload(0x40)\n      swap1\n      dup2\n      add\n      0x40\n      mstore\n      dup1\n      swap3\n      swap2\n      swap1\n      dup2\n      dup2\n      mstore\n      0x20\n      add\n      dup3\n      dup1\n      sload\n      tag_51\n      swap1\n      tag_22\n      jump\t// in\n    tag_51:\n      dup1\n      iszero\n      tag_52\n      jumpi\n      dup1\n      0x1f\n      lt\n      tag_53\n      jumpi\n      0x0100\n      dup1\n      dup4\n      sload\n      div\n      mul\n      dup4\n      mstore\n      swap2\n      0x20\n      add\n      swap2\n      jump(tag_52)\n    tag_53:\n      dup3\n      add\n      swap2\n      swap1\n      0x00\n      mstore\n      keccak256(0x00, 0x20)\n      swap1\n    tag_54:\n      dup2\n      sload\n      dup2\n      mstore\n      swap1\n      0x01\n      add\n      swap1\n      0x20\n      add\n      dup1\n      dup4\n      gt\n      tag_54\n      jumpi\n      dup3\n      swap1\n      sub\n      0x1f\n      and\n      dup3\n      add\n      swap2\n    tag_52:\n      pop\n      pop\n      pop\n      pop\n      pop\n      swap1\n      dup1\n      0x04\n      add\n      0x00\n      swap1\n      sload\n      swap1\n      0x0100\n      exp\n      swap1\n      div\n      0xff\n      and\n      swap1\n      pop\n      dup6\n      jump\t// out\n        /* \"#utility.yul\":7:82   */\n    tag_55:\n        /* \"#utility.yul\":40:46   */\n      0x00\n        /* \"#utility.yul\":73:75   */\n      0x40\n        /* \"#utility.yul\":67:76   */\n      mload\n        /* \"#utility.yul\":57:76   */\n      swap1\n      pop\n        /* \"#utility.yul\":7:82   */\n      swap1\n      jump\t// out\n        /* \"#utility.yul\":88:205   */\n    tag_56:\n        /* \"#utility.yul\":197:198   */\n      0x00\n        /* \"#utility.yul\":194:195   */\n      0x00\n        /* \"#utility.yul\":187:199   */\n      revert\n        /* \"#utility.yul\":211:328   */\n    tag_57:\n        /* \"#utility.yul\":320:321   */\n      0x00\n        /* \"#utility.yul\":317:318   */\n      0x00\n        /* \"#utility.yul\":310:322   */\n      revert\n        /* \"#utility.yul\":334:460   */\n    tag_58:\n        /* \"#utility.yul\":371:378   */\n      0x00\n        /* \"#utility.yul\":411:453   */\n      0xffffffffffffffffffffffffffffffffffffffff\n        /* \"#utility.yul\":404:409   */\n      dup3\n        /* \"#utility.yul\":400:454   */\n      and\n        /* \"#utility.yul\":389:454   */\n      swap1\n      pop\n        /* \"#utility.yul\":334:460   */\n      swap2\n      swap1\n      pop\n      jump\t// out\n        /* \"#utility.yul\":466:562   */\n    tag_59:\n        /* \"#utility.yul\":503:510   */\n      0x00\n        /* \"#utility.yul\":532:556   */\n      tag_107\n        /* \"#utility.yul\":550:555   */\n      dup3\n        /* \"#utility.yul\":532:556   */\n      tag_58\n      jump\t// in\n    tag_107:\n        /* \"#utility.yul\":521:556   */\n      swap1\n      pop\n        /* \"#utility.yul\":466:562   */\n      swap2\n      swap1\n      pop\n      jump\t// out\n        /* \"#utility.yul\":568:690   */\n    tag_60:\n        /* \"#utility.yul\":641:665   */\n      tag_109\n        /* \"#utility.yul\":659:664   */\n      dup2\n        /* \"#utility.yul\":641:665   */\n      tag_59\n      jump\t// in\n    tag_109:\n        /* \"#utility.yul\":634:639   */\n      dup2\n        /* \"#utility.yul\":631:666   */\n      eq\n        /* \"#utility.yul\":621:684   */\n      tag_110\n      jumpi\n        /* \"#utility.yul\":680:681   */\n      0x00\n        /* \"#utility.yul\":677:678   */\n      0x00\n        /* \"#utility.yul\":670:682   */\n      revert\n        /* \"#utility.yul\":621:684   */\n    tag_110:\n        /* \"#utility.yul\":568:690   */\n      pop\n      jump\t// out\n        /* \"#utility.yul\":696:835   */\n    tag_61:\n        /* \"#utility.yul\":742:747   */\n      0x00\n        /* \"#utility.yul\":780:786   */\n      dup2\n        /* \"#utility.yul\":767:787   */\n      calldataload\n        /* \"#utility.yul\":758:787   */\n      swap1\n      pop\n        /* \"#utility.yul\":796:829   */\n      tag_112\n        /* \"#utility.yul\":823:828   */\n      dup2\n        /* \"#utility.yul\":796:829   */\n      tag_60\n      jump\t// in\n    tag_112:\n        /* \"#utility.yul\":696:835   */\n      swap3\n      swap2\n      pop\n      pop\n      jump\t// out\n        /* \"#utility.yul\":841:1170   */\n    tag_8:\n        /* \"#utility.yul\":900:906   */\n      0x00\n        /* \"#utility.yul\":949:951   */\n      0x20\n        /* \"#utility.yul\":937:946   */\n      dup3\n        /* \"#utility.yul\":928:935   */\n      dup5\n        /* \"#utility.yul\":924:947   */\n      sub\n        /* \"#utility.yul\":920:952   */\n      slt\n        /* \"#utility.yul\":917:1036   */\n      iszero\n      tag_114\n      jumpi\n        /* \"#utility.yul\":955:1034   */\n      tag_115\n      tag_56\n      jump\t// in\n    tag_115:\n        /* \"#utility.yul\":917:1036   */\n    tag_114:\n        /* \"#utility.yul\":1075:1076   */\n      0x00\n        /* \"#utility.yul\":1100:1153   */\n      tag_116\n        /* \"#utility.yul\":1145:1152   */\n      dup5\n        /* \"#utility.yul\":1136:1142   */\n      dup3\n        /* \"#utility.yul\":1125:1134   */\n      dup6\n        /* \"#utility.yul\":1121:1143   */\n      add\n        /* \"#utility.yul\":1100:1153   */\n      tag_61\n      jump\t// in\n    tag_116:\n        /* \"#utility.yul\":1090:1153   */\n      swap2\n      pop\n        /* \"#utility.yul\":1046:1163   */\n      pop\n        /* \"#utility.yul\":841:1170   */\n      swap3\n      swap2\n      pop\n      pop\n      jump\t// out\n        /* \"#utility.yul\":1176:1294   */\n    tag_62:\n        /* \"#utility.yul\":1263:1287   */\n      tag_118\n        /* \"#utility.yul\":1281:1286   */\n      dup2\n        /* \"#utility.yul\":1263:1287   */\n      tag_59\n      jump\t// in\n    tag_118:\n        /* \"#utility.yul\":1258:1261   */\n      dup3\n        /* \"#utility.yul\":1251:1288   */\n      mstore\n        /* \"#utility.yul\":1176:1294   */\n      pop\n      pop\n      jump\t// out\n        /* \"#utility.yul\":1300:1399   */\n    tag_63:\n        /* \"#utility.yul\":1352:1358   */\n      0x00\n        /* \"#utility.yul\":1386:1391   */\n      dup2\n        /* \"#utility.yul\":1380:1392   */\n      mload\n        /* \"#utility.yul\":1370:1392   */\n      swap1\n      pop\n        /* \"#utility.yul\":1300:1399   */\n      swap2\n      swap1\n      pop\n      jump\t// out\n        /* \"#utility.yul\":1405:1574   */\n    tag_64:\n        /* \"#utility.yul\":1489:1500   */\n      0x00\n        /* \"#utility.yul\":1523:1529   */\n      dup3\n        /* \"#utility.yul\":1518:1521   */\n      dup3\n        /* \"#utility.yul\":1511:1530   */\n      mstore\n        /* \"#utility.yul\":1563:1567   */\n      0x20\n        /* \"#utility.yul\":1558:1561   */\n      dup3\n        /* \"#utility.yul\":1554:1568   */\n      add\n        /* \"#utility.yul\":1539:1568   */\n      swap1\n      pop\n        /* \"#utility.yul\":1405:1574   */\n      swap3\n      swap2\n      pop\n      pop\n      jump\t// out\n        /* \"#utility.yul\":1580:1719   */\n    tag_65:\n        /* \"#utility.yul\":1669:1675   */\n      dup3\n        /* \"#utility.yul\":1664:1667   */\n      dup2\n        /* \"#utility.yul\":1659:1662   */\n      dup4\n        /* \"#utility.yul\":1653:1676   */\n      mcopy\n        /* \"#utility.yul\":1710:1711   */\n      0x00\n        /* \"#utility.yul\":1701:1707   */\n      dup4\n        /* \"#utility.yul\":1696:1699   */\n      dup4\n        /* \"#utility.yul\":1692:1708   */\n      add\n        /* \"#utility.yul\":1685:1712   */\n      mstore\n        /* \"#utility.yul\":1580:1719   */\n      pop\n      pop\n      pop\n      jump\t// out\n        /* \"#utility.yul\":1725:1827   */\n    tag_66:\n        /* \"#utility.yul\":1766:1772   */\n      0x00\n        /* \"#utility.yul\":1817:1819   */\n      0x1f\n        /* \"#utility.yul\":1813:1820   */\n      not\n        /* \"#utility.yul\":1808:1810   */\n      0x1f\n        /* \"#utility.yul\":1801:1806   */\n      dup4\n        /* \"#utility.yul\":1797:1811   */\n      add\n        /* \"#utility.yul\":1793:1821   */\n      and\n        /* \"#utility.yul\":1783:1821   */\n      swap1\n      pop\n        /* \"#utility.yul\":1725:1827   */\n      swap2\n      swap1\n      pop\n      jump\t// out\n        /* \"#utility.yul\":1833:2210   */\n    tag_67:\n        /* \"#utility.yul\":1921:1924   */\n      0x00\n        /* \"#utility.yul\":1949:1988   */\n      tag_124\n        /* \"#utility.yul\":1982:1987   */\n      dup3\n        /* \"#utility.yul\":1949:1988   */\n      tag_63\n      jump\t// in\n    tag_124:\n        /* \"#utility.yul\":2004:2075   */\n      tag_125\n        /* \"#utility.yul\":2068:2074   */\n      dup2\n        /* \"#utility.yul\":2063:2066   */\n      dup6\n        /* \"#utility.yul\":2004:2075   */\n      tag_64\n      jump\t// in\n    tag_125:\n        /* \"#utility.yul\":1997:2075   */\n      swap4\n      pop\n        /* \"#utility.yul\":2084:2149   */\n      tag_126\n        /* \"#utility.yul\":2142:2148   */\n      dup2\n        /* \"#utility.yul\":2137:2140   */\n      dup6\n        /* \"#utility.yul\":2130:2134   */\n      0x20\n        /* \"#utility.yul\":2123:2128   */\n      dup7\n        /* \"#utility.yul\":2119:2135   */\n      add\n        /* \"#utility.yul\":2084:2149   */\n      tag_65\n      jump\t// in\n    tag_126:\n        /* \"#utility.yul\":2174:2203   */\n      tag_127\n        /* \"#utility.yul\":2196:2202   */\n      dup2\n        /* \"#utility.yul\":2174:2203   */\n      tag_66\n      jump\t// in\n    tag_127:\n        /* \"#utility.yul\":2169:2172   */\n      dup5\n        /* \"#utility.yul\":2165:2204   */\n      add\n        /* \"#utility.yul\":2158:2204   */\n      swap2\n      pop\n        /* \"#utility.yul\":1925:2210   */\n      pop\n        /* \"#utility.yul\":1833:2210   */\n      swap3\n      swap2\n      pop\n      pop\n      jump\t// out\n        /* \"#utility.yul\":2216:2293   */\n    tag_68:\n        /* \"#utility.yul\":2253:2260   */\n      0x00\n        /* \"#utility.yul\":2282:2287   */\n      dup2\n        /* \"#utility.yul\":2271:2287   */\n      swap1\n      pop\n        /* \"#utility.yul\":2216:2293   */\n      swap2\n      swap1\n      pop\n      jump\t// out\n        /* \"#utility.yul\":2299:2417   */\n    tag_69:\n        /* \"#utility.yul\":2386:2410   */\n      tag_130\n        /* \"#utility.yul\":2404:2409   */\n      dup2\n        /* \"#utility.yul\":2386:2410   */\n      tag_68\n      jump\t// in\n    tag_130:\n        /* \"#utility.yul\":2381:2384   */\n      dup3\n        /* \"#utility.yul\":2374:2411   */\n      mstore\n        /* \"#utility.yul\":2299:2417   */\n      pop\n      pop\n      jump\t// out\n        /* \"#utility.yul\":2423:2603   */\n    tag_34:\n        /* \"#utility.yul\":2471:2548   */\n      0x4e487b7100000000000000000000000000000000000000000000000000000000\n        /* \"#utility.yul\":2468:2469   */\n      0x00\n        /* \"#utility.yul\":2461:2549   */\n      mstore\n        /* \"#utility.yul\":2568:2572   */\n      0x21\n        /* \"#utility.yul\":2565:2566   */\n      0x04\n        /* \"#utility.yul\":2558:2573   */\n      mstore\n        /* \"#utility.yul\":2592:2596   */\n      0x24\n        /* \"#utility.yul\":2589:2590   */\n      0x00\n        /* \"#utility.yul\":2582:2597   */\n      revert\n        /* \"#utility.yul\":2609:2722   */\n    tag_70:\n        /* \"#utility.yul\":2690:2691   */\n      0x03\n        /* \"#utility.yul\":2683:2688   */\n      dup2\n        /* \"#utility.yul\":2680:2692   */\n      lt\n        /* \"#utility.yul\":2670:2716   */\n      tag_133\n      jumpi\n        /* \"#utility.yul\":2696:2714   */\n      tag_134\n      tag_34\n      jump\t// in\n    tag_134:\n        /* \"#utility.yul\":2670:2716   */\n    tag_133:\n        /* \"#utility.yul\":2609:2722   */\n      pop\n      jump\t// out\n        /* \"#utility.yul\":2728:2855   */\n    tag_71:\n        /* \"#utility.yul\":2773:2780   */\n      0x00\n        /* \"#utility.yul\":2802:2807   */\n      dup2\n        /* \"#utility.yul\":2791:2807   */\n      swap1\n      pop\n        /* \"#utility.yul\":2808:2849   */\n      tag_136\n        /* \"#utility.yul\":2843:2848   */\n      dup3\n        /* \"#utility.yul\":2808:2849   */\n      tag_70\n      jump\t// in\n    tag_136:\n        /* \"#utility.yul\":2728:2855   */\n      swap2\n      swap1\n      pop\n      jump\t// out\n        /* \"#utility.yul\":2861:2988   */\n    tag_72:\n        /* \"#utility.yul\":2917:2926   */\n      0x00\n        /* \"#utility.yul\":2950:2982   */\n      tag_138\n        /* \"#utility.yul\":2976:2981   */\n      dup3\n        /* \"#utility.yul\":2950:2982   */\n      tag_71\n      jump\t// in\n    tag_138:\n        /* \"#utility.yul\":2937:2982   */\n      swap1\n      pop\n        /* \"#utility.yul\":2861:2988   */\n      swap2\n      swap1\n      pop\n      jump\t// out\n        /* \"#utility.yul\":2994:3137   */\n    tag_73:\n        /* \"#utility.yul\":3087:3130   */\n      tag_140\n        /* \"#utility.yul\":3124:3129   */\n      dup2\n        /* \"#utility.yul\":3087:3130   */\n      tag_72\n      jump\t// in\n    tag_140:\n        /* \"#utility.yul\":3082:3085   */\n      dup3\n        /* \"#utility.yul\":3075:3131   */\n      mstore\n        /* \"#utility.yul\":2994:3137   */\n      pop\n      pop\n      jump\t// out\n        /* \"#utility.yul\":3143:4001   */\n    tag_11:\n        /* \"#utility.yul\":3394:3398   */\n      0x00\n        /* \"#utility.yul\":3432:3435   */\n      0xa0\n        /* \"#utility.yul\":3421:3430   */\n      dup3\n        /* \"#utility.yul\":3417:3436   */\n      add\n        /* \"#utility.yul\":3409:3436   */\n      swap1\n      pop\n        /* \"#utility.yul\":3446:3517   */\n      tag_142\n        /* \"#utility.yul\":3514:3515   */\n      0x00\n        /* \"#utility.yul\":3503:3512   */\n      dup4\n        /* \"#utility.yul\":3499:3516   */\n      add\n        /* \"#utility.yul\":3490:3496   */\n      dup9\n        /* \"#utility.yul\":3446:3517   */\n      tag_62\n      jump\t// in\n    tag_142:\n        /* \"#utility.yul\":3564:3573   */\n      dup2\n        /* \"#utility.yul\":3558:3562   */\n      dup2\n        /* \"#utility.yul\":3554:3574   */\n      sub\n        /* \"#utility.yul\":3549:3551   */\n      0x20\n        /* \"#utility.yul\":3538:3547   */\n      dup4\n        /* \"#utility.yul\":3534:3552   */\n      add\n        /* \"#utility.yul\":3527:3575   */\n      mstore\n        /* \"#utility.yul\":3592:3670   */\n      tag_143\n        /* \"#utility.yul\":3665:3669   */\n      dup2\n        /* \"#utility.yul\":3656:3662   */\n      dup8\n        /* \"#utility.yul\":3592:3670   */\n      tag_67\n      jump\t// in\n    tag_143:\n        /* \"#utility.yul\":3584:3670   */\n      swap1\n      pop\n        /* \"#utility.yul\":3680:3752   */\n      tag_144\n        /* \"#utility.yul\":3748:3750   */\n      0x40\n        /* \"#utility.yul\":3737:3746   */\n      dup4\n        /* \"#utility.yul\":3733:3751   */\n      add\n        /* \"#utility.yul\":3724:3730   */\n      dup7\n        /* \"#utility.yul\":3680:3752   */\n      tag_69\n      jump\t// in\n    tag_144:\n        /* \"#utility.yul\":3799:3808   */\n      dup2\n        /* \"#utility.yul\":3793:3797   */\n      dup2\n        /* \"#utility.yul\":3789:3809   */\n      sub\n        /* \"#utility.yul\":3784:3786   */\n      0x60\n        /* \"#utility.yul\":3773:3782   */\n      dup4\n        /* \"#utility.yul\":3769:3787   */\n      add\n        /* \"#utility.yul\":3762:3810   */\n      mstore\n        /* \"#utility.yul\":3827:3905   */\n      tag_145\n        /* \"#utility.yul\":3900:3904   */\n      dup2\n        /* \"#utility.yul\":3891:3897   */\n      dup6\n        /* \"#utility.yul\":3827:3905   */\n      tag_67\n      jump\t// in\n    tag_145:\n        /* \"#utility.yul\":3819:3905   */\n      swap1\n      pop\n        /* \"#utility.yul\":3915:3994   */\n      tag_146\n        /* \"#utility.yul\":3989:3992   */\n      0x80\n        /* \"#utility.yul\":3978:3987   */\n      dup4\n        /* \"#utility.yul\":3974:3993   */\n      add\n        /* \"#utility.yul\":3965:3971   */\n      dup5\n        /* \"#utility.yul\":3915:3994   */\n      tag_73\n      jump\t// in\n    tag_146:\n        /* \"#utility.yul\":3143:4001   */\n      swap7\n      swap6\n      pop\n      pop\n      pop\n      pop\n      pop\n      pop\n      jump\t// out\n        /* \"#utility.yul\":4007:4124   */\n    tag_74:\n        /* \"#utility.yul\":4116:4117   */\n      0x00\n        /* \"#utility.yul\":4113:4114   */\n      0x00\n        /* \"#utility.yul\":4106:4118   */\n      revert\n        /* \"#utility.yul\":4130:4247   */\n    tag_75:\n        /* \"#utility.yul\":4239:4240   */\n      0x00\n        /* \"#utility.yul\":4236:4237   */\n      0x00\n        /* \"#utility.yul\":4229:4241   */\n      revert\n        /* \"#utility.yul\":4253:4433   */\n    tag_76:\n        /* \"#utility.yul\":4301:4378   */\n      0x4e487b7100000000000000000000000000000000000000000000000000000000\n        /* \"#utility.yul\":4298:4299   */\n      0x00\n        /* \"#utility.yul\":4291:4379   */\n      mstore\n        /* \"#utility.yul\":4398:4402   */\n      0x41\n        /* \"#utility.yul\":4395:4396   */\n      0x04\n        /* \"#utility.yul\":4388:4403   */\n      mstore\n        /* \"#utility.yul\":4422:4426   */\n      0x24\n        /* \"#utility.yul\":4419:4420   */\n      0x00\n        /* \"#utility.yul\":4412:4427   */\n      revert\n        /* \"#utility.yul\":4439:4720   */\n    tag_77:\n        /* \"#utility.yul\":4522:4549   */\n      tag_151\n        /* \"#utility.yul\":4544:4548   */\n      dup3\n        /* \"#utility.yul\":4522:4549   */\n      tag_66\n      jump\t// in\n    tag_151:\n        /* \"#utility.yul\":4514:4520   */\n      dup2\n        /* \"#utility.yul\":4510:4550   */\n      add\n        /* \"#utility.yul\":4652:4658   */\n      dup2\n        /* \"#utility.yul\":4640:4650   */\n      dup2\n        /* \"#utility.yul\":4637:4659   */\n      lt\n        /* \"#utility.yul\":4616:4634   */\n      0xffffffffffffffff\n        /* \"#utility.yul\":4604:4614   */\n      dup3\n        /* \"#utility.yul\":4601:4635   */\n      gt\n        /* \"#utility.yul\":4598:4660   */\n      or\n        /* \"#utility.yul\":4595:4683   */\n      iszero\n      tag_152\n      jumpi\n        /* \"#utility.yul\":4663:4681   */\n      tag_153\n      tag_76\n      jump\t// in\n    tag_153:\n        /* \"#utility.yul\":4595:4683   */\n    tag_152:\n        /* \"#utility.yul\":4703:4713   */\n      dup1\n        /* \"#utility.yul\":4699:4701   */\n      0x40\n        /* \"#utility.yul\":4692:4714   */\n      mstore\n        /* \"#utility.yul\":4482:4720   */\n      pop\n        /* \"#utility.yul\":4439:4720   */\n      pop\n      pop\n      jump\t// out\n        /* \"#utility.yul\":4726:4855   */\n    tag_78:\n        /* \"#utility.yul\":4760:4766   */\n      0x00\n        /* \"#utility.yul\":4787:4807   */\n      tag_155\n      tag_55\n      jump\t// in\n    tag_155:\n        /* \"#utility.yul\":4777:4807   */\n      swap1\n      pop\n        /* \"#utility.yul\":4816:4849   */\n      tag_156\n        /* \"#utility.yul\":4844:4848   */\n      dup3\n        /* \"#utility.yul\":4836:4842   */\n      dup3\n        /* \"#utility.yul\":4816:4849   */\n      tag_77\n      jump\t// in\n    tag_156:\n        /* \"#utility.yul\":4726:4855   */\n      swap2\n      swap1\n      pop\n      jump\t// out\n        /* \"#utility.yul\":4861:5169   */\n    tag_79:\n        /* \"#utility.yul\":4923:4927   */\n      0x00\n        /* \"#utility.yul\":5013:5031   */\n      0xffffffffffffffff\n        /* \"#utility.yul\":5005:5011   */\n      dup3\n        /* \"#utility.yul\":5002:5032   */\n      gt\n        /* \"#utility.yul\":4999:5055   */\n      iszero\n      tag_158\n      jumpi\n        /* \"#utility.yul\":5035:5053   */\n      tag_159\n      tag_76\n      jump\t// in\n    tag_159:\n        /* \"#utility.yul\":4999:5055   */\n    tag_158:\n        /* \"#utility.yul\":5073:5102   */\n      tag_160\n        /* \"#utility.yul\":5095:5101   */\n      dup3\n        /* \"#utility.yul\":5073:5102   */\n      tag_66\n      jump\t// in\n    tag_160:\n        /* \"#utility.yul\":5065:5102   */\n      swap1\n      pop\n        /* \"#utility.yul\":5157:5161   */\n      0x20\n        /* \"#utility.yul\":5151:5155   */\n      dup2\n        /* \"#utility.yul\":5147:5162   */\n      add\n        /* \"#utility.yul\":5139:5162   */\n      swap1\n      pop\n        /* \"#utility.yul\":4861:5169   */\n      swap2\n      swap1\n      pop\n      jump\t// out\n        /* \"#utility.yul\":5175:5323   */\n    tag_80:\n        /* \"#utility.yul\":5273:5279   */\n      dup3\n        /* \"#utility.yul\":5268:5271   */\n      dup2\n        /* \"#utility.yul\":5263:5266   */\n      dup4\n        /* \"#utility.yul\":5250:5280   */\n      calldatacopy\n        /* \"#utility.yul\":5314:5315   */\n      0x00\n        /* \"#utility.yul\":5305:5311   */\n      dup4\n        /* \"#utility.yul\":5300:5303   */\n      dup4\n        /* \"#utility.yul\":5296:5312   */\n      add\n        /* \"#utility.yul\":5289:5316   */\n      mstore\n        /* \"#utility.yul\":5175:5323   */\n      pop\n      pop\n      pop\n      jump\t// out\n        /* \"#utility.yul\":5329:5754   */\n    tag_81:\n        /* \"#utility.yul\":5407:5412   */\n      0x00\n        /* \"#utility.yul\":5432:5498   */\n      tag_163\n        /* \"#utility.yul\":5448:5497   */\n      tag_164\n        /* \"#utility.yul\":5490:5496   */\n      dup5\n        /* \"#utility.yul\":5448:5497   */\n      tag_79\n      jump\t// in\n    tag_164:\n        /* \"#utility.yul\":5432:5498   */\n      tag_78\n      jump\t// in\n    tag_163:\n        /* \"#utility.yul\":5423:5498   */\n      swap1\n      pop\n        /* \"#utility.yul\":5521:5527   */\n      dup3\n        /* \"#utility.yul\":5514:5519   */\n      dup2\n        /* \"#utility.yul\":5507:5528   */\n      mstore\n        /* \"#utility.yul\":5559:5563   */\n      0x20\n        /* \"#utility.yul\":5552:5557   */\n      dup2\n        /* \"#utility.yul\":5548:5564   */\n      add\n        /* \"#utility.yul\":5597:5600   */\n      dup5\n        /* \"#utility.yul\":5588:5594   */\n      dup5\n        /* \"#utility.yul\":5583:5586   */\n      dup5\n        /* \"#utility.yul\":5579:5595   */\n      add\n        /* \"#utility.yul\":5576:5601   */\n      gt\n        /* \"#utility.yul\":5573:5685   */\n      iszero\n      tag_165\n      jumpi\n        /* \"#utility.yul\":5604:5683   */\n      tag_166\n      tag_75\n      jump\t// in\n    tag_166:\n        /* \"#utility.yul\":5573:5685   */\n    tag_165:\n        /* \"#utility.yul\":5694:5748   */\n      tag_167\n        /* \"#utility.yul\":5741:5747   */\n      dup5\n        /* \"#utility.yul\":5736:5739   */\n      dup3\n        /* \"#utility.yul\":5731:5734   */\n      dup6\n        /* \"#utility.yul\":5694:5748   */\n      tag_80\n      jump\t// in\n    tag_167:\n        /* \"#utility.yul\":5413:5754   */\n      pop\n        /* \"#utility.yul\":5329:5754   */\n      swap4\n      swap3\n      pop\n      pop\n      pop\n      jump\t// out\n        /* \"#utility.yul\":5774:6114   */\n    tag_82:\n        /* \"#utility.yul\":5830:5835   */\n      0x00\n        /* \"#utility.yul\":5879:5882   */\n      dup3\n        /* \"#utility.yul\":5872:5876   */\n      0x1f\n        /* \"#utility.yul\":5864:5870   */\n      dup4\n        /* \"#utility.yul\":5860:5877   */\n      add\n        /* \"#utility.yul\":5856:5883   */\n      slt\n        /* \"#utility.yul\":5846:5968   */\n      tag_169\n      jumpi\n        /* \"#utility.yul\":5887:5966   */\n      tag_170\n      tag_74\n      jump\t// in\n    tag_170:\n        /* \"#utility.yul\":5846:5968   */\n    tag_169:\n        /* \"#utility.yul\":6004:6010   */\n      dup2\n        /* \"#utility.yul\":5991:6011   */\n      calldataload\n        /* \"#utility.yul\":6029:6108   */\n      tag_171\n        /* \"#utility.yul\":6104:6107   */\n      dup5\n        /* \"#utility.yul\":6096:6102   */\n      dup3\n        /* \"#utility.yul\":6089:6093   */\n      0x20\n        /* \"#utility.yul\":6081:6087   */\n      dup7\n        /* \"#utility.yul\":6077:6094   */\n      add\n        /* \"#utility.yul\":6029:6108   */\n      tag_81\n      jump\t// in\n    tag_171:\n        /* \"#utility.yul\":6020:6108   */\n      swap2\n      pop\n        /* \"#utility.yul\":5836:6114   */\n      pop\n        /* \"#utility.yul\":5774:6114   */\n      swap3\n      swap2\n      pop\n      pop\n      jump\t// out\n        /* \"#utility.yul\":6120:6242   */\n    tag_83:\n        /* \"#utility.yul\":6193:6217   */\n      tag_173\n        /* \"#utility.yul\":6211:6216   */\n      dup2\n        /* \"#utility.yul\":6193:6217   */\n      tag_68\n      jump\t// in\n    tag_173:\n        /* \"#utility.yul\":6186:6191   */\n      dup2\n        /* \"#utility.yul\":6183:6218   */\n      eq\n        /* \"#utility.yul\":6173:6236   */\n      tag_174\n      jumpi\n        /* \"#utility.yul\":6232:6233   */\n      0x00\n        /* \"#utility.yul\":6229:6230   */\n      0x00\n        /* \"#utility.yul\":6222:6234   */\n      revert\n        /* \"#utility.yul\":6173:6236   */\n    tag_174:\n        /* \"#utility.yul\":6120:6242   */\n      pop\n      jump\t// out\n        /* \"#utility.yul\":6248:6387   */\n    tag_84:\n        /* \"#utility.yul\":6294:6299   */\n      0x00\n        /* \"#utility.yul\":6332:6338   */\n      dup2\n        /* \"#utility.yul\":6319:6339   */\n      calldataload\n        /* \"#utility.yul\":6310:6339   */\n      swap1\n      pop\n        /* \"#utility.yul\":6348:6381   */\n      tag_176\n        /* \"#utility.yul\":6375:6380   */\n      dup2\n        /* \"#utility.yul\":6348:6381   */\n      tag_83\n      jump\t// in\n    tag_176:\n        /* \"#utility.yul\":6248:6387   */\n      swap3\n      swap2\n      pop\n      pop\n      jump\t// out\n        /* \"#utility.yul\":6393:7372   */\n    tag_14:\n        /* \"#utility.yul\":6490:6496   */\n      0x00\n        /* \"#utility.yul\":6498:6504   */\n      0x00\n        /* \"#utility.yul\":6506:6512   */\n      0x00\n        /* \"#utility.yul\":6555:6557   */\n      0x60\n        /* \"#utility.yul\":6543:6552   */\n      dup5\n        /* \"#utility.yul\":6534:6541   */\n      dup7\n        /* \"#utility.yul\":6530:6553   */\n      sub\n        /* \"#utility.yul\":6526:6558   */\n      slt\n        /* \"#utility.yul\":6523:6642   */\n      iszero\n      tag_178\n      jumpi\n        /* \"#utility.yul\":6561:6640   */\n      tag_179\n      tag_56\n      jump\t// in\n    tag_179:\n        /* \"#utility.yul\":6523:6642   */\n    tag_178:\n        /* \"#utility.yul\":6709:6710   */\n      0x00\n        /* \"#utility.yul\":6698:6707   */\n      dup5\n        /* \"#utility.yul\":6694:6711   */\n      add\n        /* \"#utility.yul\":6681:6712   */\n      calldataload\n        /* \"#utility.yul\":6739:6757   */\n      0xffffffffffffffff\n        /* \"#utility.yul\":6731:6737   */\n      dup2\n        /* \"#utility.yul\":6728:6758   */\n      gt\n        /* \"#utility.yul\":6725:6842   */\n      iszero\n      tag_180\n      jumpi\n        /* \"#utility.yul\":6761:6840   */\n      tag_181\n      tag_57\n      jump\t// in\n    tag_181:\n        /* \"#utility.yul\":6725:6842   */\n    tag_180:\n        /* \"#utility.yul\":6866:6929   */\n      tag_182\n        /* \"#utility.yul\":6921:6928   */\n      dup7\n        /* \"#utility.yul\":6912:6918   */\n      dup3\n        /* \"#utility.yul\":6901:6910   */\n      dup8\n        /* \"#utility.yul\":6897:6919   */\n      add\n        /* \"#utility.yul\":6866:6929   */\n      tag_82\n      jump\t// in\n    tag_182:\n        /* \"#utility.yul\":6856:6929   */\n      swap4\n      pop\n        /* \"#utility.yul\":6652:6939   */\n      pop\n        /* \"#utility.yul\":6978:6980   */\n      0x20\n        /* \"#utility.yul\":7004:7057   */\n      tag_183\n        /* \"#utility.yul\":7049:7056   */\n      dup7\n        /* \"#utility.yul\":7040:7046   */\n      dup3\n        /* \"#utility.yul\":7029:7038   */\n      dup8\n        /* \"#utility.yul\":7025:7047   */\n      add\n        /* \"#utility.yul\":7004:7057   */\n      tag_84\n      jump\t// in\n    tag_183:\n        /* \"#utility.yul\":6994:7057   */\n      swap3\n      pop\n        /* \"#utility.yul\":6949:7067   */\n      pop\n        /* \"#utility.yul\":7134:7136   */\n      0x40\n        /* \"#utility.yul\":7123:7132   */\n      dup5\n        /* \"#utility.yul\":7119:7137   */\n      add\n        /* \"#utility.yul\":7106:7138   */\n      calldataload\n        /* \"#utility.yul\":7165:7183   */\n      0xffffffffffffffff\n        /* \"#utility.yul\":7157:7163   */\n      dup2\n        /* \"#utility.yul\":7154:7184   */\n      gt\n        /* \"#utility.yul\":7151:7268   */\n      iszero\n      tag_184\n      jumpi\n        /* \"#utility.yul\":7187:7266   */\n      tag_185\n      tag_57\n      jump\t// in\n    tag_185:\n        /* \"#utility.yul\":7151:7268   */\n    tag_184:\n        /* \"#utility.yul\":7292:7355   */\n      tag_186\n        /* \"#utility.yul\":7347:7354   */\n      dup7\n        /* \"#utility.yul\":7338:7344   */\n      dup3\n        /* \"#utility.yul\":7327:7336   */\n      dup8\n        /* \"#utility.yul\":7323:7345   */\n      add\n        /* \"#utility.yul\":7292:7355   */\n      tag_82\n      jump\t// in\n    tag_186:\n        /* \"#utility.yul\":7282:7355   */\n      swap2\n      pop\n        /* \"#utility.yul\":7077:7365   */\n      pop\n        /* \"#utility.yul\":6393:7372   */\n      swap3\n      pop\n      swap3\n      pop\n      swap3\n      jump\t// out\n        /* \"#utility.yul\":7378:7558   */\n    tag_85:\n        /* \"#utility.yul\":7426:7503   */\n      0x4e487b7100000000000000000000000000000000000000000000000000000000\n        /* \"#utility.yul\":7423:7424   */\n      0x00\n        /* \"#utility.yul\":7416:7504   */\n      mstore\n        /* \"#utility.yul\":7523:7527   */\n      0x22\n        /* \"#utility.yul\":7520:7521   */\n      0x04\n        /* \"#utility.yul\":7513:7528   */\n      mstore\n        /* \"#utility.yul\":7547:7551   */\n      0x24\n        /* \"#utility.yul\":7544:7545   */\n      0x00\n        /* \"#utility.yul\":7537:7552   */\n      revert\n        /* \"#utility.yul\":7564:7884   */\n    tag_22:\n        /* \"#utility.yul\":7608:7614   */\n      0x00\n        /* \"#utility.yul\":7645:7646   */\n      0x02\n        /* \"#utility.yul\":7639:7643   */\n      dup3\n        /* \"#utility.yul\":7635:7647   */\n      div\n        /* \"#utility.yul\":7625:7647   */\n      swap1\n      pop\n        /* \"#utility.yul\":7692:7693   */\n      0x01\n        /* \"#utility.yul\":7686:7690   */\n      dup3\n        /* \"#utility.yul\":7682:7694   */\n      and\n        /* \"#utility.yul\":7713:7731   */\n      dup1\n        /* \"#utility.yul\":7703:7784   */\n      tag_189\n      jumpi\n        /* \"#utility.yul\":7769:7773   */\n      0x7f\n        /* \"#utility.yul\":7761:7767   */\n      dup3\n        /* \"#utility.yul\":7757:7774   */\n      and\n        /* \"#utility.yul\":7747:7774   */\n      swap2\n      pop\n        /* \"#utility.yul\":7703:7784   */\n    tag_189:\n        /* \"#utility.yul\":7831:7833   */\n      0x20\n        /* \"#utility.yul\":7823:7829   */\n      dup3\n        /* \"#utility.yul\":7820:7834   */\n      lt\n        /* \"#utility.yul\":7800:7818   */\n      dup2\n        /* \"#utility.yul\":7797:7835   */\n      sub\n        /* \"#utility.yul\":7794:7878   */\n      tag_190\n      jumpi\n        /* \"#utility.yul\":7850:7868   */\n      tag_191\n      tag_85\n      jump\t// in\n    tag_191:\n        /* \"#utility.yul\":7794:7878   */\n    tag_190:\n        /* \"#utility.yul\":7615:7884   */\n      pop\n        /* \"#utility.yul\":7564:7884   */\n      swap2\n      swap1\n      pop\n      jump\t// out\n        /* \"#utility.yul\":7890:8031   */\n    tag_86:\n        /* \"#utility.yul\":7939:7943   */\n      0x00\n        /* \"#utility.yul\":7962:7965   */\n      dup2\n        /* \"#utility.yul\":7954:7965   */\n      swap1\n      pop\n        /* \"#utility.yul\":7985:7988   */\n      dup2\n        /* \"#utility.yul\":7982:7983   */\n      0x00\n        /* \"#utility.yul\":7975:7989   */\n      mstore\n        /* \"#utility.yul\":8019:8023   */\n      0x20\n        /* \"#utility.yul\":8016:8017   */\n      0x00\n        /* \"#utility.yul\":8006:8024   */\n      keccak256\n        /* \"#utility.yul\":7998:8024   */\n      swap1\n      pop\n        /* \"#utility.yul\":7890:8031   */\n      swap2\n      swap1\n      pop\n      jump\t// out\n        /* \"#utility.yul\":8037:8130   */\n    tag_87:\n        /* \"#utility.yul\":8074:8080   */\n      0x00\n        /* \"#utility.yul\":8121:8123   */\n      0x20\n        /* \"#utility.yul\":8116:8118   */\n      0x1f\n        /* \"#utility.yul\":8109:8114   */\n      dup4\n        /* \"#utility.yul\":8105:8119   */\n      add\n        /* \"#utility.yul\":8101:8124   */\n      div\n        /* \"#utility.yul\":8091:8124   */\n      swap1\n      pop\n        /* \"#utility.yul\":8037:8130   */\n      swap2\n      swap1\n      pop\n      jump\t// out\n        /* \"#utility.yul\":8136:8243   */\n    tag_88:\n        /* \"#utility.yul\":8180:8188   */\n      0x00\n        /* \"#utility.yul\":8230:8235   */\n      dup3\n        /* \"#utility.yul\":8224:8228   */\n      dup3\n        /* \"#utility.yul\":8220:8236   */\n      shl\n        /* \"#utility.yul\":8199:8236   */\n      swap1\n      pop\n        /* \"#utility.yul\":8136:8243   */\n      swap3\n      swap2\n      pop\n      pop\n      jump\t// out\n        /* \"#utility.yul\":8249:8642   */\n    tag_89:\n        /* \"#utility.yul\":8318:8324   */\n      0x00\n        /* \"#utility.yul\":8368:8369   */\n      0x08\n        /* \"#utility.yul\":8356:8366   */\n      dup4\n        /* \"#utility.yul\":8352:8370   */\n      mul\n        /* \"#utility.yul\":8391:8488   */\n      tag_196\n        /* \"#utility.yul\":8421:8487   */\n      0xffffffffffffffffffffffffffffffffffffffffffffffffffffffffffffffff\n        /* \"#utility.yul\":8410:8419   */\n      dup3\n        /* \"#utility.yul\":8391:8488   */\n      tag_88\n      jump\t// in\n    tag_196:\n        /* \"#utility.yul\":8509:8548   */\n      tag_197\n        /* \"#utility.yul\":8539:8547   */\n      dup7\n        /* \"#utility.yul\":8528:8537   */\n      dup4\n        /* \"#utility.yul\":8509:8548   */\n      tag_88\n      jump\t// in\n    tag_197:\n        /* \"#utility.yul\":8497:8548   */\n      swap6\n      pop\n        /* \"#utility.yul\":8581:8585   */\n      dup1\n        /* \"#utility.yul\":8577:8586   */\n      not\n        /* \"#utility.yul\":8570:8575   */\n      dup5\n        /* \"#utility.yul\":8566:8587   */\n      and\n        /* \"#utility.yul\":8557:8587   */\n      swap4\n      pop\n        /* \"#utility.yul\":8630:8634   */\n      dup1\n        /* \"#utility.yul\":8620:8628   */\n      dup7\n        /* \"#utility.yul\":8616:8635   */\n      and\n        /* \"#utility.yul\":8609:8614   */\n      dup5\n        /* \"#utility.yul\":8606:8636   */\n      or\n        /* \"#utility.yul\":8596:8636   */\n      swap3\n      pop\n        /* \"#utility.yul\":8325:8642   */\n      pop\n      pop\n        /* \"#utility.yul\":8249:8642   */\n      swap4\n      swap3\n      pop\n      pop\n      pop\n      jump\t// out\n        /* \"#utility.yul\":8648:8708   */\n    tag_90:\n        /* \"#utility.yul\":8676:8679   */\n      0x00\n        /* \"#utility.yul\":8697:8702   */\n      dup2\n        /* \"#utility.yul\":8690:8702   */\n      swap1\n      pop\n        /* \"#utility.yul\":8648:8708   */\n      swap2\n      swap1\n      pop\n      jump\t// out\n        /* \"#utility.yul\":8714:8856   */\n    tag_91:\n        /* \"#utility.yul\":8764:8773   */\n      0x00\n        /* \"#utility.yul\":8797:8850   */\n      tag_200\n        /* \"#utility.yul\":8815:8849   */\n      tag_201\n        /* \"#utility.yul\":8824:8848   */\n      tag_202\n        /* \"#utility.yul\":8842:8847   */\n      dup5\n        /* \"#utility.yul\":8824:8848   */\n      tag_68\n      jump\t// in\n    tag_202:\n        /* \"#utility.yul\":8815:8849   */\n      tag_90\n      jump\t// in\n    tag_201:\n        /* \"#utility.yul\":8797:8850   */\n      tag_68\n      jump\t// in\n    tag_200:\n        /* \"#utility.yul\":8784:8850   */\n      swap1\n      pop\n        /* \"#utility.yul\":8714:8856   */\n      swap2\n      swap1\n      pop\n      jump\t// out\n        /* \"#utility.yul\":8862:8937   */\n    tag_92:\n        /* \"#utility.yul\":8905:8908   */\n      0x00\n        /* \"#utility.yul\":8926:8931   */\n      dup2\n        /* \"#utility.yul\":8919:8931   */\n      swap1\n      pop\n        /* \"#utility.yul\":8862:8937   */\n      swap2\n      swap1\n      pop\n      jump\t// out\n        /* \"#utility.yul\":8943:9212   */\n    tag_93:\n        /* \"#utility.yul\":9053:9092   */\n      tag_205\n        /* \"#utility.yul\":9084:9091   */\n      dup4\n        /* \"#utility.yul\":9053:9092   */\n      tag_91\n      jump\t// in\n    tag_205:\n        /* \"#utility.yul\":9114:9205   */\n      tag_206\n        /* \"#utility.yul\":9163:9204   */\n      tag_207\n        /* \"#utility.yul\":9187:9203   */\n      dup3\n        /* \"#utility.yul\":9163:9204   */\n      tag_92\n      jump\t// in\n    tag_207:\n        /* \"#utility.yul\":9155:9161   */\n      dup5\n        /* \"#utility.yul\":9148:9152   */\n      dup5\n        /* \"#utility.yul\":9142:9153   */\n      sload\n        /* \"#utility.yul\":9114:9205   */\n      tag_89\n      jump\t// in\n    tag_206:\n        /* \"#utility.yul\":9108:9112   */\n      dup3\n        /* \"#utility.yul\":9101:9206   */\n      sstore\n        /* \"#utility.yul\":9019:9212   */\n      pop\n        /* \"#utility.yul\":8943:9212   */\n      pop\n      pop\n      pop\n      jump\t// out\n        /* \"#utility.yul\":9218:9291   */\n    tag_94:\n        /* \"#utility.yul\":9263:9266   */\n      0x00\n        /* \"#utility.yul\":9284:9285   */\n      0x00\n        /* \"#utility.yul\":9277:9285   */\n      swap1\n      pop\n        /* \"#utility.yul\":9218:9291   */\n      swap1\n      jump\t// out\n        /* \"#utility.yul\":9297:9486   */\n    tag_95:\n        /* \"#utility.yul\":9374:9406   */\n      tag_210\n      tag_94\n      jump\t// in\n    tag_210:\n        /* \"#utility.yul\":9415:9480   */\n      tag_211\n        /* \"#utility.yul\":9473:9479   */\n      dup2\n        /* \"#utility.yul\":9465:9471   */\n      dup5\n        /* \"#utility.yul\":9459:9463   */\n      dup5\n        /* \"#utility.yul\":9415:9480   */\n      tag_93\n      jump\t// in\n    tag_211:\n        /* \"#utility.yul\":9350:9486   */\n      pop\n        /* \"#utility.yul\":9297:9486   */\n      pop\n      pop\n      jump\t// out\n        /* \"#utility.yul\":9492:9678   */\n    tag_96:\n        /* \"#utility.yul\":9552:9672   */\n    tag_213:\n        /* \"#utility.yul\":9569:9572   */\n      dup2\n        /* \"#utility.yul\":9562:9567   */\n      dup2\n        /* \"#utility.yul\":9559:9573   */\n      lt\n        /* \"#utility.yul\":9552:9672   */\n      iszero\n      tag_215\n      jumpi\n        /* \"#utility.yul\":9623:9662   */\n      tag_216\n        /* \"#utility.yul\":9660:9661   */\n      0x00\n        /* \"#utility.yul\":9653:9658   */\n      dup3\n        /* \"#utility.yul\":9623:9662   */\n      tag_95\n      jump\t// in\n    tag_216:\n        /* \"#utility.yul\":9596:9597   */\n      0x01\n        /* \"#utility.yul\":9589:9594   */\n      dup2\n        /* \"#utility.yul\":9585:9598   */\n      add\n        /* \"#utility.yul\":9576:9598   */\n      swap1\n      pop\n        /* \"#utility.yul\":9552:9672   */\n      jump(tag_213)\n    tag_215:\n        /* \"#utility.yul\":9492:9678   */\n      pop\n      pop\n      jump\t// out\n        /* \"#utility.yul\":9684:10227   */\n    tag_97:\n        /* \"#utility.yul\":9785:9787   */\n      0x1f\n        /* \"#utility.yul\":9780:9783   */\n      dup3\n        /* \"#utility.yul\":9777:9788   */\n      gt\n        /* \"#utility.yul\":9774:10220   */\n      iszero\n      tag_218\n      jumpi\n        /* \"#utility.yul\":9819:9857   */\n      tag_219\n        /* \"#utility.yul\":9851:9856   */\n      dup2\n        /* \"#utility.yul\":9819:9857   */\n      tag_86\n      jump\t// in\n    tag_219:\n        /* \"#utility.yul\":9903:9932   */\n      tag_220\n        /* \"#utility.yul\":9921:9931   */\n      dup5\n        /* \"#utility.yul\":9903:9932   */\n      tag_87\n      jump\t// in\n    tag_220:\n        /* \"#utility.yul\":9893:9901   */\n      dup2\n        /* \"#utility.yul\":9889:9933   */\n      add\n        /* \"#utility.yul\":10086:10088   */\n      0x20\n        /* \"#utility.yul\":10074:10084   */\n      dup6\n        /* \"#utility.yul\":10071:10089   */\n      lt\n        /* \"#utility.yul\":10068:10117   */\n      iszero\n      tag_221\n      jumpi\n        /* \"#utility.yul\":10107:10115   */\n      dup2\n        /* \"#utility.yul\":10092:10115   */\n      swap1\n      pop\n        /* \"#utility.yul\":10068:10117   */\n    tag_221:\n        /* \"#utility.yul\":10130:10210   */\n      tag_222\n        /* \"#utility.yul\":10186:10208   */\n      tag_223\n        /* \"#utility.yul\":10204:10207   */\n      dup6\n        /* \"#utility.yul\":10186:10208   */\n      tag_87\n      jump\t// in\n    tag_223:\n        /* \"#utility.yul\":10176:10184   */\n      dup4\n        /* \"#utility.yul\":10172:10209   */\n      add\n        /* \"#utility.yul\":10159:10170   */\n      dup3\n        /* \"#utility.yul\":10130:10210   */\n      tag_96\n      jump\t// in\n    tag_222:\n        /* \"#utility.yul\":9789:10220   */\n      pop\n      pop\n        /* \"#utility.yul\":9774:10220   */\n    tag_218:\n        /* \"#utility.yul\":9684:10227   */\n      pop\n      pop\n      pop\n      jump\t// out\n        /* \"#utility.yul\":10233:10350   */\n    tag_98:\n        /* \"#utility.yul\":10287:10295   */\n      0x00\n        /* \"#utility.yul\":10337:10342   */\n      dup3\n        /* \"#utility.yul\":10331:10335   */\n      dup3\n        /* \"#utility.yul\":10327:10343   */\n      shr\n        /* \"#utility.yul\":10306:10343   */\n      swap1\n      pop\n        /* \"#utility.yul\":10233:10350   */\n      swap3\n      swap2\n      pop\n      pop\n      jump\t// out\n        /* \"#utility.yul\":10356:10525   */\n    tag_99:\n        /* \"#utility.yul\":10400:10406   */\n      0x00\n        /* \"#utility.yul\":10433:10484   */\n      tag_226\n        /* \"#utility.yul\":10481:10482   */\n      0x00\n        /* \"#utility.yul\":10477:10483   */\n      not\n        /* \"#utility.yul\":10469:10474   */\n      dup5\n        /* \"#utility.yul\":10466:10467   */\n      0x08\n        /* \"#utility.yul\":10462:10475   */\n      mul\n        /* \"#utility.yul\":10433:10484   */\n      tag_98\n      jump\t// in\n    tag_226:\n        /* \"#utility.yul\":10429:10485   */\n      not\n        /* \"#utility.yul\":10514:10518   */\n      dup1\n        /* \"#utility.yul\":10508:10512   */\n      dup4\n        /* \"#utility.yul\":10504:10519   */\n      and\n        /* \"#utility.yul\":10494:10519   */\n      swap2\n      pop\n        /* \"#utility.yul\":10407:10525   */\n      pop\n        /* \"#utility.yul\":10356:10525   */\n      swap3\n      swap2\n      pop\n      pop\n      jump\t// out\n        /* \"#utility.yul\":10530:10825   */\n    tag_100:\n        /* \"#utility.yul\":10606:10610   */\n      0x00\n        /* \"#utility.yul\":10752:10781   */\n      tag_228\n        /* \"#utility.yul\":10777:10780   */\n      dup4\n        /* \"#utility.yul\":10771:10775   */\n      dup4\n        /* \"#utility.yul\":10752:10781   */\n      tag_99\n      jump\t// in\n    tag_228:\n        /* \"#utility.yul\":10744:10781   */\n      swap2\n      pop\n        /* \"#utility.yul\":10814:10817   */\n      dup3\n        /* \"#utility.yul\":10811:10812   */\n      0x02\n        /* \"#utility.yul\":10807:10818   */\n      mul\n        /* \"#utility.yul\":10801:10805   */\n      dup3\n        /* \"#utility.yul\":10798:10819   */\n      or\n        /* \"#utility.yul\":10790:10819   */\n      swap1\n      pop\n        /* \"#utility.yul\":10530:10825   */\n      swap3\n      swap2\n      pop\n      pop\n      jump\t// out\n        /* \"#utility.yul\":10830:12225   */\n    tag_41:\n        /* \"#utility.yul\":10947:10984   */\n      tag_230\n        /* \"#utility.yul\":10980:10983   */\n      dup3\n        /* \"#utility.yul\":10947:10984   */\n      tag_63\n      jump\t// in\n    tag_230:\n        /* \"#utility.yul\":11049:11067   */\n      0xffffffffffffffff\n        /* \"#utility.yul\":11041:11047   */\n      dup2\n        /* \"#utility.yul\":11038:11068   */\n      gt\n        /* \"#utility.yul\":11035:11091   */\n      iszero\n      tag_231\n      jumpi\n        /* \"#utility.yul\":11071:11089   */\n      tag_232\n      tag_76\n      jump\t// in\n    tag_232:\n        /* \"#utility.yul\":11035:11091   */\n    tag_231:\n        /* \"#utility.yul\":11115:11153   */\n      tag_233\n        /* \"#utility.yul\":11147:11151   */\n      dup3\n        /* \"#utility.yul\":11141:11152   */\n      sload\n        /* \"#utility.yul\":11115:11153   */\n      tag_22\n      jump\t// in\n    tag_233:\n        /* \"#utility.yul\":11200:11267   */\n      tag_234\n        /* \"#utility.yul\":11260:11266   */\n      dup3\n        /* \"#utility.yul\":11252:11258   */\n      dup3\n        /* \"#utility.yul\":11246:11250   */\n      dup6\n        /* \"#utility.yul\":11200:11267   */\n      tag_97\n      jump\t// in\n    tag_234:\n        /* \"#utility.yul\":11294:11295   */\n      0x00\n        /* \"#utility.yul\":11318:11322   */\n      0x20\n        /* \"#utility.yul\":11305:11322   */\n      swap1\n      pop\n        /* \"#utility.yul\":11350:11352   */\n      0x1f\n        /* \"#utility.yul\":11342:11348   */\n      dup4\n        /* \"#utility.yul\":11339:11353   */\n      gt\n        /* \"#utility.yul\":11367:11368   */\n      0x01\n        /* \"#utility.yul\":11362:11980   */\n      dup2\n      eq\n      tag_236\n      jumpi\n        /* \"#utility.yul\":12024:12025   */\n      0x00\n        /* \"#utility.yul\":12041:12047   */\n      dup5\n        /* \"#utility.yul\":12038:12115   */\n      iszero\n      tag_237\n      jumpi\n        /* \"#utility.yul\":12090:12099   */\n      dup3\n        /* \"#utility.yul\":12085:12088   */\n      dup8\n        /* \"#utility.yul\":12081:12100   */\n      add\n        /* \"#utility.yul\":12075:12101   */\n      mload\n        /* \"#utility.yul\":12066:12101   */\n      swap1\n      pop\n        /* \"#utility.yul\":12038:12115   */\n    tag_237:\n        /* \"#utility.yul\":12141:12208   */\n      tag_238\n        /* \"#utility.yul\":12201:12207   */\n      dup6\n        /* \"#utility.yul\":12194:12199   */\n      dup3\n        /* \"#utility.yul\":12141:12208   */\n      tag_100\n      jump\t// in\n    tag_238:\n        /* \"#utility.yul\":12135:12139   */\n      dup7\n        /* \"#utility.yul\":12128:12209   */\n      sstore\n        /* \"#utility.yul\":11997:12219   */\n      pop\n        /* \"#utility.yul\":11332:12219   */\n      jump(tag_235)\n        /* \"#utility.yul\":11362:11980   */\n    tag_236:\n        /* \"#utility.yul\":11414:11418   */\n      0x1f\n        /* \"#utility.yul\":11410:11419   */\n      not\n        /* \"#utility.yul\":11402:11408   */\n      dup5\n        /* \"#utility.yul\":11398:11420   */\n      and\n        /* \"#utility.yul\":11448:11485   */\n      tag_239\n        /* \"#utility.yul\":11480:11484   */\n      dup7\n        /* \"#utility.yul\":11448:11485   */\n      tag_86\n      jump\t// in\n    tag_239:\n        /* \"#utility.yul\":11507:11508   */\n      0x00\n        /* \"#utility.yul\":11521:11729   */\n    tag_240:\n        /* \"#utility.yul\":11535:11542   */\n      dup3\n        /* \"#utility.yul\":11532:11533   */\n      dup2\n        /* \"#utility.yul\":11529:11543   */\n      lt\n        /* \"#utility.yul\":11521:11729   */\n      iszero\n      tag_242\n      jumpi\n        /* \"#utility.yul\":11614:11623   */\n      dup5\n        /* \"#utility.yul\":11609:11612   */\n      dup10\n        /* \"#utility.yul\":11605:11624   */\n      add\n        /* \"#utility.yul\":11599:11625   */\n      mload\n        /* \"#utility.yul\":11591:11597   */\n      dup3\n        /* \"#utility.yul\":11584:11626   */\n      sstore\n        /* \"#utility.yul\":11665:11666   */\n      0x01\n        /* \"#utility.yul\":11657:11663   */\n      dup3\n        /* \"#utility.yul\":11653:11667   */\n      add\n        /* \"#utility.yul\":11643:11667   */\n      swap2\n      pop\n        /* \"#utility.yul\":11712:11714   */\n      0x20\n        /* \"#utility.yul\":11701:11710   */\n      dup6\n        /* \"#utility.yul\":11697:11715   */\n      add\n        /* \"#utility.yul\":11684:11715   */\n      swap5\n      pop\n        /* \"#utility.yul\":11558:11562   */\n      0x20\n        /* \"#utility.yul\":11555:11556   */\n      dup2\n        /* \"#utility.yul\":11551:11563   */\n      add\n        /* \"#utility.yul\":11546:11563   */\n      swap1\n      pop\n        /* \"#utility.yul\":11521:11729   */\n      jump(tag_240)\n    tag_242:\n        /* \"#utility.yul\":11757:11763   */\n      dup7\n        /* \"#utility.yul\":11748:11755   */\n      dup4\n        /* \"#utility.yul\":11745:11764   */\n      lt\n        /* \"#utility.yul\":11742:11921   */\n      iszero\n      tag_243\n      jumpi\n        /* \"#utility.yul\":11815:11824   */\n      dup5\n        /* \"#utility.yul\":11810:11813   */\n      dup10\n        /* \"#utility.yul\":11806:11825   */\n      add\n        /* \"#utility.yul\":11800:11826   */\n      mload\n        /* \"#utility.yul\":11858:11906   */\n      tag_244\n        /* \"#utility.yul\":11900:11904   */\n      0x1f\n        /* \"#utility.yul\":11892:11898   */\n      dup10\n        /* \"#utility.yul\":11888:11905   */\n      and\n        /* \"#utility.yul\":11877:11886   */\n      dup3\n        /* \"#utility.yul\":11858:11906   */\n      tag_99\n      jump\t// in\n    tag_244:\n        /* \"#utility.yul\":11850:11856   */\n      dup4\n        /* \"#utility.yul\":11843:11907   */\n      sstore\n        /* \"#utility.yul\":11765:11921   */\n      pop\n        /* \"#utility.yul\":11742:11921   */\n    tag_243:\n        /* \"#utility.yul\":11967:11968   */\n      0x01\n        /* \"#utility.yul\":11963:11964   */\n      0x02\n        /* \"#utility.yul\":11955:11961   */\n      dup9\n        /* \"#utility.yul\":11951:11965   */\n      mul\n        /* \"#utility.yul\":11947:11969   */\n      add\n        /* \"#utility.yul\":11941:11945   */\n      dup9\n        /* \"#utility.yul\":11934:11970   */\n      sstore\n        /* \"#utility.yul\":11369:11980   */\n      pop\n      pop\n      pop\n        /* \"#utility.yul\":11332:12219   */\n    tag_235:\n      pop\n        /* \"#utility.yul\":10922:12225   */\n      pop\n      pop\n      pop\n        /* \"#utility.yul\":10830:12225   */\n      pop\n      pop\n      jump\t// out\n\n    auxdata: 0xa2646970667358221220d953b3e982ce476418a0d6abc92625c3238e6883cfe03f9f8ecb4bf8dfaf8fe064736f6c634300081e0033\n}\n",
				"bytecode": {
					"linkReferences": {},
					"object": "6080604052348015600e575f5ffd5b50610c7f8061001c5f395ff3fe608060405234801561000f575f5ffd5b506004361061003f575f3560e01c80635c12cd4b14610043578063aab48c5214610077578063e2eb41ff14610093575b5f5ffd5b61005d6004803603810190610058919061060b565b6100c7565b60405161006e959493929190610740565b60405180910390f35b610091600480360381019061008c91906108f5565b6102fc565b005b6100ad60048036038101906100a8919061060b565b610438565b6040516100be959493929190610740565b60405180910390f35b5f60605f60605f5f5f5f8873ffffffffffffffffffffffffffffffffffffffff1673ffffffffffffffffffffffffffffffffffffffff1681526020019081526020015f206040518060a00160405290815f82015f9054906101000a900473ffffffffffffffffffffffffffffffffffffffff1673ffffffffffffffffffffffffffffffffffffffff1673ffffffffffffffffffffffffffffffffffffffff16815260200160018201805461017a906109aa565b80601f01602080910402602001604051908101604052809291908181526020018280546101a6906109aa565b80156101f15780601f106101c8576101008083540402835291602001916101f1565b820191905f5260205f20905b8154815290600101906020018083116101d457829003601f168201915b5050505050815260200160028201548152602001600382018054610214906109aa565b80601f0160208091040260200160405190810160405280929190818152602001828054610240906109aa565b801561028b5780601f106102625761010080835404028352916020019161028b565b820191905f5260205f20905b81548152906001019060200180831161026e57829003601f168201915b50505050508152602001600482015f9054906101000a900460ff1660028111156102b8576102b76106cd565b5b60028111156102ca576102c96106cd565b5b815250509050805f01518160200151826040015183606001518460800151955095509550955095505091939590929450565b6040518060a001604052803373ffffffffffffffffffffffffffffffffffffffff1681526020018481526020018381526020018281526020015f6002811115610348576103476106cd565b5b8152505f5f3373ffffffffffffffffffffffffffffffffffffffff1673ffffffffffffffffffffffffffffffffffffffff1681526020019081526020015f205f820151815f015f6101000a81548173ffffffffffffffffffffffffffffffffffffffff021916908373ffffffffffffffffffffffffffffffffffffffff16021790555060208201518160010190816103e09190610b7a565b506040820151816002015560608201518160030190816104009190610b7a565b506080820151816004015f6101000a81548160ff0219169083600281111561042b5761042a6106cd565b5b0217905550905050505050565b5f602052805f5260405f205f91509050805f015f9054906101000a900473ffffffffffffffffffffffffffffffffffffffff169080600101805461047b906109aa565b80601f01602080910402602001604051908101604052809291908181526020018280546104a7906109aa565b80156104f25780601f106104c9576101008083540402835291602001916104f2565b820191905f5260205f20905b8154815290600101906020018083116104d557829003601f168201915b50505050509080600201549080600301805461050d906109aa565b80601f0160208091040260200160405190810160405280929190818152602001828054610539906109aa565b80156105845780601f1061055b57610100808354040283529160200191610584565b820191905f5260205f20905b81548152906001019060200180831161056757829003601f168201915b505050505090806004015f9054906101000a900460ff16905085565b5f604051905090565b5f5ffd5b5f5ffd5b5f73ffffffffffffffffffffffffffffffffffffffff82169050919050565b5f6105da826105b1565b9050919050565b6105ea816105d0565b81146105f4575f5ffd5b50565b5f81359050610605816105e1565b92915050565b5f602082840312156106205761061f6105a9565b5b5f61062d848285016105f7565b91505092915050565b61063f816105d0565b82525050565b5f81519050919050565b5f82825260208201905092915050565b8281835e5f83830152505050565b5f601f19601f8301169050919050565b5f61068782610645565b610691818561064f565b93506106a181856020860161065f565b6106aa8161066d565b840191505092915050565b5f819050919050565b6106c7816106b5565b82525050565b7f4e487b71000000000000000000000000000000000000000000000000000000005f52602160045260245ffd5b6003811061070b5761070a6106cd565b5b50565b5f81905061071b826106fa565b919050565b5f61072a8261070e565b9050919050565b61073a81610720565b82525050565b5f60a0820190506107535f830188610636565b8181036020830152610765818761067d565b905061077460408301866106be565b8181036060830152610786818561067d565b90506107956080830184610731565b9695505050505050565b5f5ffd5b5f5ffd5b7f4e487b71000000000000000000000000000000000000000000000000000000005f52604160045260245ffd5b6107dd8261066d565b810181811067ffffffffffffffff821117156107fc576107fb6107a7565b5b80604052505050565b5f61080e6105a0565b905061081a82826107d4565b919050565b5f67ffffffffffffffff821115610839576108386107a7565b5b6108428261066d565b9050602081019050919050565b828183375f83830152505050565b5f61086f61086a8461081f565b610805565b90508281526020810184848401111561088b5761088a6107a3565b5b61089684828561084f565b509392505050565b5f82601f8301126108b2576108b161079f565b5b81356108c284826020860161085d565b91505092915050565b6108d4816106b5565b81146108de575f5ffd5b50565b5f813590506108ef816108cb565b92915050565b5f5f5f6060848603121561090c5761090b6105a9565b5b5f84013567ffffffffffffffff811115610929576109286105ad565b5b6109358682870161089e565b9350506020610946868287016108e1565b925050604084013567ffffffffffffffff811115610967576109666105ad565b5b6109738682870161089e565b9150509250925092565b7f4e487b71000000000000000000000000000000000000000000000000000000005f52602260045260245ffd5b5f60028204905060018216806109c157607f821691505b6020821081036109d4576109d361097d565b5b50919050565b5f819050815f5260205f209050919050565b5f6020601f8301049050919050565b5f82821b905092915050565b5f60088302610a367fffffffffffffffffffffffffffffffffffffffffffffffffffffffffffffffff826109fb565b610a4086836109fb565b95508019841693508086168417925050509392505050565b5f819050919050565b5f610a7b610a76610a71846106b5565b610a58565b6106b5565b9050919050565b5f819050919050565b610a9483610a61565b610aa8610aa082610a82565b848454610a07565b825550505050565b5f5f905090565b610abf610ab0565b610aca818484610a8b565b505050565b5b81811015610aed57610ae25f82610ab7565b600181019050610ad0565b5050565b601f821115610b3257610b03816109da565b610b0c846109ec565b81016020851015610b1b578190505b610b2f610b27856109ec565b830182610acf565b50505b505050565b5f82821c905092915050565b5f610b525f1984600802610b37565b1980831691505092915050565b5f610b6a8383610b43565b9150826002028217905092915050565b610b8382610645565b67ffffffffffffffff811115610b9c57610b9b6107a7565b5b610ba682546109aa565b610bb1828285610af1565b5f60209050601f831160018114610be2575f8415610bd0578287015190505b610bda8582610b5f565b865550610c41565b601f198416610bf0866109da565b5f5b82811015610c1757848901518255600182019150602085019450602081019050610bf2565b86831015610c345784890151610c30601f891682610b43565b8355505b6001600288020188555050505b50505050505056fea2646970667358221220d953b3e982ce476418a0d6abc92625c3238e6883cfe03f9f8ecb4bf8dfaf8fe064736f6c634300081e0033",
					"opcodes": "PUSH1 0x80 PUSH1 0x40 MSTORE CALLVALUE DUP1 ISZERO PUSH1 0xE JUMPI PUSH0 PUSH0 REVERT JUMPDEST POP PUSH2 0xC7F DUP1 PUSH2 0x1C PUSH0 CODECOPY PUSH0 RETURN INVALID PUSH1 0x80 PUSH1 0x40 MSTORE CALLVALUE DUP1 ISZERO PUSH2 0xF JUMPI PUSH0 PUSH0 REVERT JUMPDEST POP PUSH1 0x4 CALLDATASIZE LT PUSH2 0x3F JUMPI PUSH0 CALLDATALOAD PUSH1 0xE0 SHR DUP1 PUSH4 0x5C12CD4B EQ PUSH2 0x43 JUMPI DUP1 PUSH4 0xAAB48C52 EQ PUSH2 0x77 JUMPI DUP1 PUSH4 0xE2EB41FF EQ PUSH2 0x93 JUMPI JUMPDEST PUSH0 PUSH0 REVERT JUMPDEST PUSH2 0x5D PUSH1 0x4 DUP1 CALLDATASIZE SUB DUP2 ADD SWAP1 PUSH2 0x58 SWAP2 SWAP1 PUSH2 0x60B JUMP JUMPDEST PUSH2 0xC7 JUMP JUMPDEST PUSH1 0x40 MLOAD PUSH2 0x6E SWAP6 SWAP5 SWAP4 SWAP3 SWAP2 SWAP1 PUSH2 0x740 JUMP JUMPDEST PUSH1 0x40 MLOAD DUP1 SWAP2 SUB SWAP1 RETURN JUMPDEST PUSH2 0x91 PUSH1 0x4 DUP1 CALLDATASIZE SUB DUP2 ADD SWAP1 PUSH2 0x8C SWAP2 SWAP1 PUSH2 0x8F5 JUMP JUMPDEST PUSH2 0x2FC JUMP JUMPDEST STOP JUMPDEST PUSH2 0xAD PUSH1 0x4 DUP1 CALLDATASIZE SUB DUP2 ADD SWAP1 PUSH2 0xA8 SWAP2 SWAP1 PUSH2 0x60B JUMP JUMPDEST PUSH2 0x438 JUMP JUMPDEST PUSH1 0x40 MLOAD PUSH2 0xBE SWAP6 SWAP5 SWAP4 SWAP3 SWAP2 SWAP1 PUSH2 0x740 JUMP JUMPDEST PUSH1 0x40 MLOAD DUP1 SWAP2 SUB SWAP1 RETURN JUMPDEST PUSH0 PUSH1 0x60 PUSH0 PUSH1 0x60 PUSH0 PUSH0 PUSH0 PUSH0 DUP9 PUSH20 0xFFFFFFFFFFFFFFFFFFFFFFFFFFFFFFFFFFFFFFFF AND PUSH20 0xFFFFFFFFFFFFFFFFFFFFFFFFFFFFFFFFFFFFFFFF AND DUP2 MSTORE PUSH1 0x20 ADD SWAP1 DUP2 MSTORE PUSH1 0x20 ADD PUSH0 KECCAK256 PUSH1 0x40 MLOAD DUP1 PUSH1 0xA0 ADD PUSH1 0x40 MSTORE SWAP1 DUP2 PUSH0 DUP3 ADD PUSH0 SWAP1 SLOAD SWAP1 PUSH2 0x100 EXP SWAP1 DIV PUSH20 0xFFFFFFFFFFFFFFFFFFFFFFFFFFFFFFFFFFFFFFFF AND PUSH20 0xFFFFFFFFFFFFFFFFFFFFFFFFFFFFFFFFFFFFFFFF AND PUSH20 0xFFFFFFFFFFFFFFFFFFFFFFFFFFFFFFFFFFFFFFFF AND DUP2 MSTORE PUSH1 0x20 ADD PUSH1 0x1 DUP3 ADD DUP1 SLOAD PUSH2 0x17A SWAP1 PUSH2 0x9AA JUMP JUMPDEST DUP1 PUSH1 0x1F ADD PUSH1 0x20 DUP1 SWAP2 DIV MUL PUSH1 0x20 ADD PUSH1 0x40 MLOAD SWAP1 DUP2 ADD PUSH1 0x40 MSTORE DUP1 SWAP3 SWAP2 SWAP1 DUP2 DUP2 MSTORE PUSH1 0x20 ADD DUP3 DUP1 SLOAD PUSH2 0x1A6 SWAP1 PUSH2 0x9AA JUMP JUMPDEST DUP1 ISZERO PUSH2 0x1F1 JUMPI DUP1 PUSH1 0x1F LT PUSH2 0x1C8 JUMPI PUSH2 0x100 DUP1 DUP4 SLOAD DIV MUL DUP4 MSTORE SWAP2 PUSH1 0x20 ADD SWAP2 PUSH2 0x1F1 JUMP JUMPDEST DUP3 ADD SWAP2 SWAP1 PUSH0 MSTORE PUSH1 0x20 PUSH0 KECCAK256 SWAP1 JUMPDEST DUP2 SLOAD DUP2 MSTORE SWAP1 PUSH1 0x1 ADD SWAP1 PUSH1 0x20 ADD DUP1 DUP4 GT PUSH2 0x1D4 JUMPI DUP3 SWAP1 SUB PUSH1 0x1F AND DUP3 ADD SWAP2 JUMPDEST POP POP POP POP POP DUP2 MSTORE PUSH1 0x20 ADD PUSH1 0x2 DUP3 ADD SLOAD DUP2 MSTORE PUSH1 0x20 ADD PUSH1 0x3 DUP3 ADD DUP1 SLOAD PUSH2 0x214 SWAP1 PUSH2 0x9AA JUMP JUMPDEST DUP1 PUSH1 0x1F ADD PUSH1 0x20 DUP1 SWAP2 DIV MUL PUSH1 0x20 ADD PUSH1 0x40 MLOAD SWAP1 DUP2 ADD PUSH1 0x40 MSTORE DUP1 SWAP3 SWAP2 SWAP1 DUP2 DUP2 MSTORE PUSH1 0x20 ADD DUP3 DUP1 SLOAD PUSH2 0x240 SWAP1 PUSH2 0x9AA JUMP JUMPDEST DUP1 ISZERO PUSH2 0x28B JUMPI DUP1 PUSH1 0x1F LT PUSH2 0x262 JUMPI PUSH2 0x100 DUP1 DUP4 SLOAD DIV MUL DUP4 MSTORE SWAP2 PUSH1 0x20 ADD SWAP2 PUSH2 0x28B JUMP JUMPDEST DUP3 ADD SWAP2 SWAP1 PUSH0 MSTORE PUSH1 0x20 PUSH0 KECCAK256 SWAP1 JUMPDEST DUP2 SLOAD DUP2 MSTORE SWAP1 PUSH1 0x1 ADD SWAP1 PUSH1 0x20 ADD DUP1 DUP4 GT PUSH2 0x26E JUMPI DUP3 SWAP1 SUB PUSH1 0x1F AND DUP3 ADD SWAP2 JUMPDEST POP POP POP POP POP DUP2 MSTORE PUSH1 0x20 ADD PUSH1 0x4 DUP3 ADD PUSH0 SWAP1 SLOAD SWAP1 PUSH2 0x100 EXP SWAP1 DIV PUSH1 0xFF AND PUSH1 0x2 DUP2 GT ISZERO PUSH2 0x2B8 JUMPI PUSH2 0x2B7 PUSH2 0x6CD JUMP JUMPDEST JUMPDEST PUSH1 0x2 DUP2 GT ISZERO PUSH2 0x2CA JUMPI PUSH2 0x2C9 PUSH2 0x6CD JUMP JUMPDEST JUMPDEST DUP2 MSTORE POP POP SWAP1 POP DUP1 PUSH0 ADD MLOAD DUP2 PUSH1 0x20 ADD MLOAD DUP3 PUSH1 0x40 ADD MLOAD DUP4 PUSH1 0x60 ADD MLOAD DUP5 PUSH1 0x80 ADD MLOAD SWAP6 POP SWAP6 POP SWAP6 POP SWAP6 POP SWAP6 POP POP SWAP2 SWAP4 SWAP6 SWAP1 SWAP3 SWAP5 POP JUMP JUMPDEST PUSH1 0x40 MLOAD DUP1 PUSH1 0xA0 ADD PUSH1 0x40 MSTORE DUP1 CALLER PUSH20 0xFFFFFFFFFFFFFFFFFFFFFFFFFFFFFFFFFFFFFFFF AND DUP2 MSTORE PUSH1 0x20 ADD DUP5 DUP2 MSTORE PUSH1 0x20 ADD DUP4 DUP2 MSTORE PUSH1 0x20 ADD DUP3 DUP2 MSTORE PUSH1 0x20 ADD PUSH0 PUSH1 0x2 DUP2 GT ISZERO PUSH2 0x348 JUMPI PUSH2 0x347 PUSH2 0x6CD JUMP JUMPDEST JUMPDEST DUP2 MSTORE POP PUSH0 PUSH0 CALLER PUSH20 0xFFFFFFFFFFFFFFFFFFFFFFFFFFFFFFFFFFFFFFFF AND PUSH20 0xFFFFFFFFFFFFFFFFFFFFFFFFFFFFFFFFFFFFFFFF AND DUP2 MSTORE PUSH1 0x20 ADD SWAP1 DUP2 MSTORE PUSH1 0x20 ADD PUSH0 KECCAK256 PUSH0 DUP3 ADD MLOAD DUP2 PUSH0 ADD PUSH0 PUSH2 0x100 EXP DUP2 SLOAD DUP2 PUSH20 0xFFFFFFFFFFFFFFFFFFFFFFFFFFFFFFFFFFFFFFFF MUL NOT AND SWAP1 DUP4 PUSH20 0xFFFFFFFFFFFFFFFFFFFFFFFFFFFFFFFFFFFFFFFF AND MUL OR SWAP1 SSTORE POP PUSH1 0x20 DUP3 ADD MLOAD DUP2 PUSH1 0x1 ADD SWAP1 DUP2 PUSH2 0x3E0 SWAP2 SWAP1 PUSH2 0xB7A JUMP JUMPDEST POP PUSH1 0x40 DUP3 ADD MLOAD DUP2 PUSH1 0x2 ADD SSTORE PUSH1 0x60 DUP3 ADD MLOAD DUP2 PUSH1 0x3 ADD SWAP1 DUP2 PUSH2 0x400 SWAP2 SWAP1 PUSH2 0xB7A JUMP JUMPDEST POP PUSH1 0x80 DUP3 ADD MLOAD DUP2 PUSH1 0x4 ADD PUSH0 PUSH2 0x100 EXP DUP2 SLOAD DUP2 PUSH1 0xFF MUL NOT AND SWAP1 DUP4 PUSH1 0x2 DUP2 GT ISZERO PUSH2 0x42B JUMPI PUSH2 0x42A PUSH2 0x6CD JUMP JUMPDEST JUMPDEST MUL OR SWAP1 SSTORE POP SWAP1 POP POP POP POP POP JUMP JUMPDEST PUSH0 PUSH1 0x20 MSTORE DUP1 PUSH0 MSTORE PUSH1 0x40 PUSH0 KECCAK256 PUSH0 SWAP2 POP SWAP1 POP DUP1 PUSH0 ADD PUSH0 SWAP1 SLOAD SWAP1 PUSH2 0x100 EXP SWAP1 DIV PUSH20 0xFFFFFFFFFFFFFFFFFFFFFFFFFFFFFFFFFFFFFFFF AND SWAP1 DUP1 PUSH1 0x1 ADD DUP1 SLOAD PUSH2 0x47B SWAP1 PUSH2 0x9AA JUMP JUMPDEST DUP1 PUSH1 0x1F ADD PUSH1 0x20 DUP1 SWAP2 DIV MUL PUSH1 0x20 ADD PUSH1 0x40 MLOAD SWAP1 DUP2 ADD PUSH1 0x40 MSTORE DUP1 SWAP3 SWAP2 SWAP1 DUP2 DUP2 MSTORE PUSH1 0x20 ADD DUP3 DUP1 SLOAD PUSH2 0x4A7 SWAP1 PUSH2 0x9AA JUMP JUMPDEST DUP1 ISZERO PUSH2 0x4F2 JUMPI DUP1 PUSH1 0x1F LT PUSH2 0x4C9 JUMPI PUSH2 0x100 DUP1 DUP4 SLOAD DIV MUL DUP4 MSTORE SWAP2 PUSH1 0x20 ADD SWAP2 PUSH2 0x4F2 JUMP JUMPDEST DUP3 ADD SWAP2 SWAP1 PUSH0 MSTORE PUSH1 0x20 PUSH0 KECCAK256 SWAP1 JUMPDEST DUP2 SLOAD DUP2 MSTORE SWAP1 PUSH1 0x1 ADD SWAP1 PUSH1 0x20 ADD DUP1 DUP4 GT PUSH2 0x4D5 JUMPI DUP3 SWAP1 SUB PUSH1 0x1F AND DUP3 ADD SWAP2 JUMPDEST POP POP POP POP POP SWAP1 DUP1 PUSH1 0x2 ADD SLOAD SWAP1 DUP1 PUSH1 0x3 ADD DUP1 SLOAD PUSH2 0x50D SWAP1 PUSH2 0x9AA JUMP JUMPDEST DUP1 PUSH1 0x1F ADD PUSH1 0x20 DUP1 SWAP2 DIV MUL PUSH1 0x20 ADD PUSH1 0x40 MLOAD SWAP1 DUP2 ADD PUSH1 0x40 MSTORE DUP1 SWAP3 SWAP2 SWAP1 DUP2 DUP2 MSTORE PUSH1 0x20 ADD DUP3 DUP1 SLOAD PUSH2 0x539 SWAP1 PUSH2 0x9AA JUMP JUMPDEST DUP1 ISZERO PUSH2 0x584 JUMPI DUP1 PUSH1 0x1F LT PUSH2 0x55B JUMPI PUSH2 0x100 DUP1 DUP4 SLOAD DIV MUL DUP4 MSTORE SWAP2 PUSH1 0x20 ADD SWAP2 PUSH2 0x584 JUMP JUMPDEST DUP3 ADD SWAP2 SWAP1 PUSH0 MSTORE PUSH1 0x20 PUSH0 KECCAK256 SWAP1 JUMPDEST DUP2 SLOAD DUP2 MSTORE SWAP1 PUSH1 0x1 ADD SWAP1 PUSH1 0x20 ADD DUP1 DUP4 GT PUSH2 0x567 JUMPI DUP3 SWAP1 SUB PUSH1 0x1F AND DUP3 ADD SWAP2 JUMPDEST POP POP POP POP POP SWAP1 DUP1 PUSH1 0x4 ADD PUSH0 SWAP1 SLOAD SWAP1 PUSH2 0x100 EXP SWAP1 DIV PUSH1 0xFF AND SWAP1 POP DUP6 JUMP JUMPDEST PUSH0 PUSH1 0x40 MLOAD SWAP1 POP SWAP1 JUMP JUMPDEST PUSH0 PUSH0 REVERT JUMPDEST PUSH0 PUSH0 REVERT JUMPDEST PUSH0 PUSH20 0xFFFFFFFFFFFFFFFFFFFFFFFFFFFFFFFFFFFFFFFF DUP3 AND SWAP1 POP SWAP2 SWAP1 POP JUMP JUMPDEST PUSH0 PUSH2 0x5DA DUP3 PUSH2 0x5B1 JUMP JUMPDEST SWAP1 POP SWAP2 SWAP1 POP JUMP JUMPDEST PUSH2 0x5EA DUP2 PUSH2 0x5D0 JUMP JUMPDEST DUP2 EQ PUSH2 0x5F4 JUMPI PUSH0 PUSH0 REVERT JUMPDEST POP JUMP JUMPDEST PUSH0 DUP2 CALLDATALOAD SWAP1 POP PUSH2 0x605 DUP2 PUSH2 0x5E1 JUMP JUMPDEST SWAP3 SWAP2 POP POP JUMP JUMPDEST PUSH0 PUSH1 0x20 DUP3 DUP5 SUB SLT ISZERO PUSH2 0x620 JUMPI PUSH2 0x61F PUSH2 0x5A9 JUMP JUMPDEST JUMPDEST PUSH0 PUSH2 0x62D DUP5 DUP3 DUP6 ADD PUSH2 0x5F7 JUMP JUMPDEST SWAP2 POP POP SWAP3 SWAP2 POP POP JUMP JUMPDEST PUSH2 0x63F DUP2 PUSH2 0x5D0 JUMP JUMPDEST DUP3 MSTORE POP POP JUMP JUMPDEST PUSH0 DUP2 MLOAD SWAP1 POP SWAP2 SWAP1 POP JUMP JUMPDEST PUSH0 DUP3 DUP3 MSTORE PUSH1 0x20 DUP3 ADD SWAP1 POP SWAP3 SWAP2 POP POP JUMP JUMPDEST DUP3 DUP2 DUP4 MCOPY PUSH0 DUP4 DUP4 ADD MSTORE POP POP POP JUMP JUMPDEST PUSH0 PUSH1 0x1F NOT PUSH1 0x1F DUP4 ADD AND SWAP1 POP SWAP2 SWAP1 POP JUMP JUMPDEST PUSH0 PUSH2 0x687 DUP3 PUSH2 0x645 JUMP JUMPDEST PUSH2 0x691 DUP2 DUP6 PUSH2 0x64F JUMP JUMPDEST SWAP4 POP PUSH2 0x6A1 DUP2 DUP6 PUSH1 0x20 DUP7 ADD PUSH2 0x65F JUMP JUMPDEST PUSH2 0x6AA DUP2 PUSH2 0x66D JUMP JUMPDEST DUP5 ADD SWAP2 POP POP SWAP3 SWAP2 POP POP JUMP JUMPDEST PUSH0 DUP2 SWAP1 POP SWAP2 SWAP1 POP JUMP JUMPDEST PUSH2 0x6C7 DUP2 PUSH2 0x6B5 JUMP JUMPDEST DUP3 MSTORE POP POP JUMP JUMPDEST PUSH32 0x4E487B7100000000000000000000000000000000000000000000000000000000 PUSH0 MSTORE PUSH1 0x21 PUSH1 0x4 MSTORE PUSH1 0x24 PUSH0 REVERT JUMPDEST PUSH1 0x3 DUP2 LT PUSH2 0x70B JUMPI PUSH2 0x70A PUSH2 0x6CD JUMP JUMPDEST JUMPDEST POP JUMP JUMPDEST PUSH0 DUP2 SWAP1 POP PUSH2 0x71B DUP3 PUSH2 0x6FA JUMP JUMPDEST SWAP2 SWAP1 POP JUMP JUMPDEST PUSH0 PUSH2 0x72A DUP3 PUSH2 0x70E JUMP JUMPDEST SWAP1 POP SWAP2 SWAP1 POP JUMP JUMPDEST PUSH2 0x73A DUP2 PUSH2 0x720 JUMP JUMPDEST DUP3 MSTORE POP POP JUMP JUMPDEST PUSH0 PUSH1 0xA0 DUP3 ADD SWAP1 POP PUSH2 0x753 PUSH0 DUP4 ADD DUP9 PUSH2 0x636 JUMP JUMPDEST DUP2 DUP2 SUB PUSH1 0x20 DUP4 ADD MSTORE PUSH2 0x765 DUP2 DUP8 PUSH2 0x67D JUMP JUMPDEST SWAP1 POP PUSH2 0x774 PUSH1 0x40 DUP4 ADD DUP7 PUSH2 0x6BE JUMP JUMPDEST DUP2 DUP2 SUB PUSH1 0x60 DUP4 ADD MSTORE PUSH2 0x786 DUP2 DUP6 PUSH2 0x67D JUMP JUMPDEST SWAP1 POP PUSH2 0x795 PUSH1 0x80 DUP4 ADD DUP5 PUSH2 0x731 JUMP JUMPDEST SWAP7 SWAP6 POP POP POP POP POP POP JUMP JUMPDEST PUSH0 PUSH0 REVERT JUMPDEST PUSH0 PUSH0 REVERT JUMPDEST PUSH32 0x4E487B7100000000000000000000000000000000000000000000000000000000 PUSH0 MSTORE PUSH1 0x41 PUSH1 0x4 MSTORE PUSH1 0x24 PUSH0 REVERT JUMPDEST PUSH2 0x7DD DUP3 PUSH2 0x66D JUMP JUMPDEST DUP2 ADD DUP2 DUP2 LT PUSH8 0xFFFFFFFFFFFFFFFF DUP3 GT OR ISZERO PUSH2 0x7FC JUMPI PUSH2 0x7FB PUSH2 0x7A7 JUMP JUMPDEST JUMPDEST DUP1 PUSH1 0x40 MSTORE POP POP POP JUMP JUMPDEST PUSH0 PUSH2 0x80E PUSH2 0x5A0 JUMP JUMPDEST SWAP1 POP PUSH2 0x81A DUP3 DUP3 PUSH2 0x7D4 JUMP JUMPDEST SWAP2 SWAP1 POP JUMP JUMPDEST PUSH0 PUSH8 0xFFFFFFFFFFFFFFFF DUP3 GT ISZERO PUSH2 0x839 JUMPI PUSH2 0x838 PUSH2 0x7A7 JUMP JUMPDEST JUMPDEST PUSH2 0x842 DUP3 PUSH2 0x66D JUMP JUMPDEST SWAP1 POP PUSH1 0x20 DUP2 ADD SWAP1 POP SWAP2 SWAP1 POP JUMP JUMPDEST DUP3 DUP2 DUP4 CALLDATACOPY PUSH0 DUP4 DUP4 ADD MSTORE POP POP POP JUMP JUMPDEST PUSH0 PUSH2 0x86F PUSH2 0x86A DUP5 PUSH2 0x81F JUMP JUMPDEST PUSH2 0x805 JUMP JUMPDEST SWAP1 POP DUP3 DUP2 MSTORE PUSH1 0x20 DUP2 ADD DUP5 DUP5 DUP5 ADD GT ISZERO PUSH2 0x88B JUMPI PUSH2 0x88A PUSH2 0x7A3 JUMP JUMPDEST JUMPDEST PUSH2 0x896 DUP5 DUP3 DUP6 PUSH2 0x84F JUMP JUMPDEST POP SWAP4 SWAP3 POP POP POP JUMP JUMPDEST PUSH0 DUP3 PUSH1 0x1F DUP4 ADD SLT PUSH2 0x8B2 JUMPI PUSH2 0x8B1 PUSH2 0x79F JUMP JUMPDEST JUMPDEST DUP2 CALLDATALOAD PUSH2 0x8C2 DUP5 DUP3 PUSH1 0x20 DUP7 ADD PUSH2 0x85D JUMP JUMPDEST SWAP2 POP POP SWAP3 SWAP2 POP POP JUMP JUMPDEST PUSH2 0x8D4 DUP2 PUSH2 0x6B5 JUMP JUMPDEST DUP2 EQ PUSH2 0x8DE JUMPI PUSH0 PUSH0 REVERT JUMPDEST POP JUMP JUMPDEST PUSH0 DUP2 CALLDATALOAD SWAP1 POP PUSH2 0x8EF DUP2 PUSH2 0x8CB JUMP JUMPDEST SWAP3 SWAP2 POP POP JUMP JUMPDEST PUSH0 PUSH0 PUSH0 PUSH1 0x60 DUP5 DUP7 SUB SLT ISZERO PUSH2 0x90C JUMPI PUSH2 0x90B PUSH2 0x5A9 JUMP JUMPDEST JUMPDEST PUSH0 DUP5 ADD CALLDATALOAD PUSH8 0xFFFFFFFFFFFFFFFF DUP2 GT ISZERO PUSH2 0x929 JUMPI PUSH2 0x928 PUSH2 0x5AD JUMP JUMPDEST JUMPDEST PUSH2 0x935 DUP7 DUP3 DUP8 ADD PUSH2 0x89E JUMP JUMPDEST SWAP4 POP POP PUSH1 0x20 PUSH2 0x946 DUP7 DUP3 DUP8 ADD PUSH2 0x8E1 JUMP JUMPDEST SWAP3 POP POP PUSH1 0x40 DUP5 ADD CALLDATALOAD PUSH8 0xFFFFFFFFFFFFFFFF DUP2 GT ISZERO PUSH2 0x967 JUMPI PUSH2 0x966 PUSH2 0x5AD JUMP JUMPDEST JUMPDEST PUSH2 0x973 DUP7 DUP3 DUP8 ADD PUSH2 0x89E JUMP JUMPDEST SWAP2 POP POP SWAP3 POP SWAP3 POP SWAP3 JUMP JUMPDEST PUSH32 0x4E487B7100000000000000000000000000000000000000000000000000000000 PUSH0 MSTORE PUSH1 0x22 PUSH1 0x4 MSTORE PUSH1 0x24 PUSH0 REVERT JUMPDEST PUSH0 PUSH1 0x2 DUP3 DIV SWAP1 POP PUSH1 0x1 DUP3 AND DUP1 PUSH2 0x9C1 JUMPI PUSH1 0x7F DUP3 AND SWAP2 POP JUMPDEST PUSH1 0x20 DUP3 LT DUP2 SUB PUSH2 0x9D4 JUMPI PUSH2 0x9D3 PUSH2 0x97D JUMP JUMPDEST JUMPDEST POP SWAP2 SWAP1 POP JUMP JUMPDEST PUSH0 DUP2 SWAP1 POP DUP2 PUSH0 MSTORE PUSH1 0x20 PUSH0 KECCAK256 SWAP1 POP SWAP2 SWAP1 POP JUMP JUMPDEST PUSH0 PUSH1 0x20 PUSH1 0x1F DUP4 ADD DIV SWAP1 POP SWAP2 SWAP1 POP JUMP JUMPDEST PUSH0 DUP3 DUP3 SHL SWAP1 POP SWAP3 SWAP2 POP POP JUMP JUMPDEST PUSH0 PUSH1 0x8 DUP4 MUL PUSH2 0xA36 PUSH32 0xFFFFFFFFFFFFFFFFFFFFFFFFFFFFFFFFFFFFFFFFFFFFFFFFFFFFFFFFFFFFFFFF DUP3 PUSH2 0x9FB JUMP JUMPDEST PUSH2 0xA40 DUP7 DUP4 PUSH2 0x9FB JUMP JUMPDEST SWAP6 POP DUP1 NOT DUP5 AND SWAP4 POP DUP1 DUP7 AND DUP5 OR SWAP3 POP POP POP SWAP4 SWAP3 POP POP POP JUMP JUMPDEST PUSH0 DUP2 SWAP1 POP SWAP2 SWAP1 POP JUMP JUMPDEST PUSH0 PUSH2 0xA7B PUSH2 0xA76 PUSH2 0xA71 DUP5 PUSH2 0x6B5 JUMP JUMPDEST PUSH2 0xA58 JUMP JUMPDEST PUSH2 0x6B5 JUMP JUMPDEST SWAP1 POP SWAP2 SWAP1 POP JUMP JUMPDEST PUSH0 DUP2 SWAP1 POP SWAP2 SWAP1 POP JUMP JUMPDEST PUSH2 0xA94 DUP4 PUSH2 0xA61 JUMP JUMPDEST PUSH2 0xAA8 PUSH2 0xAA0 DUP3 PUSH2 0xA82 JUMP JUMPDEST DUP5 DUP5 SLOAD PUSH2 0xA07 JUMP JUMPDEST DUP3 SSTORE POP POP POP POP JUMP JUMPDEST PUSH0 PUSH0 SWAP1 POP SWAP1 JUMP JUMPDEST PUSH2 0xABF PUSH2 0xAB0 JUMP JUMPDEST PUSH2 0xACA DUP2 DUP5 DUP5 PUSH2 0xA8B JUMP JUMPDEST POP POP POP JUMP JUMPDEST JUMPDEST DUP2 DUP2 LT ISZERO PUSH2 0xAED JUMPI PUSH2 0xAE2 PUSH0 DUP3 PUSH2 0xAB7 JUMP JUMPDEST PUSH1 0x1 DUP2 ADD SWAP1 POP PUSH2 0xAD0 JUMP JUMPDEST POP POP JUMP JUMPDEST PUSH1 0x1F DUP3 GT ISZERO PUSH2 0xB32 JUMPI PUSH2 0xB03 DUP2 PUSH2 0x9DA JUMP JUMPDEST PUSH2 0xB0C DUP5 PUSH2 0x9EC JUMP JUMPDEST DUP2 ADD PUSH1 0x20 DUP6 LT ISZERO PUSH2 0xB1B JUMPI DUP2 SWAP1 POP JUMPDEST PUSH2 0xB2F PUSH2 0xB27 DUP6 PUSH2 0x9EC JUMP JUMPDEST DUP4 ADD DUP3 PUSH2 0xACF JUMP JUMPDEST POP POP JUMPDEST POP POP POP JUMP JUMPDEST PUSH0 DUP3 DUP3 SHR SWAP1 POP SWAP3 SWAP2 POP POP JUMP JUMPDEST PUSH0 PUSH2 0xB52 PUSH0 NOT DUP5 PUSH1 0x8 MUL PUSH2 0xB37 JUMP JUMPDEST NOT DUP1 DUP4 AND SWAP2 POP POP SWAP3 SWAP2 POP POP JUMP JUMPDEST PUSH0 PUSH2 0xB6A DUP4 DUP4 PUSH2 0xB43 JUMP JUMPDEST SWAP2 POP DUP3 PUSH1 0x2 MUL DUP3 OR SWAP1 POP SWAP3 SWAP2 POP POP JUMP JUMPDEST PUSH2 0xB83 DUP3 PUSH2 0x645 JUMP JUMPDEST PUSH8 0xFFFFFFFFFFFFFFFF DUP2 GT ISZERO PUSH2 0xB9C JUMPI PUSH2 0xB9B PUSH2 0x7A7 JUMP JUMPDEST JUMPDEST PUSH2 0xBA6 DUP3 SLOAD PUSH2 0x9AA JUMP JUMPDEST PUSH2 0xBB1 DUP3 DUP3 DUP6 PUSH2 0xAF1 JUMP JUMPDEST PUSH0 PUSH1 0x20 SWAP1 POP PUSH1 0x1F DUP4 GT PUSH1 0x1 DUP2 EQ PUSH2 0xBE2 JUMPI PUSH0 DUP5 ISZERO PUSH2 0xBD0 JUMPI DUP3 DUP8 ADD MLOAD SWAP1 POP JUMPDEST PUSH2 0xBDA DUP6 DUP3 PUSH2 0xB5F JUMP JUMPDEST DUP7 SSTORE POP PUSH2 0xC41 JUMP JUMPDEST PUSH1 0x1F NOT DUP5 AND PUSH2 0xBF0 DUP7 PUSH2 0x9DA JUMP JUMPDEST PUSH0 JUMPDEST DUP3 DUP2 LT ISZERO PUSH2 0xC17 JUMPI DUP5 DUP10 ADD MLOAD DUP3 SSTORE PUSH1 0x1 DUP3 ADD SWAP2 POP PUSH1 0x20 DUP6 ADD SWAP5 POP PUSH1 0x20 DUP2 ADD SWAP1 POP PUSH2 0xBF2 JUMP JUMPDEST DUP7 DUP4 LT ISZERO PUSH2 0xC34 JUMPI DUP5 DUP10 ADD MLOAD PUSH2 0xC30 PUSH1 0x1F DUP10 AND DUP3 PUSH2 0xB43 JUMP JUMPDEST DUP4 SSTORE POP JUMPDEST PUSH1 0x1 PUSH1 0x2 DUP9 MUL ADD DUP9 SSTORE POP POP POP JUMPDEST POP POP POP POP POP POP JUMP INVALID LOG2 PUSH5 0x6970667358 0x22 SLT KECCAK256 0xD9 MSTORE8 0xB3 0xE9 DUP3 0xCE SELFBALANCE PUSH5 0x18A0D6ABC9 0x26 0x25 0xC3 0x23 DUP15 PUSH9 0x83CFE03F9F8ECB4BF8 0xDF 0xAF DUP16 RJUMP 0x6473 PUSH16 0x6C634300081E00330000000000000000 "
				},
				"gasEstimates": {
					"creation": {
						"codeDepositCost": "639800",
						"executionCost": "668",
						"totalCost": "640468"
					},
					"external": {
						"addPlayer(string,uint256,string)": "infinite",
						"getPlayer(address)": "infinite",
						"players(address)": "infinite"
					}
				},
				"methodIdentifiers": {
					"addPlayer(string,uint256,string)": "aab48c52",
					"getPlayer(address)": "5c12cd4b",
					"players(address)": "e2eb41ff"
				}
			},
			"storageLayout": {
				"storage": [
					{
						"astId": 6,
						"contract": "game.sol:Game",
						"label": "players",
						"offset": 0,
						"slot": "0",
						"type": "t_mapping(t_address,t_struct(Player)22_storage)"
					}
				],
				"types": {
					"t_address": {
						"encoding": "inplace",
						"label": "address",
						"numberOfBytes": "20"
					},
					"t_enum(Level)10": {
						"encoding": "inplace",
						"label": "enum Game.Level",
						"numberOfBytes": "1"
					},
					"t_mapping(t_address,t_struct(Player)22_storage)": {
						"encoding": "mapping",
						"key": "t_address",
						"label": "mapping(address => struct Game.Player)",
						"numberOfBytes": "32",
						"value": "t_struct(Player)22_storage"
					},
					"t_string_storage": {
						"encoding": "bytes",
						"label": "string",
						"numberOfBytes": "32"
					},
					"t_struct(Player)22_storage": {
						"encoding": "inplace",
						"label": "struct Game.Player",
						"members": [
							{
								"astId": 12,
								"contract": "game.sol:Game",
								"label": "addressPlayer",
								"offset": 0,
								"slot": "0",
								"type": "t_address"
							},
							{
								"astId": 14,
								"contract": "game.sol:Game",
								"label": "fullName",
								"offset": 0,
								"slot": "1",
								"type": "t_string_storage"
							},
							{
								"astId": 16,
								"contract": "game.sol:Game",
								"label": "age",
								"offset": 0,
								"slot": "2",
								"type": "t_uint256"
							},
							{
								"astId": 18,
								"contract": "game.sol:Game",
								"label": "sex",
								"offset": 0,
								"slot": "3",
								"type": "t_string_storage"
							},
							{
								"astId": 21,
								"contract": "game.sol:Game",
								"label": "myLevel",
								"offset": 0,
								"slot": "4",
								"type": "t_enum(Level)10"
							}
						],
						"numberOfBytes": "160"
					},
					"t_uint256": {
						"encoding": "inplace",
						"label": "uint256",
						"numberOfBytes": "32"
					}
				}
			},
			"userdoc": {
				"kind": "user",
				"methods": {},
				"version": 1
			}
		}
	}
}