{
	"data": {
		"bytecode": {
			"linkReferences": {},
			"object": "6080604052348015600e575f5ffd5b506106318061001c5f395ff3fe608060405234801561000f575f5ffd5b506004361061003f575f3560e01c806306fdde0314610043578063262a9dff14610061578063625fc5351461007f575b5f5ffd5b61004b61009b565b60405161005891906101b9565b60405180910390f35b610069610126565b60405161007691906101f1565b60405180910390f35b6100996004803603810190610094919061029d565b61012c565b005b5f80546100a790610327565b80601f01602080910402602001604051908101604052809291908181526020018280546100d390610327565b801561011e5780601f106100f55761010080835404028352916020019161011e565b820191905f5260205f20905b81548152906001019060200180831161010157829003601f168201915b505050505081565b60015481565b82825f918261013c92919061052e565b5080600181905550505050565b5f81519050919050565b5f82825260208201905092915050565b8281835e5f83830152505050565b5f601f19601f8301169050919050565b5f61018b82610149565b6101958185610153565b93506101a5818560208601610163565b6101ae81610171565b840191505092915050565b5f6020820190508181035f8301526101d18184610181565b905092915050565b5f819050919050565b6101eb816101d9565b82525050565b5f6020820190506102045f8301846101e2565b92915050565b5f5ffd5b5f5ffd5b5f5ffd5b5f5ffd5b5f5ffd5b5f5f83601f84011261023357610232610212565b5b8235905067ffffffffffffffff8111156102505761024f610216565b5b60208301915083600182028301111561026c5761026b61021a565b5b9250929050565b61027c816101d9565b8114610286575f5ffd5b50565b5f8135905061029781610273565b92915050565b5f5f5f604084860312156102b4576102b361020a565b5b5f84013567ffffffffffffffff8111156102d1576102d061020e565b5b6102dd8682870161021e565b935093505060206102f086828701610289565b9150509250925092565b7f4e487b71000000000000000000000000000000000000000000000000000000005f52602260045260245ffd5b5f600282049050600182168061033e57607f821691505b602082108103610351576103506102fa565b5b50919050565b5f82905092915050565b7f4e487b71000000000000000000000000000000000000000000000000000000005f52604160045260245ffd5b5f819050815f5260205f209050919050565b5f6020601f8301049050919050565b5f82821b905092915050565b5f600883026103ea7fffffffffffffffffffffffffffffffffffffffffffffffffffffffffffffffff826103af565b6103f486836103af565b95508019841693508086168417925050509392505050565b5f819050919050565b5f61042f61042a610425846101d9565b61040c565b6101d9565b9050919050565b5f819050919050565b61044883610415565b61045c61045482610436565b8484546103bb565b825550505050565b5f5f905090565b610473610464565b61047e81848461043f565b505050565b5b818110156104a1576104965f8261046b565b600181019050610484565b5050565b601f8211156104e6576104b78161038e565b6104c0846103a0565b810160208510156104cf578190505b6104e36104db856103a0565b830182610483565b50505b505050565b5f82821c905092915050565b5f6105065f19846008026104eb565b1980831691505092915050565b5f61051e83836104f7565b9150826002028217905092915050565b6105388383610357565b67ffffffffffffffff81111561055157610550610361565b5b61055b8254610327565b6105668282856104a5565b5f601f831160018114610593575f8415610581578287013590505b61058b8582610513565b8655506105f2565b601f1984166105a18661038e565b5f5b828110156105c8578489013582556001820191506020850194506020810190506105a3565b868310156105e557848901356105e1601f8916826104f7565b8355505b6001600288020188555050505b5050505050505056fea264697066735822122076aec5b412c210e3a9d97178f97652ca7d6d3f7731eca33f290f31d93bbaad0e64736f6c634300081e0033",
			"opcodes": "PUSH1 0x80 PUSH1 0x40 MSTORE CALLVALUE DUP1 ISZERO PUSH1 0xE JUMPI PUSH0 PUSH0 REVERT JUMPDEST POP PUSH2 0x631 DUP1 PUSH2 0x1C PUSH0 CODECOPY PUSH0 RETURN INVALID PUSH1 0x80 PUSH1 0x40 MSTORE CALLVALUE DUP1 ISZERO PUSH2 0xF JUMPI PUSH0 PUSH0 REVERT JUMPDEST POP PUSH1 0x4 CALLDATASIZE LT PUSH2 0x3F JUMPI PUSH0 CALLDATALOAD PUSH1 0xE0 SHR DUP1 PUSH4 0x6FDDE03 EQ PUSH2 0x43 JUMPI DUP1 PUSH4 0x262A9DFF EQ PUSH2 0x61 JUMPI DUP1 PUSH4 0x625FC535 EQ PUSH2 0x7F JUMPI JUMPDEST PUSH0 PUSH0 REVERT JUMPDEST PUSH2 0x4B PUSH2 0x9B JUMP JUMPDEST PUSH1 0x40 MLOAD PUSH2 0x58 SWAP2 SWAP1 PUSH2 0x1B9 JUMP JUMPDEST PUSH1 0x40 MLOAD DUP1 SWAP2 SUB SWAP1 RETURN JUMPDEST PUSH2 0x69 PUSH2 0x126 JUMP JUMPDEST PUSH1 0x40 MLOAD PUSH2 0x76 SWAP2 SWAP1 PUSH2 0x1F1 JUMP JUMPDEST PUSH1 0x40 MLOAD DUP1 SWAP2 SUB SWAP1 RETURN JUMPDEST PUSH2 0x99 PUSH1 0x4 DUP1 CALLDATASIZE SUB DUP2 ADD SWAP1 PUSH2 0x94 SWAP2 SWAP1 PUSH2 0x29D JUMP JUMPDEST PUSH2 0x12C JUMP JUMPDEST STOP JUMPDEST PUSH0 DUP1 SLOAD PUSH2 0xA7 SWAP1 PUSH2 0x327 JUMP JUMPDEST DUP1 PUSH1 0x1F ADD PUSH1 0x20 DUP1 SWAP2 DIV MUL PUSH1 0x20 ADD PUSH1 0x40 MLOAD SWAP1 DUP2 ADD PUSH1 0x40 MSTORE DUP1 SWAP3 SWAP2 SWAP1 DUP2 DUP2 MSTORE PUSH1 0x20 ADD DUP3 DUP1 SLOAD PUSH2 0xD3 SWAP1 PUSH2 0x327 JUMP JUMPDEST DUP1 ISZERO PUSH2 0x11E JUMPI DUP1 PUSH1 0x1F LT PUSH2 0xF5 JUMPI PUSH2 0x100 DUP1 DUP4 SLOAD DIV MUL DUP4 MSTORE SWAP2 PUSH1 0x20 ADD SWAP2 PUSH2 0x11E JUMP JUMPDEST DUP3 ADD SWAP2 SWAP1 PUSH0 MSTORE PUSH1 0x20 PUSH0 KECCAK256 SWAP1 JUMPDEST DUP2 SLOAD DUP2 MSTORE SWAP1 PUSH1 0x1 ADD SWAP1 PUSH1 0x20 ADD DUP1 DUP4 GT PUSH2 0x101 JUMPI DUP3 SWAP1 SUB PUSH1 0x1F AND DUP3 ADD SWAP2 JUMPDEST POP POP POP POP POP DUP2 JUMP JUMPDEST PUSH1 0x1 SLOAD DUP2 JUMP JUMPDEST DUP3 DUP3 PUSH0 SWAP2 DUP3 PUSH2 0x13C SWAP3 SWAP2 SWAP1 PUSH2 0x52E JUMP JUMPDEST POP DUP1 PUSH1 0x1 DUP2 SWAP1 SSTORE POP POP POP POP JUMP JUMPDEST PUSH0 DUP2 MLOAD SWAP1 POP SWAP2 SWAP1 POP JUMP JUMPDEST PUSH0 DUP3 DUP3 MSTORE PUSH1 0x20 DUP3 ADD SWAP1 POP SWAP3 SWAP2 POP POP JUMP JUMPDEST DUP3 DUP2 DUP4 MCOPY PUSH0 DUP4 DUP4 ADD MSTORE POP POP POP JUMP JUMPDEST PUSH0 PUSH1 0x1F NOT PUSH1 0x1F DUP4 ADD AND SWAP1 POP SWAP2 SWAP1 POP JUMP JUMPDEST PUSH0 PUSH2 0x18B DUP3 PUSH2 0x149 JUMP JUMPDEST PUSH2 0x195 DUP2 DUP6 PUSH2 0x153 JUMP JUMPDEST SWAP4 POP PUSH2 0x1A5 DUP2 DUP6 PUSH1 0x20 DUP7 ADD PUSH2 0x163 JUMP JUMPDEST PUSH2 0x1AE DUP2 PUSH2 0x171 JUMP JUMPDEST DUP5 ADD SWAP2 POP POP SWAP3 SWAP2 POP POP JUMP JUMPDEST PUSH0 PUSH1 0x20 DUP3 ADD SWAP1 POP DUP2 DUP2 SUB PUSH0 DUP4 ADD MSTORE PUSH2 0x1D1 DUP2 DUP5 PUSH2 0x181 JUMP JUMPDEST SWAP1 POP SWAP3 SWAP2 POP POP JUMP JUMPDEST PUSH0 DUP2 SWAP1 POP SWAP2 SWAP1 POP JUMP JUMPDEST PUSH2 0x1EB DUP2 PUSH2 0x1D9 JUMP JUMPDEST DUP3 MSTORE POP POP JUMP JUMPDEST PUSH0 PUSH1 0x20 DUP3 ADD SWAP1 POP PUSH2 0x204 PUSH0 DUP4 ADD DUP5 PUSH2 0x1E2 JUMP JUMPDEST SWAP3 SWAP2 POP POP JUMP JUMPDEST PUSH0 PUSH0 REVERT JUMPDEST PUSH0 PUSH0 REVERT JUMPDEST PUSH0 PUSH0 REVERT JUMPDEST PUSH0 PUSH0 REVERT JUMPDEST PUSH0 PUSH0 REVERT JUMPDEST PUSH0 PUSH0 DUP4 PUSH1 0x1F DUP5 ADD SLT PUSH2 0x233 JUMPI PUSH2 0x232 PUSH2 0x212 JUMP JUMPDEST JUMPDEST DUP3 CALLDATALOAD SWAP1 POP PUSH8 0xFFFFFFFFFFFFFFFF DUP2 GT ISZERO PUSH2 0x250 JUMPI PUSH2 0x24F PUSH2 0x216 JUMP JUMPDEST JUMPDEST PUSH1 0x20 DUP4 ADD SWAP2 POP DUP4 PUSH1 0x1 DUP3 MUL DUP4 ADD GT ISZERO PUSH2 0x26C JUMPI PUSH2 0x26B PUSH2 0x21A JUMP JUMPDEST JUMPDEST SWAP3 POP SWAP3 SWAP1 POP JUMP JUMPDEST PUSH2 0x27C DUP2 PUSH2 0x1D9 JUMP JUMPDEST DUP2 EQ PUSH2 0x286 JUMPI PUSH0 PUSH0 REVERT JUMPDEST POP JUMP JUMPDEST PUSH0 DUP2 CALLDATALOAD SWAP1 POP PUSH2 0x297 DUP2 PUSH2 0x273 JUMP JUMPDEST SWAP3 SWAP2 POP POP JUMP JUMPDEST PUSH0 PUSH0 PUSH0 PUSH1 0x40 DUP5 DUP7 SUB SLT ISZERO PUSH2 0x2B4 JUMPI PUSH2 0x2B3 PUSH2 0x20A JUMP JUMPDEST JUMPDEST PUSH0 DUP5 ADD CALLDATALOAD PUSH8 0xFFFFFFFFFFFFFFFF DUP2 GT ISZERO PUSH2 0x2D1 JUMPI PUSH2 0x2D0 PUSH2 0x20E JUMP JUMPDEST JUMPDEST PUSH2 0x2DD DUP7 DUP3 DUP8 ADD PUSH2 0x21E JUMP JUMPDEST SWAP4 POP SWAP4 POP POP PUSH1 0x20 PUSH2 0x2F0 DUP7 DUP3 DUP8 ADD PUSH2 0x289 JUMP JUMPDEST SWAP2 POP POP SWAP3 POP SWAP3 POP SWAP3 JUMP JUMPDEST PUSH32 0x4E487B7100000000000000000000000000000000000000000000000000000000 PUSH0 MSTORE PUSH1 0x22 PUSH1 0x4 MSTORE PUSH1 0x24 PUSH0 REVERT JUMPDEST PUSH0 PUSH1 0x2 DUP3 DIV SWAP1 POP PUSH1 0x1 DUP3 AND DUP1 PUSH2 0x33E JUMPI PUSH1 0x7F DUP3 AND SWAP2 POP JUMPDEST PUSH1 0x20 DUP3 LT DUP2 SUB PUSH2 0x351 JUMPI PUSH2 0x350 PUSH2 0x2FA JUMP JUMPDEST JUMPDEST POP SWAP2 SWAP1 POP JUMP JUMPDEST PUSH0 DUP3 SWAP1 POP SWAP3 SWAP2 POP POP JUMP JUMPDEST PUSH32 0x4E487B7100000000000000000000000000000000000000000000000000000000 PUSH0 MSTORE PUSH1 0x41 PUSH1 0x4 MSTORE PUSH1 0x24 PUSH0 REVERT JUMPDEST PUSH0 DUP2 SWAP1 POP DUP2 PUSH0 MSTORE PUSH1 0x20 PUSH0 KECCAK256 SWAP1 POP SWAP2 SWAP1 POP JUMP JUMPDEST PUSH0 PUSH1 0x20 PUSH1 0x1F DUP4 ADD DIV SWAP1 POP SWAP2 SWAP1 POP JUMP JUMPDEST PUSH0 DUP3 DUP3 SHL SWAP1 POP SWAP3 SWAP2 POP POP JUMP JUMPDEST PUSH0 PUSH1 0x8 DUP4 MUL PUSH2 0x3EA PUSH32 0xFFFFFFFFFFFFFFFFFFFFFFFFFFFFFFFFFFFFFFFFFFFFFFFFFFFFFFFFFFFFFFFF DUP3 PUSH2 0x3AF JUMP JUMPDEST PUSH2 0x3F4 DUP7 DUP4 PUSH2 0x3AF JUMP JUMPDEST SWAP6 POP DUP1 NOT DUP5 AND SWAP4 POP DUP1 DUP7 AND DUP5 OR SWAP3 POP POP POP SWAP4 SWAP3 POP POP POP JUMP JUMPDEST PUSH0 DUP2 SWAP1 POP SWAP2 SWAP1 POP JUMP JUMPDEST PUSH0 PUSH2 0x42F PUSH2 0x42A PUSH2 0x425 DUP5 PUSH2 0x1D9 JUMP JUMPDEST PUSH2 0x40C JUMP JUMPDEST PUSH2 0x1D9 JUMP JUMPDEST SWAP1 POP SWAP2 SWAP1 POP JUMP JUMPDEST PUSH0 DUP2 SWAP1 POP SWAP2 SWAP1 POP JUMP JUMPDEST PUSH2 0x448 DUP4 PUSH2 0x415 JUMP JUMPDEST PUSH2 0x45C PUSH2 0x454 DUP3 PUSH2 0x436 JUMP JUMPDEST DUP5 DUP5 SLOAD PUSH2 0x3BB JUMP JUMPDEST DUP3 SSTORE POP POP POP POP JUMP JUMPDEST PUSH0 PUSH0 SWAP1 POP SWAP1 JUMP JUMPDEST PUSH2 0x473 PUSH2 0x464 JUMP JUMPDEST PUSH2 0x47E DUP2 DUP5 DUP5 PUSH2 0x43F JUMP JUMPDEST POP POP POP JUMP JUMPDEST JUMPDEST DUP2 DUP2 LT ISZERO PUSH2 0x4A1 JUMPI PUSH2 0x496 PUSH0 DUP3 PUSH2 0x46B JUMP JUMPDEST PUSH1 0x1 DUP2 ADD SWAP1 POP PUSH2 0x484 JUMP JUMPDEST POP POP JUMP JUMPDEST PUSH1 0x1F DUP3 GT ISZERO PUSH2 0x4E6 JUMPI PUSH2 0x4B7 DUP2 PUSH2 0x38E JUMP JUMPDEST PUSH2 0x4C0 DUP5 PUSH2 0x3A0 JUMP JUMPDEST DUP2 ADD PUSH1 0x20 DUP6 LT ISZERO PUSH2 0x4CF JUMPI DUP2 SWAP1 POP JUMPDEST PUSH2 0x4E3 PUSH2 0x4DB DUP6 PUSH2 0x3A0 JUMP JUMPDEST DUP4 ADD DUP3 PUSH2 0x483 JUMP JUMPDEST POP POP JUMPDEST POP POP POP JUMP JUMPDEST PUSH0 DUP3 DUP3 SHR SWAP1 POP SWAP3 SWAP2 POP POP JUMP JUMPDEST PUSH0 PUSH2 0x506 PUSH0 NOT DUP5 PUSH1 0x8 MUL PUSH2 0x4EB JUMP JUMPDEST NOT DUP1 DUP4 AND SWAP2 POP POP SWAP3 SWAP2 POP POP JUMP JUMPDEST PUSH0 PUSH2 0x51E DUP4 DUP4 PUSH2 0x4F7 JUMP JUMPDEST SWAP2 POP DUP3 PUSH1 0x2 MUL DUP3 OR SWAP1 POP SWAP3 SWAP2 POP POP JUMP JUMPDEST PUSH2 0x538 DUP4 DUP4 PUSH2 0x357 JUMP JUMPDEST PUSH8 0xFFFFFFFFFFFFFFFF DUP2 GT ISZERO PUSH2 0x551 JUMPI PUSH2 0x550 PUSH2 0x361 JUMP JUMPDEST JUMPDEST PUSH2 0x55B DUP3 SLOAD PUSH2 0x327 JUMP JUMPDEST PUSH2 0x566 DUP3 DUP3 DUP6 PUSH2 0x4A5 JUMP JUMPDEST PUSH0 PUSH1 0x1F DUP4 GT PUSH1 0x1 DUP2 EQ PUSH2 0x593 JUMPI PUSH0 DUP5 ISZERO PUSH2 0x581 JUMPI DUP3 DUP8 ADD CALLDATALOAD SWAP1 POP JUMPDEST PUSH2 0x58B DUP6 DUP3 PUSH2 0x513 JUMP JUMPDEST DUP7 SSTORE POP PUSH2 0x5F2 JUMP JUMPDEST PUSH1 0x1F NOT DUP5 AND PUSH2 0x5A1 DUP7 PUSH2 0x38E JUMP JUMPDEST PUSH0 JUMPDEST DUP3 DUP2 LT ISZERO PUSH2 0x5C8 JUMPI DUP5 DUP10 ADD CALLDATALOAD DUP3 SSTORE PUSH1 0x1 DUP3 ADD SWAP2 POP PUSH1 0x20 DUP6 ADD SWAP5 POP PUSH1 0x20 DUP2 ADD SWAP1 POP PUSH2 0x5A3 JUMP JUMPDEST DUP7 DUP4 LT ISZERO PUSH2 0x5E5 JUMPI DUP5 DUP10 ADD CALLDATALOAD PUSH2 0x5E1 PUSH1 0x1F DUP10 AND DUP3 PUSH2 0x4F7 JUMP JUMPDEST DUP4 SSTORE POP JUMPDEST PUSH1 0x1 PUSH1 0x2 DUP9 MUL ADD DUP9 SSTORE POP POP POP JUMPDEST POP POP POP POP POP POP POP JUMP INVALID LOG2 PUSH5 0x6970667358 0x22 SLT KECCAK256 PUSH23 0xAEC5B412C210E3A9D97178F97652CA7D6D3F7731ECA33F 0x29 0xF BALANCE 0xD9 EXTCODESIZE 0xBA 0xAD 0xE PUSH5 0x736F6C6343 STOP ADDMOD 0x1E STOP CALLER "
		},
		"gasEstimates": {
			"creation": {
				"codeDepositCost": "317000",
				"executionCost": "353",
				"totalCost": "317353"
			},
			"external": {
				"age()": "2425",
				"name()": "infinite",
				"setProfile(string,uint256)": "infinite"
			}
		},
		"methodIdentifiers": {
			"age()": "262a9dff",
			"name()": "06fdde03",
			"setProfile(string,uint256)": "625fc535"
		}
	},
	"abi": [
		{
			"inputs": [],
			"name": "age",
			"outputs": [
				{
					"internalType": "uint256",
					"name": "",
					"type": "uint256"
				}
			],
			"stateMutability": "view",
			"type": "function"
		},
		{
			"inputs": [],
			"name": "name",
			"outputs": [
				{
					"internalType": "string",
					"name": "",
					"type": "string"
				}
			],
			"stateMutability": "view",
			"type": "function"
		},
		{
			"inputs": [
				{
					"internalType": "string",
					"name": "_name",
					"type": "string"
				},
				{
					"internalType": "uint256",
					"name": "_age",
					"type": "uint256"
				}
			],
			"name": "setProfile",
			"outputs": [],
			"stateMutability": "nonpayable",
			"type": "function"
		}
	]
}